{"contracts/OrderManager.sol":{"OrderManager":{"abi":[{"inputs":[],"stateMutability":"nonpayable","type":"constructor"},{"inputs":[],"name":"EnforcedPause","type":"error"},{"inputs":[],"name":"ExpectedPause","type":"error"},{"inputs":[],"name":"InvalidOrderData","type":"error"},{"inputs":[],"name":"InvalidStrategyType","type":"error"},{"inputs":[],"name":"OrderAlreadyCanceled","type":"error"},{"inputs":[],"name":"OrderAlreadyExists","type":"error"},{"inputs":[],"name":"OrderAlreadyFilled","type":"error"},{"inputs":[],"name":"OrderNotFound","type":"error"},{"inputs":[{"internalType":"address","name":"owner","type":"address"}],"name":"OwnableInvalidOwner","type":"error"},{"inputs":[{"internalType":"address","name":"account","type":"address"}],"name":"OwnableUnauthorizedAccount","type":"error"},{"inputs":[],"name":"ReentrancyGuardReentrantCall","type":"error"},{"inputs":[],"name":"StrategyNotFound","type":"error"},{"inputs":[],"name":"UnauthorizedBot","type":"error"},{"inputs":[],"name":"ZeroAddress","type":"error"},{"inputs":[],"name":"ZeroAmount","type":"error"},{"anonymous":false,"inputs":[{"indexed":true,"internalType":"address","name":"bot","type":"address"},{"indexed":true,"internalType":"address","name":"owner","type":"address"}],"name":"BotAuthorized","type":"event"},{"anonymous":false,"inputs":[{"indexed":true,"internalType":"address","name":"bot","type":"address"}],"name":"BotDeauthorized","type":"event"},{"anonymous":false,"inputs":[{"indexed":true,"internalType":"bytes32","name":"orderHash","type":"bytes32"},{"indexed":true,"internalType":"address","name":"bot","type":"address"},{"indexed":true,"internalType":"uint256","name":"orderIndex","type":"uint256"}],"name":"OrderCanceled","type":"event"},{"anonymous":false,"inputs":[{"indexed":true,"internalType":"bytes32","name":"orderHash","type":"bytes32"},{"indexed":true,"internalType":"address","name":"bot","type":"address"},{"indexed":true,"internalType":"uint256","name":"orderIndex","type":"uint256"},{"indexed":false,"internalType":"uint256","name":"filledAmount","type":"uint256"},{"indexed":false,"internalType":"uint256","name":"remainingAmount","type":"uint256"}],"name":"OrderFilled","type":"event"},{"anonymous":false,"inputs":[{"indexed":true,"internalType":"bytes32","name":"orderHash","type":"bytes32"},{"indexed":true,"internalType":"address","name":"bot","type":"address"},{"indexed":true,"internalType":"uint256","name":"orderIndex","type":"uint256"},{"indexed":false,"internalType":"address","name":"makerAsset","type":"address"},{"indexed":false,"internalType":"address","name":"takerAsset","type":"address"},{"indexed":false,"internalType":"uint256","name":"makingAmount","type":"uint256"},{"indexed":false,"internalType":"uint256","name":"takingAmount","type":"uint256"}],"name":"OrderRegistered","type":"event"},{"anonymous":false,"inputs":[{"indexed":true,"internalType":"address","name":"previousOwner","type":"address"},{"indexed":true,"internalType":"address","name":"newOwner","type":"address"}],"name":"OwnershipTransferred","type":"event"},{"anonymous":false,"inputs":[{"indexed":false,"internalType":"address","name":"account","type":"address"}],"name":"Paused","type":"event"},{"anonymous":false,"inputs":[{"indexed":true,"internalType":"address","name":"bot","type":"address"},{"indexed":true,"internalType":"address","name":"owner","type":"address"},{"indexed":true,"internalType":"uint256","name":"strategyType","type":"uint256"}],"name":"StrategyCreated","type":"event"},{"anonymous":false,"inputs":[{"indexed":true,"internalType":"address","name":"bot","type":"address"},{"indexed":false,"internalType":"uint256","name":"totalOrders","type":"uint256"},{"indexed":false,"internalType":"uint256","name":"activeOrders","type":"uint256"}],"name":"StrategyUpdated","type":"event"},{"anonymous":false,"inputs":[{"indexed":false,"internalType":"address","name":"account","type":"address"}],"name":"Unpaused","type":"event"},{"inputs":[{"internalType":"address","name":"bot","type":"address"}],"name":"authorizeBot","outputs":[],"stateMutability":"nonpayable","type":"function"},{"inputs":[{"internalType":"bytes32","name":"orderHash","type":"bytes32"}],"name":"cancelOrder","outputs":[],"stateMutability":"nonpayable","type":"function"},{"inputs":[{"internalType":"address","name":"bot","type":"address"},{"internalType":"address","name":"owner","type":"address"},{"internalType":"uint256","name":"strategyType","type":"uint256"}],"name":"createStrategy","outputs":[],"stateMutability":"nonpayable","type":"function"},{"inputs":[{"internalType":"address","name":"bot","type":"address"}],"name":"deauthorizeBot","outputs":[],"stateMutability":"nonpayable","type":"function"},{"inputs":[{"internalType":"address","name":"token","type":"address"},{"internalType":"address","name":"to","type":"address"},{"internalType":"uint256","name":"amount","type":"uint256"}],"name":"emergencyRecover","outputs":[],"stateMutability":"nonpayable","type":"function"},{"inputs":[{"internalType":"address","name":"bot","type":"address"}],"name":"getBotActiveOrders","outputs":[{"internalType":"bytes32[]","name":"orderHashes","type":"bytes32[]"}],"stateMutability":"view","type":"function"},{"inputs":[{"internalType":"address","name":"bot","type":"address"}],"name":"getBotOrderCount","outputs":[{"internalType":"uint256","name":"count","type":"uint256"}],"stateMutability":"view","type":"function"},{"inputs":[{"internalType":"address","name":"bot","type":"address"}],"name":"getBotOrders","outputs":[{"internalType":"bytes32[]","name":"orderHashes","type":"bytes32[]"}],"stateMutability":"view","type":"function"},{"inputs":[{"internalType":"bytes32","name":"orderHash","type":"bytes32"}],"name":"getOrderInfo","outputs":[{"components":[{"internalType":"bytes32","name":"orderHash","type":"bytes32"},{"internalType":"address","name":"bot","type":"address"},{"internalType":"address","name":"makerAsset","type":"address"},{"internalType":"address","name":"takerAsset","type":"address"},{"internalType":"uint256","name":"makingAmount","type":"uint256"},{"internalType":"uint256","name":"takingAmount","type":"uint256"},{"internalType":"uint256","name":"remainingAmount","type":"uint256"},{"internalType":"uint256","name":"orderIndex","type":"uint256"},{"internalType":"bool","name":"isActive","type":"bool"},{"internalType":"uint256","name":"createdAt","type":"uint256"},{"internalType":"uint256","name":"lastUpdated","type":"uint256"}],"internalType":"struct IOrderManager.OrderInfo","name":"orderInfo","type":"tuple"}],"stateMutability":"view","type":"function"},{"inputs":[{"internalType":"address","name":"bot","type":"address"}],"name":"getStrategyInfo","outputs":[{"components":[{"internalType":"address","name":"bot","type":"address"},{"internalType":"address","name":"owner","type":"address"},{"internalType":"uint256","name":"totalOrders","type":"uint256"},{"internalType":"uint256","name":"activeOrders","type":"uint256"},{"internalType":"uint256","name":"totalFilled","type":"uint256"},{"internalType":"uint256","name":"strategyType","type":"uint256"},{"internalType":"bool","name":"isActive","type":"bool"},{"internalType":"uint256","name":"createdAt","type":"uint256"},{"internalType":"uint256","name":"lastUpdated","type":"uint256"}],"internalType":"struct IOrderManager.StrategyInfo","name":"strategyInfo","type":"tuple"}],"stateMutability":"view","type":"function"},{"inputs":[{"internalType":"address","name":"bot","type":"address"}],"name":"isBotAuthorized","outputs":[{"internalType":"bool","name":"isAuthorized","type":"bool"}],"stateMutability":"view","type":"function"},{"inputs":[],"name":"owner","outputs":[{"internalType":"address","name":"","type":"address"}],"stateMutability":"view","type":"function"},{"inputs":[],"name":"pause","outputs":[],"stateMutability":"nonpayable","type":"function"},{"inputs":[],"name":"paused","outputs":[{"internalType":"bool","name":"","type":"bool"}],"stateMutability":"view","type":"function"},{"inputs":[{"internalType":"bytes32","name":"orderHash","type":"bytes32"},{"internalType":"address","name":"bot","type":"address"},{"internalType":"address","name":"makerAsset","type":"address"},{"internalType":"address","name":"takerAsset","type":"address"},{"internalType":"uint256","name":"makingAmount","type":"uint256"},{"internalType":"uint256","name":"takingAmount","type":"uint256"}],"name":"registerOrder","outputs":[{"internalType":"uint256","name":"orderIndex","type":"uint256"}],"stateMutability":"nonpayable","type":"function"},{"inputs":[],"name":"renounceOwnership","outputs":[],"stateMutability":"nonpayable","type":"function"},{"inputs":[{"internalType":"address","name":"newOwner","type":"address"}],"name":"transferOwnership","outputs":[],"stateMutability":"nonpayable","type":"function"},{"inputs":[],"name":"unpause","outputs":[],"stateMutability":"nonpayable","type":"function"},{"inputs":[{"internalType":"bytes32","name":"orderHash","type":"bytes32"},{"internalType":"uint256","name":"filledAmount","type":"uint256"},{"internalType":"uint256","name":"remainingAmount","type":"uint256"}],"name":"updateOrderFill","outputs":[],"stateMutability":"nonpayable","type":"function"},{"inputs":[{"internalType":"address","name":"bot","type":"address"},{"internalType":"uint256","name":"totalOrders","type":"uint256"},{"internalType":"uint256","name":"activeOrders","type":"uint256"}],"name":"updateStrategy","outputs":[],"stateMutability":"nonpayable","type":"function"}],"evm":{"bytecode":{"linkReferences":{},"object":"6080806040523461007e5733156100685760008054336001600160a01b03198216811783556040519290916001600160a01b0316907f8be0079c531659141344cd1fd0a4f28419497f9722a3daafe3b4186f6b6457e09080a3600180556114cc90816100848239f35b631e4fbdf760e01b815260006004820152602490fd5b600080fdfe608080604052600436101561001357600080fd5b60003560e01c908163074e7589146111cd575080633f4ba83a146111635780634be8f2dd1461100857806352f4955a14610f9657806354192ad514610e555780635c975abb14610e32578063644190b214610df3578063715018a614610d9a5780637489ec2314610c7b578063768c6ec014610ae95780638456cb5914610a7c57806389389f31146108ce5780638da5cb5b146108a5578063920e819114610838578063ad1329d1146106c6578063c12169711461064e578063c9f61200146105c6578063d8a1b9821461026d578063f2fde38b146101e45763fd8d68aa146100fb57600080fd5b346101df5760603660031901126101df57610114611203565b60243560443533600052600860205260ff60406000205416156101cd576001600160a01b039283169283156101bb5783600052600460205260406000205416156101a9577f36535b0d6c4df3e3f4a1bd7a4c8214552b30ab0d1ad28d4d9fefe157a7777c0e916040918460005260046020528260002082600282015581600382015560084291015582519182526020820152a2005b604051632df15a4160e11b8152600490fd5b60405163d92e233d60e01b8152600490fd5b604051630ad405b560e31b8152600490fd5b600080fd5b346101df5760203660031901126101df576101fd611203565b610205611289565b6001600160a01b0390811690811561025457600054826001600160601b0360a01b821617600055167f8be0079c531659141344cd1fd0a4f28419497f9722a3daafe3b4186f6b6457e0600080a3005b604051631e4fbdf760e01b815260006004820152602490fd5b346101df5760c03660031901126101df576024356001600160a01b03811681036101df57604435906001600160a01b03821682036101df57606435906001600160a01b03821682036101df5733600052600860205260ff60406000205416156101cd576001600160a01b038116156101bb576001600160a01b038316156101bb576001600160a01b038216156101bb57608435156105b45760a435156105b45760043560005260036020526040600020546105a2576001600160a01b03811660009081526008602052604090205460ff16156101cd5760209260018060a01b03821660005260078452604060002091825493849361036a856112b5565b9055604051610378816112f7565b6004358152600a87820160018060a01b0385168152604083019060018060a01b03871682526104836060850160018060a01b038716815260808601608435815260a0870160a435815260c0880190608435825260e08901928d84526101008a0194600186526101208b01974289526101408c0199428b5260043560005260206003905260406000209c518d5560018d019160018060a01b03905116916001600160601b0360a01b928382541617905560028d019060018060a01b039051168282541617905560038c019160018060a01b03905116908254161790555160048a0155516005890155516006880155516007870155511515600886019060ff801983541691151516179055565b5160098401555191015560018060a01b038216600052600586526104ad6004356040600020611364565b60018060a01b038216600052600686526104cd6004356040600020611364565b6001600160a01b0382811660009081526004885260409020805490911661054c575b50604080516001600160a01b039485168152918416878301526084359082015260a4356060820152911690600435907fee1aa1d3707407bb631c9778486cbde601bcb4e9d7c4531c80d14f7f9548eb3290608090a4604051908152f35b60020161055981546112b5565b90556001600160a01b038216600090815260048752604090206003018054610580906112b5565b905560018060a01b0382166000526004865242600860406000200155866104ef565b60405163966753c560e01b8152600490fd5b604051631f2a200560e01b8152600490fd5b346101df576020806003193601126101df576001600160a01b036105e8611203565b1660005260068152604060002090604051908181845491828152019360005281600020916000905b828210610637576106338561062781890382611314565b6040519182918261124e565b0390f35b835486529485019460019384019390910190610610565b346101df576020806003193601126101df576001600160a01b03610670611203565b1660005260058152604060002090604051908181845491828152019360005281600020916000905b8282106106af576106338561062781890382611314565b835486529485019460019384019390910190610698565b346101df576106d436611219565b91906106de611289565b6001600160a01b03169182156107ff5780156107c95760405190602082019363a9059cbb60e01b85526024830152604482015260448152608081019167ffffffffffffffff93828410858511176107ad576000809493819460405251925af1903d156107c3573d9081116107ad5760405190610764601f8201601f191660200183611314565b8152600060203d92013e5b1561077657005b60405162461bcd60e51b815260206004820152600f60248201526e151c985b9cd9995c8819985a5b1959608a1b6044820152606490fd5b634e487b7160e01b600052604160045260246000fd5b5061076f565b60405162461bcd60e51b815260206004820152600e60248201526d125b9d985b1a5908185b5bdd5b9d60921b6044820152606490fd5b60405162461bcd60e51b8152602060048201526011602482015270125b9d985b1a59081c9958da5c1a595b9d607a1b6044820152606490fd5b346101df5760203660031901126101df57610851611203565b610859611289565b6001600160a01b031680156101bb57806000526008602052604060002060ff1981541690557fa067ace0f2904a5314091fb13f6f051e162aabe24c0d08105f638c855cf3ad10600080a2005b346101df5760003660031901126101df576000546040516001600160a01b039091168152602090f35b346101df5760603660031901126101df5760043560243560443591336000526020926008845260ff60406000205416156101cd57816000526003845260406000205415610a6a57816000526003845260ff6008604060002001541615610a5857816000526003845260406000209260048401548111610a465760068401908154808411610a465761095f84836113a7565b03610a4657827f614e4dc0454aa3dc8fe902ff7c1c7707d1a77b58bd0f0f1468eefbc413beb60c936040935542600a87015560076001870160018060a01b03908181541660005260048a528560002082815416610a1c575b5083156109d0575b5416960154968351928352820152a4005b6008890160ff1981541690556109e988838354166113c1565b8181541660005260048a528560002082815416610a07575b506109bf565b600301610a1481546113b4565b90558a610a01565b600401610a2a8682546113a7565b90558181541660005260048a524260088760002001558a6109b7565b60405163a342e7d960e01b8152600490fd5b604051630a911f0960e01b8152600490fd5b60405163d36d896560e01b8152600490fd5b346101df5760003660031901126101df57610a95611289565b60025460ff8116610ad75760019060ff1916176002557f62e78cea01bee320cd4e420270b5ea74000d11b0c9f74754ebdbfc544b05a2586020604051338152a1005b60405163d93c066560e01b8152600490fd5b346101df5760203660031901126101df576000610140604051610b0b816112f7565b8281528260208201528260408201528260608201528260808201528260a08201528260c08201528260e0820152826101008201528261012082015201526004356000526003602052604060002060405190610b65826112f7565b805480835260018201546001600160a01b039081166020850152600283015481166040850152600383015416606084015260048201546080840152600582015460a0840152600682015460c0840152600782015460e0840152600882015460ff1615156101008401526009820154610120840152600a9091015461014083015215610a6a5761016090610140604051918051835260018060a01b03602082015116602084015260018060a01b03604082015116604084015260018060a01b0360608201511660608401526080810151608084015260a081015160a084015260c081015160c084015260e081015160e084015261010081015115156101008401526101208101516101208401520151610140820152f35b346101df576020806003193601126101df5760043590336000526008815260ff60406000205416156101cd57816000526003815260406000205415610a6a57816000526003815260ff6008604060002001541615610a585781600052600381526040600020906001820160018060a01b03908181541692836000526008815260ff60406000205416156101cd57610d26866007956008880160ff19815416905542600a8901556113c1565b828254166000526004815260406000209083825416610d6f575b50505416910154917f2d024375178dc62f5a52bcf585355a323a5a60d6155554e4457d68e842757d2e600080a4005b600360049201610d7f81546113b4565b90558383541660005252426008604060002001558580610d40565b346101df5760003660031901126101df57610db3611289565b600080546001600160a01b0319811682556001600160a01b03167f8be0079c531659141344cd1fd0a4f28419497f9722a3daafe3b4186f6b6457e08280a3005b346101df5760203660031901126101df576001600160a01b03610e14611203565b166000526008602052602060ff604060002054166040519015158152f35b346101df5760003660031901126101df57602060ff600254166040519015158152f35b346101df5760203660031901126101df57610e6e611203565b604051610e7a816112da565b6000815260006020820152600060408201526000606082015260006080820152600060a0820152600060c0820152600060e082015260006101008092015260018060a01b03809216600052600460205260406000209060405191610edd836112da565b83815416908184528460018201541694602085019586526002820154604086019081526003830154606087019081526004840154906080880191825260058501549260a0890193845260ff6006870154169460c08a019515158652600860078801549760e08c01988952015497898b01988952156101a9576101209a816040519b51168b52511660208a01525160408901525160608801525160808701525160a086015251151560c08501525160e08401525190820152f35b346101df5760203660031901126101df57610faf611203565b610fb7611289565b6001600160a01b031680156101bb578060005260086020526040600020600160ff1982541617905533907f078d25893e57aa53b1392c7ddd72fd4a82ae6eff1cd4a797c2067c786484c2c3600080a3005b346101df5761101636611219565b919033600052600860205260ff60406000205416156101cd576001600160a01b039182169081156101bb5782169182156101bb57600284116111515781600052600460205280604060002054166101a9576008604051611075816112da565b8381526020810185815261112060408301600081526060840160008152608085016000815260a08601918b835260c08701936001855260e0880196428852610100890198428a528c60005260046020528b60406000209c8d9251166001600160601b0360a01b80935416178d5560018d01925116908254161790555160028a0155516003890155516004880155516005870155511515600686019060ff801983541691151516179055565b516007840155519101557f41f09bd746318ca934a52e7ea3d080006246327e5078507ef27a579763cba54c600080a4005b604051634752c14960e01b8152600490fd5b346101df5760003660031901126101df5761117c611289565b60025460ff8116156111bb5760ff19166002557f5db9ee0a495bf2e6ff9c91a7834c1ba4fdd244a5e8aa4e537bd38aeae4b073aa6020604051338152a1005b604051638dfc202b60e01b8152600490fd5b346101df5760203660031901126101df576020906001600160a01b036111f1611203565b16600052600782526040600020548152f35b600435906001600160a01b03821682036101df57565b60609060031901126101df576001600160a01b039060043582811681036101df579160243590811681036101df579060443590565b6020908160408183019282815285518094520193019160005b828110611275575050505090565b835185529381019392810192600101611267565b6000546001600160a01b0316330361129d57565b60405163118cdaa760e01b8152336004820152602490fd5b60001981146112c45760010190565b634e487b7160e01b600052601160045260246000fd5b610120810190811067ffffffffffffffff8211176107ad57604052565b610160810190811067ffffffffffffffff8211176107ad57604052565b90601f8019910116810190811067ffffffffffffffff8211176107ad57604052565b805482101561134e5760005260206000200190600090565b634e487b7160e01b600052603260045260246000fd5b90815491680100000000000000008310156107ad578261138c9160016113a595018155611336565b90919082549060031b91821b91600019901b1916179055565b565b919082018092116112c457565b80156112c4576000190190565b6001600160a01b03166000908152600660205260408120909190825b81548082101561148f5783906113f38385611336565b929054600393841b1c1461141157505061140c906112b5565b6113dd565b92935093906000199283810190811161147b579061138c6114356114429387611336565b905490881b1c9186611336565b825490811561146757508101926114598484611336565b81939154921b1b1916905555565b634e487b7160e01b81526031600452602490fd5b634e487b7160e01b83526011600452602483fd5b505050505056fea264697066735822122084adfcd45524c31513ddce6232a86fe2fa98a6ccb61b995b9f779694e75f32ac64736f6c63430008140033","opcodes":"PUSH1 0x80 DUP1 PUSH1 0x40 MSTORE CALLVALUE PUSH2 0x7E JUMPI CALLER ISZERO PUSH2 0x68 JUMPI PUSH1 0x0 DUP1 SLOAD CALLER PUSH1 0x1 PUSH1 0x1 PUSH1 0xA0 SHL SUB NOT DUP3 AND DUP2 OR DUP4 SSTORE PUSH1 0x40 MLOAD SWAP3 SWAP1 SWAP2 PUSH1 0x1 PUSH1 0x1 PUSH1 0xA0 SHL SUB AND SWAP1 PUSH32 0x8BE0079C531659141344CD1FD0A4F28419497F9722A3DAAFE3B4186F6B6457E0 SWAP1 DUP1 LOG3 PUSH1 0x1 DUP1 SSTORE PUSH2 0x14CC SWAP1 DUP2 PUSH2 0x84 DUP3 CODECOPY RETURN JUMPDEST PUSH4 0x1E4FBDF7 PUSH1 0xE0 SHL DUP2 MSTORE PUSH1 0x0 PUSH1 0x4 DUP3 ADD MSTORE PUSH1 0x24 SWAP1 REVERT JUMPDEST PUSH1 0x0 DUP1 REVERT INVALID PUSH1 0x80 DUP1 PUSH1 0x40 MSTORE PUSH1 0x4 CALLDATASIZE LT ISZERO PUSH2 0x13 JUMPI PUSH1 0x0 DUP1 REVERT JUMPDEST PUSH1 0x0 CALLDATALOAD PUSH1 0xE0 SHR SWAP1 DUP2 PUSH4 0x74E7589 EQ PUSH2 0x11CD JUMPI POP DUP1 PUSH4 0x3F4BA83A EQ PUSH2 0x1163 JUMPI DUP1 PUSH4 0x4BE8F2DD EQ PUSH2 0x1008 JUMPI DUP1 PUSH4 0x52F4955A EQ PUSH2 0xF96 JUMPI DUP1 PUSH4 0x54192AD5 EQ PUSH2 0xE55 JUMPI DUP1 PUSH4 0x5C975ABB EQ PUSH2 0xE32 JUMPI DUP1 PUSH4 0x644190B2 EQ PUSH2 0xDF3 JUMPI DUP1 PUSH4 0x715018A6 EQ PUSH2 0xD9A JUMPI DUP1 PUSH4 0x7489EC23 EQ PUSH2 0xC7B JUMPI DUP1 PUSH4 0x768C6EC0 EQ PUSH2 0xAE9 JUMPI DUP1 PUSH4 0x8456CB59 EQ PUSH2 0xA7C JUMPI DUP1 PUSH4 0x89389F31 EQ PUSH2 0x8CE JUMPI DUP1 PUSH4 0x8DA5CB5B EQ PUSH2 0x8A5 JUMPI DUP1 PUSH4 0x920E8191 EQ PUSH2 0x838 JUMPI DUP1 PUSH4 0xAD1329D1 EQ PUSH2 0x6C6 JUMPI DUP1 PUSH4 0xC1216971 EQ PUSH2 0x64E JUMPI DUP1 PUSH4 0xC9F61200 EQ PUSH2 0x5C6 JUMPI DUP1 PUSH4 0xD8A1B982 EQ PUSH2 0x26D JUMPI DUP1 PUSH4 0xF2FDE38B EQ PUSH2 0x1E4 JUMPI PUSH4 0xFD8D68AA EQ PUSH2 0xFB JUMPI PUSH1 0x0 DUP1 REVERT JUMPDEST CALLVALUE PUSH2 0x1DF JUMPI PUSH1 0x60 CALLDATASIZE PUSH1 0x3 NOT ADD SLT PUSH2 0x1DF JUMPI PUSH2 0x114 PUSH2 0x1203 JUMP JUMPDEST PUSH1 0x24 CALLDATALOAD PUSH1 0x44 CALLDATALOAD CALLER PUSH1 0x0 MSTORE PUSH1 0x8 PUSH1 0x20 MSTORE PUSH1 0xFF PUSH1 0x40 PUSH1 0x0 KECCAK256 SLOAD AND ISZERO PUSH2 0x1CD JUMPI PUSH1 0x1 PUSH1 0x1 PUSH1 0xA0 SHL SUB SWAP3 DUP4 AND SWAP3 DUP4 ISZERO PUSH2 0x1BB JUMPI DUP4 PUSH1 0x0 MSTORE PUSH1 0x4 PUSH1 0x20 MSTORE PUSH1 0x40 PUSH1 0x0 KECCAK256 SLOAD AND ISZERO PUSH2 0x1A9 JUMPI PUSH32 0x36535B0D6C4DF3E3F4A1BD7A4C8214552B30AB0D1AD28D4D9FEFE157A7777C0E SWAP2 PUSH1 0x40 SWAP2 DUP5 PUSH1 0x0 MSTORE PUSH1 0x4 PUSH1 0x20 MSTORE DUP3 PUSH1 0x0 KECCAK256 DUP3 PUSH1 0x2 DUP3 ADD SSTORE DUP2 PUSH1 0x3 DUP3 ADD SSTORE PUSH1 0x8 TIMESTAMP SWAP2 ADD SSTORE DUP3 MLOAD SWAP2 DUP3 MSTORE PUSH1 0x20 DUP3 ADD MSTORE LOG2 STOP JUMPDEST PUSH1 0x40 MLOAD PUSH4 0x2DF15A41 PUSH1 0xE1 SHL DUP2 MSTORE PUSH1 0x4 SWAP1 REVERT JUMPDEST PUSH1 0x40 MLOAD PUSH4 0xD92E233D PUSH1 0xE0 SHL DUP2 MSTORE PUSH1 0x4 SWAP1 REVERT JUMPDEST PUSH1 0x40 MLOAD PUSH4 0xAD405B5 PUSH1 0xE3 SHL DUP2 MSTORE PUSH1 0x4 SWAP1 REVERT JUMPDEST PUSH1 0x0 DUP1 REVERT JUMPDEST CALLVALUE PUSH2 0x1DF JUMPI PUSH1 0x20 CALLDATASIZE PUSH1 0x3 NOT ADD SLT PUSH2 0x1DF JUMPI PUSH2 0x1FD PUSH2 0x1203 JUMP JUMPDEST PUSH2 0x205 PUSH2 0x1289 JUMP JUMPDEST PUSH1 0x1 PUSH1 0x1 PUSH1 0xA0 SHL SUB SWAP1 DUP2 AND SWAP1 DUP2 ISZERO PUSH2 0x254 JUMPI PUSH1 0x0 SLOAD DUP3 PUSH1 0x1 PUSH1 0x1 PUSH1 0x60 SHL SUB PUSH1 0xA0 SHL DUP3 AND OR PUSH1 0x0 SSTORE AND PUSH32 0x8BE0079C531659141344CD1FD0A4F28419497F9722A3DAAFE3B4186F6B6457E0 PUSH1 0x0 DUP1 LOG3 STOP JUMPDEST PUSH1 0x40 MLOAD PUSH4 0x1E4FBDF7 PUSH1 0xE0 SHL DUP2 MSTORE PUSH1 0x0 PUSH1 0x4 DUP3 ADD MSTORE PUSH1 0x24 SWAP1 REVERT JUMPDEST CALLVALUE PUSH2 0x1DF JUMPI PUSH1 0xC0 CALLDATASIZE PUSH1 0x3 NOT ADD SLT PUSH2 0x1DF JUMPI PUSH1 0x24 CALLDATALOAD PUSH1 0x1 PUSH1 0x1 PUSH1 0xA0 SHL SUB DUP2 AND DUP2 SUB PUSH2 0x1DF JUMPI PUSH1 0x44 CALLDATALOAD SWAP1 PUSH1 0x1 PUSH1 0x1 PUSH1 0xA0 SHL SUB DUP3 AND DUP3 SUB PUSH2 0x1DF JUMPI PUSH1 0x64 CALLDATALOAD SWAP1 PUSH1 0x1 PUSH1 0x1 PUSH1 0xA0 SHL SUB DUP3 AND DUP3 SUB PUSH2 0x1DF JUMPI CALLER PUSH1 0x0 MSTORE PUSH1 0x8 PUSH1 0x20 MSTORE PUSH1 0xFF PUSH1 0x40 PUSH1 0x0 KECCAK256 SLOAD AND ISZERO PUSH2 0x1CD JUMPI PUSH1 0x1 PUSH1 0x1 PUSH1 0xA0 SHL SUB DUP2 AND ISZERO PUSH2 0x1BB JUMPI PUSH1 0x1 PUSH1 0x1 PUSH1 0xA0 SHL SUB DUP4 AND ISZERO PUSH2 0x1BB JUMPI PUSH1 0x1 PUSH1 0x1 PUSH1 0xA0 SHL SUB DUP3 AND ISZERO PUSH2 0x1BB JUMPI PUSH1 0x84 CALLDATALOAD ISZERO PUSH2 0x5B4 JUMPI PUSH1 0xA4 CALLDATALOAD ISZERO PUSH2 0x5B4 JUMPI PUSH1 0x4 CALLDATALOAD PUSH1 0x0 MSTORE PUSH1 0x3 PUSH1 0x20 MSTORE PUSH1 0x40 PUSH1 0x0 KECCAK256 SLOAD PUSH2 0x5A2 JUMPI PUSH1 0x1 PUSH1 0x1 PUSH1 0xA0 SHL SUB DUP2 AND PUSH1 0x0 SWAP1 DUP2 MSTORE PUSH1 0x8 PUSH1 0x20 MSTORE PUSH1 0x40 SWAP1 KECCAK256 SLOAD PUSH1 0xFF AND ISZERO PUSH2 0x1CD JUMPI PUSH1 0x20 SWAP3 PUSH1 0x1 DUP1 PUSH1 0xA0 SHL SUB DUP3 AND PUSH1 0x0 MSTORE PUSH1 0x7 DUP5 MSTORE PUSH1 0x40 PUSH1 0x0 KECCAK256 SWAP2 DUP3 SLOAD SWAP4 DUP5 SWAP4 PUSH2 0x36A DUP6 PUSH2 0x12B5 JUMP JUMPDEST SWAP1 SSTORE PUSH1 0x40 MLOAD PUSH2 0x378 DUP2 PUSH2 0x12F7 JUMP JUMPDEST PUSH1 0x4 CALLDATALOAD DUP2 MSTORE PUSH1 0xA DUP8 DUP3 ADD PUSH1 0x1 DUP1 PUSH1 0xA0 SHL SUB DUP6 AND DUP2 MSTORE PUSH1 0x40 DUP4 ADD SWAP1 PUSH1 0x1 DUP1 PUSH1 0xA0 SHL SUB DUP8 AND DUP3 MSTORE PUSH2 0x483 PUSH1 0x60 DUP6 ADD PUSH1 0x1 DUP1 PUSH1 0xA0 SHL SUB DUP8 AND DUP2 MSTORE PUSH1 0x80 DUP7 ADD PUSH1 0x84 CALLDATALOAD DUP2 MSTORE PUSH1 0xA0 DUP8 ADD PUSH1 0xA4 CALLDATALOAD DUP2 MSTORE PUSH1 0xC0 DUP9 ADD SWAP1 PUSH1 0x84 CALLDATALOAD DUP3 MSTORE PUSH1 0xE0 DUP10 ADD SWAP3 DUP14 DUP5 MSTORE PUSH2 0x100 DUP11 ADD SWAP5 PUSH1 0x1 DUP7 MSTORE PUSH2 0x120 DUP12 ADD SWAP8 TIMESTAMP DUP10 MSTORE PUSH2 0x140 DUP13 ADD SWAP10 TIMESTAMP DUP12 MSTORE PUSH1 0x4 CALLDATALOAD PUSH1 0x0 MSTORE PUSH1 0x20 PUSH1 0x3 SWAP1 MSTORE PUSH1 0x40 PUSH1 0x0 KECCAK256 SWAP13 MLOAD DUP14 SSTORE PUSH1 0x1 DUP14 ADD SWAP2 PUSH1 0x1 DUP1 PUSH1 0xA0 SHL SUB SWAP1 MLOAD AND SWAP2 PUSH1 0x1 PUSH1 0x1 PUSH1 0x60 SHL SUB PUSH1 0xA0 SHL SWAP3 DUP4 DUP3 SLOAD AND OR SWAP1 SSTORE PUSH1 0x2 DUP14 ADD SWAP1 PUSH1 0x1 DUP1 PUSH1 0xA0 SHL SUB SWAP1 MLOAD AND DUP3 DUP3 SLOAD AND OR SWAP1 SSTORE PUSH1 0x3 DUP13 ADD SWAP2 PUSH1 0x1 DUP1 PUSH1 0xA0 SHL SUB SWAP1 MLOAD AND SWAP1 DUP3 SLOAD AND OR SWAP1 SSTORE MLOAD PUSH1 0x4 DUP11 ADD SSTORE MLOAD PUSH1 0x5 DUP10 ADD SSTORE MLOAD PUSH1 0x6 DUP9 ADD SSTORE MLOAD PUSH1 0x7 DUP8 ADD SSTORE MLOAD ISZERO ISZERO PUSH1 0x8 DUP7 ADD SWAP1 PUSH1 0xFF DUP1 NOT DUP4 SLOAD AND SWAP2 ISZERO ISZERO AND OR SWAP1 SSTORE JUMP JUMPDEST MLOAD PUSH1 0x9 DUP5 ADD SSTORE MLOAD SWAP2 ADD SSTORE PUSH1 0x1 DUP1 PUSH1 0xA0 SHL SUB DUP3 AND PUSH1 0x0 MSTORE PUSH1 0x5 DUP7 MSTORE PUSH2 0x4AD PUSH1 0x4 CALLDATALOAD PUSH1 0x40 PUSH1 0x0 KECCAK256 PUSH2 0x1364 JUMP JUMPDEST PUSH1 0x1 DUP1 PUSH1 0xA0 SHL SUB DUP3 AND PUSH1 0x0 MSTORE PUSH1 0x6 DUP7 MSTORE PUSH2 0x4CD PUSH1 0x4 CALLDATALOAD PUSH1 0x40 PUSH1 0x0 KECCAK256 PUSH2 0x1364 JUMP JUMPDEST PUSH1 0x1 PUSH1 0x1 PUSH1 0xA0 SHL SUB DUP3 DUP2 AND PUSH1 0x0 SWAP1 DUP2 MSTORE PUSH1 0x4 DUP9 MSTORE PUSH1 0x40 SWAP1 KECCAK256 DUP1 SLOAD SWAP1 SWAP2 AND PUSH2 0x54C JUMPI JUMPDEST POP PUSH1 0x40 DUP1 MLOAD PUSH1 0x1 PUSH1 0x1 PUSH1 0xA0 SHL SUB SWAP5 DUP6 AND DUP2 MSTORE SWAP2 DUP5 AND DUP8 DUP4 ADD MSTORE PUSH1 0x84 CALLDATALOAD SWAP1 DUP3 ADD MSTORE PUSH1 0xA4 CALLDATALOAD PUSH1 0x60 DUP3 ADD MSTORE SWAP2 AND SWAP1 PUSH1 0x4 CALLDATALOAD SWAP1 PUSH32 0xEE1AA1D3707407BB631C9778486CBDE601BCB4E9D7C4531C80D14F7F9548EB32 SWAP1 PUSH1 0x80 SWAP1 LOG4 PUSH1 0x40 MLOAD SWAP1 DUP2 MSTORE RETURN JUMPDEST PUSH1 0x2 ADD PUSH2 0x559 DUP2 SLOAD PUSH2 0x12B5 JUMP JUMPDEST SWAP1 SSTORE PUSH1 0x1 PUSH1 0x1 PUSH1 0xA0 SHL SUB DUP3 AND PUSH1 0x0 SWAP1 DUP2 MSTORE PUSH1 0x4 DUP8 MSTORE PUSH1 0x40 SWAP1 KECCAK256 PUSH1 0x3 ADD DUP1 SLOAD PUSH2 0x580 SWAP1 PUSH2 0x12B5 JUMP JUMPDEST SWAP1 SSTORE PUSH1 0x1 DUP1 PUSH1 0xA0 SHL SUB DUP3 AND PUSH1 0x0 MSTORE PUSH1 0x4 DUP7 MSTORE TIMESTAMP PUSH1 0x8 PUSH1 0x40 PUSH1 0x0 KECCAK256 ADD SSTORE DUP7 PUSH2 0x4EF JUMP JUMPDEST PUSH1 0x40 MLOAD PUSH4 0x966753C5 PUSH1 0xE0 SHL DUP2 MSTORE PUSH1 0x4 SWAP1 REVERT JUMPDEST PUSH1 0x40 MLOAD PUSH4 0x1F2A2005 PUSH1 0xE0 SHL DUP2 MSTORE PUSH1 0x4 SWAP1 REVERT JUMPDEST CALLVALUE PUSH2 0x1DF JUMPI PUSH1 0x20 DUP1 PUSH1 0x3 NOT CALLDATASIZE ADD SLT PUSH2 0x1DF JUMPI PUSH1 0x1 PUSH1 0x1 PUSH1 0xA0 SHL SUB PUSH2 0x5E8 PUSH2 0x1203 JUMP JUMPDEST AND PUSH1 0x0 MSTORE PUSH1 0x6 DUP2 MSTORE PUSH1 0x40 PUSH1 0x0 KECCAK256 SWAP1 PUSH1 0x40 MLOAD SWAP1 DUP2 DUP2 DUP5 SLOAD SWAP2 DUP3 DUP2 MSTORE ADD SWAP4 PUSH1 0x0 MSTORE DUP2 PUSH1 0x0 KECCAK256 SWAP2 PUSH1 0x0 SWAP1 JUMPDEST DUP3 DUP3 LT PUSH2 0x637 JUMPI PUSH2 0x633 DUP6 PUSH2 0x627 DUP2 DUP10 SUB DUP3 PUSH2 0x1314 JUMP JUMPDEST PUSH1 0x40 MLOAD SWAP2 DUP3 SWAP2 DUP3 PUSH2 0x124E JUMP JUMPDEST SUB SWAP1 RETURN JUMPDEST DUP4 SLOAD DUP7 MSTORE SWAP5 DUP6 ADD SWAP5 PUSH1 0x1 SWAP4 DUP5 ADD SWAP4 SWAP1 SWAP2 ADD SWAP1 PUSH2 0x610 JUMP JUMPDEST CALLVALUE PUSH2 0x1DF JUMPI PUSH1 0x20 DUP1 PUSH1 0x3 NOT CALLDATASIZE ADD SLT PUSH2 0x1DF JUMPI PUSH1 0x1 PUSH1 0x1 PUSH1 0xA0 SHL SUB PUSH2 0x670 PUSH2 0x1203 JUMP JUMPDEST AND PUSH1 0x0 MSTORE PUSH1 0x5 DUP2 MSTORE PUSH1 0x40 PUSH1 0x0 KECCAK256 SWAP1 PUSH1 0x40 MLOAD SWAP1 DUP2 DUP2 DUP5 SLOAD SWAP2 DUP3 DUP2 MSTORE ADD SWAP4 PUSH1 0x0 MSTORE DUP2 PUSH1 0x0 KECCAK256 SWAP2 PUSH1 0x0 SWAP1 JUMPDEST DUP3 DUP3 LT PUSH2 0x6AF JUMPI PUSH2 0x633 DUP6 PUSH2 0x627 DUP2 DUP10 SUB DUP3 PUSH2 0x1314 JUMP JUMPDEST DUP4 SLOAD DUP7 MSTORE SWAP5 DUP6 ADD SWAP5 PUSH1 0x1 SWAP4 DUP5 ADD SWAP4 SWAP1 SWAP2 ADD SWAP1 PUSH2 0x698 JUMP JUMPDEST CALLVALUE PUSH2 0x1DF JUMPI PUSH2 0x6D4 CALLDATASIZE PUSH2 0x1219 JUMP JUMPDEST SWAP2 SWAP1 PUSH2 0x6DE PUSH2 0x1289 JUMP JUMPDEST PUSH1 0x1 PUSH1 0x1 PUSH1 0xA0 SHL SUB AND SWAP2 DUP3 ISZERO PUSH2 0x7FF JUMPI DUP1 ISZERO PUSH2 0x7C9 JUMPI PUSH1 0x40 MLOAD SWAP1 PUSH1 0x20 DUP3 ADD SWAP4 PUSH4 0xA9059CBB PUSH1 0xE0 SHL DUP6 MSTORE PUSH1 0x24 DUP4 ADD MSTORE PUSH1 0x44 DUP3 ADD MSTORE PUSH1 0x44 DUP2 MSTORE PUSH1 0x80 DUP2 ADD SWAP2 PUSH8 0xFFFFFFFFFFFFFFFF SWAP4 DUP3 DUP5 LT DUP6 DUP6 GT OR PUSH2 0x7AD JUMPI PUSH1 0x0 DUP1 SWAP5 SWAP4 DUP2 SWAP5 PUSH1 0x40 MSTORE MLOAD SWAP3 GAS CALL SWAP1 RETURNDATASIZE ISZERO PUSH2 0x7C3 JUMPI RETURNDATASIZE SWAP1 DUP2 GT PUSH2 0x7AD JUMPI PUSH1 0x40 MLOAD SWAP1 PUSH2 0x764 PUSH1 0x1F DUP3 ADD PUSH1 0x1F NOT AND PUSH1 0x20 ADD DUP4 PUSH2 0x1314 JUMP JUMPDEST DUP2 MSTORE PUSH1 0x0 PUSH1 0x20 RETURNDATASIZE SWAP3 ADD RETURNDATACOPY JUMPDEST ISZERO PUSH2 0x776 JUMPI STOP JUMPDEST PUSH1 0x40 MLOAD PUSH3 0x461BCD PUSH1 0xE5 SHL DUP2 MSTORE PUSH1 0x20 PUSH1 0x4 DUP3 ADD MSTORE PUSH1 0xF PUSH1 0x24 DUP3 ADD MSTORE PUSH15 0x151C985B9CD9995C8819985A5B1959 PUSH1 0x8A SHL PUSH1 0x44 DUP3 ADD MSTORE PUSH1 0x64 SWAP1 REVERT JUMPDEST PUSH4 0x4E487B71 PUSH1 0xE0 SHL PUSH1 0x0 MSTORE PUSH1 0x41 PUSH1 0x4 MSTORE PUSH1 0x24 PUSH1 0x0 REVERT JUMPDEST POP PUSH2 0x76F JUMP JUMPDEST PUSH1 0x40 MLOAD PUSH3 0x461BCD PUSH1 0xE5 SHL DUP2 MSTORE PUSH1 0x20 PUSH1 0x4 DUP3 ADD MSTORE PUSH1 0xE PUSH1 0x24 DUP3 ADD MSTORE PUSH14 0x125B9D985B1A5908185B5BDD5B9D PUSH1 0x92 SHL PUSH1 0x44 DUP3 ADD MSTORE PUSH1 0x64 SWAP1 REVERT JUMPDEST PUSH1 0x40 MLOAD PUSH3 0x461BCD PUSH1 0xE5 SHL DUP2 MSTORE PUSH1 0x20 PUSH1 0x4 DUP3 ADD MSTORE PUSH1 0x11 PUSH1 0x24 DUP3 ADD MSTORE PUSH17 0x125B9D985B1A59081C9958DA5C1A595B9D PUSH1 0x7A SHL PUSH1 0x44 DUP3 ADD MSTORE PUSH1 0x64 SWAP1 REVERT JUMPDEST CALLVALUE PUSH2 0x1DF JUMPI PUSH1 0x20 CALLDATASIZE PUSH1 0x3 NOT ADD SLT PUSH2 0x1DF JUMPI PUSH2 0x851 PUSH2 0x1203 JUMP JUMPDEST PUSH2 0x859 PUSH2 0x1289 JUMP JUMPDEST PUSH1 0x1 PUSH1 0x1 PUSH1 0xA0 SHL SUB AND DUP1 ISZERO PUSH2 0x1BB JUMPI DUP1 PUSH1 0x0 MSTORE PUSH1 0x8 PUSH1 0x20 MSTORE PUSH1 0x40 PUSH1 0x0 KECCAK256 PUSH1 0xFF NOT DUP2 SLOAD AND SWAP1 SSTORE PUSH32 0xA067ACE0F2904A5314091FB13F6F051E162AABE24C0D08105F638C855CF3AD10 PUSH1 0x0 DUP1 LOG2 STOP JUMPDEST CALLVALUE PUSH2 0x1DF JUMPI PUSH1 0x0 CALLDATASIZE PUSH1 0x3 NOT ADD SLT PUSH2 0x1DF JUMPI PUSH1 0x0 SLOAD PUSH1 0x40 MLOAD PUSH1 0x1 PUSH1 0x1 PUSH1 0xA0 SHL SUB SWAP1 SWAP2 AND DUP2 MSTORE PUSH1 0x20 SWAP1 RETURN JUMPDEST CALLVALUE PUSH2 0x1DF JUMPI PUSH1 0x60 CALLDATASIZE PUSH1 0x3 NOT ADD SLT PUSH2 0x1DF JUMPI PUSH1 0x4 CALLDATALOAD PUSH1 0x24 CALLDATALOAD PUSH1 0x44 CALLDATALOAD SWAP2 CALLER PUSH1 0x0 MSTORE PUSH1 0x20 SWAP3 PUSH1 0x8 DUP5 MSTORE PUSH1 0xFF PUSH1 0x40 PUSH1 0x0 KECCAK256 SLOAD AND ISZERO PUSH2 0x1CD JUMPI DUP2 PUSH1 0x0 MSTORE PUSH1 0x3 DUP5 MSTORE PUSH1 0x40 PUSH1 0x0 KECCAK256 SLOAD ISZERO PUSH2 0xA6A JUMPI DUP2 PUSH1 0x0 MSTORE PUSH1 0x3 DUP5 MSTORE PUSH1 0xFF PUSH1 0x8 PUSH1 0x40 PUSH1 0x0 KECCAK256 ADD SLOAD AND ISZERO PUSH2 0xA58 JUMPI DUP2 PUSH1 0x0 MSTORE PUSH1 0x3 DUP5 MSTORE PUSH1 0x40 PUSH1 0x0 KECCAK256 SWAP3 PUSH1 0x4 DUP5 ADD SLOAD DUP2 GT PUSH2 0xA46 JUMPI PUSH1 0x6 DUP5 ADD SWAP1 DUP2 SLOAD DUP1 DUP5 GT PUSH2 0xA46 JUMPI PUSH2 0x95F DUP5 DUP4 PUSH2 0x13A7 JUMP JUMPDEST SUB PUSH2 0xA46 JUMPI DUP3 PUSH32 0x614E4DC0454AA3DC8FE902FF7C1C7707D1A77B58BD0F0F1468EEFBC413BEB60C SWAP4 PUSH1 0x40 SWAP4 SSTORE TIMESTAMP PUSH1 0xA DUP8 ADD SSTORE PUSH1 0x7 PUSH1 0x1 DUP8 ADD PUSH1 0x1 DUP1 PUSH1 0xA0 SHL SUB SWAP1 DUP2 DUP2 SLOAD AND PUSH1 0x0 MSTORE PUSH1 0x4 DUP11 MSTORE DUP6 PUSH1 0x0 KECCAK256 DUP3 DUP2 SLOAD AND PUSH2 0xA1C JUMPI JUMPDEST POP DUP4 ISZERO PUSH2 0x9D0 JUMPI JUMPDEST SLOAD AND SWAP7 ADD SLOAD SWAP7 DUP4 MLOAD SWAP3 DUP4 MSTORE DUP3 ADD MSTORE LOG4 STOP JUMPDEST PUSH1 0x8 DUP10 ADD PUSH1 0xFF NOT DUP2 SLOAD AND SWAP1 SSTORE PUSH2 0x9E9 DUP9 DUP4 DUP4 SLOAD AND PUSH2 0x13C1 JUMP JUMPDEST DUP2 DUP2 SLOAD AND PUSH1 0x0 MSTORE PUSH1 0x4 DUP11 MSTORE DUP6 PUSH1 0x0 KECCAK256 DUP3 DUP2 SLOAD AND PUSH2 0xA07 JUMPI JUMPDEST POP PUSH2 0x9BF JUMP JUMPDEST PUSH1 0x3 ADD PUSH2 0xA14 DUP2 SLOAD PUSH2 0x13B4 JUMP JUMPDEST SWAP1 SSTORE DUP11 PUSH2 0xA01 JUMP JUMPDEST PUSH1 0x4 ADD PUSH2 0xA2A DUP7 DUP3 SLOAD PUSH2 0x13A7 JUMP JUMPDEST SWAP1 SSTORE DUP2 DUP2 SLOAD AND PUSH1 0x0 MSTORE PUSH1 0x4 DUP11 MSTORE TIMESTAMP PUSH1 0x8 DUP8 PUSH1 0x0 KECCAK256 ADD SSTORE DUP11 PUSH2 0x9B7 JUMP JUMPDEST PUSH1 0x40 MLOAD PUSH4 0xA342E7D9 PUSH1 0xE0 SHL DUP2 MSTORE PUSH1 0x4 SWAP1 REVERT JUMPDEST PUSH1 0x40 MLOAD PUSH4 0xA911F09 PUSH1 0xE0 SHL DUP2 MSTORE PUSH1 0x4 SWAP1 REVERT JUMPDEST PUSH1 0x40 MLOAD PUSH4 0xD36D8965 PUSH1 0xE0 SHL DUP2 MSTORE PUSH1 0x4 SWAP1 REVERT JUMPDEST CALLVALUE PUSH2 0x1DF JUMPI PUSH1 0x0 CALLDATASIZE PUSH1 0x3 NOT ADD SLT PUSH2 0x1DF JUMPI PUSH2 0xA95 PUSH2 0x1289 JUMP JUMPDEST PUSH1 0x2 SLOAD PUSH1 0xFF DUP2 AND PUSH2 0xAD7 JUMPI PUSH1 0x1 SWAP1 PUSH1 0xFF NOT AND OR PUSH1 0x2 SSTORE PUSH32 0x62E78CEA01BEE320CD4E420270B5EA74000D11B0C9F74754EBDBFC544B05A258 PUSH1 0x20 PUSH1 0x40 MLOAD CALLER DUP2 MSTORE LOG1 STOP JUMPDEST PUSH1 0x40 MLOAD PUSH4 0xD93C0665 PUSH1 0xE0 SHL DUP2 MSTORE PUSH1 0x4 SWAP1 REVERT JUMPDEST CALLVALUE PUSH2 0x1DF JUMPI PUSH1 0x20 CALLDATASIZE PUSH1 0x3 NOT ADD SLT PUSH2 0x1DF JUMPI PUSH1 0x0 PUSH2 0x140 PUSH1 0x40 MLOAD PUSH2 0xB0B DUP2 PUSH2 0x12F7 JUMP JUMPDEST DUP3 DUP2 MSTORE DUP3 PUSH1 0x20 DUP3 ADD MSTORE DUP3 PUSH1 0x40 DUP3 ADD MSTORE DUP3 PUSH1 0x60 DUP3 ADD MSTORE DUP3 PUSH1 0x80 DUP3 ADD MSTORE DUP3 PUSH1 0xA0 DUP3 ADD MSTORE DUP3 PUSH1 0xC0 DUP3 ADD MSTORE DUP3 PUSH1 0xE0 DUP3 ADD MSTORE DUP3 PUSH2 0x100 DUP3 ADD MSTORE DUP3 PUSH2 0x120 DUP3 ADD MSTORE ADD MSTORE PUSH1 0x4 CALLDATALOAD PUSH1 0x0 MSTORE PUSH1 0x3 PUSH1 0x20 MSTORE PUSH1 0x40 PUSH1 0x0 KECCAK256 PUSH1 0x40 MLOAD SWAP1 PUSH2 0xB65 DUP3 PUSH2 0x12F7 JUMP JUMPDEST DUP1 SLOAD DUP1 DUP4 MSTORE PUSH1 0x1 DUP3 ADD SLOAD PUSH1 0x1 PUSH1 0x1 PUSH1 0xA0 SHL SUB SWAP1 DUP2 AND PUSH1 0x20 DUP6 ADD MSTORE PUSH1 0x2 DUP4 ADD SLOAD DUP2 AND PUSH1 0x40 DUP6 ADD MSTORE PUSH1 0x3 DUP4 ADD SLOAD AND PUSH1 0x60 DUP5 ADD MSTORE PUSH1 0x4 DUP3 ADD SLOAD PUSH1 0x80 DUP5 ADD MSTORE PUSH1 0x5 DUP3 ADD SLOAD PUSH1 0xA0 DUP5 ADD MSTORE PUSH1 0x6 DUP3 ADD SLOAD PUSH1 0xC0 DUP5 ADD MSTORE PUSH1 0x7 DUP3 ADD SLOAD PUSH1 0xE0 DUP5 ADD MSTORE PUSH1 0x8 DUP3 ADD SLOAD PUSH1 0xFF AND ISZERO ISZERO PUSH2 0x100 DUP5 ADD MSTORE PUSH1 0x9 DUP3 ADD SLOAD PUSH2 0x120 DUP5 ADD MSTORE PUSH1 0xA SWAP1 SWAP2 ADD SLOAD PUSH2 0x140 DUP4 ADD MSTORE ISZERO PUSH2 0xA6A JUMPI PUSH2 0x160 SWAP1 PUSH2 0x140 PUSH1 0x40 MLOAD SWAP2 DUP1 MLOAD DUP4 MSTORE PUSH1 0x1 DUP1 PUSH1 0xA0 SHL SUB PUSH1 0x20 DUP3 ADD MLOAD AND PUSH1 0x20 DUP5 ADD MSTORE PUSH1 0x1 DUP1 PUSH1 0xA0 SHL SUB PUSH1 0x40 DUP3 ADD MLOAD AND PUSH1 0x40 DUP5 ADD MSTORE PUSH1 0x1 DUP1 PUSH1 0xA0 SHL SUB PUSH1 0x60 DUP3 ADD MLOAD AND PUSH1 0x60 DUP5 ADD MSTORE PUSH1 0x80 DUP2 ADD MLOAD PUSH1 0x80 DUP5 ADD MSTORE PUSH1 0xA0 DUP2 ADD MLOAD PUSH1 0xA0 DUP5 ADD MSTORE PUSH1 0xC0 DUP2 ADD MLOAD PUSH1 0xC0 DUP5 ADD MSTORE PUSH1 0xE0 DUP2 ADD MLOAD PUSH1 0xE0 DUP5 ADD MSTORE PUSH2 0x100 DUP2 ADD MLOAD ISZERO ISZERO PUSH2 0x100 DUP5 ADD MSTORE PUSH2 0x120 DUP2 ADD MLOAD PUSH2 0x120 DUP5 ADD MSTORE ADD MLOAD PUSH2 0x140 DUP3 ADD MSTORE RETURN JUMPDEST CALLVALUE PUSH2 0x1DF JUMPI PUSH1 0x20 DUP1 PUSH1 0x3 NOT CALLDATASIZE ADD SLT PUSH2 0x1DF JUMPI PUSH1 0x4 CALLDATALOAD SWAP1 CALLER PUSH1 0x0 MSTORE PUSH1 0x8 DUP2 MSTORE PUSH1 0xFF PUSH1 0x40 PUSH1 0x0 KECCAK256 SLOAD AND ISZERO PUSH2 0x1CD JUMPI DUP2 PUSH1 0x0 MSTORE PUSH1 0x3 DUP2 MSTORE PUSH1 0x40 PUSH1 0x0 KECCAK256 SLOAD ISZERO PUSH2 0xA6A JUMPI DUP2 PUSH1 0x0 MSTORE PUSH1 0x3 DUP2 MSTORE PUSH1 0xFF PUSH1 0x8 PUSH1 0x40 PUSH1 0x0 KECCAK256 ADD SLOAD AND ISZERO PUSH2 0xA58 JUMPI DUP2 PUSH1 0x0 MSTORE PUSH1 0x3 DUP2 MSTORE PUSH1 0x40 PUSH1 0x0 KECCAK256 SWAP1 PUSH1 0x1 DUP3 ADD PUSH1 0x1 DUP1 PUSH1 0xA0 SHL SUB SWAP1 DUP2 DUP2 SLOAD AND SWAP3 DUP4 PUSH1 0x0 MSTORE PUSH1 0x8 DUP2 MSTORE PUSH1 0xFF PUSH1 0x40 PUSH1 0x0 KECCAK256 SLOAD AND ISZERO PUSH2 0x1CD JUMPI PUSH2 0xD26 DUP7 PUSH1 0x7 SWAP6 PUSH1 0x8 DUP9 ADD PUSH1 0xFF NOT DUP2 SLOAD AND SWAP1 SSTORE TIMESTAMP PUSH1 0xA DUP10 ADD SSTORE PUSH2 0x13C1 JUMP JUMPDEST DUP3 DUP3 SLOAD AND PUSH1 0x0 MSTORE PUSH1 0x4 DUP2 MSTORE PUSH1 0x40 PUSH1 0x0 KECCAK256 SWAP1 DUP4 DUP3 SLOAD AND PUSH2 0xD6F JUMPI JUMPDEST POP POP SLOAD AND SWAP2 ADD SLOAD SWAP2 PUSH32 0x2D024375178DC62F5A52BCF585355A323A5A60D6155554E4457D68E842757D2E PUSH1 0x0 DUP1 LOG4 STOP JUMPDEST PUSH1 0x3 PUSH1 0x4 SWAP3 ADD PUSH2 0xD7F DUP2 SLOAD PUSH2 0x13B4 JUMP JUMPDEST SWAP1 SSTORE DUP4 DUP4 SLOAD AND PUSH1 0x0 MSTORE MSTORE TIMESTAMP PUSH1 0x8 PUSH1 0x40 PUSH1 0x0 KECCAK256 ADD SSTORE DUP6 DUP1 PUSH2 0xD40 JUMP JUMPDEST CALLVALUE PUSH2 0x1DF JUMPI PUSH1 0x0 CALLDATASIZE PUSH1 0x3 NOT ADD SLT PUSH2 0x1DF JUMPI PUSH2 0xDB3 PUSH2 0x1289 JUMP JUMPDEST PUSH1 0x0 DUP1 SLOAD PUSH1 0x1 PUSH1 0x1 PUSH1 0xA0 SHL SUB NOT DUP2 AND DUP3 SSTORE PUSH1 0x1 PUSH1 0x1 PUSH1 0xA0 SHL SUB AND PUSH32 0x8BE0079C531659141344CD1FD0A4F28419497F9722A3DAAFE3B4186F6B6457E0 DUP3 DUP1 LOG3 STOP JUMPDEST CALLVALUE PUSH2 0x1DF JUMPI PUSH1 0x20 CALLDATASIZE PUSH1 0x3 NOT ADD SLT PUSH2 0x1DF JUMPI PUSH1 0x1 PUSH1 0x1 PUSH1 0xA0 SHL SUB PUSH2 0xE14 PUSH2 0x1203 JUMP JUMPDEST AND PUSH1 0x0 MSTORE PUSH1 0x8 PUSH1 0x20 MSTORE PUSH1 0x20 PUSH1 0xFF PUSH1 0x40 PUSH1 0x0 KECCAK256 SLOAD AND PUSH1 0x40 MLOAD SWAP1 ISZERO ISZERO DUP2 MSTORE RETURN JUMPDEST CALLVALUE PUSH2 0x1DF JUMPI PUSH1 0x0 CALLDATASIZE PUSH1 0x3 NOT ADD SLT PUSH2 0x1DF JUMPI PUSH1 0x20 PUSH1 0xFF PUSH1 0x2 SLOAD AND PUSH1 0x40 MLOAD SWAP1 ISZERO ISZERO DUP2 MSTORE RETURN JUMPDEST CALLVALUE PUSH2 0x1DF JUMPI PUSH1 0x20 CALLDATASIZE PUSH1 0x3 NOT ADD SLT PUSH2 0x1DF JUMPI PUSH2 0xE6E PUSH2 0x1203 JUMP JUMPDEST PUSH1 0x40 MLOAD PUSH2 0xE7A DUP2 PUSH2 0x12DA JUMP JUMPDEST PUSH1 0x0 DUP2 MSTORE PUSH1 0x0 PUSH1 0x20 DUP3 ADD MSTORE PUSH1 0x0 PUSH1 0x40 DUP3 ADD MSTORE PUSH1 0x0 PUSH1 0x60 DUP3 ADD MSTORE PUSH1 0x0 PUSH1 0x80 DUP3 ADD MSTORE PUSH1 0x0 PUSH1 0xA0 DUP3 ADD MSTORE PUSH1 0x0 PUSH1 0xC0 DUP3 ADD MSTORE PUSH1 0x0 PUSH1 0xE0 DUP3 ADD MSTORE PUSH1 0x0 PUSH2 0x100 DUP1 SWAP3 ADD MSTORE PUSH1 0x1 DUP1 PUSH1 0xA0 SHL SUB DUP1 SWAP3 AND PUSH1 0x0 MSTORE PUSH1 0x4 PUSH1 0x20 MSTORE PUSH1 0x40 PUSH1 0x0 KECCAK256 SWAP1 PUSH1 0x40 MLOAD SWAP2 PUSH2 0xEDD DUP4 PUSH2 0x12DA JUMP JUMPDEST DUP4 DUP2 SLOAD AND SWAP1 DUP2 DUP5 MSTORE DUP5 PUSH1 0x1 DUP3 ADD SLOAD AND SWAP5 PUSH1 0x20 DUP6 ADD SWAP6 DUP7 MSTORE PUSH1 0x2 DUP3 ADD SLOAD PUSH1 0x40 DUP7 ADD SWAP1 DUP2 MSTORE PUSH1 0x3 DUP4 ADD SLOAD PUSH1 0x60 DUP8 ADD SWAP1 DUP2 MSTORE PUSH1 0x4 DUP5 ADD SLOAD SWAP1 PUSH1 0x80 DUP9 ADD SWAP2 DUP3 MSTORE PUSH1 0x5 DUP6 ADD SLOAD SWAP3 PUSH1 0xA0 DUP10 ADD SWAP4 DUP5 MSTORE PUSH1 0xFF PUSH1 0x6 DUP8 ADD SLOAD AND SWAP5 PUSH1 0xC0 DUP11 ADD SWAP6 ISZERO ISZERO DUP7 MSTORE PUSH1 0x8 PUSH1 0x7 DUP9 ADD SLOAD SWAP8 PUSH1 0xE0 DUP13 ADD SWAP9 DUP10 MSTORE ADD SLOAD SWAP8 DUP10 DUP12 ADD SWAP9 DUP10 MSTORE ISZERO PUSH2 0x1A9 JUMPI PUSH2 0x120 SWAP11 DUP2 PUSH1 0x40 MLOAD SWAP12 MLOAD AND DUP12 MSTORE MLOAD AND PUSH1 0x20 DUP11 ADD MSTORE MLOAD PUSH1 0x40 DUP10 ADD MSTORE MLOAD PUSH1 0x60 DUP9 ADD MSTORE MLOAD PUSH1 0x80 DUP8 ADD MSTORE MLOAD PUSH1 0xA0 DUP7 ADD MSTORE MLOAD ISZERO ISZERO PUSH1 0xC0 DUP6 ADD MSTORE MLOAD PUSH1 0xE0 DUP5 ADD MSTORE MLOAD SWAP1 DUP3 ADD MSTORE RETURN JUMPDEST CALLVALUE PUSH2 0x1DF JUMPI PUSH1 0x20 CALLDATASIZE PUSH1 0x3 NOT ADD SLT PUSH2 0x1DF JUMPI PUSH2 0xFAF PUSH2 0x1203 JUMP JUMPDEST PUSH2 0xFB7 PUSH2 0x1289 JUMP JUMPDEST PUSH1 0x1 PUSH1 0x1 PUSH1 0xA0 SHL SUB AND DUP1 ISZERO PUSH2 0x1BB JUMPI DUP1 PUSH1 0x0 MSTORE PUSH1 0x8 PUSH1 0x20 MSTORE PUSH1 0x40 PUSH1 0x0 KECCAK256 PUSH1 0x1 PUSH1 0xFF NOT DUP3 SLOAD AND OR SWAP1 SSTORE CALLER SWAP1 PUSH32 0x78D25893E57AA53B1392C7DDD72FD4A82AE6EFF1CD4A797C2067C786484C2C3 PUSH1 0x0 DUP1 LOG3 STOP JUMPDEST CALLVALUE PUSH2 0x1DF JUMPI PUSH2 0x1016 CALLDATASIZE PUSH2 0x1219 JUMP JUMPDEST SWAP2 SWAP1 CALLER PUSH1 0x0 MSTORE PUSH1 0x8 PUSH1 0x20 MSTORE PUSH1 0xFF PUSH1 0x40 PUSH1 0x0 KECCAK256 SLOAD AND ISZERO PUSH2 0x1CD JUMPI PUSH1 0x1 PUSH1 0x1 PUSH1 0xA0 SHL SUB SWAP2 DUP3 AND SWAP1 DUP2 ISZERO PUSH2 0x1BB JUMPI DUP3 AND SWAP2 DUP3 ISZERO PUSH2 0x1BB JUMPI PUSH1 0x2 DUP5 GT PUSH2 0x1151 JUMPI DUP2 PUSH1 0x0 MSTORE PUSH1 0x4 PUSH1 0x20 MSTORE DUP1 PUSH1 0x40 PUSH1 0x0 KECCAK256 SLOAD AND PUSH2 0x1A9 JUMPI PUSH1 0x8 PUSH1 0x40 MLOAD PUSH2 0x1075 DUP2 PUSH2 0x12DA JUMP JUMPDEST DUP4 DUP2 MSTORE PUSH1 0x20 DUP2 ADD DUP6 DUP2 MSTORE PUSH2 0x1120 PUSH1 0x40 DUP4 ADD PUSH1 0x0 DUP2 MSTORE PUSH1 0x60 DUP5 ADD PUSH1 0x0 DUP2 MSTORE PUSH1 0x80 DUP6 ADD PUSH1 0x0 DUP2 MSTORE PUSH1 0xA0 DUP7 ADD SWAP2 DUP12 DUP4 MSTORE PUSH1 0xC0 DUP8 ADD SWAP4 PUSH1 0x1 DUP6 MSTORE PUSH1 0xE0 DUP9 ADD SWAP7 TIMESTAMP DUP9 MSTORE PUSH2 0x100 DUP10 ADD SWAP9 TIMESTAMP DUP11 MSTORE DUP13 PUSH1 0x0 MSTORE PUSH1 0x4 PUSH1 0x20 MSTORE DUP12 PUSH1 0x40 PUSH1 0x0 KECCAK256 SWAP13 DUP14 SWAP3 MLOAD AND PUSH1 0x1 PUSH1 0x1 PUSH1 0x60 SHL SUB PUSH1 0xA0 SHL DUP1 SWAP4 SLOAD AND OR DUP14 SSTORE PUSH1 0x1 DUP14 ADD SWAP3 MLOAD AND SWAP1 DUP3 SLOAD AND OR SWAP1 SSTORE MLOAD PUSH1 0x2 DUP11 ADD SSTORE MLOAD PUSH1 0x3 DUP10 ADD SSTORE MLOAD PUSH1 0x4 DUP9 ADD SSTORE MLOAD PUSH1 0x5 DUP8 ADD SSTORE MLOAD ISZERO ISZERO PUSH1 0x6 DUP7 ADD SWAP1 PUSH1 0xFF DUP1 NOT DUP4 SLOAD AND SWAP2 ISZERO ISZERO AND OR SWAP1 SSTORE JUMP JUMPDEST MLOAD PUSH1 0x7 DUP5 ADD SSTORE MLOAD SWAP2 ADD SSTORE PUSH32 0x41F09BD746318CA934A52E7EA3D080006246327E5078507EF27A579763CBA54C PUSH1 0x0 DUP1 LOG4 STOP JUMPDEST PUSH1 0x40 MLOAD PUSH4 0x4752C149 PUSH1 0xE0 SHL DUP2 MSTORE PUSH1 0x4 SWAP1 REVERT JUMPDEST CALLVALUE PUSH2 0x1DF JUMPI PUSH1 0x0 CALLDATASIZE PUSH1 0x3 NOT ADD SLT PUSH2 0x1DF JUMPI PUSH2 0x117C PUSH2 0x1289 JUMP JUMPDEST PUSH1 0x2 SLOAD PUSH1 0xFF DUP2 AND ISZERO PUSH2 0x11BB JUMPI PUSH1 0xFF NOT AND PUSH1 0x2 SSTORE PUSH32 0x5DB9EE0A495BF2E6FF9C91A7834C1BA4FDD244A5E8AA4E537BD38AEAE4B073AA PUSH1 0x20 PUSH1 0x40 MLOAD CALLER DUP2 MSTORE LOG1 STOP JUMPDEST PUSH1 0x40 MLOAD PUSH4 0x8DFC202B PUSH1 0xE0 SHL DUP2 MSTORE PUSH1 0x4 SWAP1 REVERT JUMPDEST CALLVALUE PUSH2 0x1DF JUMPI PUSH1 0x20 CALLDATASIZE PUSH1 0x3 NOT ADD SLT PUSH2 0x1DF JUMPI PUSH1 0x20 SWAP1 PUSH1 0x1 PUSH1 0x1 PUSH1 0xA0 SHL SUB PUSH2 0x11F1 PUSH2 0x1203 JUMP JUMPDEST AND PUSH1 0x0 MSTORE PUSH1 0x7 DUP3 MSTORE PUSH1 0x40 PUSH1 0x0 KECCAK256 SLOAD DUP2 MSTORE RETURN JUMPDEST PUSH1 0x4 CALLDATALOAD SWAP1 PUSH1 0x1 PUSH1 0x1 PUSH1 0xA0 SHL SUB DUP3 AND DUP3 SUB PUSH2 0x1DF JUMPI JUMP JUMPDEST PUSH1 0x60 SWAP1 PUSH1 0x3 NOT ADD SLT PUSH2 0x1DF JUMPI PUSH1 0x1 PUSH1 0x1 PUSH1 0xA0 SHL SUB SWAP1 PUSH1 0x4 CALLDATALOAD DUP3 DUP2 AND DUP2 SUB PUSH2 0x1DF JUMPI SWAP2 PUSH1 0x24 CALLDATALOAD SWAP1 DUP2 AND DUP2 SUB PUSH2 0x1DF JUMPI SWAP1 PUSH1 0x44 CALLDATALOAD SWAP1 JUMP JUMPDEST PUSH1 0x20 SWAP1 DUP2 PUSH1 0x40 DUP2 DUP4 ADD SWAP3 DUP3 DUP2 MSTORE DUP6 MLOAD DUP1 SWAP5 MSTORE ADD SWAP4 ADD SWAP2 PUSH1 0x0 JUMPDEST DUP3 DUP2 LT PUSH2 0x1275 JUMPI POP POP POP POP SWAP1 JUMP JUMPDEST DUP4 MLOAD DUP6 MSTORE SWAP4 DUP2 ADD SWAP4 SWAP3 DUP2 ADD SWAP3 PUSH1 0x1 ADD PUSH2 0x1267 JUMP JUMPDEST PUSH1 0x0 SLOAD PUSH1 0x1 PUSH1 0x1 PUSH1 0xA0 SHL SUB AND CALLER SUB PUSH2 0x129D JUMPI JUMP JUMPDEST PUSH1 0x40 MLOAD PUSH4 0x118CDAA7 PUSH1 0xE0 SHL DUP2 MSTORE CALLER PUSH1 0x4 DUP3 ADD MSTORE PUSH1 0x24 SWAP1 REVERT JUMPDEST PUSH1 0x0 NOT DUP2 EQ PUSH2 0x12C4 JUMPI PUSH1 0x1 ADD SWAP1 JUMP JUMPDEST PUSH4 0x4E487B71 PUSH1 0xE0 SHL PUSH1 0x0 MSTORE PUSH1 0x11 PUSH1 0x4 MSTORE PUSH1 0x24 PUSH1 0x0 REVERT JUMPDEST PUSH2 0x120 DUP2 ADD SWAP1 DUP2 LT PUSH8 0xFFFFFFFFFFFFFFFF DUP3 GT OR PUSH2 0x7AD JUMPI PUSH1 0x40 MSTORE JUMP JUMPDEST PUSH2 0x160 DUP2 ADD SWAP1 DUP2 LT PUSH8 0xFFFFFFFFFFFFFFFF DUP3 GT OR PUSH2 0x7AD JUMPI PUSH1 0x40 MSTORE JUMP JUMPDEST SWAP1 PUSH1 0x1F DUP1 NOT SWAP2 ADD AND DUP2 ADD SWAP1 DUP2 LT PUSH8 0xFFFFFFFFFFFFFFFF DUP3 GT OR PUSH2 0x7AD JUMPI PUSH1 0x40 MSTORE JUMP JUMPDEST DUP1 SLOAD DUP3 LT ISZERO PUSH2 0x134E JUMPI PUSH1 0x0 MSTORE PUSH1 0x20 PUSH1 0x0 KECCAK256 ADD SWAP1 PUSH1 0x0 SWAP1 JUMP JUMPDEST PUSH4 0x4E487B71 PUSH1 0xE0 SHL PUSH1 0x0 MSTORE PUSH1 0x32 PUSH1 0x4 MSTORE PUSH1 0x24 PUSH1 0x0 REVERT JUMPDEST SWAP1 DUP2 SLOAD SWAP2 PUSH9 0x10000000000000000 DUP4 LT ISZERO PUSH2 0x7AD JUMPI DUP3 PUSH2 0x138C SWAP2 PUSH1 0x1 PUSH2 0x13A5 SWAP6 ADD DUP2 SSTORE PUSH2 0x1336 JUMP JUMPDEST SWAP1 SWAP2 SWAP1 DUP3 SLOAD SWAP1 PUSH1 0x3 SHL SWAP2 DUP3 SHL SWAP2 PUSH1 0x0 NOT SWAP1 SHL NOT AND OR SWAP1 SSTORE JUMP JUMPDEST JUMP JUMPDEST SWAP2 SWAP1 DUP3 ADD DUP1 SWAP3 GT PUSH2 0x12C4 JUMPI JUMP JUMPDEST DUP1 ISZERO PUSH2 0x12C4 JUMPI PUSH1 0x0 NOT ADD SWAP1 JUMP JUMPDEST PUSH1 0x1 PUSH1 0x1 PUSH1 0xA0 SHL SUB AND PUSH1 0x0 SWAP1 DUP2 MSTORE PUSH1 0x6 PUSH1 0x20 MSTORE PUSH1 0x40 DUP2 KECCAK256 SWAP1 SWAP2 SWAP1 DUP3 JUMPDEST DUP2 SLOAD DUP1 DUP3 LT ISZERO PUSH2 0x148F JUMPI DUP4 SWAP1 PUSH2 0x13F3 DUP4 DUP6 PUSH2 0x1336 JUMP JUMPDEST SWAP3 SWAP1 SLOAD PUSH1 0x3 SWAP4 DUP5 SHL SHR EQ PUSH2 0x1411 JUMPI POP POP PUSH2 0x140C SWAP1 PUSH2 0x12B5 JUMP JUMPDEST PUSH2 0x13DD JUMP JUMPDEST SWAP3 SWAP4 POP SWAP4 SWAP1 PUSH1 0x0 NOT SWAP3 DUP4 DUP2 ADD SWAP1 DUP2 GT PUSH2 0x147B JUMPI SWAP1 PUSH2 0x138C PUSH2 0x1435 PUSH2 0x1442 SWAP4 DUP8 PUSH2 0x1336 JUMP JUMPDEST SWAP1 SLOAD SWAP1 DUP9 SHL SHR SWAP2 DUP7 PUSH2 0x1336 JUMP JUMPDEST DUP3 SLOAD SWAP1 DUP2 ISZERO PUSH2 0x1467 JUMPI POP DUP2 ADD SWAP3 PUSH2 0x1459 DUP5 DUP5 PUSH2 0x1336 JUMP JUMPDEST DUP2 SWAP4 SWAP2 SLOAD SWAP3 SHL SHL NOT AND SWAP1 SSTORE SSTORE JUMP JUMPDEST PUSH4 0x4E487B71 PUSH1 0xE0 SHL DUP2 MSTORE PUSH1 0x31 PUSH1 0x4 MSTORE PUSH1 0x24 SWAP1 REVERT JUMPDEST PUSH4 0x4E487B71 PUSH1 0xE0 SHL DUP4 MSTORE PUSH1 0x11 PUSH1 0x4 MSTORE PUSH1 0x24 DUP4 REVERT JUMPDEST POP POP POP POP POP JUMP INVALID LOG2 PUSH5 0x6970667358 0x22 SLT KECCAK256 DUP5 0xAD 0xFC 0xD4 SSTORE 0x24 0xC3 ISZERO SGT 0xDD 0xCE PUSH3 0x32A86F 0xE2 STATICCALL SWAP9 0xA6 0xCC 0xB6 SHL SWAP10 JUMPDEST SWAP16 PUSH24 0x9694E75F32AC64736F6C6343000814003300000000000000 "},"methodIdentifiers":{"authorizeBot(address)":"52f4955a","cancelOrder(bytes32)":"7489ec23","createStrategy(address,address,uint256)":"4be8f2dd","deauthorizeBot(address)":"920e8191","emergencyRecover(address,address,uint256)":"ad1329d1","getBotActiveOrders(address)":"c9f61200","getBotOrderCount(address)":"074e7589","getBotOrders(address)":"c1216971","getOrderInfo(bytes32)":"768c6ec0","getStrategyInfo(address)":"54192ad5","isBotAuthorized(address)":"644190b2","owner()":"8da5cb5b","pause()":"8456cb59","paused()":"5c975abb","registerOrder(bytes32,address,address,address,uint256,uint256)":"d8a1b982","renounceOwnership()":"715018a6","transferOwnership(address)":"f2fde38b","unpause()":"3f4ba83a","updateOrderFill(bytes32,uint256,uint256)":"89389f31","updateStrategy(address,uint256,uint256)":"fd8d68aa"}}}}}