{"contracts/OracleAdapter.sol":{"OracleAdapter":{"abi":[{"inputs":[],"stateMutability":"nonpayable","type":"constructor"},{"inputs":[],"name":"EnforcedPause","type":"error"},{"inputs":[],"name":"ExpectedPause","type":"error"},{"inputs":[],"name":"InsufficientPriceHistory","type":"error"},{"inputs":[],"name":"InvalidPrice","type":"error"},{"inputs":[],"name":"InvalidTimestamp","type":"error"},{"inputs":[],"name":"InvalidVolatility","type":"error"},{"inputs":[],"name":"InvalidVolatilityConfig","type":"error"},{"inputs":[{"internalType":"address","name":"owner","type":"address"}],"name":"OwnableInvalidOwner","type":"error"},{"inputs":[{"internalType":"address","name":"account","type":"address"}],"name":"OwnableUnauthorizedAccount","type":"error"},{"inputs":[],"name":"PriceDataNotFound","type":"error"},{"inputs":[],"name":"ReentrancyGuardReentrantCall","type":"error"},{"inputs":[],"name":"StalePriceData","type":"error"},{"inputs":[],"name":"UnauthorizedUpdater","type":"error"},{"inputs":[],"name":"VolatilityConfigNotFound","type":"error"},{"inputs":[],"name":"ZeroAddress","type":"error"},{"inputs":[],"name":"ZeroAmount","type":"error"},{"anonymous":false,"inputs":[{"indexed":true,"internalType":"address","name":"previousOwner","type":"address"},{"indexed":true,"internalType":"address","name":"newOwner","type":"address"}],"name":"OwnershipTransferred","type":"event"},{"anonymous":false,"inputs":[{"indexed":false,"internalType":"address","name":"account","type":"address"}],"name":"Paused","type":"event"},{"anonymous":false,"inputs":[{"indexed":true,"internalType":"address","name":"asset","type":"address"}],"name":"PriceHistoryCleared","type":"event"},{"anonymous":false,"inputs":[{"indexed":true,"internalType":"address","name":"asset","type":"address"},{"indexed":true,"internalType":"uint256","name":"price","type":"uint256"},{"indexed":true,"internalType":"uint256","name":"timestamp","type":"uint256"},{"indexed":false,"internalType":"uint256","name":"volatility","type":"uint256"}],"name":"PriceUpdated","type":"event"},{"anonymous":false,"inputs":[{"indexed":false,"internalType":"address","name":"account","type":"address"}],"name":"Unpaused","type":"event"},{"anonymous":false,"inputs":[{"indexed":true,"internalType":"address","name":"updater","type":"address"}],"name":"UpdaterAuthorized","type":"event"},{"anonymous":false,"inputs":[{"indexed":true,"internalType":"address","name":"updater","type":"address"}],"name":"UpdaterDeauthorized","type":"event"},{"anonymous":false,"inputs":[{"indexed":true,"internalType":"address","name":"asset","type":"address"},{"indexed":false,"internalType":"uint256","name":"baseSpacing","type":"uint256"},{"indexed":false,"internalType":"uint256","name":"volatilityMultiplier","type":"uint256"}],"name":"VolatilityConfigUpdated","type":"event"},{"inputs":[{"internalType":"address","name":"updater","type":"address"}],"name":"authorizeUpdater","outputs":[],"stateMutability":"nonpayable","type":"function"},{"inputs":[{"internalType":"address","name":"asset","type":"address"},{"internalType":"uint256","name":"baseSpacing","type":"uint256"}],"name":"calculateDynamicSpacing","outputs":[{"internalType":"uint256","name":"dynamicSpacing","type":"uint256"}],"stateMutability":"view","type":"function"},{"inputs":[{"internalType":"address","name":"asset","type":"address"}],"name":"clearPriceHistory","outputs":[],"stateMutability":"nonpayable","type":"function"},{"inputs":[{"internalType":"address","name":"updater","type":"address"}],"name":"deauthorizeUpdater","outputs":[],"stateMutability":"nonpayable","type":"function"},{"inputs":[{"internalType":"address","name":"asset","type":"address"}],"name":"getLatestPrice","outputs":[{"components":[{"internalType":"uint256","name":"price","type":"uint256"},{"internalType":"uint256","name":"timestamp","type":"uint256"},{"internalType":"uint256","name":"volatility","type":"uint256"},{"internalType":"bool","name":"isValid","type":"bool"}],"internalType":"struct IOracleAdapter.PriceData","name":"priceData","type":"tuple"}],"stateMutability":"view","type":"function"},{"inputs":[{"internalType":"address","name":"asset","type":"address"},{"internalType":"uint256","name":"timestamp","type":"uint256"}],"name":"getPriceAt","outputs":[{"internalType":"uint256","name":"price","type":"uint256"}],"stateMutability":"view","type":"function"},{"inputs":[{"internalType":"address","name":"asset","type":"address"},{"internalType":"uint256","name":"timeframe","type":"uint256"}],"name":"getPriceChangePercent","outputs":[{"internalType":"int256","name":"changePercent","type":"int256"}],"stateMutability":"view","type":"function"},{"inputs":[{"internalType":"address","name":"asset","type":"address"}],"name":"getPriceHistory","outputs":[{"internalType":"uint256[]","name":"prices","type":"uint256[]"},{"internalType":"uint256[]","name":"timestamps","type":"uint256[]"}],"stateMutability":"view","type":"function"},{"inputs":[{"internalType":"address","name":"asset","type":"address"},{"internalType":"uint256","name":"timeframe","type":"uint256"}],"name":"getVolatility","outputs":[{"internalType":"uint256","name":"volatility","type":"uint256"}],"stateMutability":"view","type":"function"},{"inputs":[{"internalType":"address","name":"asset","type":"address"}],"name":"getVolatilityConfig","outputs":[{"components":[{"internalType":"uint256","name":"baseSpacing","type":"uint256"},{"internalType":"uint256","name":"volatilityMultiplier","type":"uint256"},{"internalType":"uint256","name":"minSpacing","type":"uint256"},{"internalType":"uint256","name":"maxSpacing","type":"uint256"}],"internalType":"struct IOracleAdapter.VolatilityConfig","name":"config","type":"tuple"}],"stateMutability":"view","type":"function"},{"inputs":[{"internalType":"address","name":"asset","type":"address"},{"internalType":"uint256","name":"maxAge","type":"uint256"}],"name":"isPriceStale","outputs":[{"internalType":"bool","name":"isStale","type":"bool"}],"stateMutability":"view","type":"function"},{"inputs":[{"internalType":"address","name":"updater","type":"address"}],"name":"isUpdaterAuthorized","outputs":[{"internalType":"bool","name":"isAuthorized","type":"bool"}],"stateMutability":"view","type":"function"},{"inputs":[],"name":"owner","outputs":[{"internalType":"address","name":"","type":"address"}],"stateMutability":"view","type":"function"},{"inputs":[],"name":"pause","outputs":[],"stateMutability":"nonpayable","type":"function"},{"inputs":[],"name":"paused","outputs":[{"internalType":"bool","name":"","type":"bool"}],"stateMutability":"view","type":"function"},{"inputs":[],"name":"renounceOwnership","outputs":[],"stateMutability":"nonpayable","type":"function"},{"inputs":[{"internalType":"address","name":"asset","type":"address"},{"components":[{"internalType":"uint256","name":"baseSpacing","type":"uint256"},{"internalType":"uint256","name":"volatilityMultiplier","type":"uint256"},{"internalType":"uint256","name":"minSpacing","type":"uint256"},{"internalType":"uint256","name":"maxSpacing","type":"uint256"}],"internalType":"struct IOracleAdapter.VolatilityConfig","name":"config","type":"tuple"}],"name":"setVolatilityConfig","outputs":[],"stateMutability":"nonpayable","type":"function"},{"inputs":[{"internalType":"address","name":"newOwner","type":"address"}],"name":"transferOwnership","outputs":[],"stateMutability":"nonpayable","type":"function"},{"inputs":[],"name":"unpause","outputs":[],"stateMutability":"nonpayable","type":"function"},{"inputs":[{"internalType":"address","name":"asset","type":"address"},{"internalType":"uint256","name":"price","type":"uint256"},{"internalType":"uint256","name":"timestamp","type":"uint256"}],"name":"updatePrice","outputs":[],"stateMutability":"nonpayable","type":"function"}],"evm":{"bytecode":{"linkReferences":{},"object":"6080806040523461007e5733156100685760008054336001600160a01b03198216811783556040519290916001600160a01b0316907f8be0079c531659141344cd1fd0a4f28419497f9722a3daafe3b4186f6b6457e09080a3600180556114fe90816100848239f35b631e4fbdf760e01b815260006004820152602490fd5b600080fdfe6040608081526004908136101561001557600080fd5b600091823560e01c8063029bb143146110e85780630604c1611461107b5780630cc0c20e1461102357806316345f1814610f675780632ca81a5114610e335780633f4ba83a14610dca578063585fd46d14610bad5780635c975abb14610b89578063715018a614610b2f5780637cce5dde14610a035780638438f091146108435780638456cb59146107d85780638da5cb5b146107b0578063907abef414610769578063937f06a61461065b578063988d594c146105d65780639cbe609714610566578063dee7fa5e146104b9578063e57d6fb7146101865763f2fde38b146100fd57600080fd5b346101825760203660031901126101825761011661118c565b9061011f6111db565b6001600160a01b0391821692831561016c57505082546001600160a01b0319811683178455167f8be0079c531659141344cd1fd0a4f28419497f9722a3daafe3b4186f6b6457e08380a380f35b51631e4fbdf760e01b8152908101849052602490fd5b8280fd5b5034610182576060366003190112610182576101a061118c565b90602490813592604435943387526020916007835260ff828920541615806104a5575b610495576001600160a01b0316938415610485578515610476578615801561046d575b61045d578151906101f682611207565b86825288848301928984528481019382855260608201906001928383528a85526003968792838b52898720925183555185830155516002820155019051151560ff801983541691161790556005908187526102538a878520611320565b8883526102678b87600695868b5220611320565b888c528187526064868d205411610349575b5050835163585fd46d60e01b815295860187905250610e10908501528284604481305afa8089916102f6575b7f40a2e1011bc4b63fe019abc98ce43b9ae4a22f2072b84f3d14941dc1675979c295506102e3575b508488528252600281882001549051908152a480f35b8589528184526002838a200155386102cd565b90508385813d8311610342575b61030d8183611239565b8101031261033e577f40a2e1011bc4b63fe019abc98ce43b9ae4a22f2072b84f3d14941dc1675979c29451906102a5565b8880fd5b503d610303565b8b815b610381575b505090610e109291888c528652610369858c2061134a565b878b528552610379848b2061134a565b903880610279565b898d52828852868d2054600019810190811161044b5781101561044657898d52828852868d208282019081831161043457916104298f6103f3838f928d908f8c908f61041a8b8f8f9e906103db61042e9f61040c936112a5565b905490861b1c908c895286526103f38a8a8a206112a5565b90919082549060031b91821b91600019901b1916179055565b8986528484528686206112a5565b9054911b1c96835252206112a5565b611280565b9061034c565b634e487b7160e01b8f5260118b52868ffd5b610351565b634e487b7160e01b8e5260118a52858efd5b815163b7d0949760e01b81528490fd5b504287116101e6565b815162bfc92160e01b81528490fd5b815163d92e233d60e01b81528490fd5b8151633161235360e21b81528490fd5b5087546001600160a01b03163314156101c3565b509034610182576020366003190112610182576104d461118c565b6104dc6111db565b6001600160a01b031691821561055857506003839183835260056020526105048184206113ef565b83835260066020526105178184206113ef565b83835281602052822082815582600182015582600282015501557fcdbcb9fc33d4ebcb82e52be8d4aa4b7392261b8746724086027c2b102d84e37e8280a280f35b905163d92e233d60e01b8152fd5b5090346101825760203660031901126101825761058161118c565b6105896111db565b6001600160a01b0316918215610558575081835260076020528220805460ff191660011790557ffbc99308a04b9b530a8dbc7eb620a7597c4b92ff15390ab23ffdd979b9c592e48280a280f35b5034610182576020366003190112610182576001600160a01b036105f861118c565b1690811561064d575082526005602052610649610628610622838086209560066020522094611424565b93611424565b61063b83519484869586528501906111a7565b9083820360208501526111a7565b0390f35b825163d92e233d60e01b8152fd5b509190346107655760a03660031901126107655761067761118c565b60803660231901126101825761068b6111db565b6001600160a01b031690811561075657602435801561074657606435801561073657608435801561071d578082101561071d57818310801561072d575b61071d578596857fe2f79756b343c74e689e134ccd9aac9c809330dbd99e7342e366ff4867e20f7f9697526020526003848820848155604435938460018301556002820155015582519182526020820152a280f35b8351632ff67a0160e21b81528790fd5b508083116106c8565b8251632ff67a0160e21b81528690fd5b8151632ff67a0160e21b81528590fd5b5163d92e233d60e01b81528390fd5b5080fd5b5091346107ad57816003193601126107ad575061078461118c565b916001600160a01b0383161561055857506107a46020926024359061138a565b90519015158152f35b80fd5b505034610765578160031936011261076557905490516001600160a01b039091168152602090f35b50346101825782600319360112610182576107f16111db565b6002549060ff8216610835575060ff1916600117600255513381527f62e78cea01bee320cd4e420270b5ea74000d11b0c9f74754ebdbfc544b05a25890602090a180f35b825163d93c066560e01b8152fd5b5090346101825780600319360112610182576001600160a01b0361086561118c565b1680156109f55783526005602052808320926006602052818120928454600281106109e6576024936108988535426112d3565b96600019978884019384116109d457906108b284826112a5565b929054600393841b1c945b816108c8828c6112a5565b905490861b1c10156108f35780156108e1578a016108bd565b634e487b7160e01b8852601187528888fd5b8791509261090387948a946112a5565b9054911b1c9485156109c4578581111561095d5785610921916112d3565b926127109384810294818604149015171561094d57505050602092610945916112f3565b905b51908152f35b634e487b7160e01b825260119052fd5b61096a90869293966112d3565b612710908181029181830414901517156109b25790610988916112f3565b91600160ff1b83146109a05750602093500390610947565b634e487b7160e01b8252601190528390fd5b634e487b7160e01b8352601184528583fd5b8451632c06449160e01b81528490fd5b634e487b7160e01b8652601185528686fd5b508251632c06449160e01b8152fd5b505163d92e233d60e01b8152fd5b5034610182578160031936011261018257610a1c61118c565b60243591906001600160a01b03168015610b205782158015610b17575b610b0857845260066020528284206005602052838520928154928315610afa57508560001992815b858110610a8357602088610a758b8a6112a5565b91905490519160031b1c8152f35b83610a8e82846112a5565b905460039291831b1c811115610add5750610ab890610aad83856112a5565b9054911b1c856112d3565b858110610acf575b50610aca90611280565b610a61565b909850935087610aca610ac0565b610af591610aeb84866112a5565b9054911b1c6112d3565b610ab8565b855163af899d2f60e01b8152fd5b50825163b7d0949760e01b8152fd5b50428311610a39565b50825163d92e233d60e01b8152fd5b83346107ad57806003193601126107ad57610b486111db565b80546001600160a01b03198116825581906001600160a01b03167f8be0079c531659141344cd1fd0a4f28419497f9722a3daafe3b4186f6b6457e08280a380f35b50503461076557816003193601126107655760209060ff6002541690519015158152f35b50346101825781600319360112610182576001600160a01b03610bce61118c565b168015610dbb57835260056020528183209060066020528284209382549060028210610dab57602493610c028535426112d3565b908295839860015b868110610c6b578a8a8a8a8315610c5d5750610c2b602093610c30926112f3565b611473565b9060018210610c54575b6103e8808311610c4c575b5051908152f35b915083610c45565b60019150610c3a565b8251632c06449160e01b8152fd5b84610c7682846112a5565b919054600392831b1c1015610c95575b50610c9090611280565b610c0a565b610ca382869d9b939d6112a5565b905490821b1c906000198d018d81119283610d72578e90610cc4838a6112a5565b905490851b1c1015610d8457610cdb8491896112a5565b905490841b1c90610d7257610d0090610cf4838a6112a5565b905490851b1c906112d3565b925b670de0b6b3a764000093848102948186041490151715610d7257610d605792610d4d610d47610d5994610d5394610d3c610c90988c6112a5565b9054911b1c906112f3565b806112e0565b90611313565b99611280565b9a90610c86565b634e487b7160e01b895260118b528589fd5b634e487b7160e01b8a5260118c52868afd5b9250610da58993610cf4610d98848b6112a5565b905490861b1c918a6112a5565b92610d02565b8451632c06449160e01b81528390fd5b50905163d92e233d60e01b8152fd5b5034610182578260031936011261018257610de36111db565b6002549060ff821615610e25575060ff1916600255513381527f5db9ee0a495bf2e6ff9c91a7834c1ba4fdd244a5e8aa4e537bd38aeae4b073aa90602090a180f35b8251638dfc202b60e01b8152fd5b509190346107655780600319360112610765576001600160a01b03610e5661118c565b169283156105585783835260209381855282842093835192610e7784611207565b8554928385526001870154938886019485526060600360028a0154998989019a8b520154960195865215610f5857855163585fd46d60e01b815291820152610e1060248201528681604481305afa918215610f4d578092610f19575b5050610ee6606491610eef9351906112e0565b04602435611313565b9251808410610f11575b5051808311610f09575051908152f35b915038610c45565b925038610ef9565b9091508682813d8311610f46575b610f318183611239565b810103126107ad575051610ee6610eef610ed3565b503d610f27565b8551903d90823e3d90fd5b508451635952c93560e01b8152fd5b5091346107ad5760203660031901126107ad578190610f8461118c565b610f8c61125b565b506001600160a01b03168015611013578152600360205220815191610fb083611207565b81549182845260018101546020850190815260ff60036002840154938588019485520154169360608601941515855215611003576080955082519451855251602085015251908301525115156060820152f35b825163af899d2f60e01b81528690fd5b5050505163d92e233d60e01b8152fd5b50503461076557602036600319011261076557602091906001600160a01b038061104b61118c565b16908184526007855260ff838520541693841561106e575b505050519015158152f35b5416149150388080611063565b5090346101825760203660031901126101825761109661118c565b61109e6111db565b6001600160a01b0316918215610558575081835260076020528220805460ff191690557f1e7404ad525ddabdae986aed5f41bca4fe6e65be9f9136fea1d83f4457924b9d8280a280f35b5091346107ad5760203660031901126107ad57819061110561118c565b61110d61125b565b506001600160a01b03168015611013578152836020522081519161113083611207565b8154918284526001810154602085019081526003600283015492848701938452015493606086019485521561117c57608095508251945185525160208501525190830152516060820152f35b8251635952c93560e01b81528690fd5b600435906001600160a01b03821682036111a257565b600080fd5b90815180825260208080930193019160005b8281106111c7575050505090565b8351855293810193928101926001016111b9565b6000546001600160a01b031633036111ef57565b60405163118cdaa760e01b8152336004820152602490fd5b6080810190811067ffffffffffffffff82111761122357604052565b634e487b7160e01b600052604160045260246000fd5b90601f8019910116810190811067ffffffffffffffff82111761122357604052565b6040519061126882611207565b60006060838281528260208201528260408201520152565b600019811461128f5760010190565b634e487b7160e01b600052601160045260246000fd5b80548210156112bd5760005260206000200190600090565b634e487b7160e01b600052603260045260246000fd5b9190820391821161128f57565b8181029291811591840414171561128f57565b81156112fd570490565b634e487b7160e01b600052601260045260246000fd5b9190820180921161128f57565b908154916801000000000000000083101561122357826103f3916001611348950181556112a5565b565b8054908115611374576000199182019161136483836112a5565b909182549160031b1b1916905555565b634e487b7160e01b600052603160045260246000fd5b60018060a01b0316600052600360205260406000206040516113ab81611207565b815490818152606060ff6003600186015495866020860152600281015460408601520154161515910152156113e8576113e490426112d3565b1190565b5050600190565b8054906000908181558261140257505050565b815260208120918201915b82811061141957505050565b81815560010161140d565b9060405191828154918282526020928383019160005283600020936000905b8282106114595750505061134892500383611239565b855484526001958601958895509381019390910190611443565b9081156114c25760018083146114be5780830180841161128f57811c90835b84831061149e57505050565b909193506114b5846114b081846112f3565b611313565b821c9190611492565b9150565b6000915056fea2646970667358221220b0d62d74350067c87dd368b833aef968c717e83695caab88cb89682df40fdea064736f6c63430008140033","opcodes":"PUSH1 0x80 DUP1 PUSH1 0x40 MSTORE CALLVALUE PUSH2 0x7E JUMPI CALLER ISZERO PUSH2 0x68 JUMPI PUSH1 0x0 DUP1 SLOAD CALLER PUSH1 0x1 PUSH1 0x1 PUSH1 0xA0 SHL SUB NOT DUP3 AND DUP2 OR DUP4 SSTORE PUSH1 0x40 MLOAD SWAP3 SWAP1 SWAP2 PUSH1 0x1 PUSH1 0x1 PUSH1 0xA0 SHL SUB AND SWAP1 PUSH32 0x8BE0079C531659141344CD1FD0A4F28419497F9722A3DAAFE3B4186F6B6457E0 SWAP1 DUP1 LOG3 PUSH1 0x1 DUP1 SSTORE PUSH2 0x14FE SWAP1 DUP2 PUSH2 0x84 DUP3 CODECOPY RETURN JUMPDEST PUSH4 0x1E4FBDF7 PUSH1 0xE0 SHL DUP2 MSTORE PUSH1 0x0 PUSH1 0x4 DUP3 ADD MSTORE PUSH1 0x24 SWAP1 REVERT JUMPDEST PUSH1 0x0 DUP1 REVERT INVALID PUSH1 0x40 PUSH1 0x80 DUP2 MSTORE PUSH1 0x4 SWAP1 DUP2 CALLDATASIZE LT ISZERO PUSH2 0x15 JUMPI PUSH1 0x0 DUP1 REVERT JUMPDEST PUSH1 0x0 SWAP2 DUP3 CALLDATALOAD PUSH1 0xE0 SHR DUP1 PUSH4 0x29BB143 EQ PUSH2 0x10E8 JUMPI DUP1 PUSH4 0x604C161 EQ PUSH2 0x107B JUMPI DUP1 PUSH4 0xCC0C20E EQ PUSH2 0x1023 JUMPI DUP1 PUSH4 0x16345F18 EQ PUSH2 0xF67 JUMPI DUP1 PUSH4 0x2CA81A51 EQ PUSH2 0xE33 JUMPI DUP1 PUSH4 0x3F4BA83A EQ PUSH2 0xDCA JUMPI DUP1 PUSH4 0x585FD46D EQ PUSH2 0xBAD JUMPI DUP1 PUSH4 0x5C975ABB EQ PUSH2 0xB89 JUMPI DUP1 PUSH4 0x715018A6 EQ PUSH2 0xB2F JUMPI DUP1 PUSH4 0x7CCE5DDE EQ PUSH2 0xA03 JUMPI DUP1 PUSH4 0x8438F091 EQ PUSH2 0x843 JUMPI DUP1 PUSH4 0x8456CB59 EQ PUSH2 0x7D8 JUMPI DUP1 PUSH4 0x8DA5CB5B EQ PUSH2 0x7B0 JUMPI DUP1 PUSH4 0x907ABEF4 EQ PUSH2 0x769 JUMPI DUP1 PUSH4 0x937F06A6 EQ PUSH2 0x65B JUMPI DUP1 PUSH4 0x988D594C EQ PUSH2 0x5D6 JUMPI DUP1 PUSH4 0x9CBE6097 EQ PUSH2 0x566 JUMPI DUP1 PUSH4 0xDEE7FA5E EQ PUSH2 0x4B9 JUMPI DUP1 PUSH4 0xE57D6FB7 EQ PUSH2 0x186 JUMPI PUSH4 0xF2FDE38B EQ PUSH2 0xFD JUMPI PUSH1 0x0 DUP1 REVERT JUMPDEST CALLVALUE PUSH2 0x182 JUMPI PUSH1 0x20 CALLDATASIZE PUSH1 0x3 NOT ADD SLT PUSH2 0x182 JUMPI PUSH2 0x116 PUSH2 0x118C JUMP JUMPDEST SWAP1 PUSH2 0x11F PUSH2 0x11DB JUMP JUMPDEST PUSH1 0x1 PUSH1 0x1 PUSH1 0xA0 SHL SUB SWAP2 DUP3 AND SWAP3 DUP4 ISZERO PUSH2 0x16C JUMPI POP POP DUP3 SLOAD PUSH1 0x1 PUSH1 0x1 PUSH1 0xA0 SHL SUB NOT DUP2 AND DUP4 OR DUP5 SSTORE AND PUSH32 0x8BE0079C531659141344CD1FD0A4F28419497F9722A3DAAFE3B4186F6B6457E0 DUP4 DUP1 LOG3 DUP1 RETURN JUMPDEST MLOAD PUSH4 0x1E4FBDF7 PUSH1 0xE0 SHL DUP2 MSTORE SWAP1 DUP2 ADD DUP5 SWAP1 MSTORE PUSH1 0x24 SWAP1 REVERT JUMPDEST DUP3 DUP1 REVERT JUMPDEST POP CALLVALUE PUSH2 0x182 JUMPI PUSH1 0x60 CALLDATASIZE PUSH1 0x3 NOT ADD SLT PUSH2 0x182 JUMPI PUSH2 0x1A0 PUSH2 0x118C JUMP JUMPDEST SWAP1 PUSH1 0x24 SWAP1 DUP2 CALLDATALOAD SWAP3 PUSH1 0x44 CALLDATALOAD SWAP5 CALLER DUP8 MSTORE PUSH1 0x20 SWAP2 PUSH1 0x7 DUP4 MSTORE PUSH1 0xFF DUP3 DUP10 KECCAK256 SLOAD AND ISZERO DUP1 PUSH2 0x4A5 JUMPI JUMPDEST PUSH2 0x495 JUMPI PUSH1 0x1 PUSH1 0x1 PUSH1 0xA0 SHL SUB AND SWAP4 DUP5 ISZERO PUSH2 0x485 JUMPI DUP6 ISZERO PUSH2 0x476 JUMPI DUP7 ISZERO DUP1 ISZERO PUSH2 0x46D JUMPI JUMPDEST PUSH2 0x45D JUMPI DUP2 MLOAD SWAP1 PUSH2 0x1F6 DUP3 PUSH2 0x1207 JUMP JUMPDEST DUP7 DUP3 MSTORE DUP9 DUP5 DUP4 ADD SWAP3 DUP10 DUP5 MSTORE DUP5 DUP2 ADD SWAP4 DUP3 DUP6 MSTORE PUSH1 0x60 DUP3 ADD SWAP1 PUSH1 0x1 SWAP3 DUP4 DUP4 MSTORE DUP11 DUP6 MSTORE PUSH1 0x3 SWAP7 DUP8 SWAP3 DUP4 DUP12 MSTORE DUP10 DUP8 KECCAK256 SWAP3 MLOAD DUP4 SSTORE MLOAD DUP6 DUP4 ADD SSTORE MLOAD PUSH1 0x2 DUP3 ADD SSTORE ADD SWAP1 MLOAD ISZERO ISZERO PUSH1 0xFF DUP1 NOT DUP4 SLOAD AND SWAP2 AND OR SWAP1 SSTORE PUSH1 0x5 SWAP1 DUP2 DUP8 MSTORE PUSH2 0x253 DUP11 DUP8 DUP6 KECCAK256 PUSH2 0x1320 JUMP JUMPDEST DUP9 DUP4 MSTORE PUSH2 0x267 DUP12 DUP8 PUSH1 0x6 SWAP6 DUP7 DUP12 MSTORE KECCAK256 PUSH2 0x1320 JUMP JUMPDEST DUP9 DUP13 MSTORE DUP2 DUP8 MSTORE PUSH1 0x64 DUP7 DUP14 KECCAK256 SLOAD GT PUSH2 0x349 JUMPI JUMPDEST POP POP DUP4 MLOAD PUSH4 0x585FD46D PUSH1 0xE0 SHL DUP2 MSTORE SWAP6 DUP7 ADD DUP8 SWAP1 MSTORE POP PUSH2 0xE10 SWAP1 DUP6 ADD MSTORE DUP3 DUP5 PUSH1 0x44 DUP2 ADDRESS GAS STATICCALL DUP1 DUP10 SWAP2 PUSH2 0x2F6 JUMPI JUMPDEST PUSH32 0x40A2E1011BC4B63FE019ABC98CE43B9AE4A22F2072B84F3D14941DC1675979C2 SWAP6 POP PUSH2 0x2E3 JUMPI JUMPDEST POP DUP5 DUP9 MSTORE DUP3 MSTORE PUSH1 0x2 DUP2 DUP9 KECCAK256 ADD SLOAD SWAP1 MLOAD SWAP1 DUP2 MSTORE LOG4 DUP1 RETURN JUMPDEST DUP6 DUP10 MSTORE DUP2 DUP5 MSTORE PUSH1 0x2 DUP4 DUP11 KECCAK256 ADD SSTORE CODESIZE PUSH2 0x2CD JUMP JUMPDEST SWAP1 POP DUP4 DUP6 DUP2 RETURNDATASIZE DUP4 GT PUSH2 0x342 JUMPI JUMPDEST PUSH2 0x30D DUP2 DUP4 PUSH2 0x1239 JUMP JUMPDEST DUP2 ADD SUB SLT PUSH2 0x33E JUMPI PUSH32 0x40A2E1011BC4B63FE019ABC98CE43B9AE4A22F2072B84F3D14941DC1675979C2 SWAP5 MLOAD SWAP1 PUSH2 0x2A5 JUMP JUMPDEST DUP9 DUP1 REVERT JUMPDEST POP RETURNDATASIZE PUSH2 0x303 JUMP JUMPDEST DUP12 DUP2 JUMPDEST PUSH2 0x381 JUMPI JUMPDEST POP POP SWAP1 PUSH2 0xE10 SWAP3 SWAP2 DUP9 DUP13 MSTORE DUP7 MSTORE PUSH2 0x369 DUP6 DUP13 KECCAK256 PUSH2 0x134A JUMP JUMPDEST DUP8 DUP12 MSTORE DUP6 MSTORE PUSH2 0x379 DUP5 DUP12 KECCAK256 PUSH2 0x134A JUMP JUMPDEST SWAP1 CODESIZE DUP1 PUSH2 0x279 JUMP JUMPDEST DUP10 DUP14 MSTORE DUP3 DUP9 MSTORE DUP7 DUP14 KECCAK256 SLOAD PUSH1 0x0 NOT DUP2 ADD SWAP1 DUP2 GT PUSH2 0x44B JUMPI DUP2 LT ISZERO PUSH2 0x446 JUMPI DUP10 DUP14 MSTORE DUP3 DUP9 MSTORE DUP7 DUP14 KECCAK256 DUP3 DUP3 ADD SWAP1 DUP2 DUP4 GT PUSH2 0x434 JUMPI SWAP2 PUSH2 0x429 DUP16 PUSH2 0x3F3 DUP4 DUP16 SWAP3 DUP14 SWAP1 DUP16 DUP13 SWAP1 DUP16 PUSH2 0x41A DUP12 DUP16 DUP16 SWAP15 SWAP1 PUSH2 0x3DB PUSH2 0x42E SWAP16 PUSH2 0x40C SWAP4 PUSH2 0x12A5 JUMP JUMPDEST SWAP1 SLOAD SWAP1 DUP7 SHL SHR SWAP1 DUP13 DUP10 MSTORE DUP7 MSTORE PUSH2 0x3F3 DUP11 DUP11 DUP11 KECCAK256 PUSH2 0x12A5 JUMP JUMPDEST SWAP1 SWAP2 SWAP1 DUP3 SLOAD SWAP1 PUSH1 0x3 SHL SWAP2 DUP3 SHL SWAP2 PUSH1 0x0 NOT SWAP1 SHL NOT AND OR SWAP1 SSTORE JUMP JUMPDEST DUP10 DUP7 MSTORE DUP5 DUP5 MSTORE DUP7 DUP7 KECCAK256 PUSH2 0x12A5 JUMP JUMPDEST SWAP1 SLOAD SWAP2 SHL SHR SWAP7 DUP4 MSTORE MSTORE KECCAK256 PUSH2 0x12A5 JUMP JUMPDEST PUSH2 0x1280 JUMP JUMPDEST SWAP1 PUSH2 0x34C JUMP JUMPDEST PUSH4 0x4E487B71 PUSH1 0xE0 SHL DUP16 MSTORE PUSH1 0x11 DUP12 MSTORE DUP7 DUP16 REVERT JUMPDEST PUSH2 0x351 JUMP JUMPDEST PUSH4 0x4E487B71 PUSH1 0xE0 SHL DUP15 MSTORE PUSH1 0x11 DUP11 MSTORE DUP6 DUP15 REVERT JUMPDEST DUP2 MLOAD PUSH4 0xB7D09497 PUSH1 0xE0 SHL DUP2 MSTORE DUP5 SWAP1 REVERT JUMPDEST POP TIMESTAMP DUP8 GT PUSH2 0x1E6 JUMP JUMPDEST DUP2 MLOAD PUSH3 0xBFC921 PUSH1 0xE0 SHL DUP2 MSTORE DUP5 SWAP1 REVERT JUMPDEST DUP2 MLOAD PUSH4 0xD92E233D PUSH1 0xE0 SHL DUP2 MSTORE DUP5 SWAP1 REVERT JUMPDEST DUP2 MLOAD PUSH4 0x31612353 PUSH1 0xE2 SHL DUP2 MSTORE DUP5 SWAP1 REVERT JUMPDEST POP DUP8 SLOAD PUSH1 0x1 PUSH1 0x1 PUSH1 0xA0 SHL SUB AND CALLER EQ ISZERO PUSH2 0x1C3 JUMP JUMPDEST POP SWAP1 CALLVALUE PUSH2 0x182 JUMPI PUSH1 0x20 CALLDATASIZE PUSH1 0x3 NOT ADD SLT PUSH2 0x182 JUMPI PUSH2 0x4D4 PUSH2 0x118C JUMP JUMPDEST PUSH2 0x4DC PUSH2 0x11DB JUMP JUMPDEST PUSH1 0x1 PUSH1 0x1 PUSH1 0xA0 SHL SUB AND SWAP2 DUP3 ISZERO PUSH2 0x558 JUMPI POP PUSH1 0x3 DUP4 SWAP2 DUP4 DUP4 MSTORE PUSH1 0x5 PUSH1 0x20 MSTORE PUSH2 0x504 DUP2 DUP5 KECCAK256 PUSH2 0x13EF JUMP JUMPDEST DUP4 DUP4 MSTORE PUSH1 0x6 PUSH1 0x20 MSTORE PUSH2 0x517 DUP2 DUP5 KECCAK256 PUSH2 0x13EF JUMP JUMPDEST DUP4 DUP4 MSTORE DUP2 PUSH1 0x20 MSTORE DUP3 KECCAK256 DUP3 DUP2 SSTORE DUP3 PUSH1 0x1 DUP3 ADD SSTORE DUP3 PUSH1 0x2 DUP3 ADD SSTORE ADD SSTORE PUSH32 0xCDBCB9FC33D4EBCB82E52BE8D4AA4B7392261B8746724086027C2B102D84E37E DUP3 DUP1 LOG2 DUP1 RETURN JUMPDEST SWAP1 MLOAD PUSH4 0xD92E233D PUSH1 0xE0 SHL DUP2 MSTORE REVERT JUMPDEST POP SWAP1 CALLVALUE PUSH2 0x182 JUMPI PUSH1 0x20 CALLDATASIZE PUSH1 0x3 NOT ADD SLT PUSH2 0x182 JUMPI PUSH2 0x581 PUSH2 0x118C JUMP JUMPDEST PUSH2 0x589 PUSH2 0x11DB JUMP JUMPDEST PUSH1 0x1 PUSH1 0x1 PUSH1 0xA0 SHL SUB AND SWAP2 DUP3 ISZERO PUSH2 0x558 JUMPI POP DUP2 DUP4 MSTORE PUSH1 0x7 PUSH1 0x20 MSTORE DUP3 KECCAK256 DUP1 SLOAD PUSH1 0xFF NOT AND PUSH1 0x1 OR SWAP1 SSTORE PUSH32 0xFBC99308A04B9B530A8DBC7EB620A7597C4B92FF15390AB23FFDD979B9C592E4 DUP3 DUP1 LOG2 DUP1 RETURN JUMPDEST POP CALLVALUE PUSH2 0x182 JUMPI PUSH1 0x20 CALLDATASIZE PUSH1 0x3 NOT ADD SLT PUSH2 0x182 JUMPI PUSH1 0x1 PUSH1 0x1 PUSH1 0xA0 SHL SUB PUSH2 0x5F8 PUSH2 0x118C JUMP JUMPDEST AND SWAP1 DUP2 ISZERO PUSH2 0x64D JUMPI POP DUP3 MSTORE PUSH1 0x5 PUSH1 0x20 MSTORE PUSH2 0x649 PUSH2 0x628 PUSH2 0x622 DUP4 DUP1 DUP7 KECCAK256 SWAP6 PUSH1 0x6 PUSH1 0x20 MSTORE KECCAK256 SWAP5 PUSH2 0x1424 JUMP JUMPDEST SWAP4 PUSH2 0x1424 JUMP JUMPDEST PUSH2 0x63B DUP4 MLOAD SWAP5 DUP5 DUP7 SWAP6 DUP7 MSTORE DUP6 ADD SWAP1 PUSH2 0x11A7 JUMP JUMPDEST SWAP1 DUP4 DUP3 SUB PUSH1 0x20 DUP6 ADD MSTORE PUSH2 0x11A7 JUMP JUMPDEST SUB SWAP1 RETURN JUMPDEST DUP3 MLOAD PUSH4 0xD92E233D PUSH1 0xE0 SHL DUP2 MSTORE REVERT JUMPDEST POP SWAP2 SWAP1 CALLVALUE PUSH2 0x765 JUMPI PUSH1 0xA0 CALLDATASIZE PUSH1 0x3 NOT ADD SLT PUSH2 0x765 JUMPI PUSH2 0x677 PUSH2 0x118C JUMP JUMPDEST PUSH1 0x80 CALLDATASIZE PUSH1 0x23 NOT ADD SLT PUSH2 0x182 JUMPI PUSH2 0x68B PUSH2 0x11DB JUMP JUMPDEST PUSH1 0x1 PUSH1 0x1 PUSH1 0xA0 SHL SUB AND SWAP1 DUP2 ISZERO PUSH2 0x756 JUMPI PUSH1 0x24 CALLDATALOAD DUP1 ISZERO PUSH2 0x746 JUMPI PUSH1 0x64 CALLDATALOAD DUP1 ISZERO PUSH2 0x736 JUMPI PUSH1 0x84 CALLDATALOAD DUP1 ISZERO PUSH2 0x71D JUMPI DUP1 DUP3 LT ISZERO PUSH2 0x71D JUMPI DUP2 DUP4 LT DUP1 ISZERO PUSH2 0x72D JUMPI JUMPDEST PUSH2 0x71D JUMPI DUP6 SWAP7 DUP6 PUSH32 0xE2F79756B343C74E689E134CCD9AAC9C809330DBD99E7342E366FF4867E20F7F SWAP7 SWAP8 MSTORE PUSH1 0x20 MSTORE PUSH1 0x3 DUP5 DUP9 KECCAK256 DUP5 DUP2 SSTORE PUSH1 0x44 CALLDATALOAD SWAP4 DUP5 PUSH1 0x1 DUP4 ADD SSTORE PUSH1 0x2 DUP3 ADD SSTORE ADD SSTORE DUP3 MLOAD SWAP2 DUP3 MSTORE PUSH1 0x20 DUP3 ADD MSTORE LOG2 DUP1 RETURN JUMPDEST DUP4 MLOAD PUSH4 0x2FF67A01 PUSH1 0xE2 SHL DUP2 MSTORE DUP8 SWAP1 REVERT JUMPDEST POP DUP1 DUP4 GT PUSH2 0x6C8 JUMP JUMPDEST DUP3 MLOAD PUSH4 0x2FF67A01 PUSH1 0xE2 SHL DUP2 MSTORE DUP7 SWAP1 REVERT JUMPDEST DUP2 MLOAD PUSH4 0x2FF67A01 PUSH1 0xE2 SHL DUP2 MSTORE DUP6 SWAP1 REVERT JUMPDEST MLOAD PUSH4 0xD92E233D PUSH1 0xE0 SHL DUP2 MSTORE DUP4 SWAP1 REVERT JUMPDEST POP DUP1 REVERT JUMPDEST POP SWAP2 CALLVALUE PUSH2 0x7AD JUMPI DUP2 PUSH1 0x3 NOT CALLDATASIZE ADD SLT PUSH2 0x7AD JUMPI POP PUSH2 0x784 PUSH2 0x118C JUMP JUMPDEST SWAP2 PUSH1 0x1 PUSH1 0x1 PUSH1 0xA0 SHL SUB DUP4 AND ISZERO PUSH2 0x558 JUMPI POP PUSH2 0x7A4 PUSH1 0x20 SWAP3 PUSH1 0x24 CALLDATALOAD SWAP1 PUSH2 0x138A JUMP JUMPDEST SWAP1 MLOAD SWAP1 ISZERO ISZERO DUP2 MSTORE RETURN JUMPDEST DUP1 REVERT JUMPDEST POP POP CALLVALUE PUSH2 0x765 JUMPI DUP2 PUSH1 0x3 NOT CALLDATASIZE ADD SLT PUSH2 0x765 JUMPI SWAP1 SLOAD SWAP1 MLOAD PUSH1 0x1 PUSH1 0x1 PUSH1 0xA0 SHL SUB SWAP1 SWAP2 AND DUP2 MSTORE PUSH1 0x20 SWAP1 RETURN JUMPDEST POP CALLVALUE PUSH2 0x182 JUMPI DUP3 PUSH1 0x3 NOT CALLDATASIZE ADD SLT PUSH2 0x182 JUMPI PUSH2 0x7F1 PUSH2 0x11DB JUMP JUMPDEST PUSH1 0x2 SLOAD SWAP1 PUSH1 0xFF DUP3 AND PUSH2 0x835 JUMPI POP PUSH1 0xFF NOT AND PUSH1 0x1 OR PUSH1 0x2 SSTORE MLOAD CALLER DUP2 MSTORE PUSH32 0x62E78CEA01BEE320CD4E420270B5EA74000D11B0C9F74754EBDBFC544B05A258 SWAP1 PUSH1 0x20 SWAP1 LOG1 DUP1 RETURN JUMPDEST DUP3 MLOAD PUSH4 0xD93C0665 PUSH1 0xE0 SHL DUP2 MSTORE REVERT JUMPDEST POP SWAP1 CALLVALUE PUSH2 0x182 JUMPI DUP1 PUSH1 0x3 NOT CALLDATASIZE ADD SLT PUSH2 0x182 JUMPI PUSH1 0x1 PUSH1 0x1 PUSH1 0xA0 SHL SUB PUSH2 0x865 PUSH2 0x118C JUMP JUMPDEST AND DUP1 ISZERO PUSH2 0x9F5 JUMPI DUP4 MSTORE PUSH1 0x5 PUSH1 0x20 MSTORE DUP1 DUP4 KECCAK256 SWAP3 PUSH1 0x6 PUSH1 0x20 MSTORE DUP2 DUP2 KECCAK256 SWAP3 DUP5 SLOAD PUSH1 0x2 DUP2 LT PUSH2 0x9E6 JUMPI PUSH1 0x24 SWAP4 PUSH2 0x898 DUP6 CALLDATALOAD TIMESTAMP PUSH2 0x12D3 JUMP JUMPDEST SWAP7 PUSH1 0x0 NOT SWAP8 DUP9 DUP5 ADD SWAP4 DUP5 GT PUSH2 0x9D4 JUMPI SWAP1 PUSH2 0x8B2 DUP5 DUP3 PUSH2 0x12A5 JUMP JUMPDEST SWAP3 SWAP1 SLOAD PUSH1 0x3 SWAP4 DUP5 SHL SHR SWAP5 JUMPDEST DUP2 PUSH2 0x8C8 DUP3 DUP13 PUSH2 0x12A5 JUMP JUMPDEST SWAP1 SLOAD SWAP1 DUP7 SHL SHR LT ISZERO PUSH2 0x8F3 JUMPI DUP1 ISZERO PUSH2 0x8E1 JUMPI DUP11 ADD PUSH2 0x8BD JUMP JUMPDEST PUSH4 0x4E487B71 PUSH1 0xE0 SHL DUP9 MSTORE PUSH1 0x11 DUP8 MSTORE DUP9 DUP9 REVERT JUMPDEST DUP8 SWAP2 POP SWAP3 PUSH2 0x903 DUP8 SWAP5 DUP11 SWAP5 PUSH2 0x12A5 JUMP JUMPDEST SWAP1 SLOAD SWAP2 SHL SHR SWAP5 DUP6 ISZERO PUSH2 0x9C4 JUMPI DUP6 DUP2 GT ISZERO PUSH2 0x95D JUMPI DUP6 PUSH2 0x921 SWAP2 PUSH2 0x12D3 JUMP JUMPDEST SWAP3 PUSH2 0x2710 SWAP4 DUP5 DUP2 MUL SWAP5 DUP2 DUP7 DIV EQ SWAP1 ISZERO OR ISZERO PUSH2 0x94D JUMPI POP POP POP PUSH1 0x20 SWAP3 PUSH2 0x945 SWAP2 PUSH2 0x12F3 JUMP JUMPDEST SWAP1 JUMPDEST MLOAD SWAP1 DUP2 MSTORE RETURN JUMPDEST PUSH4 0x4E487B71 PUSH1 0xE0 SHL DUP3 MSTORE PUSH1 0x11 SWAP1 MSTORE REVERT JUMPDEST PUSH2 0x96A SWAP1 DUP7 SWAP3 SWAP4 SWAP7 PUSH2 0x12D3 JUMP JUMPDEST PUSH2 0x2710 SWAP1 DUP2 DUP2 MUL SWAP2 DUP2 DUP4 DIV EQ SWAP1 ISZERO OR ISZERO PUSH2 0x9B2 JUMPI SWAP1 PUSH2 0x988 SWAP2 PUSH2 0x12F3 JUMP JUMPDEST SWAP2 PUSH1 0x1 PUSH1 0xFF SHL DUP4 EQ PUSH2 0x9A0 JUMPI POP PUSH1 0x20 SWAP4 POP SUB SWAP1 PUSH2 0x947 JUMP JUMPDEST PUSH4 0x4E487B71 PUSH1 0xE0 SHL DUP3 MSTORE PUSH1 0x11 SWAP1 MSTORE DUP4 SWAP1 REVERT JUMPDEST PUSH4 0x4E487B71 PUSH1 0xE0 SHL DUP4 MSTORE PUSH1 0x11 DUP5 MSTORE DUP6 DUP4 REVERT JUMPDEST DUP5 MLOAD PUSH4 0x2C064491 PUSH1 0xE0 SHL DUP2 MSTORE DUP5 SWAP1 REVERT JUMPDEST PUSH4 0x4E487B71 PUSH1 0xE0 SHL DUP7 MSTORE PUSH1 0x11 DUP6 MSTORE DUP7 DUP7 REVERT JUMPDEST POP DUP3 MLOAD PUSH4 0x2C064491 PUSH1 0xE0 SHL DUP2 MSTORE REVERT JUMPDEST POP MLOAD PUSH4 0xD92E233D PUSH1 0xE0 SHL DUP2 MSTORE REVERT JUMPDEST POP CALLVALUE PUSH2 0x182 JUMPI DUP2 PUSH1 0x3 NOT CALLDATASIZE ADD SLT PUSH2 0x182 JUMPI PUSH2 0xA1C PUSH2 0x118C JUMP JUMPDEST PUSH1 0x24 CALLDATALOAD SWAP2 SWAP1 PUSH1 0x1 PUSH1 0x1 PUSH1 0xA0 SHL SUB AND DUP1 ISZERO PUSH2 0xB20 JUMPI DUP3 ISZERO DUP1 ISZERO PUSH2 0xB17 JUMPI JUMPDEST PUSH2 0xB08 JUMPI DUP5 MSTORE PUSH1 0x6 PUSH1 0x20 MSTORE DUP3 DUP5 KECCAK256 PUSH1 0x5 PUSH1 0x20 MSTORE DUP4 DUP6 KECCAK256 SWAP3 DUP2 SLOAD SWAP3 DUP4 ISZERO PUSH2 0xAFA JUMPI POP DUP6 PUSH1 0x0 NOT SWAP3 DUP2 JUMPDEST DUP6 DUP2 LT PUSH2 0xA83 JUMPI PUSH1 0x20 DUP9 PUSH2 0xA75 DUP12 DUP11 PUSH2 0x12A5 JUMP JUMPDEST SWAP2 SWAP1 SLOAD SWAP1 MLOAD SWAP2 PUSH1 0x3 SHL SHR DUP2 MSTORE RETURN JUMPDEST DUP4 PUSH2 0xA8E DUP3 DUP5 PUSH2 0x12A5 JUMP JUMPDEST SWAP1 SLOAD PUSH1 0x3 SWAP3 SWAP2 DUP4 SHL SHR DUP2 GT ISZERO PUSH2 0xADD JUMPI POP PUSH2 0xAB8 SWAP1 PUSH2 0xAAD DUP4 DUP6 PUSH2 0x12A5 JUMP JUMPDEST SWAP1 SLOAD SWAP2 SHL SHR DUP6 PUSH2 0x12D3 JUMP JUMPDEST DUP6 DUP2 LT PUSH2 0xACF JUMPI JUMPDEST POP PUSH2 0xACA SWAP1 PUSH2 0x1280 JUMP JUMPDEST PUSH2 0xA61 JUMP JUMPDEST SWAP1 SWAP9 POP SWAP4 POP DUP8 PUSH2 0xACA PUSH2 0xAC0 JUMP JUMPDEST PUSH2 0xAF5 SWAP2 PUSH2 0xAEB DUP5 DUP7 PUSH2 0x12A5 JUMP JUMPDEST SWAP1 SLOAD SWAP2 SHL SHR PUSH2 0x12D3 JUMP JUMPDEST PUSH2 0xAB8 JUMP JUMPDEST DUP6 MLOAD PUSH4 0xAF899D2F PUSH1 0xE0 SHL DUP2 MSTORE REVERT JUMPDEST POP DUP3 MLOAD PUSH4 0xB7D09497 PUSH1 0xE0 SHL DUP2 MSTORE REVERT JUMPDEST POP TIMESTAMP DUP4 GT PUSH2 0xA39 JUMP JUMPDEST POP DUP3 MLOAD PUSH4 0xD92E233D PUSH1 0xE0 SHL DUP2 MSTORE REVERT JUMPDEST DUP4 CALLVALUE PUSH2 0x7AD JUMPI DUP1 PUSH1 0x3 NOT CALLDATASIZE ADD SLT PUSH2 0x7AD JUMPI PUSH2 0xB48 PUSH2 0x11DB JUMP JUMPDEST DUP1 SLOAD PUSH1 0x1 PUSH1 0x1 PUSH1 0xA0 SHL SUB NOT DUP2 AND DUP3 SSTORE DUP2 SWAP1 PUSH1 0x1 PUSH1 0x1 PUSH1 0xA0 SHL SUB AND PUSH32 0x8BE0079C531659141344CD1FD0A4F28419497F9722A3DAAFE3B4186F6B6457E0 DUP3 DUP1 LOG3 DUP1 RETURN JUMPDEST POP POP CALLVALUE PUSH2 0x765 JUMPI DUP2 PUSH1 0x3 NOT CALLDATASIZE ADD SLT PUSH2 0x765 JUMPI PUSH1 0x20 SWAP1 PUSH1 0xFF PUSH1 0x2 SLOAD AND SWAP1 MLOAD SWAP1 ISZERO ISZERO DUP2 MSTORE RETURN JUMPDEST POP CALLVALUE PUSH2 0x182 JUMPI DUP2 PUSH1 0x3 NOT CALLDATASIZE ADD SLT PUSH2 0x182 JUMPI PUSH1 0x1 PUSH1 0x1 PUSH1 0xA0 SHL SUB PUSH2 0xBCE PUSH2 0x118C JUMP JUMPDEST AND DUP1 ISZERO PUSH2 0xDBB JUMPI DUP4 MSTORE PUSH1 0x5 PUSH1 0x20 MSTORE DUP2 DUP4 KECCAK256 SWAP1 PUSH1 0x6 PUSH1 0x20 MSTORE DUP3 DUP5 KECCAK256 SWAP4 DUP3 SLOAD SWAP1 PUSH1 0x2 DUP3 LT PUSH2 0xDAB JUMPI PUSH1 0x24 SWAP4 PUSH2 0xC02 DUP6 CALLDATALOAD TIMESTAMP PUSH2 0x12D3 JUMP JUMPDEST SWAP1 DUP3 SWAP6 DUP4 SWAP9 PUSH1 0x1 JUMPDEST DUP7 DUP2 LT PUSH2 0xC6B JUMPI DUP11 DUP11 DUP11 DUP11 DUP4 ISZERO PUSH2 0xC5D JUMPI POP PUSH2 0xC2B PUSH1 0x20 SWAP4 PUSH2 0xC30 SWAP3 PUSH2 0x12F3 JUMP JUMPDEST PUSH2 0x1473 JUMP JUMPDEST SWAP1 PUSH1 0x1 DUP3 LT PUSH2 0xC54 JUMPI JUMPDEST PUSH2 0x3E8 DUP1 DUP4 GT PUSH2 0xC4C JUMPI JUMPDEST POP MLOAD SWAP1 DUP2 MSTORE RETURN JUMPDEST SWAP2 POP DUP4 PUSH2 0xC45 JUMP JUMPDEST PUSH1 0x1 SWAP2 POP PUSH2 0xC3A JUMP JUMPDEST DUP3 MLOAD PUSH4 0x2C064491 PUSH1 0xE0 SHL DUP2 MSTORE REVERT JUMPDEST DUP5 PUSH2 0xC76 DUP3 DUP5 PUSH2 0x12A5 JUMP JUMPDEST SWAP2 SWAP1 SLOAD PUSH1 0x3 SWAP3 DUP4 SHL SHR LT ISZERO PUSH2 0xC95 JUMPI JUMPDEST POP PUSH2 0xC90 SWAP1 PUSH2 0x1280 JUMP JUMPDEST PUSH2 0xC0A JUMP JUMPDEST PUSH2 0xCA3 DUP3 DUP7 SWAP14 SWAP12 SWAP4 SWAP14 PUSH2 0x12A5 JUMP JUMPDEST SWAP1 SLOAD SWAP1 DUP3 SHL SHR SWAP1 PUSH1 0x0 NOT DUP14 ADD DUP14 DUP2 GT SWAP3 DUP4 PUSH2 0xD72 JUMPI DUP15 SWAP1 PUSH2 0xCC4 DUP4 DUP11 PUSH2 0x12A5 JUMP JUMPDEST SWAP1 SLOAD SWAP1 DUP6 SHL SHR LT ISZERO PUSH2 0xD84 JUMPI PUSH2 0xCDB DUP5 SWAP2 DUP10 PUSH2 0x12A5 JUMP JUMPDEST SWAP1 SLOAD SWAP1 DUP5 SHL SHR SWAP1 PUSH2 0xD72 JUMPI PUSH2 0xD00 SWAP1 PUSH2 0xCF4 DUP4 DUP11 PUSH2 0x12A5 JUMP JUMPDEST SWAP1 SLOAD SWAP1 DUP6 SHL SHR SWAP1 PUSH2 0x12D3 JUMP JUMPDEST SWAP3 JUMPDEST PUSH8 0xDE0B6B3A7640000 SWAP4 DUP5 DUP2 MUL SWAP5 DUP2 DUP7 DIV EQ SWAP1 ISZERO OR ISZERO PUSH2 0xD72 JUMPI PUSH2 0xD60 JUMPI SWAP3 PUSH2 0xD4D PUSH2 0xD47 PUSH2 0xD59 SWAP5 PUSH2 0xD53 SWAP5 PUSH2 0xD3C PUSH2 0xC90 SWAP9 DUP13 PUSH2 0x12A5 JUMP JUMPDEST SWAP1 SLOAD SWAP2 SHL SHR SWAP1 PUSH2 0x12F3 JUMP JUMPDEST DUP1 PUSH2 0x12E0 JUMP JUMPDEST SWAP1 PUSH2 0x1313 JUMP JUMPDEST SWAP10 PUSH2 0x1280 JUMP JUMPDEST SWAP11 SWAP1 PUSH2 0xC86 JUMP JUMPDEST PUSH4 0x4E487B71 PUSH1 0xE0 SHL DUP10 MSTORE PUSH1 0x11 DUP12 MSTORE DUP6 DUP10 REVERT JUMPDEST PUSH4 0x4E487B71 PUSH1 0xE0 SHL DUP11 MSTORE PUSH1 0x11 DUP13 MSTORE DUP7 DUP11 REVERT JUMPDEST SWAP3 POP PUSH2 0xDA5 DUP10 SWAP4 PUSH2 0xCF4 PUSH2 0xD98 DUP5 DUP12 PUSH2 0x12A5 JUMP JUMPDEST SWAP1 SLOAD SWAP1 DUP7 SHL SHR SWAP2 DUP11 PUSH2 0x12A5 JUMP JUMPDEST SWAP3 PUSH2 0xD02 JUMP JUMPDEST DUP5 MLOAD PUSH4 0x2C064491 PUSH1 0xE0 SHL DUP2 MSTORE DUP4 SWAP1 REVERT JUMPDEST POP SWAP1 MLOAD PUSH4 0xD92E233D PUSH1 0xE0 SHL DUP2 MSTORE REVERT JUMPDEST POP CALLVALUE PUSH2 0x182 JUMPI DUP3 PUSH1 0x3 NOT CALLDATASIZE ADD SLT PUSH2 0x182 JUMPI PUSH2 0xDE3 PUSH2 0x11DB JUMP JUMPDEST PUSH1 0x2 SLOAD SWAP1 PUSH1 0xFF DUP3 AND ISZERO PUSH2 0xE25 JUMPI POP PUSH1 0xFF NOT AND PUSH1 0x2 SSTORE MLOAD CALLER DUP2 MSTORE PUSH32 0x5DB9EE0A495BF2E6FF9C91A7834C1BA4FDD244A5E8AA4E537BD38AEAE4B073AA SWAP1 PUSH1 0x20 SWAP1 LOG1 DUP1 RETURN JUMPDEST DUP3 MLOAD PUSH4 0x8DFC202B PUSH1 0xE0 SHL DUP2 MSTORE REVERT JUMPDEST POP SWAP2 SWAP1 CALLVALUE PUSH2 0x765 JUMPI DUP1 PUSH1 0x3 NOT CALLDATASIZE ADD SLT PUSH2 0x765 JUMPI PUSH1 0x1 PUSH1 0x1 PUSH1 0xA0 SHL SUB PUSH2 0xE56 PUSH2 0x118C JUMP JUMPDEST AND SWAP3 DUP4 ISZERO PUSH2 0x558 JUMPI DUP4 DUP4 MSTORE PUSH1 0x20 SWAP4 DUP2 DUP6 MSTORE DUP3 DUP5 KECCAK256 SWAP4 DUP4 MLOAD SWAP3 PUSH2 0xE77 DUP5 PUSH2 0x1207 JUMP JUMPDEST DUP6 SLOAD SWAP3 DUP4 DUP6 MSTORE PUSH1 0x1 DUP8 ADD SLOAD SWAP4 DUP9 DUP7 ADD SWAP5 DUP6 MSTORE PUSH1 0x60 PUSH1 0x3 PUSH1 0x2 DUP11 ADD SLOAD SWAP10 DUP10 DUP10 ADD SWAP11 DUP12 MSTORE ADD SLOAD SWAP7 ADD SWAP6 DUP7 MSTORE ISZERO PUSH2 0xF58 JUMPI DUP6 MLOAD PUSH4 0x585FD46D PUSH1 0xE0 SHL DUP2 MSTORE SWAP2 DUP3 ADD MSTORE PUSH2 0xE10 PUSH1 0x24 DUP3 ADD MSTORE DUP7 DUP2 PUSH1 0x44 DUP2 ADDRESS GAS STATICCALL SWAP2 DUP3 ISZERO PUSH2 0xF4D JUMPI DUP1 SWAP3 PUSH2 0xF19 JUMPI JUMPDEST POP POP PUSH2 0xEE6 PUSH1 0x64 SWAP2 PUSH2 0xEEF SWAP4 MLOAD SWAP1 PUSH2 0x12E0 JUMP JUMPDEST DIV PUSH1 0x24 CALLDATALOAD PUSH2 0x1313 JUMP JUMPDEST SWAP3 MLOAD DUP1 DUP5 LT PUSH2 0xF11 JUMPI JUMPDEST POP MLOAD DUP1 DUP4 GT PUSH2 0xF09 JUMPI POP MLOAD SWAP1 DUP2 MSTORE RETURN JUMPDEST SWAP2 POP CODESIZE PUSH2 0xC45 JUMP JUMPDEST SWAP3 POP CODESIZE PUSH2 0xEF9 JUMP JUMPDEST SWAP1 SWAP2 POP DUP7 DUP3 DUP2 RETURNDATASIZE DUP4 GT PUSH2 0xF46 JUMPI JUMPDEST PUSH2 0xF31 DUP2 DUP4 PUSH2 0x1239 JUMP JUMPDEST DUP2 ADD SUB SLT PUSH2 0x7AD JUMPI POP MLOAD PUSH2 0xEE6 PUSH2 0xEEF PUSH2 0xED3 JUMP JUMPDEST POP RETURNDATASIZE PUSH2 0xF27 JUMP JUMPDEST DUP6 MLOAD SWAP1 RETURNDATASIZE SWAP1 DUP3 RETURNDATACOPY RETURNDATASIZE SWAP1 REVERT JUMPDEST POP DUP5 MLOAD PUSH4 0x5952C935 PUSH1 0xE0 SHL DUP2 MSTORE REVERT JUMPDEST POP SWAP2 CALLVALUE PUSH2 0x7AD JUMPI PUSH1 0x20 CALLDATASIZE PUSH1 0x3 NOT ADD SLT PUSH2 0x7AD JUMPI DUP2 SWAP1 PUSH2 0xF84 PUSH2 0x118C JUMP JUMPDEST PUSH2 0xF8C PUSH2 0x125B JUMP JUMPDEST POP PUSH1 0x1 PUSH1 0x1 PUSH1 0xA0 SHL SUB AND DUP1 ISZERO PUSH2 0x1013 JUMPI DUP2 MSTORE PUSH1 0x3 PUSH1 0x20 MSTORE KECCAK256 DUP2 MLOAD SWAP2 PUSH2 0xFB0 DUP4 PUSH2 0x1207 JUMP JUMPDEST DUP2 SLOAD SWAP2 DUP3 DUP5 MSTORE PUSH1 0x1 DUP2 ADD SLOAD PUSH1 0x20 DUP6 ADD SWAP1 DUP2 MSTORE PUSH1 0xFF PUSH1 0x3 PUSH1 0x2 DUP5 ADD SLOAD SWAP4 DUP6 DUP9 ADD SWAP5 DUP6 MSTORE ADD SLOAD AND SWAP4 PUSH1 0x60 DUP7 ADD SWAP5 ISZERO ISZERO DUP6 MSTORE ISZERO PUSH2 0x1003 JUMPI PUSH1 0x80 SWAP6 POP DUP3 MLOAD SWAP5 MLOAD DUP6 MSTORE MLOAD PUSH1 0x20 DUP6 ADD MSTORE MLOAD SWAP1 DUP4 ADD MSTORE MLOAD ISZERO ISZERO PUSH1 0x60 DUP3 ADD MSTORE RETURN JUMPDEST DUP3 MLOAD PUSH4 0xAF899D2F PUSH1 0xE0 SHL DUP2 MSTORE DUP7 SWAP1 REVERT JUMPDEST POP POP POP MLOAD PUSH4 0xD92E233D PUSH1 0xE0 SHL DUP2 MSTORE REVERT JUMPDEST POP POP CALLVALUE PUSH2 0x765 JUMPI PUSH1 0x20 CALLDATASIZE PUSH1 0x3 NOT ADD SLT PUSH2 0x765 JUMPI PUSH1 0x20 SWAP2 SWAP1 PUSH1 0x1 PUSH1 0x1 PUSH1 0xA0 SHL SUB DUP1 PUSH2 0x104B PUSH2 0x118C JUMP JUMPDEST AND SWAP1 DUP2 DUP5 MSTORE PUSH1 0x7 DUP6 MSTORE PUSH1 0xFF DUP4 DUP6 KECCAK256 SLOAD AND SWAP4 DUP5 ISZERO PUSH2 0x106E JUMPI JUMPDEST POP POP POP MLOAD SWAP1 ISZERO ISZERO DUP2 MSTORE RETURN JUMPDEST SLOAD AND EQ SWAP2 POP CODESIZE DUP1 DUP1 PUSH2 0x1063 JUMP JUMPDEST POP SWAP1 CALLVALUE PUSH2 0x182 JUMPI PUSH1 0x20 CALLDATASIZE PUSH1 0x3 NOT ADD SLT PUSH2 0x182 JUMPI PUSH2 0x1096 PUSH2 0x118C JUMP JUMPDEST PUSH2 0x109E PUSH2 0x11DB JUMP JUMPDEST PUSH1 0x1 PUSH1 0x1 PUSH1 0xA0 SHL SUB AND SWAP2 DUP3 ISZERO PUSH2 0x558 JUMPI POP DUP2 DUP4 MSTORE PUSH1 0x7 PUSH1 0x20 MSTORE DUP3 KECCAK256 DUP1 SLOAD PUSH1 0xFF NOT AND SWAP1 SSTORE PUSH32 0x1E7404AD525DDABDAE986AED5F41BCA4FE6E65BE9F9136FEA1D83F4457924B9D DUP3 DUP1 LOG2 DUP1 RETURN JUMPDEST POP SWAP2 CALLVALUE PUSH2 0x7AD JUMPI PUSH1 0x20 CALLDATASIZE PUSH1 0x3 NOT ADD SLT PUSH2 0x7AD JUMPI DUP2 SWAP1 PUSH2 0x1105 PUSH2 0x118C JUMP JUMPDEST PUSH2 0x110D PUSH2 0x125B JUMP JUMPDEST POP PUSH1 0x1 PUSH1 0x1 PUSH1 0xA0 SHL SUB AND DUP1 ISZERO PUSH2 0x1013 JUMPI DUP2 MSTORE DUP4 PUSH1 0x20 MSTORE KECCAK256 DUP2 MLOAD SWAP2 PUSH2 0x1130 DUP4 PUSH2 0x1207 JUMP JUMPDEST DUP2 SLOAD SWAP2 DUP3 DUP5 MSTORE PUSH1 0x1 DUP2 ADD SLOAD PUSH1 0x20 DUP6 ADD SWAP1 DUP2 MSTORE PUSH1 0x3 PUSH1 0x2 DUP4 ADD SLOAD SWAP3 DUP5 DUP8 ADD SWAP4 DUP5 MSTORE ADD SLOAD SWAP4 PUSH1 0x60 DUP7 ADD SWAP5 DUP6 MSTORE ISZERO PUSH2 0x117C JUMPI PUSH1 0x80 SWAP6 POP DUP3 MLOAD SWAP5 MLOAD DUP6 MSTORE MLOAD PUSH1 0x20 DUP6 ADD MSTORE MLOAD SWAP1 DUP4 ADD MSTORE MLOAD PUSH1 0x60 DUP3 ADD MSTORE RETURN JUMPDEST DUP3 MLOAD PUSH4 0x5952C935 PUSH1 0xE0 SHL DUP2 MSTORE DUP7 SWAP1 REVERT JUMPDEST PUSH1 0x4 CALLDATALOAD SWAP1 PUSH1 0x1 PUSH1 0x1 PUSH1 0xA0 SHL SUB DUP3 AND DUP3 SUB PUSH2 0x11A2 JUMPI JUMP JUMPDEST PUSH1 0x0 DUP1 REVERT JUMPDEST SWAP1 DUP2 MLOAD DUP1 DUP3 MSTORE PUSH1 0x20 DUP1 DUP1 SWAP4 ADD SWAP4 ADD SWAP2 PUSH1 0x0 JUMPDEST DUP3 DUP2 LT PUSH2 0x11C7 JUMPI POP POP POP POP SWAP1 JUMP JUMPDEST DUP4 MLOAD DUP6 MSTORE SWAP4 DUP2 ADD SWAP4 SWAP3 DUP2 ADD SWAP3 PUSH1 0x1 ADD PUSH2 0x11B9 JUMP JUMPDEST PUSH1 0x0 SLOAD PUSH1 0x1 PUSH1 0x1 PUSH1 0xA0 SHL SUB AND CALLER SUB PUSH2 0x11EF JUMPI JUMP JUMPDEST PUSH1 0x40 MLOAD PUSH4 0x118CDAA7 PUSH1 0xE0 SHL DUP2 MSTORE CALLER PUSH1 0x4 DUP3 ADD MSTORE PUSH1 0x24 SWAP1 REVERT JUMPDEST PUSH1 0x80 DUP2 ADD SWAP1 DUP2 LT PUSH8 0xFFFFFFFFFFFFFFFF DUP3 GT OR PUSH2 0x1223 JUMPI PUSH1 0x40 MSTORE JUMP JUMPDEST PUSH4 0x4E487B71 PUSH1 0xE0 SHL PUSH1 0x0 MSTORE PUSH1 0x41 PUSH1 0x4 MSTORE PUSH1 0x24 PUSH1 0x0 REVERT JUMPDEST SWAP1 PUSH1 0x1F DUP1 NOT SWAP2 ADD AND DUP2 ADD SWAP1 DUP2 LT PUSH8 0xFFFFFFFFFFFFFFFF DUP3 GT OR PUSH2 0x1223 JUMPI PUSH1 0x40 MSTORE JUMP JUMPDEST PUSH1 0x40 MLOAD SWAP1 PUSH2 0x1268 DUP3 PUSH2 0x1207 JUMP JUMPDEST PUSH1 0x0 PUSH1 0x60 DUP4 DUP3 DUP2 MSTORE DUP3 PUSH1 0x20 DUP3 ADD MSTORE DUP3 PUSH1 0x40 DUP3 ADD MSTORE ADD MSTORE JUMP JUMPDEST PUSH1 0x0 NOT DUP2 EQ PUSH2 0x128F JUMPI PUSH1 0x1 ADD SWAP1 JUMP JUMPDEST PUSH4 0x4E487B71 PUSH1 0xE0 SHL PUSH1 0x0 MSTORE PUSH1 0x11 PUSH1 0x4 MSTORE PUSH1 0x24 PUSH1 0x0 REVERT JUMPDEST DUP1 SLOAD DUP3 LT ISZERO PUSH2 0x12BD JUMPI PUSH1 0x0 MSTORE PUSH1 0x20 PUSH1 0x0 KECCAK256 ADD SWAP1 PUSH1 0x0 SWAP1 JUMP JUMPDEST PUSH4 0x4E487B71 PUSH1 0xE0 SHL PUSH1 0x0 MSTORE PUSH1 0x32 PUSH1 0x4 MSTORE PUSH1 0x24 PUSH1 0x0 REVERT JUMPDEST SWAP2 SWAP1 DUP3 SUB SWAP2 DUP3 GT PUSH2 0x128F JUMPI JUMP JUMPDEST DUP2 DUP2 MUL SWAP3 SWAP2 DUP2 ISZERO SWAP2 DUP5 DIV EQ OR ISZERO PUSH2 0x128F JUMPI JUMP JUMPDEST DUP2 ISZERO PUSH2 0x12FD JUMPI DIV SWAP1 JUMP JUMPDEST PUSH4 0x4E487B71 PUSH1 0xE0 SHL PUSH1 0x0 MSTORE PUSH1 0x12 PUSH1 0x4 MSTORE PUSH1 0x24 PUSH1 0x0 REVERT JUMPDEST SWAP2 SWAP1 DUP3 ADD DUP1 SWAP3 GT PUSH2 0x128F JUMPI JUMP JUMPDEST SWAP1 DUP2 SLOAD SWAP2 PUSH9 0x10000000000000000 DUP4 LT ISZERO PUSH2 0x1223 JUMPI DUP3 PUSH2 0x3F3 SWAP2 PUSH1 0x1 PUSH2 0x1348 SWAP6 ADD DUP2 SSTORE PUSH2 0x12A5 JUMP JUMPDEST JUMP JUMPDEST DUP1 SLOAD SWAP1 DUP2 ISZERO PUSH2 0x1374 JUMPI PUSH1 0x0 NOT SWAP2 DUP3 ADD SWAP2 PUSH2 0x1364 DUP4 DUP4 PUSH2 0x12A5 JUMP JUMPDEST SWAP1 SWAP2 DUP3 SLOAD SWAP2 PUSH1 0x3 SHL SHL NOT AND SWAP1 SSTORE SSTORE JUMP JUMPDEST PUSH4 0x4E487B71 PUSH1 0xE0 SHL PUSH1 0x0 MSTORE PUSH1 0x31 PUSH1 0x4 MSTORE PUSH1 0x24 PUSH1 0x0 REVERT JUMPDEST PUSH1 0x1 DUP1 PUSH1 0xA0 SHL SUB AND PUSH1 0x0 MSTORE PUSH1 0x3 PUSH1 0x20 MSTORE PUSH1 0x40 PUSH1 0x0 KECCAK256 PUSH1 0x40 MLOAD PUSH2 0x13AB DUP2 PUSH2 0x1207 JUMP JUMPDEST DUP2 SLOAD SWAP1 DUP2 DUP2 MSTORE PUSH1 0x60 PUSH1 0xFF PUSH1 0x3 PUSH1 0x1 DUP7 ADD SLOAD SWAP6 DUP7 PUSH1 0x20 DUP7 ADD MSTORE PUSH1 0x2 DUP2 ADD SLOAD PUSH1 0x40 DUP7 ADD MSTORE ADD SLOAD AND ISZERO ISZERO SWAP2 ADD MSTORE ISZERO PUSH2 0x13E8 JUMPI PUSH2 0x13E4 SWAP1 TIMESTAMP PUSH2 0x12D3 JUMP JUMPDEST GT SWAP1 JUMP JUMPDEST POP POP PUSH1 0x1 SWAP1 JUMP JUMPDEST DUP1 SLOAD SWAP1 PUSH1 0x0 SWAP1 DUP2 DUP2 SSTORE DUP3 PUSH2 0x1402 JUMPI POP POP POP JUMP JUMPDEST DUP2 MSTORE PUSH1 0x20 DUP2 KECCAK256 SWAP2 DUP3 ADD SWAP2 JUMPDEST DUP3 DUP2 LT PUSH2 0x1419 JUMPI POP POP POP JUMP JUMPDEST DUP2 DUP2 SSTORE PUSH1 0x1 ADD PUSH2 0x140D JUMP JUMPDEST SWAP1 PUSH1 0x40 MLOAD SWAP2 DUP3 DUP2 SLOAD SWAP2 DUP3 DUP3 MSTORE PUSH1 0x20 SWAP3 DUP4 DUP4 ADD SWAP2 PUSH1 0x0 MSTORE DUP4 PUSH1 0x0 KECCAK256 SWAP4 PUSH1 0x0 SWAP1 JUMPDEST DUP3 DUP3 LT PUSH2 0x1459 JUMPI POP POP POP PUSH2 0x1348 SWAP3 POP SUB DUP4 PUSH2 0x1239 JUMP JUMPDEST DUP6 SLOAD DUP5 MSTORE PUSH1 0x1 SWAP6 DUP7 ADD SWAP6 DUP9 SWAP6 POP SWAP4 DUP2 ADD SWAP4 SWAP1 SWAP2 ADD SWAP1 PUSH2 0x1443 JUMP JUMPDEST SWAP1 DUP2 ISZERO PUSH2 0x14C2 JUMPI PUSH1 0x1 DUP1 DUP4 EQ PUSH2 0x14BE JUMPI DUP1 DUP4 ADD DUP1 DUP5 GT PUSH2 0x128F JUMPI DUP2 SHR SWAP1 DUP4 JUMPDEST DUP5 DUP4 LT PUSH2 0x149E JUMPI POP POP POP JUMP JUMPDEST SWAP1 SWAP2 SWAP4 POP PUSH2 0x14B5 DUP5 PUSH2 0x14B0 DUP2 DUP5 PUSH2 0x12F3 JUMP JUMPDEST PUSH2 0x1313 JUMP JUMPDEST DUP3 SHR SWAP2 SWAP1 PUSH2 0x1492 JUMP JUMPDEST SWAP2 POP JUMP JUMPDEST PUSH1 0x0 SWAP2 POP JUMP INVALID LOG2 PUSH5 0x6970667358 0x22 SLT KECCAK256 0xB0 0xD6 0x2D PUSH21 0x350067C87DD368B833AEF968C717E83695CAAB88CB DUP10 PUSH9 0x2DF40FDEA064736F6C PUSH4 0x43000814 STOP CALLER "},"methodIdentifiers":{"authorizeUpdater(address)":"9cbe6097","calculateDynamicSpacing(address,uint256)":"2ca81a51","clearPriceHistory(address)":"dee7fa5e","deauthorizeUpdater(address)":"0604c161","getLatestPrice(address)":"16345f18","getPriceAt(address,uint256)":"7cce5dde","getPriceChangePercent(address,uint256)":"8438f091","getPriceHistory(address)":"988d594c","getVolatility(address,uint256)":"585fd46d","getVolatilityConfig(address)":"029bb143","isPriceStale(address,uint256)":"907abef4","isUpdaterAuthorized(address)":"0cc0c20e","owner()":"8da5cb5b","pause()":"8456cb59","paused()":"5c975abb","renounceOwnership()":"715018a6","setVolatilityConfig(address,(uint256,uint256,uint256,uint256))":"937f06a6","transferOwnership(address)":"f2fde38b","unpause()":"3f4ba83a","updatePrice(address,uint256,uint256)":"e57d6fb7"}}}}}