{"contracts/inchbyinchFactory.sol":{"inchbyinchFactory":{"abi":[{"inputs":[{"internalType":"address","name":"_botImplementation","type":"address"},{"internalType":"address","name":"_orderManager","type":"address"},{"internalType":"address","name":"_oracleAdapter","type":"address"},{"internalType":"address","name":"_lop","type":"address"}],"stateMutability":"nonpayable","type":"constructor"},{"inputs":[],"name":"BotAlreadyExists","type":"error"},{"inputs":[],"name":"BotDeploymentFailed","type":"error"},{"inputs":[],"name":"BotNotFound","type":"error"},{"inputs":[],"name":"BotUpgradeFailed","type":"error"},{"inputs":[],"name":"EnforcedPause","type":"error"},{"inputs":[],"name":"ExcessiveDeposit","type":"error"},{"inputs":[],"name":"ExpectedPause","type":"error"},{"inputs":[],"name":"FailedDeployment","type":"error"},{"inputs":[{"internalType":"uint256","name":"balance","type":"uint256"},{"internalType":"uint256","name":"needed","type":"uint256"}],"name":"InsufficientBalance","type":"error"},{"inputs":[],"name":"InsufficientDeposit","type":"error"},{"inputs":[],"name":"InvalidBotAddress","type":"error"},{"inputs":[],"name":"InvalidDeposit","type":"error"},{"inputs":[{"internalType":"address","name":"owner","type":"address"}],"name":"OwnableInvalidOwner","type":"error"},{"inputs":[{"internalType":"address","name":"account","type":"address"}],"name":"OwnableUnauthorizedAccount","type":"error"},{"inputs":[],"name":"ReentrancyGuardReentrantCall","type":"error"},{"inputs":[],"name":"UnauthorizedToken","type":"error"},{"inputs":[],"name":"UserLimitExceeded","type":"error"},{"inputs":[],"name":"ZeroAddress","type":"error"},{"inputs":[],"name":"ZeroAmount","type":"error"},{"anonymous":false,"inputs":[{"indexed":true,"internalType":"address","name":"user","type":"address"},{"indexed":true,"internalType":"address","name":"bot","type":"address"},{"indexed":true,"internalType":"uint256","name":"botIndex","type":"uint256"},{"indexed":false,"internalType":"uint256","name":"deploymentCost","type":"uint256"}],"name":"BotDeployed","type":"event"},{"anonymous":false,"inputs":[{"indexed":true,"internalType":"address","name":"user","type":"address"},{"indexed":true,"internalType":"address","name":"oldBot","type":"address"},{"indexed":true,"internalType":"address","name":"newBot","type":"address"}],"name":"BotUpgraded","type":"event"},{"anonymous":false,"inputs":[{"indexed":false,"internalType":"uint256","name":"minDeposit","type":"uint256"},{"indexed":false,"internalType":"uint256","name":"maxDeposit","type":"uint256"}],"name":"DepositLimitsUpdated","type":"event"},{"anonymous":false,"inputs":[{"indexed":true,"internalType":"address","name":"previousOwner","type":"address"},{"indexed":true,"internalType":"address","name":"newOwner","type":"address"}],"name":"OwnershipTransferred","type":"event"},{"anonymous":false,"inputs":[{"indexed":false,"internalType":"address","name":"account","type":"address"}],"name":"Paused","type":"event"},{"anonymous":false,"inputs":[{"indexed":true,"internalType":"address","name":"token","type":"address"}],"name":"TokenAuthorized","type":"event"},{"anonymous":false,"inputs":[{"indexed":true,"internalType":"address","name":"token","type":"address"}],"name":"TokenDeauthorized","type":"event"},{"anonymous":false,"inputs":[{"indexed":false,"internalType":"address","name":"account","type":"address"}],"name":"Unpaused","type":"event"},{"anonymous":false,"inputs":[{"indexed":false,"internalType":"uint256","name":"newLimit","type":"uint256"}],"name":"UserLimitUpdated","type":"event"},{"stateMutability":"payable","type":"fallback"},{"inputs":[],"name":"MAX_BOTS_PER_USER","outputs":[{"internalType":"uint256","name":"","type":"uint256"}],"stateMutability":"view","type":"function"},{"inputs":[],"name":"MAX_DEPOSIT","outputs":[{"internalType":"uint256","name":"","type":"uint256"}],"stateMutability":"view","type":"function"},{"inputs":[],"name":"MIN_DEPOSIT","outputs":[{"internalType":"uint256","name":"","type":"uint256"}],"stateMutability":"view","type":"function"},{"inputs":[{"internalType":"address","name":"token","type":"address"}],"name":"authorizeToken","outputs":[],"stateMutability":"nonpayable","type":"function"},{"inputs":[{"internalType":"address","name":"","type":"address"}],"name":"authorizedTokens","outputs":[{"internalType":"bool","name":"","type":"bool"}],"stateMutability":"view","type":"function"},{"inputs":[{"internalType":"address","name":"","type":"address"}],"name":"botDeploymentCount","outputs":[{"internalType":"uint256","name":"","type":"uint256"}],"stateMutability":"view","type":"function"},{"inputs":[],"name":"botImplementation","outputs":[{"internalType":"address","name":"","type":"address"}],"stateMutability":"view","type":"function"},{"inputs":[{"internalType":"address","name":"token","type":"address"}],"name":"deauthorizeToken","outputs":[],"stateMutability":"nonpayable","type":"function"},{"inputs":[{"internalType":"address","name":"user","type":"address"}],"name":"deployBot","outputs":[{"internalType":"address","name":"bot","type":"address"}],"stateMutability":"payable","type":"function"},{"inputs":[{"internalType":"address","name":"user","type":"address"},{"internalType":"uint256","name":"count","type":"uint256"}],"name":"deployMultipleBots","outputs":[{"internalType":"address[]","name":"bots","type":"address[]"}],"stateMutability":"payable","type":"function"},{"inputs":[{"internalType":"address","name":"token","type":"address"},{"internalType":"address","name":"to","type":"address"},{"internalType":"uint256","name":"amount","type":"uint256"}],"name":"emergencyRecover","outputs":[],"stateMutability":"nonpayable","type":"function"},{"inputs":[],"name":"getBotImplementation","outputs":[{"internalType":"address","name":"implementation","type":"address"}],"stateMutability":"view","type":"function"},{"inputs":[],"name":"getFactoryConfig","outputs":[{"internalType":"address","name":"_orderManager","type":"address"},{"internalType":"address","name":"_oracleAdapter","type":"address"},{"internalType":"address","name":"_lop","type":"address"},{"internalType":"uint256","name":"_maxBotsPerUser","type":"uint256"},{"internalType":"uint256","name":"_minDeposit","type":"uint256"},{"internalType":"uint256","name":"_maxDeposit","type":"uint256"}],"stateMutability":"view","type":"function"},{"inputs":[{"internalType":"address","name":"user","type":"address"},{"internalType":"uint256","name":"botIndex","type":"uint256"}],"name":"getUserBot","outputs":[{"internalType":"address","name":"bot","type":"address"}],"stateMutability":"view","type":"function"},{"inputs":[{"internalType":"address","name":"user","type":"address"}],"name":"getUserBotCount","outputs":[{"internalType":"uint256","name":"count","type":"uint256"}],"stateMutability":"view","type":"function"},{"inputs":[{"internalType":"address","name":"user","type":"address"}],"name":"getUserBots","outputs":[{"internalType":"address[]","name":"bots","type":"address[]"}],"stateMutability":"view","type":"function"},{"inputs":[{"internalType":"address","name":"user","type":"address"}],"name":"getUserDeploymentCount","outputs":[{"internalType":"uint256","name":"count","type":"uint256"}],"stateMutability":"view","type":"function"},{"inputs":[{"internalType":"address","name":"token","type":"address"}],"name":"isTokenAuthorized","outputs":[{"internalType":"bool","name":"isAuthorized","type":"bool"}],"stateMutability":"view","type":"function"},{"inputs":[],"name":"lop","outputs":[{"internalType":"address","name":"","type":"address"}],"stateMutability":"view","type":"function"},{"inputs":[],"name":"oracleAdapter","outputs":[{"internalType":"address","name":"","type":"address"}],"stateMutability":"view","type":"function"},{"inputs":[],"name":"orderManager","outputs":[{"internalType":"address","name":"","type":"address"}],"stateMutability":"view","type":"function"},{"inputs":[],"name":"owner","outputs":[{"internalType":"address","name":"","type":"address"}],"stateMutability":"view","type":"function"},{"inputs":[],"name":"pause","outputs":[],"stateMutability":"nonpayable","type":"function"},{"inputs":[],"name":"paused","outputs":[{"internalType":"bool","name":"","type":"bool"}],"stateMutability":"view","type":"function"},{"inputs":[],"name":"renounceOwnership","outputs":[],"stateMutability":"nonpayable","type":"function"},{"inputs":[{"internalType":"address","name":"newOwner","type":"address"}],"name":"transferOwnership","outputs":[],"stateMutability":"nonpayable","type":"function"},{"inputs":[],"name":"unpause","outputs":[],"stateMutability":"nonpayable","type":"function"},{"inputs":[{"internalType":"address","name":"user","type":"address"},{"internalType":"uint256","name":"botIndex","type":"uint256"}],"name":"upgradeBot","outputs":[{"internalType":"address","name":"newBot","type":"address"}],"stateMutability":"payable","type":"function"},{"inputs":[{"internalType":"address","name":"","type":"address"},{"internalType":"uint256","name":"","type":"uint256"}],"name":"userBots","outputs":[{"internalType":"address","name":"","type":"address"}],"stateMutability":"view","type":"function"},{"inputs":[{"internalType":"uint256","name":"amount","type":"uint256"}],"name":"withdrawETH","outputs":[],"stateMutability":"nonpayable","type":"function"},{"inputs":[{"internalType":"address","name":"token","type":"address"},{"internalType":"uint256","name":"amount","type":"uint256"}],"name":"withdrawTokens","outputs":[],"stateMutability":"nonpayable","type":"function"},{"stateMutability":"payable","type":"receive"}],"evm":{"bytecode":{"linkReferences":{},"object":"61010034620001f257601f620018ad38819003918201601f191683019291906001600160401b03841183851017620001f7578160809284926040968752833981010312620001f25762000052816200020d565b9062000061602082016200020d565b6200007c6060620000748685016200020d565b93016200020d565b923315620001da5760008054336001600160a01b031982168117835587516001600160a01b039390928416907f8be0079c531659141344cd1fd0a4f28419497f9722a3daafe3b4186f6b6457e09080a36001805581831615620001cb575080831615620001ba5780841615620001ba57841615620001a95760805260a05260c05260e0525161168a90816200022382396080518181816102ac01528181610a2d01528181610e5901526113ee015260a05181818161018e0152818161031f015281816103d80152818161043301528181610a5801528181610e83015261126c015260c05181818161034701528181610ac501528181610ef0015281816110fe0152611291015260e0518181816102f7015281816108ac01528181610a9501528181610ec001526112b80152f35b845163d92e233d60e01b8152600490fd5b855163d92e233d60e01b8152600490fd5b63d92e233d60e01b8152600490fd5b8451631e4fbdf760e01b815260006004820152602490fd5b600080fd5b634e487b7160e01b600052604160045260246000fd5b51906001600160a01b0382168203620001f25756fe60806040526004361015610018575b361561001657005b005b6000803560e01c806306b091f9146113415780630c4ce2ed14611302578063159037631461124c57806325c596cc1461120d5780632655675314611078578063301a2fa6146111bd57806334c1d4291461112d5780633d9f3163146110e85780633f4ba83a1461107d57806348131a06146110785780635912642e14610dfa5780635c975abb14610dd7578063715018a614610d7d57806379ea766914610d445780637f6734d614610ce95780637ffe2b4014610ca45780638456cb5914610c3657806387c66739146109b05780638da5cb5b1461098957806398e9cb121461091a5780639bc7c586146108db5780639ccf88c714610896578063ad1329d1146107ed578063adf2067a14610781578063d509730814610765578063dd5967c314610741578063e1e158a51461071f578063f14210a614610694578063f2fde38b14610604578063f7e34412146101c05763f9b6117f14610179575061000e565b346101bd57806003193601126101bd576040517f00000000000000000000000000000000000000000000000000000000000000006001600160a01b03168152602090f35b80fd5b5060403660031901126101bd576001600160a01b036101dd6113c2565b1680156105f2576024351580156105e6575b6105d45780825260036020526040822054602435810180911161059c57600a106105c257602435662386f26fc1000002662386f26fc1000081046024350361059c5734106105b057683635c9adc5dea0000060243581029081046024350361059c57341161058a576102626024356115be565b9061027060405192836114e5565b6024358252601f196102836024356115be565b01366020840137825b60243581106102a757604051806102a3858261141d565b0390f35b6102d07f0000000000000000000000000000000000000000000000000000000000000000611556565b6001600160a01b0381163b156105535760405163c0c53b8b60e01b81526001600160a01b037f0000000000000000000000000000000000000000000000000000000000000000811660048301527f0000000000000000000000000000000000000000000000000000000000000000811660248301527f00000000000000000000000000000000000000000000000000000000000000001660448201528590818180606481010381836001600160a01b0388165af1801561055757610576575b50506001600160a01b0381163b156105535760405163f2fde38b60e01b81526004810184905285908181602481836001600160a01b0388165af1801561055757610562575b50507f00000000000000000000000000000000000000000000000000000000000000006001600160a01b03163b156105535760405163297a4aad60e11b81526001600160a01b03828116600483015286919082908290602490829084907f0000000000000000000000000000000000000000000000000000000000000000165af180156105575761053f575b5083905260036020526104768160408720611507565b82855260056020526040852061048c8154611531565b9055835182101561052b5760018060a01b03811660208360051b86010152828552600360205260408520548060001981011161051757604051662386f26fc1000081526105129392600019909201916001600160a01b03169085907fcbd143ab29dda74d196e269af025f1c0372f07ae1c5684395b6ec105a55cd23690602090a4611531565b61028c565b634e487b7160e01b86526011600452602486fd5b634e487b7160e01b85526032600452602485fd5b610548906114bb565b610553578438610460565b8480fd5b6040513d84823e3d90fd5b61056b906114bb565b6105535784386103d4565b61057f906114bb565b61055357843861038f565b60405163496d3e1160e11b8152600490fd5b634e487b7160e01b83526011600452602483fd5b60405163070f6eed60e11b8152600490fd5b6040516361eea57560e11b8152600490fd5b604051631f2a200560e01b8152600490fd5b506005602435116101ef565b60405163d92e233d60e01b8152600490fd5b50346101bd5760203660031901126101bd5761061e6113c2565b61062661148f565b6001600160a01b0390811690811561067b57600054826bffffffffffffffffffffffff60a01b821617600055167f8be0079c531659141344cd1fd0a4f28419497f9722a3daafe3b4186f6b6457e0600080a380f35b604051631e4fbdf760e01b815260048101849052602490fd5b50346101bd5760203660031901126101bd576004356106b161148f565b80156105d4574781116106e357818080806106e09460018060a01b038254165af16106da6115d6565b50611616565b80f35b60405162461bcd60e51b8152602060048201526014602482015273496e73756666696369656e742062616c616e636560601b6044820152606490fd5b50346101bd57806003193601126101bd576020604051662386f26fc100008152f35b50346101bd57806003193601126101bd576020604051683635c9adc5dea000008152f35b50346101bd57806003193601126101bd576020604051600a8152f35b50346101bd5760203660031901126101bd5761079b6113c2565b6107a361148f565b6001600160a01b031680156105f257808252600460205260408220805460ff191690557fc2e555ff9a88291de51a4e867095d0f6c64f59714f0a0be28fc1b0d345674f578280a280f35b50346101bd5760603660031901126101bd576108076113c2565b6024356001600160a01b03808216808303610891576044359161082861148f565b8416156105f257156105f25780156105d45760405163a9059cbb60e01b602082019081526001600160a01b03909316602482015260448101919091526106e09284928392839061088581606481015b03601f1981018352826114e5565b51925af16106da6115d6565b600080fd5b50346101bd57806003193601126101bd576040517f00000000000000000000000000000000000000000000000000000000000000006001600160a01b03168152602090f35b50346101bd5760203660031901126101bd5760209060ff906040906001600160a01b036109066113c2565b168152600484522054166040519015158152f35b50346101bd5760203660031901126101bd576109346113c2565b61093c61148f565b6001600160a01b031680156105f257808252600460205260408220805460ff191660011790557f4f212173e1223404ad18982e997212dfadb852b7cd98cdd495b14b58c684cdc28280a280f35b50346101bd57806003193601126101bd57546040516001600160a01b039091168152602090f35b5060403660031901126101bd576109c56113c2565b60243591906001600160a01b0390811680156105f257662386f26fc1000034106105b057683635c9adc5dea00000341161058a578083526003602052604083208054851015610c245782610a198683611461565b90549060031b1c16948515610c2457610a517f0000000000000000000000000000000000000000000000000000000000000000611556565b91848316947f0000000000000000000000000000000000000000000000000000000000000000863b15610c015760405163c0c53b8b60e01b81526001600160a01b037f00000000000000000000000000000000000000000000000000000000000000008116600483015282811660248301527f00000000000000000000000000000000000000000000000000000000000000001660448201528881606481838c5af18015610c0557908991610c10575b5050863b15610c015760405163f2fde38b60e01b8152600481018790528881602481838c5af18015610c0557908991610bed575b505016803b15610be95786809160246040518094819363297a4aad60e11b83528b60048401525af18015610bde57610bc6575b5060209692610b7c869593610b9b93611461565b90919082549060031b9160018060a01b03809116831b921b1916179055565b7f68728588b9bd047e94c7d39855d8480b0bd9c2d8acb759f6e9b9b838cf497a636040519580a48152f35b610bd087916114bb565b610bda5738610b68565b8580fd5b6040513d89823e3d90fd5b8680fd5b610bf6906114bb565b610c01578738610b35565b8780fd5b6040513d8b823e3d90fd5b610c19906114bb565b610c01578738610b01565b60405163515b928360e01b8152600490fd5b50346101bd57806003193601126101bd57610c4f61148f565b60025460ff8116610c925760019060ff1916176002557f62e78cea01bee320cd4e420270b5ea74000d11b0c9f74754ebdbfc544b05a2586020604051338152a180f35b60405163d93c066560e01b8152600490fd5b50346101bd5760203660031901126101bd576001600160a01b03610cc66113c2565b169081156105f25760408160209360ff9352600484522054166040519015158152f35b50346101bd5760403660031901126101bd57610d036113c2565b6001600160a01b039081168252600360205260408220805460243593908410156101bd5750602092610d3491611461565b90549060031b1c16604051908152f35b50346101bd5760203660031901126101bd576020906040906001600160a01b03610d6c6113c2565b168152600583522054604051908152f35b50346101bd57806003193601126101bd57610d9661148f565b600080546001600160a01b0319811682556001600160a01b03167f8be0079c531659141344cd1fd0a4f28419497f9722a3daafe3b4186f6b6457e08280a380f35b50346101bd57806003193601126101bd57602060ff600254166040519015158152f35b50602090816003193601126101bd576001600160a01b039081610e1b6113c2565b1680156105f257662386f26fc1000034106105b057683635c9adc5dea00000341161058a5780825260038452600a604083205410156105c257610e7d7f0000000000000000000000000000000000000000000000000000000000000000611556565b838116937f0000000000000000000000000000000000000000000000000000000000000000853b156105535760405163c0c53b8b60e01b81526001600160a01b037f00000000000000000000000000000000000000000000000000000000000000008116600483015282811660248301527f00000000000000000000000000000000000000000000000000000000000000001660448201528581606481838b5af1801561105a57611065575b50853b156105535760405163f2fde38b60e01b8152600481018590528581602481838b5af1801561105a57908691611046575b505016803b156110425783809160246040518094819363297a4aad60e11b83528a60048401525af180156110375790849161101f575b509082610fa792526003865260408420611507565b8082526005845260408220610fbc8154611531565b905580825260038452604082205460001981019290831161100b575082907fcbd143ab29dda74d196e269af025f1c0372f07ae1c5684395b6ec105a55cd23685604051348152a4604051908152f35b634e487b7160e01b81526011600452602490fd5b611028906114bb565b611033578238610f92565b8280fd5b6040513d86823e3d90fd5b8380fd5b61104f906114bb565b610553578438610f5c565b6040513d88823e3d90fd5b611071909591956114bb565b9338610f29565b6113d8565b50346101bd57806003193601126101bd5761109661148f565b60025460ff8116156110d65760ff19166002557f5db9ee0a495bf2e6ff9c91a7834c1ba4fdd244a5e8aa4e537bd38aeae4b073aa6020604051338152a180f35b604051638dfc202b60e01b8152600490fd5b50346101bd57806003193601126101bd576040517f00000000000000000000000000000000000000000000000000000000000000006001600160a01b03168152602090f35b50346101bd576020806003193601126111b9576001600160a01b0390816111526113c2565b1680156105f25783908152600382526040812092604051908193808654938481520195845280842093915b8383106111a0576102a386611194818a03826114e5565b6040519182918261141d565b845481168752958101956001948501949092019161117d565b5080fd5b50346101bd5760403660031901126101bd576111d76113c2565b602435916001600160a01b039182169081156105f25760409181526003602052208054831015610c2457602092610d3491611461565b50346101bd5760203660031901126101bd576001600160a01b0361122f6113c2565b1680156105f2578160409160209352600583522054604051908152f35b50346101bd57806003193601126101bd5760c060405160018060a01b03807f0000000000000000000000000000000000000000000000000000000000000000168252807f00000000000000000000000000000000000000000000000000000000000000001660208301527f0000000000000000000000000000000000000000000000000000000000000000166040820152600a6060820152662386f26fc100006080820152683635c9adc5dea0000060a0820152f35b50346101bd5760203660031901126101bd576001600160a01b036113246113c2565b1680156105f2578160409160209352600383522054604051908152f35b50346101bd5760403660031901126101bd5761135b6113c2565b60243561136661148f565b6001600160a01b03828116156105f25781156105d457835460405163a9059cbb60e01b60208201908152929091166001600160a01b0316602482015260448101929092526106e092849283929083906108858160648101610877565b600435906001600160a01b038216820361089157565b34610891576000366003190112610891576040517f00000000000000000000000000000000000000000000000000000000000000006001600160a01b03168152602090f35b6020908160408183019282815285518094520193019160005b828110611444575050505090565b83516001600160a01b031685529381019392810192600101611436565b80548210156114795760005260206000200190600090565b634e487b7160e01b600052603260045260246000fd5b6000546001600160a01b031633036114a357565b60405163118cdaa760e01b8152336004820152602490fd5b67ffffffffffffffff81116114cf57604052565b634e487b7160e01b600052604160045260246000fd5b90601f8019910116810190811067ffffffffffffffff8211176114cf57604052565b90815491680100000000000000008310156114cf5782610b7c91600161152f95018155611461565b565b60001981146115405760010190565b634e487b7160e01b600052601160045260246000fd5b6e5af43d82803e903d91602b57fd5bf390763d602d80600a3d3981f3363d3d373d3d3d363d7300000062ffffff8260881c161760005260781b17602052603760096000f0906001600160a01b038216156115ac57565b60405163b06ebf3d60e01b8152600490fd5b67ffffffffffffffff81116114cf5760051b60200190565b3d15611611573d9067ffffffffffffffff82116114cf5760405191611605601f8201601f1916602001846114e5565b82523d6000602084013e565b606090565b1561161d57565b60405162461bcd60e51b815260206004820152600f60248201526e151c985b9cd9995c8819985a5b1959608a1b6044820152606490fdfea2646970667358221220c94fe8fc9779dd51322fb513a979c296f32e5dd9db3a3a73000a08ef9f23082064736f6c63430008140033","opcodes":"PUSH2 0x100 CALLVALUE PUSH3 0x1F2 JUMPI PUSH1 0x1F PUSH3 0x18AD CODESIZE DUP2 SWAP1 SUB SWAP2 DUP3 ADD PUSH1 0x1F NOT AND DUP4 ADD SWAP3 SWAP2 SWAP1 PUSH1 0x1 PUSH1 0x1 PUSH1 0x40 SHL SUB DUP5 GT DUP4 DUP6 LT OR PUSH3 0x1F7 JUMPI DUP2 PUSH1 0x80 SWAP3 DUP5 SWAP3 PUSH1 0x40 SWAP7 DUP8 MSTORE DUP4 CODECOPY DUP2 ADD SUB SLT PUSH3 0x1F2 JUMPI PUSH3 0x52 DUP2 PUSH3 0x20D JUMP JUMPDEST SWAP1 PUSH3 0x61 PUSH1 0x20 DUP3 ADD PUSH3 0x20D JUMP JUMPDEST PUSH3 0x7C PUSH1 0x60 PUSH3 0x74 DUP7 DUP6 ADD PUSH3 0x20D JUMP JUMPDEST SWAP4 ADD PUSH3 0x20D JUMP JUMPDEST SWAP3 CALLER ISZERO PUSH3 0x1DA JUMPI PUSH1 0x0 DUP1 SLOAD CALLER PUSH1 0x1 PUSH1 0x1 PUSH1 0xA0 SHL SUB NOT DUP3 AND DUP2 OR DUP4 SSTORE DUP8 MLOAD PUSH1 0x1 PUSH1 0x1 PUSH1 0xA0 SHL SUB SWAP4 SWAP1 SWAP3 DUP5 AND SWAP1 PUSH32 0x8BE0079C531659141344CD1FD0A4F28419497F9722A3DAAFE3B4186F6B6457E0 SWAP1 DUP1 LOG3 PUSH1 0x1 DUP1 SSTORE DUP2 DUP4 AND ISZERO PUSH3 0x1CB JUMPI POP DUP1 DUP4 AND ISZERO PUSH3 0x1BA JUMPI DUP1 DUP5 AND ISZERO PUSH3 0x1BA JUMPI DUP5 AND ISZERO PUSH3 0x1A9 JUMPI PUSH1 0x80 MSTORE PUSH1 0xA0 MSTORE PUSH1 0xC0 MSTORE PUSH1 0xE0 MSTORE MLOAD PUSH2 0x168A SWAP1 DUP2 PUSH3 0x223 DUP3 CODECOPY PUSH1 0x80 MLOAD DUP2 DUP2 DUP2 PUSH2 0x2AC ADD MSTORE DUP2 DUP2 PUSH2 0xA2D ADD MSTORE DUP2 DUP2 PUSH2 0xE59 ADD MSTORE PUSH2 0x13EE ADD MSTORE PUSH1 0xA0 MLOAD DUP2 DUP2 DUP2 PUSH2 0x18E ADD MSTORE DUP2 DUP2 PUSH2 0x31F ADD MSTORE DUP2 DUP2 PUSH2 0x3D8 ADD MSTORE DUP2 DUP2 PUSH2 0x433 ADD MSTORE DUP2 DUP2 PUSH2 0xA58 ADD MSTORE DUP2 DUP2 PUSH2 0xE83 ADD MSTORE PUSH2 0x126C ADD MSTORE PUSH1 0xC0 MLOAD DUP2 DUP2 DUP2 PUSH2 0x347 ADD MSTORE DUP2 DUP2 PUSH2 0xAC5 ADD MSTORE DUP2 DUP2 PUSH2 0xEF0 ADD MSTORE DUP2 DUP2 PUSH2 0x10FE ADD MSTORE PUSH2 0x1291 ADD MSTORE PUSH1 0xE0 MLOAD DUP2 DUP2 DUP2 PUSH2 0x2F7 ADD MSTORE DUP2 DUP2 PUSH2 0x8AC ADD MSTORE DUP2 DUP2 PUSH2 0xA95 ADD MSTORE DUP2 DUP2 PUSH2 0xEC0 ADD MSTORE PUSH2 0x12B8 ADD MSTORE RETURN JUMPDEST DUP5 MLOAD PUSH4 0xD92E233D PUSH1 0xE0 SHL DUP2 MSTORE PUSH1 0x4 SWAP1 REVERT JUMPDEST DUP6 MLOAD PUSH4 0xD92E233D PUSH1 0xE0 SHL DUP2 MSTORE PUSH1 0x4 SWAP1 REVERT JUMPDEST PUSH4 0xD92E233D PUSH1 0xE0 SHL DUP2 MSTORE PUSH1 0x4 SWAP1 REVERT JUMPDEST DUP5 MLOAD PUSH4 0x1E4FBDF7 PUSH1 0xE0 SHL DUP2 MSTORE PUSH1 0x0 PUSH1 0x4 DUP3 ADD MSTORE PUSH1 0x24 SWAP1 REVERT JUMPDEST PUSH1 0x0 DUP1 REVERT JUMPDEST PUSH4 0x4E487B71 PUSH1 0xE0 SHL PUSH1 0x0 MSTORE PUSH1 0x41 PUSH1 0x4 MSTORE PUSH1 0x24 PUSH1 0x0 REVERT JUMPDEST MLOAD SWAP1 PUSH1 0x1 PUSH1 0x1 PUSH1 0xA0 SHL SUB DUP3 AND DUP3 SUB PUSH3 0x1F2 JUMPI JUMP INVALID PUSH1 0x80 PUSH1 0x40 MSTORE PUSH1 0x4 CALLDATASIZE LT ISZERO PUSH2 0x18 JUMPI JUMPDEST CALLDATASIZE ISZERO PUSH2 0x16 JUMPI STOP JUMPDEST STOP JUMPDEST PUSH1 0x0 DUP1 CALLDATALOAD PUSH1 0xE0 SHR DUP1 PUSH4 0x6B091F9 EQ PUSH2 0x1341 JUMPI DUP1 PUSH4 0xC4CE2ED EQ PUSH2 0x1302 JUMPI DUP1 PUSH4 0x15903763 EQ PUSH2 0x124C JUMPI DUP1 PUSH4 0x25C596CC EQ PUSH2 0x120D JUMPI DUP1 PUSH4 0x26556753 EQ PUSH2 0x1078 JUMPI DUP1 PUSH4 0x301A2FA6 EQ PUSH2 0x11BD JUMPI DUP1 PUSH4 0x34C1D429 EQ PUSH2 0x112D JUMPI DUP1 PUSH4 0x3D9F3163 EQ PUSH2 0x10E8 JUMPI DUP1 PUSH4 0x3F4BA83A EQ PUSH2 0x107D JUMPI DUP1 PUSH4 0x48131A06 EQ PUSH2 0x1078 JUMPI DUP1 PUSH4 0x5912642E EQ PUSH2 0xDFA JUMPI DUP1 PUSH4 0x5C975ABB EQ PUSH2 0xDD7 JUMPI DUP1 PUSH4 0x715018A6 EQ PUSH2 0xD7D JUMPI DUP1 PUSH4 0x79EA7669 EQ PUSH2 0xD44 JUMPI DUP1 PUSH4 0x7F6734D6 EQ PUSH2 0xCE9 JUMPI DUP1 PUSH4 0x7FFE2B40 EQ PUSH2 0xCA4 JUMPI DUP1 PUSH4 0x8456CB59 EQ PUSH2 0xC36 JUMPI DUP1 PUSH4 0x87C66739 EQ PUSH2 0x9B0 JUMPI DUP1 PUSH4 0x8DA5CB5B EQ PUSH2 0x989 JUMPI DUP1 PUSH4 0x98E9CB12 EQ PUSH2 0x91A JUMPI DUP1 PUSH4 0x9BC7C586 EQ PUSH2 0x8DB JUMPI DUP1 PUSH4 0x9CCF88C7 EQ PUSH2 0x896 JUMPI DUP1 PUSH4 0xAD1329D1 EQ PUSH2 0x7ED JUMPI DUP1 PUSH4 0xADF2067A EQ PUSH2 0x781 JUMPI DUP1 PUSH4 0xD5097308 EQ PUSH2 0x765 JUMPI DUP1 PUSH4 0xDD5967C3 EQ PUSH2 0x741 JUMPI DUP1 PUSH4 0xE1E158A5 EQ PUSH2 0x71F JUMPI DUP1 PUSH4 0xF14210A6 EQ PUSH2 0x694 JUMPI DUP1 PUSH4 0xF2FDE38B EQ PUSH2 0x604 JUMPI DUP1 PUSH4 0xF7E34412 EQ PUSH2 0x1C0 JUMPI PUSH4 0xF9B6117F EQ PUSH2 0x179 JUMPI POP PUSH2 0xE JUMP JUMPDEST CALLVALUE PUSH2 0x1BD JUMPI DUP1 PUSH1 0x3 NOT CALLDATASIZE ADD SLT PUSH2 0x1BD JUMPI PUSH1 0x40 MLOAD PUSH32 0x0 PUSH1 0x1 PUSH1 0x1 PUSH1 0xA0 SHL SUB AND DUP2 MSTORE PUSH1 0x20 SWAP1 RETURN JUMPDEST DUP1 REVERT JUMPDEST POP PUSH1 0x40 CALLDATASIZE PUSH1 0x3 NOT ADD SLT PUSH2 0x1BD JUMPI PUSH1 0x1 PUSH1 0x1 PUSH1 0xA0 SHL SUB PUSH2 0x1DD PUSH2 0x13C2 JUMP JUMPDEST AND DUP1 ISZERO PUSH2 0x5F2 JUMPI PUSH1 0x24 CALLDATALOAD ISZERO DUP1 ISZERO PUSH2 0x5E6 JUMPI JUMPDEST PUSH2 0x5D4 JUMPI DUP1 DUP3 MSTORE PUSH1 0x3 PUSH1 0x20 MSTORE PUSH1 0x40 DUP3 KECCAK256 SLOAD PUSH1 0x24 CALLDATALOAD DUP2 ADD DUP1 SWAP2 GT PUSH2 0x59C JUMPI PUSH1 0xA LT PUSH2 0x5C2 JUMPI PUSH1 0x24 CALLDATALOAD PUSH7 0x2386F26FC10000 MUL PUSH7 0x2386F26FC10000 DUP2 DIV PUSH1 0x24 CALLDATALOAD SUB PUSH2 0x59C JUMPI CALLVALUE LT PUSH2 0x5B0 JUMPI PUSH9 0x3635C9ADC5DEA00000 PUSH1 0x24 CALLDATALOAD DUP2 MUL SWAP1 DUP2 DIV PUSH1 0x24 CALLDATALOAD SUB PUSH2 0x59C JUMPI CALLVALUE GT PUSH2 0x58A JUMPI PUSH2 0x262 PUSH1 0x24 CALLDATALOAD PUSH2 0x15BE JUMP JUMPDEST SWAP1 PUSH2 0x270 PUSH1 0x40 MLOAD SWAP3 DUP4 PUSH2 0x14E5 JUMP JUMPDEST PUSH1 0x24 CALLDATALOAD DUP3 MSTORE PUSH1 0x1F NOT PUSH2 0x283 PUSH1 0x24 CALLDATALOAD PUSH2 0x15BE JUMP JUMPDEST ADD CALLDATASIZE PUSH1 0x20 DUP5 ADD CALLDATACOPY DUP3 JUMPDEST PUSH1 0x24 CALLDATALOAD DUP2 LT PUSH2 0x2A7 JUMPI PUSH1 0x40 MLOAD DUP1 PUSH2 0x2A3 DUP6 DUP3 PUSH2 0x141D JUMP JUMPDEST SUB SWAP1 RETURN JUMPDEST PUSH2 0x2D0 PUSH32 0x0 PUSH2 0x1556 JUMP JUMPDEST PUSH1 0x1 PUSH1 0x1 PUSH1 0xA0 SHL SUB DUP2 AND EXTCODESIZE ISZERO PUSH2 0x553 JUMPI PUSH1 0x40 MLOAD PUSH4 0xC0C53B8B PUSH1 0xE0 SHL DUP2 MSTORE PUSH1 0x1 PUSH1 0x1 PUSH1 0xA0 SHL SUB PUSH32 0x0 DUP2 AND PUSH1 0x4 DUP4 ADD MSTORE PUSH32 0x0 DUP2 AND PUSH1 0x24 DUP4 ADD MSTORE PUSH32 0x0 AND PUSH1 0x44 DUP3 ADD MSTORE DUP6 SWAP1 DUP2 DUP2 DUP1 PUSH1 0x64 DUP2 ADD SUB DUP2 DUP4 PUSH1 0x1 PUSH1 0x1 PUSH1 0xA0 SHL SUB DUP9 AND GAS CALL DUP1 ISZERO PUSH2 0x557 JUMPI PUSH2 0x576 JUMPI JUMPDEST POP POP PUSH1 0x1 PUSH1 0x1 PUSH1 0xA0 SHL SUB DUP2 AND EXTCODESIZE ISZERO PUSH2 0x553 JUMPI PUSH1 0x40 MLOAD PUSH4 0xF2FDE38B PUSH1 0xE0 SHL DUP2 MSTORE PUSH1 0x4 DUP2 ADD DUP5 SWAP1 MSTORE DUP6 SWAP1 DUP2 DUP2 PUSH1 0x24 DUP2 DUP4 PUSH1 0x1 PUSH1 0x1 PUSH1 0xA0 SHL SUB DUP9 AND GAS CALL DUP1 ISZERO PUSH2 0x557 JUMPI PUSH2 0x562 JUMPI JUMPDEST POP POP PUSH32 0x0 PUSH1 0x1 PUSH1 0x1 PUSH1 0xA0 SHL SUB AND EXTCODESIZE ISZERO PUSH2 0x553 JUMPI PUSH1 0x40 MLOAD PUSH4 0x297A4AAD PUSH1 0xE1 SHL DUP2 MSTORE PUSH1 0x1 PUSH1 0x1 PUSH1 0xA0 SHL SUB DUP3 DUP2 AND PUSH1 0x4 DUP4 ADD MSTORE DUP7 SWAP2 SWAP1 DUP3 SWAP1 DUP3 SWAP1 PUSH1 0x24 SWAP1 DUP3 SWAP1 DUP5 SWAP1 PUSH32 0x0 AND GAS CALL DUP1 ISZERO PUSH2 0x557 JUMPI PUSH2 0x53F JUMPI JUMPDEST POP DUP4 SWAP1 MSTORE PUSH1 0x3 PUSH1 0x20 MSTORE PUSH2 0x476 DUP2 PUSH1 0x40 DUP8 KECCAK256 PUSH2 0x1507 JUMP JUMPDEST DUP3 DUP6 MSTORE PUSH1 0x5 PUSH1 0x20 MSTORE PUSH1 0x40 DUP6 KECCAK256 PUSH2 0x48C DUP2 SLOAD PUSH2 0x1531 JUMP JUMPDEST SWAP1 SSTORE DUP4 MLOAD DUP3 LT ISZERO PUSH2 0x52B JUMPI PUSH1 0x1 DUP1 PUSH1 0xA0 SHL SUB DUP2 AND PUSH1 0x20 DUP4 PUSH1 0x5 SHL DUP7 ADD ADD MSTORE DUP3 DUP6 MSTORE PUSH1 0x3 PUSH1 0x20 MSTORE PUSH1 0x40 DUP6 KECCAK256 SLOAD DUP1 PUSH1 0x0 NOT DUP2 ADD GT PUSH2 0x517 JUMPI PUSH1 0x40 MLOAD PUSH7 0x2386F26FC10000 DUP2 MSTORE PUSH2 0x512 SWAP4 SWAP3 PUSH1 0x0 NOT SWAP1 SWAP3 ADD SWAP2 PUSH1 0x1 PUSH1 0x1 PUSH1 0xA0 SHL SUB AND SWAP1 DUP6 SWAP1 PUSH32 0xCBD143AB29DDA74D196E269AF025F1C0372F07AE1C5684395B6EC105A55CD236 SWAP1 PUSH1 0x20 SWAP1 LOG4 PUSH2 0x1531 JUMP JUMPDEST PUSH2 0x28C JUMP JUMPDEST PUSH4 0x4E487B71 PUSH1 0xE0 SHL DUP7 MSTORE PUSH1 0x11 PUSH1 0x4 MSTORE PUSH1 0x24 DUP7 REVERT JUMPDEST PUSH4 0x4E487B71 PUSH1 0xE0 SHL DUP6 MSTORE PUSH1 0x32 PUSH1 0x4 MSTORE PUSH1 0x24 DUP6 REVERT JUMPDEST PUSH2 0x548 SWAP1 PUSH2 0x14BB JUMP JUMPDEST PUSH2 0x553 JUMPI DUP5 CODESIZE PUSH2 0x460 JUMP JUMPDEST DUP5 DUP1 REVERT JUMPDEST PUSH1 0x40 MLOAD RETURNDATASIZE DUP5 DUP3 RETURNDATACOPY RETURNDATASIZE SWAP1 REVERT JUMPDEST PUSH2 0x56B SWAP1 PUSH2 0x14BB JUMP JUMPDEST PUSH2 0x553 JUMPI DUP5 CODESIZE PUSH2 0x3D4 JUMP JUMPDEST PUSH2 0x57F SWAP1 PUSH2 0x14BB JUMP JUMPDEST PUSH2 0x553 JUMPI DUP5 CODESIZE PUSH2 0x38F JUMP JUMPDEST PUSH1 0x40 MLOAD PUSH4 0x496D3E11 PUSH1 0xE1 SHL DUP2 MSTORE PUSH1 0x4 SWAP1 REVERT JUMPDEST PUSH4 0x4E487B71 PUSH1 0xE0 SHL DUP4 MSTORE PUSH1 0x11 PUSH1 0x4 MSTORE PUSH1 0x24 DUP4 REVERT JUMPDEST PUSH1 0x40 MLOAD PUSH4 0x70F6EED PUSH1 0xE1 SHL DUP2 MSTORE PUSH1 0x4 SWAP1 REVERT JUMPDEST PUSH1 0x40 MLOAD PUSH4 0x61EEA575 PUSH1 0xE1 SHL DUP2 MSTORE PUSH1 0x4 SWAP1 REVERT JUMPDEST PUSH1 0x40 MLOAD PUSH4 0x1F2A2005 PUSH1 0xE0 SHL DUP2 MSTORE PUSH1 0x4 SWAP1 REVERT JUMPDEST POP PUSH1 0x5 PUSH1 0x24 CALLDATALOAD GT PUSH2 0x1EF JUMP JUMPDEST PUSH1 0x40 MLOAD PUSH4 0xD92E233D PUSH1 0xE0 SHL DUP2 MSTORE PUSH1 0x4 SWAP1 REVERT JUMPDEST POP CALLVALUE PUSH2 0x1BD JUMPI PUSH1 0x20 CALLDATASIZE PUSH1 0x3 NOT ADD SLT PUSH2 0x1BD JUMPI PUSH2 0x61E PUSH2 0x13C2 JUMP JUMPDEST PUSH2 0x626 PUSH2 0x148F JUMP JUMPDEST PUSH1 0x1 PUSH1 0x1 PUSH1 0xA0 SHL SUB SWAP1 DUP2 AND SWAP1 DUP2 ISZERO PUSH2 0x67B JUMPI PUSH1 0x0 SLOAD DUP3 PUSH12 0xFFFFFFFFFFFFFFFFFFFFFFFF PUSH1 0xA0 SHL DUP3 AND OR PUSH1 0x0 SSTORE AND PUSH32 0x8BE0079C531659141344CD1FD0A4F28419497F9722A3DAAFE3B4186F6B6457E0 PUSH1 0x0 DUP1 LOG3 DUP1 RETURN JUMPDEST PUSH1 0x40 MLOAD PUSH4 0x1E4FBDF7 PUSH1 0xE0 SHL DUP2 MSTORE PUSH1 0x4 DUP2 ADD DUP5 SWAP1 MSTORE PUSH1 0x24 SWAP1 REVERT JUMPDEST POP CALLVALUE PUSH2 0x1BD JUMPI PUSH1 0x20 CALLDATASIZE PUSH1 0x3 NOT ADD SLT PUSH2 0x1BD JUMPI PUSH1 0x4 CALLDATALOAD PUSH2 0x6B1 PUSH2 0x148F JUMP JUMPDEST DUP1 ISZERO PUSH2 0x5D4 JUMPI SELFBALANCE DUP2 GT PUSH2 0x6E3 JUMPI DUP2 DUP1 DUP1 DUP1 PUSH2 0x6E0 SWAP5 PUSH1 0x1 DUP1 PUSH1 0xA0 SHL SUB DUP3 SLOAD AND GAS CALL PUSH2 0x6DA PUSH2 0x15D6 JUMP JUMPDEST POP PUSH2 0x1616 JUMP JUMPDEST DUP1 RETURN JUMPDEST PUSH1 0x40 MLOAD PUSH3 0x461BCD PUSH1 0xE5 SHL DUP2 MSTORE PUSH1 0x20 PUSH1 0x4 DUP3 ADD MSTORE PUSH1 0x14 PUSH1 0x24 DUP3 ADD MSTORE PUSH20 0x496E73756666696369656E742062616C616E6365 PUSH1 0x60 SHL PUSH1 0x44 DUP3 ADD MSTORE PUSH1 0x64 SWAP1 REVERT JUMPDEST POP CALLVALUE PUSH2 0x1BD JUMPI DUP1 PUSH1 0x3 NOT CALLDATASIZE ADD SLT PUSH2 0x1BD JUMPI PUSH1 0x20 PUSH1 0x40 MLOAD PUSH7 0x2386F26FC10000 DUP2 MSTORE RETURN JUMPDEST POP CALLVALUE PUSH2 0x1BD JUMPI DUP1 PUSH1 0x3 NOT CALLDATASIZE ADD SLT PUSH2 0x1BD JUMPI PUSH1 0x20 PUSH1 0x40 MLOAD PUSH9 0x3635C9ADC5DEA00000 DUP2 MSTORE RETURN JUMPDEST POP CALLVALUE PUSH2 0x1BD JUMPI DUP1 PUSH1 0x3 NOT CALLDATASIZE ADD SLT PUSH2 0x1BD JUMPI PUSH1 0x20 PUSH1 0x40 MLOAD PUSH1 0xA DUP2 MSTORE RETURN JUMPDEST POP CALLVALUE PUSH2 0x1BD JUMPI PUSH1 0x20 CALLDATASIZE PUSH1 0x3 NOT ADD SLT PUSH2 0x1BD JUMPI PUSH2 0x79B PUSH2 0x13C2 JUMP JUMPDEST PUSH2 0x7A3 PUSH2 0x148F JUMP JUMPDEST PUSH1 0x1 PUSH1 0x1 PUSH1 0xA0 SHL SUB AND DUP1 ISZERO PUSH2 0x5F2 JUMPI DUP1 DUP3 MSTORE PUSH1 0x4 PUSH1 0x20 MSTORE PUSH1 0x40 DUP3 KECCAK256 DUP1 SLOAD PUSH1 0xFF NOT AND SWAP1 SSTORE PUSH32 0xC2E555FF9A88291DE51A4E867095D0F6C64F59714F0A0BE28FC1B0D345674F57 DUP3 DUP1 LOG2 DUP1 RETURN JUMPDEST POP CALLVALUE PUSH2 0x1BD JUMPI PUSH1 0x60 CALLDATASIZE PUSH1 0x3 NOT ADD SLT PUSH2 0x1BD JUMPI PUSH2 0x807 PUSH2 0x13C2 JUMP JUMPDEST PUSH1 0x24 CALLDATALOAD PUSH1 0x1 PUSH1 0x1 PUSH1 0xA0 SHL SUB DUP1 DUP3 AND DUP1 DUP4 SUB PUSH2 0x891 JUMPI PUSH1 0x44 CALLDATALOAD SWAP2 PUSH2 0x828 PUSH2 0x148F JUMP JUMPDEST DUP5 AND ISZERO PUSH2 0x5F2 JUMPI ISZERO PUSH2 0x5F2 JUMPI DUP1 ISZERO PUSH2 0x5D4 JUMPI PUSH1 0x40 MLOAD PUSH4 0xA9059CBB PUSH1 0xE0 SHL PUSH1 0x20 DUP3 ADD SWAP1 DUP2 MSTORE PUSH1 0x1 PUSH1 0x1 PUSH1 0xA0 SHL SUB SWAP1 SWAP4 AND PUSH1 0x24 DUP3 ADD MSTORE PUSH1 0x44 DUP2 ADD SWAP2 SWAP1 SWAP2 MSTORE PUSH2 0x6E0 SWAP3 DUP5 SWAP3 DUP4 SWAP3 DUP4 SWAP1 PUSH2 0x885 DUP2 PUSH1 0x64 DUP2 ADD JUMPDEST SUB PUSH1 0x1F NOT DUP2 ADD DUP4 MSTORE DUP3 PUSH2 0x14E5 JUMP JUMPDEST MLOAD SWAP3 GAS CALL PUSH2 0x6DA PUSH2 0x15D6 JUMP JUMPDEST PUSH1 0x0 DUP1 REVERT JUMPDEST POP CALLVALUE PUSH2 0x1BD JUMPI DUP1 PUSH1 0x3 NOT CALLDATASIZE ADD SLT PUSH2 0x1BD JUMPI PUSH1 0x40 MLOAD PUSH32 0x0 PUSH1 0x1 PUSH1 0x1 PUSH1 0xA0 SHL SUB AND DUP2 MSTORE PUSH1 0x20 SWAP1 RETURN JUMPDEST POP CALLVALUE PUSH2 0x1BD JUMPI PUSH1 0x20 CALLDATASIZE PUSH1 0x3 NOT ADD SLT PUSH2 0x1BD JUMPI PUSH1 0x20 SWAP1 PUSH1 0xFF SWAP1 PUSH1 0x40 SWAP1 PUSH1 0x1 PUSH1 0x1 PUSH1 0xA0 SHL SUB PUSH2 0x906 PUSH2 0x13C2 JUMP JUMPDEST AND DUP2 MSTORE PUSH1 0x4 DUP5 MSTORE KECCAK256 SLOAD AND PUSH1 0x40 MLOAD SWAP1 ISZERO ISZERO DUP2 MSTORE RETURN JUMPDEST POP CALLVALUE PUSH2 0x1BD JUMPI PUSH1 0x20 CALLDATASIZE PUSH1 0x3 NOT ADD SLT PUSH2 0x1BD JUMPI PUSH2 0x934 PUSH2 0x13C2 JUMP JUMPDEST PUSH2 0x93C PUSH2 0x148F JUMP JUMPDEST PUSH1 0x1 PUSH1 0x1 PUSH1 0xA0 SHL SUB AND DUP1 ISZERO PUSH2 0x5F2 JUMPI DUP1 DUP3 MSTORE PUSH1 0x4 PUSH1 0x20 MSTORE PUSH1 0x40 DUP3 KECCAK256 DUP1 SLOAD PUSH1 0xFF NOT AND PUSH1 0x1 OR SWAP1 SSTORE PUSH32 0x4F212173E1223404AD18982E997212DFADB852B7CD98CDD495B14B58C684CDC2 DUP3 DUP1 LOG2 DUP1 RETURN JUMPDEST POP CALLVALUE PUSH2 0x1BD JUMPI DUP1 PUSH1 0x3 NOT CALLDATASIZE ADD SLT PUSH2 0x1BD JUMPI SLOAD PUSH1 0x40 MLOAD PUSH1 0x1 PUSH1 0x1 PUSH1 0xA0 SHL SUB SWAP1 SWAP2 AND DUP2 MSTORE PUSH1 0x20 SWAP1 RETURN JUMPDEST POP PUSH1 0x40 CALLDATASIZE PUSH1 0x3 NOT ADD SLT PUSH2 0x1BD JUMPI PUSH2 0x9C5 PUSH2 0x13C2 JUMP JUMPDEST PUSH1 0x24 CALLDATALOAD SWAP2 SWAP1 PUSH1 0x1 PUSH1 0x1 PUSH1 0xA0 SHL SUB SWAP1 DUP2 AND DUP1 ISZERO PUSH2 0x5F2 JUMPI PUSH7 0x2386F26FC10000 CALLVALUE LT PUSH2 0x5B0 JUMPI PUSH9 0x3635C9ADC5DEA00000 CALLVALUE GT PUSH2 0x58A JUMPI DUP1 DUP4 MSTORE PUSH1 0x3 PUSH1 0x20 MSTORE PUSH1 0x40 DUP4 KECCAK256 DUP1 SLOAD DUP6 LT ISZERO PUSH2 0xC24 JUMPI DUP3 PUSH2 0xA19 DUP7 DUP4 PUSH2 0x1461 JUMP JUMPDEST SWAP1 SLOAD SWAP1 PUSH1 0x3 SHL SHR AND SWAP5 DUP6 ISZERO PUSH2 0xC24 JUMPI PUSH2 0xA51 PUSH32 0x0 PUSH2 0x1556 JUMP JUMPDEST SWAP2 DUP5 DUP4 AND SWAP5 PUSH32 0x0 DUP7 EXTCODESIZE ISZERO PUSH2 0xC01 JUMPI PUSH1 0x40 MLOAD PUSH4 0xC0C53B8B PUSH1 0xE0 SHL DUP2 MSTORE PUSH1 0x1 PUSH1 0x1 PUSH1 0xA0 SHL SUB PUSH32 0x0 DUP2 AND PUSH1 0x4 DUP4 ADD MSTORE DUP3 DUP2 AND PUSH1 0x24 DUP4 ADD MSTORE PUSH32 0x0 AND PUSH1 0x44 DUP3 ADD MSTORE DUP9 DUP2 PUSH1 0x64 DUP2 DUP4 DUP13 GAS CALL DUP1 ISZERO PUSH2 0xC05 JUMPI SWAP1 DUP10 SWAP2 PUSH2 0xC10 JUMPI JUMPDEST POP POP DUP7 EXTCODESIZE ISZERO PUSH2 0xC01 JUMPI PUSH1 0x40 MLOAD PUSH4 0xF2FDE38B PUSH1 0xE0 SHL DUP2 MSTORE PUSH1 0x4 DUP2 ADD DUP8 SWAP1 MSTORE DUP9 DUP2 PUSH1 0x24 DUP2 DUP4 DUP13 GAS CALL DUP1 ISZERO PUSH2 0xC05 JUMPI SWAP1 DUP10 SWAP2 PUSH2 0xBED JUMPI JUMPDEST POP POP AND DUP1 EXTCODESIZE ISZERO PUSH2 0xBE9 JUMPI DUP7 DUP1 SWAP2 PUSH1 0x24 PUSH1 0x40 MLOAD DUP1 SWAP5 DUP2 SWAP4 PUSH4 0x297A4AAD PUSH1 0xE1 SHL DUP4 MSTORE DUP12 PUSH1 0x4 DUP5 ADD MSTORE GAS CALL DUP1 ISZERO PUSH2 0xBDE JUMPI PUSH2 0xBC6 JUMPI JUMPDEST POP PUSH1 0x20 SWAP7 SWAP3 PUSH2 0xB7C DUP7 SWAP6 SWAP4 PUSH2 0xB9B SWAP4 PUSH2 0x1461 JUMP JUMPDEST SWAP1 SWAP2 SWAP1 DUP3 SLOAD SWAP1 PUSH1 0x3 SHL SWAP2 PUSH1 0x1 DUP1 PUSH1 0xA0 SHL SUB DUP1 SWAP2 AND DUP4 SHL SWAP3 SHL NOT AND OR SWAP1 SSTORE JUMP JUMPDEST PUSH32 0x68728588B9BD047E94C7D39855D8480B0BD9C2D8ACB759F6E9B9B838CF497A63 PUSH1 0x40 MLOAD SWAP6 DUP1 LOG4 DUP2 MSTORE RETURN JUMPDEST PUSH2 0xBD0 DUP8 SWAP2 PUSH2 0x14BB JUMP JUMPDEST PUSH2 0xBDA JUMPI CODESIZE PUSH2 0xB68 JUMP JUMPDEST DUP6 DUP1 REVERT JUMPDEST PUSH1 0x40 MLOAD RETURNDATASIZE DUP10 DUP3 RETURNDATACOPY RETURNDATASIZE SWAP1 REVERT JUMPDEST DUP7 DUP1 REVERT JUMPDEST PUSH2 0xBF6 SWAP1 PUSH2 0x14BB JUMP JUMPDEST PUSH2 0xC01 JUMPI DUP8 CODESIZE PUSH2 0xB35 JUMP JUMPDEST DUP8 DUP1 REVERT JUMPDEST PUSH1 0x40 MLOAD RETURNDATASIZE DUP12 DUP3 RETURNDATACOPY RETURNDATASIZE SWAP1 REVERT JUMPDEST PUSH2 0xC19 SWAP1 PUSH2 0x14BB JUMP JUMPDEST PUSH2 0xC01 JUMPI DUP8 CODESIZE PUSH2 0xB01 JUMP JUMPDEST PUSH1 0x40 MLOAD PUSH4 0x515B9283 PUSH1 0xE0 SHL DUP2 MSTORE PUSH1 0x4 SWAP1 REVERT JUMPDEST POP CALLVALUE PUSH2 0x1BD JUMPI DUP1 PUSH1 0x3 NOT CALLDATASIZE ADD SLT PUSH2 0x1BD JUMPI PUSH2 0xC4F PUSH2 0x148F JUMP JUMPDEST PUSH1 0x2 SLOAD PUSH1 0xFF DUP2 AND PUSH2 0xC92 JUMPI PUSH1 0x1 SWAP1 PUSH1 0xFF NOT AND OR PUSH1 0x2 SSTORE PUSH32 0x62E78CEA01BEE320CD4E420270B5EA74000D11B0C9F74754EBDBFC544B05A258 PUSH1 0x20 PUSH1 0x40 MLOAD CALLER DUP2 MSTORE LOG1 DUP1 RETURN JUMPDEST PUSH1 0x40 MLOAD PUSH4 0xD93C0665 PUSH1 0xE0 SHL DUP2 MSTORE PUSH1 0x4 SWAP1 REVERT JUMPDEST POP CALLVALUE PUSH2 0x1BD JUMPI PUSH1 0x20 CALLDATASIZE PUSH1 0x3 NOT ADD SLT PUSH2 0x1BD JUMPI PUSH1 0x1 PUSH1 0x1 PUSH1 0xA0 SHL SUB PUSH2 0xCC6 PUSH2 0x13C2 JUMP JUMPDEST AND SWAP1 DUP2 ISZERO PUSH2 0x5F2 JUMPI PUSH1 0x40 DUP2 PUSH1 0x20 SWAP4 PUSH1 0xFF SWAP4 MSTORE PUSH1 0x4 DUP5 MSTORE KECCAK256 SLOAD AND PUSH1 0x40 MLOAD SWAP1 ISZERO ISZERO DUP2 MSTORE RETURN JUMPDEST POP CALLVALUE PUSH2 0x1BD JUMPI PUSH1 0x40 CALLDATASIZE PUSH1 0x3 NOT ADD SLT PUSH2 0x1BD JUMPI PUSH2 0xD03 PUSH2 0x13C2 JUMP JUMPDEST PUSH1 0x1 PUSH1 0x1 PUSH1 0xA0 SHL SUB SWAP1 DUP2 AND DUP3 MSTORE PUSH1 0x3 PUSH1 0x20 MSTORE PUSH1 0x40 DUP3 KECCAK256 DUP1 SLOAD PUSH1 0x24 CALLDATALOAD SWAP4 SWAP1 DUP5 LT ISZERO PUSH2 0x1BD JUMPI POP PUSH1 0x20 SWAP3 PUSH2 0xD34 SWAP2 PUSH2 0x1461 JUMP JUMPDEST SWAP1 SLOAD SWAP1 PUSH1 0x3 SHL SHR AND PUSH1 0x40 MLOAD SWAP1 DUP2 MSTORE RETURN JUMPDEST POP CALLVALUE PUSH2 0x1BD JUMPI PUSH1 0x20 CALLDATASIZE PUSH1 0x3 NOT ADD SLT PUSH2 0x1BD JUMPI PUSH1 0x20 SWAP1 PUSH1 0x40 SWAP1 PUSH1 0x1 PUSH1 0x1 PUSH1 0xA0 SHL SUB PUSH2 0xD6C PUSH2 0x13C2 JUMP JUMPDEST AND DUP2 MSTORE PUSH1 0x5 DUP4 MSTORE KECCAK256 SLOAD PUSH1 0x40 MLOAD SWAP1 DUP2 MSTORE RETURN JUMPDEST POP CALLVALUE PUSH2 0x1BD JUMPI DUP1 PUSH1 0x3 NOT CALLDATASIZE ADD SLT PUSH2 0x1BD JUMPI PUSH2 0xD96 PUSH2 0x148F JUMP JUMPDEST PUSH1 0x0 DUP1 SLOAD PUSH1 0x1 PUSH1 0x1 PUSH1 0xA0 SHL SUB NOT DUP2 AND DUP3 SSTORE PUSH1 0x1 PUSH1 0x1 PUSH1 0xA0 SHL SUB AND PUSH32 0x8BE0079C531659141344CD1FD0A4F28419497F9722A3DAAFE3B4186F6B6457E0 DUP3 DUP1 LOG3 DUP1 RETURN JUMPDEST POP CALLVALUE PUSH2 0x1BD JUMPI DUP1 PUSH1 0x3 NOT CALLDATASIZE ADD SLT PUSH2 0x1BD JUMPI PUSH1 0x20 PUSH1 0xFF PUSH1 0x2 SLOAD AND PUSH1 0x40 MLOAD SWAP1 ISZERO ISZERO DUP2 MSTORE RETURN JUMPDEST POP PUSH1 0x20 SWAP1 DUP2 PUSH1 0x3 NOT CALLDATASIZE ADD SLT PUSH2 0x1BD JUMPI PUSH1 0x1 PUSH1 0x1 PUSH1 0xA0 SHL SUB SWAP1 DUP2 PUSH2 0xE1B PUSH2 0x13C2 JUMP JUMPDEST AND DUP1 ISZERO PUSH2 0x5F2 JUMPI PUSH7 0x2386F26FC10000 CALLVALUE LT PUSH2 0x5B0 JUMPI PUSH9 0x3635C9ADC5DEA00000 CALLVALUE GT PUSH2 0x58A JUMPI DUP1 DUP3 MSTORE PUSH1 0x3 DUP5 MSTORE PUSH1 0xA PUSH1 0x40 DUP4 KECCAK256 SLOAD LT ISZERO PUSH2 0x5C2 JUMPI PUSH2 0xE7D PUSH32 0x0 PUSH2 0x1556 JUMP JUMPDEST DUP4 DUP2 AND SWAP4 PUSH32 0x0 DUP6 EXTCODESIZE ISZERO PUSH2 0x553 JUMPI PUSH1 0x40 MLOAD PUSH4 0xC0C53B8B PUSH1 0xE0 SHL DUP2 MSTORE PUSH1 0x1 PUSH1 0x1 PUSH1 0xA0 SHL SUB PUSH32 0x0 DUP2 AND PUSH1 0x4 DUP4 ADD MSTORE DUP3 DUP2 AND PUSH1 0x24 DUP4 ADD MSTORE PUSH32 0x0 AND PUSH1 0x44 DUP3 ADD MSTORE DUP6 DUP2 PUSH1 0x64 DUP2 DUP4 DUP12 GAS CALL DUP1 ISZERO PUSH2 0x105A JUMPI PUSH2 0x1065 JUMPI JUMPDEST POP DUP6 EXTCODESIZE ISZERO PUSH2 0x553 JUMPI PUSH1 0x40 MLOAD PUSH4 0xF2FDE38B PUSH1 0xE0 SHL DUP2 MSTORE PUSH1 0x4 DUP2 ADD DUP6 SWAP1 MSTORE DUP6 DUP2 PUSH1 0x24 DUP2 DUP4 DUP12 GAS CALL DUP1 ISZERO PUSH2 0x105A JUMPI SWAP1 DUP7 SWAP2 PUSH2 0x1046 JUMPI JUMPDEST POP POP AND DUP1 EXTCODESIZE ISZERO PUSH2 0x1042 JUMPI DUP4 DUP1 SWAP2 PUSH1 0x24 PUSH1 0x40 MLOAD DUP1 SWAP5 DUP2 SWAP4 PUSH4 0x297A4AAD PUSH1 0xE1 SHL DUP4 MSTORE DUP11 PUSH1 0x4 DUP5 ADD MSTORE GAS CALL DUP1 ISZERO PUSH2 0x1037 JUMPI SWAP1 DUP5 SWAP2 PUSH2 0x101F JUMPI JUMPDEST POP SWAP1 DUP3 PUSH2 0xFA7 SWAP3 MSTORE PUSH1 0x3 DUP7 MSTORE PUSH1 0x40 DUP5 KECCAK256 PUSH2 0x1507 JUMP JUMPDEST DUP1 DUP3 MSTORE PUSH1 0x5 DUP5 MSTORE PUSH1 0x40 DUP3 KECCAK256 PUSH2 0xFBC DUP2 SLOAD PUSH2 0x1531 JUMP JUMPDEST SWAP1 SSTORE DUP1 DUP3 MSTORE PUSH1 0x3 DUP5 MSTORE PUSH1 0x40 DUP3 KECCAK256 SLOAD PUSH1 0x0 NOT DUP2 ADD SWAP3 SWAP1 DUP4 GT PUSH2 0x100B JUMPI POP DUP3 SWAP1 PUSH32 0xCBD143AB29DDA74D196E269AF025F1C0372F07AE1C5684395B6EC105A55CD236 DUP6 PUSH1 0x40 MLOAD CALLVALUE DUP2 MSTORE LOG4 PUSH1 0x40 MLOAD SWAP1 DUP2 MSTORE RETURN JUMPDEST PUSH4 0x4E487B71 PUSH1 0xE0 SHL DUP2 MSTORE PUSH1 0x11 PUSH1 0x4 MSTORE PUSH1 0x24 SWAP1 REVERT JUMPDEST PUSH2 0x1028 SWAP1 PUSH2 0x14BB JUMP JUMPDEST PUSH2 0x1033 JUMPI DUP3 CODESIZE PUSH2 0xF92 JUMP JUMPDEST DUP3 DUP1 REVERT JUMPDEST PUSH1 0x40 MLOAD RETURNDATASIZE DUP7 DUP3 RETURNDATACOPY RETURNDATASIZE SWAP1 REVERT JUMPDEST DUP4 DUP1 REVERT JUMPDEST PUSH2 0x104F SWAP1 PUSH2 0x14BB JUMP JUMPDEST PUSH2 0x553 JUMPI DUP5 CODESIZE PUSH2 0xF5C JUMP JUMPDEST PUSH1 0x40 MLOAD RETURNDATASIZE DUP9 DUP3 RETURNDATACOPY RETURNDATASIZE SWAP1 REVERT JUMPDEST PUSH2 0x1071 SWAP1 SWAP6 SWAP2 SWAP6 PUSH2 0x14BB JUMP JUMPDEST SWAP4 CODESIZE PUSH2 0xF29 JUMP JUMPDEST PUSH2 0x13D8 JUMP JUMPDEST POP CALLVALUE PUSH2 0x1BD JUMPI DUP1 PUSH1 0x3 NOT CALLDATASIZE ADD SLT PUSH2 0x1BD JUMPI PUSH2 0x1096 PUSH2 0x148F JUMP JUMPDEST PUSH1 0x2 SLOAD PUSH1 0xFF DUP2 AND ISZERO PUSH2 0x10D6 JUMPI PUSH1 0xFF NOT AND PUSH1 0x2 SSTORE PUSH32 0x5DB9EE0A495BF2E6FF9C91A7834C1BA4FDD244A5E8AA4E537BD38AEAE4B073AA PUSH1 0x20 PUSH1 0x40 MLOAD CALLER DUP2 MSTORE LOG1 DUP1 RETURN JUMPDEST PUSH1 0x40 MLOAD PUSH4 0x8DFC202B PUSH1 0xE0 SHL DUP2 MSTORE PUSH1 0x4 SWAP1 REVERT JUMPDEST POP CALLVALUE PUSH2 0x1BD JUMPI DUP1 PUSH1 0x3 NOT CALLDATASIZE ADD SLT PUSH2 0x1BD JUMPI PUSH1 0x40 MLOAD PUSH32 0x0 PUSH1 0x1 PUSH1 0x1 PUSH1 0xA0 SHL SUB AND DUP2 MSTORE PUSH1 0x20 SWAP1 RETURN JUMPDEST POP CALLVALUE PUSH2 0x1BD JUMPI PUSH1 0x20 DUP1 PUSH1 0x3 NOT CALLDATASIZE ADD SLT PUSH2 0x11B9 JUMPI PUSH1 0x1 PUSH1 0x1 PUSH1 0xA0 SHL SUB SWAP1 DUP2 PUSH2 0x1152 PUSH2 0x13C2 JUMP JUMPDEST AND DUP1 ISZERO PUSH2 0x5F2 JUMPI DUP4 SWAP1 DUP2 MSTORE PUSH1 0x3 DUP3 MSTORE PUSH1 0x40 DUP2 KECCAK256 SWAP3 PUSH1 0x40 MLOAD SWAP1 DUP2 SWAP4 DUP1 DUP7 SLOAD SWAP4 DUP5 DUP2 MSTORE ADD SWAP6 DUP5 MSTORE DUP1 DUP5 KECCAK256 SWAP4 SWAP2 JUMPDEST DUP4 DUP4 LT PUSH2 0x11A0 JUMPI PUSH2 0x2A3 DUP7 PUSH2 0x1194 DUP2 DUP11 SUB DUP3 PUSH2 0x14E5 JUMP JUMPDEST PUSH1 0x40 MLOAD SWAP2 DUP3 SWAP2 DUP3 PUSH2 0x141D JUMP JUMPDEST DUP5 SLOAD DUP2 AND DUP8 MSTORE SWAP6 DUP2 ADD SWAP6 PUSH1 0x1 SWAP5 DUP6 ADD SWAP5 SWAP1 SWAP3 ADD SWAP2 PUSH2 0x117D JUMP JUMPDEST POP DUP1 REVERT JUMPDEST POP CALLVALUE PUSH2 0x1BD JUMPI PUSH1 0x40 CALLDATASIZE PUSH1 0x3 NOT ADD SLT PUSH2 0x1BD JUMPI PUSH2 0x11D7 PUSH2 0x13C2 JUMP JUMPDEST PUSH1 0x24 CALLDATALOAD SWAP2 PUSH1 0x1 PUSH1 0x1 PUSH1 0xA0 SHL SUB SWAP2 DUP3 AND SWAP1 DUP2 ISZERO PUSH2 0x5F2 JUMPI PUSH1 0x40 SWAP2 DUP2 MSTORE PUSH1 0x3 PUSH1 0x20 MSTORE KECCAK256 DUP1 SLOAD DUP4 LT ISZERO PUSH2 0xC24 JUMPI PUSH1 0x20 SWAP3 PUSH2 0xD34 SWAP2 PUSH2 0x1461 JUMP JUMPDEST POP CALLVALUE PUSH2 0x1BD JUMPI PUSH1 0x20 CALLDATASIZE PUSH1 0x3 NOT ADD SLT PUSH2 0x1BD JUMPI PUSH1 0x1 PUSH1 0x1 PUSH1 0xA0 SHL SUB PUSH2 0x122F PUSH2 0x13C2 JUMP JUMPDEST AND DUP1 ISZERO PUSH2 0x5F2 JUMPI DUP2 PUSH1 0x40 SWAP2 PUSH1 0x20 SWAP4 MSTORE PUSH1 0x5 DUP4 MSTORE KECCAK256 SLOAD PUSH1 0x40 MLOAD SWAP1 DUP2 MSTORE RETURN JUMPDEST POP CALLVALUE PUSH2 0x1BD JUMPI DUP1 PUSH1 0x3 NOT CALLDATASIZE ADD SLT PUSH2 0x1BD JUMPI PUSH1 0xC0 PUSH1 0x40 MLOAD PUSH1 0x1 DUP1 PUSH1 0xA0 SHL SUB DUP1 PUSH32 0x0 AND DUP3 MSTORE DUP1 PUSH32 0x0 AND PUSH1 0x20 DUP4 ADD MSTORE PUSH32 0x0 AND PUSH1 0x40 DUP3 ADD MSTORE PUSH1 0xA PUSH1 0x60 DUP3 ADD MSTORE PUSH7 0x2386F26FC10000 PUSH1 0x80 DUP3 ADD MSTORE PUSH9 0x3635C9ADC5DEA00000 PUSH1 0xA0 DUP3 ADD MSTORE RETURN JUMPDEST POP CALLVALUE PUSH2 0x1BD JUMPI PUSH1 0x20 CALLDATASIZE PUSH1 0x3 NOT ADD SLT PUSH2 0x1BD JUMPI PUSH1 0x1 PUSH1 0x1 PUSH1 0xA0 SHL SUB PUSH2 0x1324 PUSH2 0x13C2 JUMP JUMPDEST AND DUP1 ISZERO PUSH2 0x5F2 JUMPI DUP2 PUSH1 0x40 SWAP2 PUSH1 0x20 SWAP4 MSTORE PUSH1 0x3 DUP4 MSTORE KECCAK256 SLOAD PUSH1 0x40 MLOAD SWAP1 DUP2 MSTORE RETURN JUMPDEST POP CALLVALUE PUSH2 0x1BD JUMPI PUSH1 0x40 CALLDATASIZE PUSH1 0x3 NOT ADD SLT PUSH2 0x1BD JUMPI PUSH2 0x135B PUSH2 0x13C2 JUMP JUMPDEST PUSH1 0x24 CALLDATALOAD PUSH2 0x1366 PUSH2 0x148F JUMP JUMPDEST PUSH1 0x1 PUSH1 0x1 PUSH1 0xA0 SHL SUB DUP3 DUP2 AND ISZERO PUSH2 0x5F2 JUMPI DUP2 ISZERO PUSH2 0x5D4 JUMPI DUP4 SLOAD PUSH1 0x40 MLOAD PUSH4 0xA9059CBB PUSH1 0xE0 SHL PUSH1 0x20 DUP3 ADD SWAP1 DUP2 MSTORE SWAP3 SWAP1 SWAP2 AND PUSH1 0x1 PUSH1 0x1 PUSH1 0xA0 SHL SUB AND PUSH1 0x24 DUP3 ADD MSTORE PUSH1 0x44 DUP2 ADD SWAP3 SWAP1 SWAP3 MSTORE PUSH2 0x6E0 SWAP3 DUP5 SWAP3 DUP4 SWAP3 SWAP1 DUP4 SWAP1 PUSH2 0x885 DUP2 PUSH1 0x64 DUP2 ADD PUSH2 0x877 JUMP JUMPDEST PUSH1 0x4 CALLDATALOAD SWAP1 PUSH1 0x1 PUSH1 0x1 PUSH1 0xA0 SHL SUB DUP3 AND DUP3 SUB PUSH2 0x891 JUMPI JUMP JUMPDEST CALLVALUE PUSH2 0x891 JUMPI PUSH1 0x0 CALLDATASIZE PUSH1 0x3 NOT ADD SLT PUSH2 0x891 JUMPI PUSH1 0x40 MLOAD PUSH32 0x0 PUSH1 0x1 PUSH1 0x1 PUSH1 0xA0 SHL SUB AND DUP2 MSTORE PUSH1 0x20 SWAP1 RETURN JUMPDEST PUSH1 0x20 SWAP1 DUP2 PUSH1 0x40 DUP2 DUP4 ADD SWAP3 DUP3 DUP2 MSTORE DUP6 MLOAD DUP1 SWAP5 MSTORE ADD SWAP4 ADD SWAP2 PUSH1 0x0 JUMPDEST DUP3 DUP2 LT PUSH2 0x1444 JUMPI POP POP POP POP SWAP1 JUMP JUMPDEST DUP4 MLOAD PUSH1 0x1 PUSH1 0x1 PUSH1 0xA0 SHL SUB AND DUP6 MSTORE SWAP4 DUP2 ADD SWAP4 SWAP3 DUP2 ADD SWAP3 PUSH1 0x1 ADD PUSH2 0x1436 JUMP JUMPDEST DUP1 SLOAD DUP3 LT ISZERO PUSH2 0x1479 JUMPI PUSH1 0x0 MSTORE PUSH1 0x20 PUSH1 0x0 KECCAK256 ADD SWAP1 PUSH1 0x0 SWAP1 JUMP JUMPDEST PUSH4 0x4E487B71 PUSH1 0xE0 SHL PUSH1 0x0 MSTORE PUSH1 0x32 PUSH1 0x4 MSTORE PUSH1 0x24 PUSH1 0x0 REVERT JUMPDEST PUSH1 0x0 SLOAD PUSH1 0x1 PUSH1 0x1 PUSH1 0xA0 SHL SUB AND CALLER SUB PUSH2 0x14A3 JUMPI JUMP JUMPDEST PUSH1 0x40 MLOAD PUSH4 0x118CDAA7 PUSH1 0xE0 SHL DUP2 MSTORE CALLER PUSH1 0x4 DUP3 ADD MSTORE PUSH1 0x24 SWAP1 REVERT JUMPDEST PUSH8 0xFFFFFFFFFFFFFFFF DUP2 GT PUSH2 0x14CF JUMPI PUSH1 0x40 MSTORE JUMP JUMPDEST PUSH4 0x4E487B71 PUSH1 0xE0 SHL PUSH1 0x0 MSTORE PUSH1 0x41 PUSH1 0x4 MSTORE PUSH1 0x24 PUSH1 0x0 REVERT JUMPDEST SWAP1 PUSH1 0x1F DUP1 NOT SWAP2 ADD AND DUP2 ADD SWAP1 DUP2 LT PUSH8 0xFFFFFFFFFFFFFFFF DUP3 GT OR PUSH2 0x14CF JUMPI PUSH1 0x40 MSTORE JUMP JUMPDEST SWAP1 DUP2 SLOAD SWAP2 PUSH9 0x10000000000000000 DUP4 LT ISZERO PUSH2 0x14CF JUMPI DUP3 PUSH2 0xB7C SWAP2 PUSH1 0x1 PUSH2 0x152F SWAP6 ADD DUP2 SSTORE PUSH2 0x1461 JUMP JUMPDEST JUMP JUMPDEST PUSH1 0x0 NOT DUP2 EQ PUSH2 0x1540 JUMPI PUSH1 0x1 ADD SWAP1 JUMP JUMPDEST PUSH4 0x4E487B71 PUSH1 0xE0 SHL PUSH1 0x0 MSTORE PUSH1 0x11 PUSH1 0x4 MSTORE PUSH1 0x24 PUSH1 0x0 REVERT JUMPDEST PUSH15 0x5AF43D82803E903D91602B57FD5BF3 SWAP1 PUSH23 0x3D602D80600A3D3981F3363D3D373D3D3D363D73000000 PUSH3 0xFFFFFF DUP3 PUSH1 0x88 SHR AND OR PUSH1 0x0 MSTORE PUSH1 0x78 SHL OR PUSH1 0x20 MSTORE PUSH1 0x37 PUSH1 0x9 PUSH1 0x0 CREATE SWAP1 PUSH1 0x1 PUSH1 0x1 PUSH1 0xA0 SHL SUB DUP3 AND ISZERO PUSH2 0x15AC JUMPI JUMP JUMPDEST PUSH1 0x40 MLOAD PUSH4 0xB06EBF3D PUSH1 0xE0 SHL DUP2 MSTORE PUSH1 0x4 SWAP1 REVERT JUMPDEST PUSH8 0xFFFFFFFFFFFFFFFF DUP2 GT PUSH2 0x14CF JUMPI PUSH1 0x5 SHL PUSH1 0x20 ADD SWAP1 JUMP JUMPDEST RETURNDATASIZE ISZERO PUSH2 0x1611 JUMPI RETURNDATASIZE SWAP1 PUSH8 0xFFFFFFFFFFFFFFFF DUP3 GT PUSH2 0x14CF JUMPI PUSH1 0x40 MLOAD SWAP2 PUSH2 0x1605 PUSH1 0x1F DUP3 ADD PUSH1 0x1F NOT AND PUSH1 0x20 ADD DUP5 PUSH2 0x14E5 JUMP JUMPDEST DUP3 MSTORE RETURNDATASIZE PUSH1 0x0 PUSH1 0x20 DUP5 ADD RETURNDATACOPY JUMP JUMPDEST PUSH1 0x60 SWAP1 JUMP JUMPDEST ISZERO PUSH2 0x161D JUMPI JUMP JUMPDEST PUSH1 0x40 MLOAD PUSH3 0x461BCD PUSH1 0xE5 SHL DUP2 MSTORE PUSH1 0x20 PUSH1 0x4 DUP3 ADD MSTORE PUSH1 0xF PUSH1 0x24 DUP3 ADD MSTORE PUSH15 0x151C985B9CD9995C8819985A5B1959 PUSH1 0x8A SHL PUSH1 0x44 DUP3 ADD MSTORE PUSH1 0x64 SWAP1 REVERT INVALID LOG2 PUSH5 0x6970667358 0x22 SLT KECCAK256 0xC9 0x4F 0xE8 0xFC SWAP8 PUSH26 0xDD51322FB513A979C296F32E5DD9DB3A3A73000A08EF9F230820 PUSH5 0x736F6C6343 STOP ADDMOD EQ STOP CALLER "},"methodIdentifiers":{"MAX_BOTS_PER_USER()":"d5097308","MAX_DEPOSIT()":"dd5967c3","MIN_DEPOSIT()":"e1e158a5","authorizeToken(address)":"98e9cb12","authorizedTokens(address)":"9bc7c586","botDeploymentCount(address)":"79ea7669","botImplementation()":"48131a06","deauthorizeToken(address)":"adf2067a","deployBot(address)":"5912642e","deployMultipleBots(address,uint256)":"f7e34412","emergencyRecover(address,address,uint256)":"ad1329d1","getBotImplementation()":"26556753","getFactoryConfig()":"15903763","getUserBot(address,uint256)":"301a2fa6","getUserBotCount(address)":"0c4ce2ed","getUserBots(address)":"34c1d429","getUserDeploymentCount(address)":"25c596cc","isTokenAuthorized(address)":"7ffe2b40","lop()":"9ccf88c7","oracleAdapter()":"3d9f3163","orderManager()":"f9b6117f","owner()":"8da5cb5b","pause()":"8456cb59","paused()":"5c975abb","renounceOwnership()":"715018a6","transferOwnership(address)":"f2fde38b","unpause()":"3f4ba83a","upgradeBot(address,uint256)":"87c66739","userBots(address,uint256)":"7f6734d6","withdrawETH(uint256)":"f14210a6","withdrawTokens(address,uint256)":"06b091f9"}}}}}