{"contracts/inchbyinchBot.sol":{"inchbyinchBot":{"abi":[{"inputs":[],"stateMutability":"nonpayable","type":"constructor"},{"inputs":[],"name":"EnforcedPause","type":"error"},{"inputs":[],"name":"ExceedsBudget","type":"error"},{"inputs":[],"name":"ExpectedPause","type":"error"},{"inputs":[],"name":"InsufficientBalance","type":"error"},{"inputs":[],"name":"InvalidBudget","type":"error"},{"inputs":[],"name":"InvalidExpiry","type":"error"},{"inputs":[],"name":"InvalidOrderSize","type":"error"},{"inputs":[],"name":"InvalidPrice","type":"error"},{"inputs":[],"name":"InvalidSpacing","type":"error"},{"inputs":[],"name":"InvalidStopLoss","type":"error"},{"inputs":[],"name":"InvalidStrategy","type":"error"},{"inputs":[],"name":"InvalidTakeProfit","type":"error"},{"inputs":[],"name":"OrderAlreadyCanceled","type":"error"},{"inputs":[],"name":"OrderAlreadyExists","type":"error"},{"inputs":[],"name":"OrderAlreadyFilled","type":"error"},{"inputs":[],"name":"OrderNotFound","type":"error"},{"inputs":[{"internalType":"address","name":"owner","type":"address"}],"name":"OwnableInvalidOwner","type":"error"},{"inputs":[{"internalType":"address","name":"account","type":"address"}],"name":"OwnableUnauthorizedAccount","type":"error"},{"inputs":[],"name":"ReentrancyGuardReentrantCall","type":"error"},{"inputs":[{"internalType":"address","name":"token","type":"address"}],"name":"SafeERC20FailedOperation","type":"error"},{"inputs":[],"name":"StopLossTriggered","type":"error"},{"inputs":[],"name":"StrategyAlreadyActive","type":"error"},{"inputs":[],"name":"StrategyExpired","type":"error"},{"inputs":[],"name":"StrategyNotActive","type":"error"},{"inputs":[],"name":"TakeProfitTriggered","type":"error"},{"inputs":[],"name":"UnauthorizedCaller","type":"error"},{"inputs":[],"name":"ZeroAddress","type":"error"},{"inputs":[],"name":"ZeroAmount","type":"error"},{"anonymous":false,"inputs":[{"indexed":true,"internalType":"bytes32","name":"orderHash","type":"bytes32"},{"indexed":true,"internalType":"uint256","name":"orderIndex","type":"uint256"},{"indexed":false,"internalType":"uint256","name":"filledAmount","type":"uint256"},{"indexed":false,"internalType":"uint256","name":"price","type":"uint256"}],"name":"OrderFilled","type":"event"},{"anonymous":false,"inputs":[{"indexed":true,"internalType":"bytes32","name":"orderHash","type":"bytes32"},{"indexed":true,"internalType":"uint256","name":"orderIndex","type":"uint256"},{"indexed":false,"internalType":"uint256","name":"price","type":"uint256"},{"indexed":false,"internalType":"uint256","name":"orderSize","type":"uint256"}],"name":"OrderPlaced","type":"event"},{"anonymous":false,"inputs":[{"indexed":true,"internalType":"bytes32","name":"oldOrderHash","type":"bytes32"},{"indexed":true,"internalType":"bytes32","name":"newOrderHash","type":"bytes32"},{"indexed":false,"internalType":"uint256","name":"newPrice","type":"uint256"},{"indexed":false,"internalType":"uint256","name":"orderIndex","type":"uint256"}],"name":"OrderReposted","type":"event"},{"anonymous":false,"inputs":[{"indexed":true,"internalType":"address","name":"previousOwner","type":"address"},{"indexed":true,"internalType":"address","name":"newOwner","type":"address"}],"name":"OwnershipTransferred","type":"event"},{"anonymous":false,"inputs":[{"indexed":false,"internalType":"address","name":"account","type":"address"}],"name":"Paused","type":"event"},{"anonymous":false,"inputs":[],"name":"StrategyCancelled","type":"event"},{"anonymous":false,"inputs":[{"indexed":false,"internalType":"uint256","name":"totalFilled","type":"uint256"},{"indexed":false,"internalType":"uint256","name":"totalSpent","type":"uint256"},{"indexed":false,"internalType":"uint256","name":"profit","type":"uint256"}],"name":"StrategyCompleted","type":"event"},{"anonymous":false,"inputs":[{"indexed":true,"internalType":"address","name":"makerAsset","type":"address"},{"indexed":true,"internalType":"address","name":"takerAsset","type":"address"},{"indexed":false,"internalType":"uint256","name":"startPrice","type":"uint256"},{"indexed":false,"internalType":"uint256","name":"spacing","type":"uint256"},{"indexed":false,"internalType":"uint256","name":"orderSize","type":"uint256"},{"indexed":false,"internalType":"uint256","name":"numOrders","type":"uint256"},{"indexed":false,"internalType":"uint256","name":"strategyType","type":"uint256"}],"name":"StrategyCreated","type":"event"},{"anonymous":false,"inputs":[{"indexed":false,"internalType":"address","name":"account","type":"address"}],"name":"Unpaused","type":"event"},{"inputs":[],"name":"MAX_ORDERS","outputs":[{"internalType":"uint256","name":"","type":"uint256"}],"stateMutability":"view","type":"function"},{"inputs":[],"name":"MAX_ORDER_SIZE","outputs":[{"internalType":"uint256","name":"","type":"uint256"}],"stateMutability":"view","type":"function"},{"inputs":[],"name":"MAX_SPACING","outputs":[{"internalType":"uint256","name":"","type":"uint256"}],"stateMutability":"view","type":"function"},{"inputs":[],"name":"MIN_ORDER_SIZE","outputs":[{"internalType":"uint256","name":"","type":"uint256"}],"stateMutability":"view","type":"function"},{"inputs":[],"name":"MIN_SPACING","outputs":[{"internalType":"uint256","name":"","type":"uint256"}],"stateMutability":"view","type":"function"},{"inputs":[],"name":"REPOST_NEXT_PRICE","outputs":[{"internalType":"uint256","name":"","type":"uint256"}],"stateMutability":"view","type":"function"},{"inputs":[],"name":"REPOST_SAME_PRICE","outputs":[{"internalType":"uint256","name":"","type":"uint256"}],"stateMutability":"view","type":"function"},{"inputs":[],"name":"REPOST_SKIP","outputs":[{"internalType":"uint256","name":"","type":"uint256"}],"stateMutability":"view","type":"function"},{"inputs":[],"name":"STRATEGY_BUY_LADDER","outputs":[{"internalType":"uint256","name":"","type":"uint256"}],"stateMutability":"view","type":"function"},{"inputs":[],"name":"STRATEGY_BUY_SELL","outputs":[{"internalType":"uint256","name":"","type":"uint256"}],"stateMutability":"view","type":"function"},{"inputs":[],"name":"STRATEGY_SELL_LADDER","outputs":[{"internalType":"uint256","name":"","type":"uint256"}],"stateMutability":"view","type":"function"},{"inputs":[],"name":"cancelAllOrders","outputs":[],"stateMutability":"nonpayable","type":"function"},{"inputs":[{"internalType":"uint256","name":"orderIndex","type":"uint256"}],"name":"cancelOrder","outputs":[],"stateMutability":"nonpayable","type":"function"},{"inputs":[{"internalType":"address","name":"makerAsset","type":"address"},{"internalType":"address","name":"takerAsset","type":"address"},{"internalType":"uint256","name":"startPrice","type":"uint256"},{"internalType":"uint256","name":"spacing","type":"uint256"},{"internalType":"uint256","name":"orderSize","type":"uint256"},{"internalType":"uint256","name":"numOrders","type":"uint256"},{"internalType":"uint256","name":"strategyType","type":"uint256"},{"internalType":"uint256","name":"repostMode","type":"uint256"},{"internalType":"uint256","name":"budget","type":"uint256"},{"internalType":"uint256","name":"stopLoss","type":"uint256"},{"internalType":"uint256","name":"takeProfit","type":"uint256"},{"internalType":"uint256","name":"expiryTime","type":"uint256"}],"name":"createStrategy","outputs":[],"stateMutability":"nonpayable","type":"function"},{"inputs":[],"name":"getActiveOrders","outputs":[{"internalType":"uint256[]","name":"activeOrders","type":"uint256[]"}],"stateMutability":"view","type":"function"},{"inputs":[{"internalType":"uint256","name":"orderIndex","type":"uint256"}],"name":"getOrder","outputs":[{"components":[{"internalType":"bytes32","name":"orderHash","type":"bytes32"},{"internalType":"uint256","name":"price","type":"uint256"},{"internalType":"uint256","name":"orderIndex","type":"uint256"},{"internalType":"bool","name":"isActive","type":"bool"},{"internalType":"uint256","name":"createdAt","type":"uint256"}],"internalType":"struct inchbyinchBot.Order","name":"order","type":"tuple"}],"stateMutability":"view","type":"function"},{"inputs":[],"name":"getStrategyPerformance","outputs":[{"internalType":"uint256","name":"totalFilled","type":"uint256"},{"internalType":"uint256","name":"totalSpent","type":"uint256"},{"internalType":"int256","name":"profit","type":"int256"}],"stateMutability":"view","type":"function"},{"inputs":[{"internalType":"bytes32","name":"orderHash","type":"bytes32"},{"internalType":"uint256","name":"filledAmount","type":"uint256"},{"internalType":"uint256","name":"remainingAmount","type":"uint256"}],"name":"handleOrderFill","outputs":[],"stateMutability":"nonpayable","type":"function"},{"inputs":[{"internalType":"address","name":"_lop","type":"address"},{"internalType":"address","name":"_orderManager","type":"address"},{"internalType":"address","name":"_oracleAdapter","type":"address"}],"name":"initialize","outputs":[],"stateMutability":"nonpayable","type":"function"},{"inputs":[],"name":"lop","outputs":[{"internalType":"contract I1inchLOP","name":"","type":"address"}],"stateMutability":"view","type":"function"},{"inputs":[],"name":"oracleAdapter","outputs":[{"internalType":"contract IOracleAdapter","name":"","type":"address"}],"stateMutability":"view","type":"function"},{"inputs":[{"internalType":"bytes32","name":"","type":"bytes32"}],"name":"orderIndexByHash","outputs":[{"internalType":"uint256","name":"","type":"uint256"}],"stateMutability":"view","type":"function"},{"inputs":[],"name":"orderManager","outputs":[{"internalType":"contract IOrderManager","name":"","type":"address"}],"stateMutability":"view","type":"function"},{"inputs":[{"internalType":"uint256","name":"","type":"uint256"}],"name":"orders","outputs":[{"internalType":"bytes32","name":"orderHash","type":"bytes32"},{"internalType":"uint256","name":"price","type":"uint256"},{"internalType":"uint256","name":"orderIndex","type":"uint256"},{"internalType":"bool","name":"isActive","type":"bool"},{"internalType":"uint256","name":"createdAt","type":"uint256"}],"stateMutability":"view","type":"function"},{"inputs":[],"name":"owner","outputs":[{"internalType":"address","name":"","type":"address"}],"stateMutability":"view","type":"function"},{"inputs":[],"name":"pause","outputs":[],"stateMutability":"nonpayable","type":"function"},{"inputs":[],"name":"paused","outputs":[{"internalType":"bool","name":"","type":"bool"}],"stateMutability":"view","type":"function"},{"inputs":[],"name":"placeLadderOrders","outputs":[],"stateMutability":"nonpayable","type":"function"},{"inputs":[],"name":"renounceOwnership","outputs":[],"stateMutability":"nonpayable","type":"function"},{"inputs":[],"name":"strategy","outputs":[{"internalType":"address","name":"makerAsset","type":"address"},{"internalType":"address","name":"takerAsset","type":"address"},{"internalType":"uint256","name":"startPrice","type":"uint256"},{"internalType":"uint256","name":"spacing","type":"uint256"},{"internalType":"uint256","name":"orderSize","type":"uint256"},{"internalType":"uint256","name":"numOrders","type":"uint256"},{"internalType":"uint256","name":"strategyType","type":"uint256"},{"internalType":"uint256","name":"repostMode","type":"uint256"},{"internalType":"uint256","name":"budget","type":"uint256"},{"internalType":"uint256","name":"stopLoss","type":"uint256"},{"internalType":"uint256","name":"takeProfit","type":"uint256"},{"internalType":"uint256","name":"expiryTime","type":"uint256"},{"internalType":"bool","name":"isActive","type":"bool"},{"internalType":"uint256","name":"currentOrderIndex","type":"uint256"},{"internalType":"uint256","name":"totalFilled","type":"uint256"},{"internalType":"uint256","name":"totalSpent","type":"uint256"}],"stateMutability":"view","type":"function"},{"inputs":[{"internalType":"address","name":"newOwner","type":"address"}],"name":"transferOwnership","outputs":[],"stateMutability":"nonpayable","type":"function"},{"inputs":[],"name":"unpause","outputs":[],"stateMutability":"nonpayable","type":"function"},{"inputs":[{"internalType":"address","name":"token","type":"address"},{"internalType":"uint256","name":"amount","type":"uint256"}],"name":"withdrawTokens","outputs":[],"stateMutability":"nonpayable","type":"function"}],"evm":{"bytecode":{"linkReferences":{},"object":"6080806040523461007e5733156100685760008054336001600160a01b03198216811783556040519290916001600160a01b0316907f8be0079c531659141344cd1fd0a4f28419497f9722a3daafe3b4186f6b6457e09080a36001805561211790816100848239f35b631e4fbdf760e01b815260006004820152602490fd5b600080fdfe60a0604052600436101561001257600080fd5b6000803560e01c806286e68b1461137e578063028afabf146112e057806306b091f914611229578063183540441461101657806320b3d35814610e0d5780632bf8ff4c1461057a5780633bfe248314610d7b5780633d9f316314610d525780633f4ba83a14610ce7578063514fcac714610c5f57806351570fdd1461023d57806355bb366e146107175780635c975abb146106f457806361555e2e146106d0578063627cb7f814610416578063715018a614610676578063716df225146106595780638456cb59146105eb5780638da5cb5b146105c457806393254b0e146105a85780639ccf88c71461057f5780639f215fa51461057a578063a832a06514610550578063a85c38ef146104f4578063a8c62e761461041b578063ac0e764e14610416578063c0c53b8b14610341578063d09ef24114610264578063d3f82d8e14610242578063e3d260901461023d578063f160991b1461023d578063f2fde38b146101b25763f9b6117f1461018757600080fd5b346101af57806003193601126101af576016546040516001600160a01b039091168152602090f35b80fd5b50346101af5760203660031901126101af576101cc6114c8565b6101d4611548565b6001600160a01b0390811690811561022457600054826001600160601b0360a01b821617600055167f8be0079c531659141344cd1fd0a4f28419497f9722a3daafe3b4186f6b6457e0600080a380f35b604051631e4fbdf760e01b815260048101849052602490fd5b611510565b50346101af57806003193601126101af57602060405166038d7ea4c680008152f35b50346101af5760203660031901126101af5760043581608060405161028881611588565b828152826020820152826040820152826060820152015280158015610336575b610324578160409160a093526013602052206040516102c681611588565b815491828252600181015460208301908152600282015490604084019182526080600460ff60038601541694606087019515158652015494019384526040519485525160208501525160408401525115156060830152516080820152f35b60405163d36d896560e01b8152600490fd5b5060105481116102a8565b50346101af5760603660031901126101af5761035b6114c8565b6103636114de565b6044356001600160a01b03818116939092918490036104115782169081156103ff5782169081156103ff5783156103ff576015549283166103c4576001600160601b0360a01b80931617601555816016541617601655601754161760175580f35b60405162461bcd60e51b8152602060048201526013602482015272105b1c9958591e481a5b9a5d1a585b1a5e9959606a1b6044820152606490fd5b60405163d92e233d60e01b8152600490fd5b600080fd5b61152c565b50346101af57806003193601126101af5760018060a01b0380600354169060045416600554600654600754600854600954600a54600b5490600c5492600d5494600e549660ff600f5416986010549a6011549c6012549e604051806080525260206080510152604060805101526060608051015260808051015260a0608051015260c0608051015260e060805101526101006080510152610120608051015261014060805101526101606080510152151561018060805101526101a060805101526101c060805101526101e06080510152610200608051f35b50346101af5760203660031901126101af57604060a09160043581526013602052208054906001810154906002810154600460ff6003840154169201549260405194855260208501526040840152151560608301526080820152f35b50346101af5760203660031901126101af5760406020916004358152601483522054604051908152f35b6114f4565b50346101af57806003193601126101af576015546040516001600160a01b039091168152602090f35b50346101af57806003193601126101af57602060405160328152f35b50346101af57806003193601126101af57546040516001600160a01b039091168152602090f35b50346101af57806003193601126101af57610604611548565b60025460ff81166106475760019060ff1916176002557f62e78cea01bee320cd4e420270b5ea74000d11b0c9f74754ebdbfc544b05a2586020604051338152a180f35b60405163d93c066560e01b8152600490fd5b50346101af57806003193601126101af5760206040516103e88152f35b50346101af57806003193601126101af5761068f611548565b600080546001600160a01b0319811682556001600160a01b03167f8be0079c531659141344cd1fd0a4f28419497f9722a3daafe3b4186f6b6457e08280a380f35b50346101af57806003193601126101af576020604051683635c9adc5dea000008152f35b50346101af57806003193601126101af57602060ff600254166040519015158152f35b50346101af576101803660031901126101af576107326114c8565b61073a6114de565b610742611548565b6001600160a01b038216156103ff576001600160a01b038116156103ff5760443515610c4e576001606435108015610c41575b610c2f5766038d7ea4c68000608435108015610c1b575b610c0957600f5460ff8116610bf75760a435158015610beb575b610bd957600260c43511610bd957600260e43511610bd9576101043515610bc75742610164351115610bb65761012435151580610ba7575b610b955761014435151580610b86575b610b74576040516370a0823160e01b81523060048201526020816024816001600160a01b0388165afa908115610b69578591610b37575b506040516370a0823160e01b8152306004820152906020826024816001600160a01b0388165afa918215610b2c578692610af8575b5060c435610aa457506101043511610a92575b604051908161020081011067ffffffffffffffff61020084011117610a7c57846101e08361020060019501604052848060a01b0387168152848060a01b038616602082015260443560408201526064356060820152608435608082015260a43560a082015260c43560c082015260e43560e08201526101043561010082015261012435610120820152610144356101408201526101643561016082015284610180820152826101a0820152826101c082015201526001600160601b0360a01b828060a01b038516816003541617600355828060a01b03841690600454161760045560443560055560643560065560843560075560a43560085560c43560095560e435600a5561010435600b5561012435600c5561014435600d5561016435600e5560ff191617600f558260105582601155826012558260018060a01b036016541660018060a01b03825416813b15610a6d578291606483926040519485938492634be8f2dd60e01b8452306004850152602484015260c43560448401525af18015610a7157610a59575b50507ff7199c0ca31732b7bbcccf1c8a1db62ea93b2621a474cbce899b5a3a69d828f460a06040519260443584526064356020850152608435604085015260a435606085015260c4356080850152600180831b031693600180831b031692a380f35b610a6290611574565b610a6d5782386109f7565b8280fd5b6040513d84823e3d90fd5b634e487b7160e01b600052604160045260246000fd5b604051631e9acf1760e31b8152600490fd5b9060c435600103610ad65750610abe60a4356084356115ff565b111561086d57604051631e9acf1760e31b8152600490fd5b9050600260c43514610ae9575b5061086d565b6101043511610a925738610ae3565b9091506020813d602011610b24575b81610b14602093836115dd565b810103126104115751903861085a565b3d9150610b07565b6040513d88823e3d90fd5b90506020813d602011610b61575b81610b52602093836115dd565b81010312610411575138610825565b3d9150610b45565b6040513d87823e3d90fd5b60405163113f495360e21b8152600490fd5b506044356101443511156107ee565b604051637cb1aa0160e01b8152600490fd5b506044356101243510156107de565b60405162d36c8560e81b8152600490fd5b604051630757bfc960e21b8152600490fd5b604051632711b74d60e11b8152600490fd5b50603260a435116107a6565b60405163c976754d60e01b8152600490fd5b604051630bc2906760e01b8152600490fd5b50683635c9adc5dea000006084351161078c565b604051636682a97b60e11b8152600490fd5b506103e860643511610775565b60405162bfc92160e01b8152600490fd5b50346101af5760203660031901126101af57600435610c7c611548565b60ff600f541615610cd55780158015610cca575b61032457808252601360205260ff60036040842001541615610cb857610cb590611dea565b80f35b604051630a911f0960e01b8152600490fd5b506010548111610c90565b604051631b92e95360e31b8152600490fd5b50346101af57806003193601126101af57610d00611548565b60025460ff811615610d405760ff19166002557f5db9ee0a495bf2e6ff9c91a7834c1ba4fdd244a5e8aa4e537bd38aeae4b073aa6020604051338152a180f35b604051638dfc202b60e01b8152600490fd5b50346101af57806003193601126101af576017546040516001600160a01b039091168152602090f35b50346101af57806003193601126101af57601154601254600954606093919080610dda57509050610dc681670de0b6b3a7640000610dc0610dba611f7d565b866115ff565b04611669565b905b60405192835260208301526040820152f35b600103610dc8579050610e07670de0b6b3a7640000610e00610dfa611f7d565b856115ff565b0482611669565b90610dc8565b50346101af5760603660031901126101af5780546001600160a01b0390604435906004359060243590841633141580610fa1575b610f8f578185526014602052604085205493841561032457848652601360205260408620600381019460ff86541615610cb85760018892610e90831598891560ff801983541691151516179055565b610e9c86601154611635565b6011550192610ec1670de0b6b3a7640000610eb88654886115ff565b04601254611635565b60125560165416803b15610a6d576064839260405194859384926389389f3160e01b84528a600485015289602485015260448401525af18015610f8457610f48575b5060408593927fe678418be901ac9a27919225bd4d60e450082ef609d1c5e6790e2a201b0e0430925482519182526020820152a3610f3f575080f35b610cb590611a3e565b8593927fe678418be901ac9a27919225bd4d60e450082ef609d1c5e6790e2a201b0e04309297610f79604093611574565b979250929350610f03565b6040513d89823e3d90fd5b604051635c427cd960e01b8152600490fd5b5060246020856016541660405192838092633220c85960e11b82523060048301525afa908115610b2c578691610fd9575b5015610e41565b90506020813d821161100e575b81610ff3602093836115dd565b8101031261100a5761100490611628565b38610fd2565b8580fd5b3d9150610fe6565b50346101af57806003193601126101af5761102f611548565b60ff600f541615610cd557611042611f7d565b600c54801515908161121e575b5061120c57600d548015159182611201575b50506111ef57600e5442116111dd57600954806110d65750611081611f7d565b611089612059565b825b6008548110156110d0576110a86110a283836115ff565b84611682565b9081156110c9576110bf6110c4926007549061174d565b611642565b61108b565b5050505080f35b50505080f35b60019080820361113857506110e9611f7d565b906110f2612059565b83825b611100575050505080f35b60085481101561113357806110bf61112461111e8561112d956115ff565b87611635565b600754906119e4565b826110f5565b6110c9565b600214611143575080f35b61114b611f7d565b90611154612059565b8180805b611197575b50805b61116b575050505080f35b600854831c811161113357611191816110bf61112461118b8688966115ff565b88611635565b90611160565b600854821c81116111d8576111b56111af84836115ff565b86611682565b9081156111d2576110bf6111cc926007549061174d565b81611158565b5061115d565b61115d565b60405163010bfb6d60e61b8152600490fd5b604051630e25c9bf60e21b8152600490fd5b101590503880611061565b604051637f39d2b760e01b8152600490fd5b90508111153861104f565b50346101af5760403660031901126101af576112436114c8565b61124b611548565b815460405163a9059cbb60e01b60208083019182526001600160a01b0393841660248085019190915235604480850191909152835293909216929184916112936064826115dd565b519082855af1156112d35781513d6112ca5750803b155b6112b2575080f35b60249060405190635274afe760e01b82526004820152fd5b600114156112aa565b50604051903d90823e3d90fd5b50346101af57806003193601126101af576112f9611548565b60ff80600f541615610cd55760019081805b611342575b8360ff19600f5416600f557f52aa97daed5e7adcd2e1538f5a054de116b9ed2f299ee99fc0715359a3f6aee58180a180f35b6010548111611379578061136a91855260136020528260036040872001541661137057611642565b8261130b565b6110bf81611dea565b611310565b50346101af57806003193601126101af57601054600182815b8381111561148457506113c26113ac85611651565b946113ba60405196876115dd565b808652611651565b9360209384820195601f19013687378290845b81811115611416575050506040519380850191818652518092526040850195925b8281106114035785870386f35b83518752958101959281019284016113f6565b8085979495989698526013845260ff600360408920015416611448575b61143c90611642565b969496959392956113d5565b9184518110156114705761146881848661143c9460051b89010152611642565b929050611433565b634e487b7160e01b87526032600452602487fd5b80829493959252601360205260ff6003604086200154166114b3575b6114a990611642565b9391929093611397565b906114c06114a991611642565b9190506114a0565b600435906001600160a01b038216820361041157565b602435906001600160a01b038216820361041157565b3461041157600036600319011261041157602060405160008152f35b3461041157600036600319011261041157602060405160018152f35b3461041157600036600319011261041157602060405160028152f35b6000546001600160a01b0316330361155c57565b60405163118cdaa760e01b8152336004820152602490fd5b67ffffffffffffffff8111610a7c57604052565b60a0810190811067ffffffffffffffff821117610a7c57604052565b610140810190811067ffffffffffffffff821117610a7c57604052565b6060810190811067ffffffffffffffff821117610a7c57604052565b90601f8019910116810190811067ffffffffffffffff821117610a7c57604052565b8181029291811591840414171561161257565b634e487b7160e01b600052601160045260246000fd5b5190811515820361041157565b9190820180921161161257565b60001981146116125760010190565b67ffffffffffffffff8111610a7c5760051b60200190565b8181039291600013801582851316918412161761161257565b9190820391821161161257565b60209182825280518383015260018060a01b0380848301511660408401528060408301511660608401528060608301511660808401528060808301511660a084015260a08201511660c083015260c081015160e083015260e08101516101009081840152810151906101209182840152015191610140808301528251928361016084015260005b84811061173857505050610180916000838284010152601f8019910116010190565b81810183015184820161018001528201611716565b611758601054611642565b908160105560409081519360209485810190428252858582015284815261177e816115c1565b5190209360018060a01b038060045416816003541690670de0b6b3a76400006117a787876115ff565b048751936304167a6b60e31b8b860152600095866024870152866044870152866064870152606486526117d986611588565b89519a6117e58c6115a4565b8b528b8b01938452898b019485523060608c01523060808c01528660a08c015260c08b019588875260e08c01938452876101008d01526101208c01528b61184583601554168c51809e8193829163110ddbff60e21b83526004830161168f565b03915afa9a8b156119da57908c9594939291889c611998575b50928b9288928c6004856118cc8f998c60c49b86519661187d88611588565b8c885282880191825260138189019385855260608a01956001875260808b0198428a5252528b2096518755516001870155516002860155511515600385019060ff801983541691151516179055565b51910155601054858552601489528d85205580806016541693511696511697519051908c519889978896636c50dcc160e11b8852600488015230602488015260448701526064860152608485015260a48401525af1801561198e57908791611965575b505050907f6239ab9e61392c8ae40f6f0fb586f4ac54c41e09738751365887176c30bb08099291601054958351928352820152a3565b813d8311611987575b61197881836115dd565b810103126101af57858161192f565b503d61196e565b85513d84823e3d90fd5b809293949597989c508691963d83116119d3575b6119b681836115dd565b810103126119cf57519995948b9490939291908961185e565b8a80fd5b503d6119ac565b8a513d89823e3d90fd5b6119ef601054611642565b9081601055604090815193602094858101904282528585820152848152611a15816115c1565b5190209360018060a01b038060035416816004541690670de0b6b3a76400006117a787876115ff565b600a549060028214611de6576000908152602091601383526040908183206001810154916001839114611d9f575b5081611a7a575b5050505050565b600754611b906009541586611a90601054611642565b8060105587518a810190428252828a820152898152611aae816115c1565b519020928015611d8d576004546001600160a01b0316905b15611d79576003546001600160a01b03169189905b8c670de0b6b3a7640000611aef8c8b6115ff565b049683516304167a6b60e31b8382015287602482015287604482015287606482015260648152611b1e81611588565b845191611b2a836115a4565b82528282019560018060a01b03958680921688528301971687523060608301523060808301528760a083015260c08201978b895260e08301998a5261010083015261012082015283601554168d5180809b819463110ddbff60e21b83526004830161168f565b03915afa968715611d6f57918d959493918c8c8f95869b611d29575b5060c49695949392611c188a846004948f965196611bc988611588565b875282870190815281870191858352601360608901946001865260808a01974289528d52528a2096518755516001870155516002860155511515600385019060ff801983541691151516179055565b51910155601054898452601488528d842055808060165416925116935116945196518c519788968795636c50dcc160e11b87528b600488015230602488015260448701526064860152608485015260a48401525af18015611d1f57908891611cf6575b50509380939281927f1112ee369666deb054b7a2b6d507c60e60ff930b7a3e64945ed408cf735448c0967f6239ab9e61392c8ae40f6f0fb586f4ac54c41e09738751365887176c30bb08096010549586938151908982528d820152a35495828152601388522054958351928352820152a33880808080611a73565b813d8311611d18575b611d0981836115dd565b8101031261100a578638611c7b565b503d611cff565b86513d89823e3d90fd5b9497999a5050509250929481813d8311611d68575b611d4881836115dd565b81010312611d64575195948c94909390928c928c8c60c4611bac565b8b80fd5b503d611d3e565b8b513d8e823e3d90fd5b6004546001600160a01b0316918990611adb565b6003546001600160a01b031690611ac6565b60095480611dc45750611dbc919250611db6612059565b90611682565b905b38611a6c565b6001915003611dbe5790611de090611dda612059565b90611635565b90611dbe565b5050565b6000908082526013602052604090818320908251602081019142835284820152838152611e16816115c1565b51902060018060a01b03908160035416826004541660075490670de0b6b3a7640000611e466001880154846115ff565b0492875194611e54866115a4565b85526020850152868401523060608401523060808401528660a084015260c083015260e08201528461010082015283516020810181811067ffffffffffffffff821117611f69578552858152610120820152816015541690813b1561100a57611ed58692839287519485809481936316cd2b7b60e11b83526004830161168f565b03925af18015611f5f57611f4c575b506003820160ff198154169055601654169054813b15611f4857829160248594928593519586938492637489ec2360e01b845260048401525af1908115611f3f5750611f2e575050565b611f388291611574565b6101af5750565b513d84823e3d90fd5b8380fd5b611f5890949194611574565b9238611ee4565b84513d87823e3d90fd5b634e487b7160e01b87526041600452602487fd5b6017546003546040516302c68be360e31b81526001600160a01b0391821660048201529160809183916024918391165afa8091600091611fc9575b5090611fc5575060055490565b5190565b6080813d8211612051575b81611fe1608093836115dd565b8101031261204d5760405191608083019083821067ffffffffffffffff831117612039575061202e9160609160405280518452602081015160208501526040810151604085015201611628565b606082015238611fb8565b634e487b7160e01b81526041600452602490fd5b5080fd5b3d9150611fd4565b601754600354600654604051632ca81a5160e01b81526001600160a01b039283166004820152602481018290529092909160209183916044918391165afa600091816120ae575b506120a9575090565b905090565b90916020823d82116120d9575b816120c8602093836115dd565b810103126101af57505190386120a0565b3d91506120bb56fea2646970667358221220fd1735cb41e1d38621abccce9126b00fba5ab472ecce0c7a477ca22d98d906f164736f6c63430008140033","opcodes":"PUSH1 0x80 DUP1 PUSH1 0x40 MSTORE CALLVALUE PUSH2 0x7E JUMPI CALLER ISZERO PUSH2 0x68 JUMPI PUSH1 0x0 DUP1 SLOAD CALLER PUSH1 0x1 PUSH1 0x1 PUSH1 0xA0 SHL SUB NOT DUP3 AND DUP2 OR DUP4 SSTORE PUSH1 0x40 MLOAD SWAP3 SWAP1 SWAP2 PUSH1 0x1 PUSH1 0x1 PUSH1 0xA0 SHL SUB AND SWAP1 PUSH32 0x8BE0079C531659141344CD1FD0A4F28419497F9722A3DAAFE3B4186F6B6457E0 SWAP1 DUP1 LOG3 PUSH1 0x1 DUP1 SSTORE PUSH2 0x2117 SWAP1 DUP2 PUSH2 0x84 DUP3 CODECOPY RETURN JUMPDEST PUSH4 0x1E4FBDF7 PUSH1 0xE0 SHL DUP2 MSTORE PUSH1 0x0 PUSH1 0x4 DUP3 ADD MSTORE PUSH1 0x24 SWAP1 REVERT JUMPDEST PUSH1 0x0 DUP1 REVERT INVALID PUSH1 0xA0 PUSH1 0x40 MSTORE PUSH1 0x4 CALLDATASIZE LT ISZERO PUSH2 0x12 JUMPI PUSH1 0x0 DUP1 REVERT JUMPDEST PUSH1 0x0 DUP1 CALLDATALOAD PUSH1 0xE0 SHR DUP1 PUSH3 0x86E68B EQ PUSH2 0x137E JUMPI DUP1 PUSH4 0x28AFABF EQ PUSH2 0x12E0 JUMPI DUP1 PUSH4 0x6B091F9 EQ PUSH2 0x1229 JUMPI DUP1 PUSH4 0x18354044 EQ PUSH2 0x1016 JUMPI DUP1 PUSH4 0x20B3D358 EQ PUSH2 0xE0D JUMPI DUP1 PUSH4 0x2BF8FF4C EQ PUSH2 0x57A JUMPI DUP1 PUSH4 0x3BFE2483 EQ PUSH2 0xD7B JUMPI DUP1 PUSH4 0x3D9F3163 EQ PUSH2 0xD52 JUMPI DUP1 PUSH4 0x3F4BA83A EQ PUSH2 0xCE7 JUMPI DUP1 PUSH4 0x514FCAC7 EQ PUSH2 0xC5F JUMPI DUP1 PUSH4 0x51570FDD EQ PUSH2 0x23D JUMPI DUP1 PUSH4 0x55BB366E EQ PUSH2 0x717 JUMPI DUP1 PUSH4 0x5C975ABB EQ PUSH2 0x6F4 JUMPI DUP1 PUSH4 0x61555E2E EQ PUSH2 0x6D0 JUMPI DUP1 PUSH4 0x627CB7F8 EQ PUSH2 0x416 JUMPI DUP1 PUSH4 0x715018A6 EQ PUSH2 0x676 JUMPI DUP1 PUSH4 0x716DF225 EQ PUSH2 0x659 JUMPI DUP1 PUSH4 0x8456CB59 EQ PUSH2 0x5EB JUMPI DUP1 PUSH4 0x8DA5CB5B EQ PUSH2 0x5C4 JUMPI DUP1 PUSH4 0x93254B0E EQ PUSH2 0x5A8 JUMPI DUP1 PUSH4 0x9CCF88C7 EQ PUSH2 0x57F JUMPI DUP1 PUSH4 0x9F215FA5 EQ PUSH2 0x57A JUMPI DUP1 PUSH4 0xA832A065 EQ PUSH2 0x550 JUMPI DUP1 PUSH4 0xA85C38EF EQ PUSH2 0x4F4 JUMPI DUP1 PUSH4 0xA8C62E76 EQ PUSH2 0x41B JUMPI DUP1 PUSH4 0xAC0E764E EQ PUSH2 0x416 JUMPI DUP1 PUSH4 0xC0C53B8B EQ PUSH2 0x341 JUMPI DUP1 PUSH4 0xD09EF241 EQ PUSH2 0x264 JUMPI DUP1 PUSH4 0xD3F82D8E EQ PUSH2 0x242 JUMPI DUP1 PUSH4 0xE3D26090 EQ PUSH2 0x23D JUMPI DUP1 PUSH4 0xF160991B EQ PUSH2 0x23D JUMPI DUP1 PUSH4 0xF2FDE38B EQ PUSH2 0x1B2 JUMPI PUSH4 0xF9B6117F EQ PUSH2 0x187 JUMPI PUSH1 0x0 DUP1 REVERT JUMPDEST CALLVALUE PUSH2 0x1AF JUMPI DUP1 PUSH1 0x3 NOT CALLDATASIZE ADD SLT PUSH2 0x1AF JUMPI PUSH1 0x16 SLOAD PUSH1 0x40 MLOAD PUSH1 0x1 PUSH1 0x1 PUSH1 0xA0 SHL SUB SWAP1 SWAP2 AND DUP2 MSTORE PUSH1 0x20 SWAP1 RETURN JUMPDEST DUP1 REVERT JUMPDEST POP CALLVALUE PUSH2 0x1AF JUMPI PUSH1 0x20 CALLDATASIZE PUSH1 0x3 NOT ADD SLT PUSH2 0x1AF JUMPI PUSH2 0x1CC PUSH2 0x14C8 JUMP JUMPDEST PUSH2 0x1D4 PUSH2 0x1548 JUMP JUMPDEST PUSH1 0x1 PUSH1 0x1 PUSH1 0xA0 SHL SUB SWAP1 DUP2 AND SWAP1 DUP2 ISZERO PUSH2 0x224 JUMPI PUSH1 0x0 SLOAD DUP3 PUSH1 0x1 PUSH1 0x1 PUSH1 0x60 SHL SUB PUSH1 0xA0 SHL DUP3 AND OR PUSH1 0x0 SSTORE AND PUSH32 0x8BE0079C531659141344CD1FD0A4F28419497F9722A3DAAFE3B4186F6B6457E0 PUSH1 0x0 DUP1 LOG3 DUP1 RETURN JUMPDEST PUSH1 0x40 MLOAD PUSH4 0x1E4FBDF7 PUSH1 0xE0 SHL DUP2 MSTORE PUSH1 0x4 DUP2 ADD DUP5 SWAP1 MSTORE PUSH1 0x24 SWAP1 REVERT JUMPDEST PUSH2 0x1510 JUMP JUMPDEST POP CALLVALUE PUSH2 0x1AF JUMPI DUP1 PUSH1 0x3 NOT CALLDATASIZE ADD SLT PUSH2 0x1AF JUMPI PUSH1 0x20 PUSH1 0x40 MLOAD PUSH7 0x38D7EA4C68000 DUP2 MSTORE RETURN JUMPDEST POP CALLVALUE PUSH2 0x1AF JUMPI PUSH1 0x20 CALLDATASIZE PUSH1 0x3 NOT ADD SLT PUSH2 0x1AF JUMPI PUSH1 0x4 CALLDATALOAD DUP2 PUSH1 0x80 PUSH1 0x40 MLOAD PUSH2 0x288 DUP2 PUSH2 0x1588 JUMP JUMPDEST DUP3 DUP2 MSTORE DUP3 PUSH1 0x20 DUP3 ADD MSTORE DUP3 PUSH1 0x40 DUP3 ADD MSTORE DUP3 PUSH1 0x60 DUP3 ADD MSTORE ADD MSTORE DUP1 ISZERO DUP1 ISZERO PUSH2 0x336 JUMPI JUMPDEST PUSH2 0x324 JUMPI DUP2 PUSH1 0x40 SWAP2 PUSH1 0xA0 SWAP4 MSTORE PUSH1 0x13 PUSH1 0x20 MSTORE KECCAK256 PUSH1 0x40 MLOAD PUSH2 0x2C6 DUP2 PUSH2 0x1588 JUMP JUMPDEST DUP2 SLOAD SWAP2 DUP3 DUP3 MSTORE PUSH1 0x1 DUP2 ADD SLOAD PUSH1 0x20 DUP4 ADD SWAP1 DUP2 MSTORE PUSH1 0x2 DUP3 ADD SLOAD SWAP1 PUSH1 0x40 DUP5 ADD SWAP2 DUP3 MSTORE PUSH1 0x80 PUSH1 0x4 PUSH1 0xFF PUSH1 0x3 DUP7 ADD SLOAD AND SWAP5 PUSH1 0x60 DUP8 ADD SWAP6 ISZERO ISZERO DUP7 MSTORE ADD SLOAD SWAP5 ADD SWAP4 DUP5 MSTORE PUSH1 0x40 MLOAD SWAP5 DUP6 MSTORE MLOAD PUSH1 0x20 DUP6 ADD MSTORE MLOAD PUSH1 0x40 DUP5 ADD MSTORE MLOAD ISZERO ISZERO PUSH1 0x60 DUP4 ADD MSTORE MLOAD PUSH1 0x80 DUP3 ADD MSTORE RETURN JUMPDEST PUSH1 0x40 MLOAD PUSH4 0xD36D8965 PUSH1 0xE0 SHL DUP2 MSTORE PUSH1 0x4 SWAP1 REVERT JUMPDEST POP PUSH1 0x10 SLOAD DUP2 GT PUSH2 0x2A8 JUMP JUMPDEST POP CALLVALUE PUSH2 0x1AF JUMPI PUSH1 0x60 CALLDATASIZE PUSH1 0x3 NOT ADD SLT PUSH2 0x1AF JUMPI PUSH2 0x35B PUSH2 0x14C8 JUMP JUMPDEST PUSH2 0x363 PUSH2 0x14DE JUMP JUMPDEST PUSH1 0x44 CALLDATALOAD PUSH1 0x1 PUSH1 0x1 PUSH1 0xA0 SHL SUB DUP2 DUP2 AND SWAP4 SWAP1 SWAP3 SWAP2 DUP5 SWAP1 SUB PUSH2 0x411 JUMPI DUP3 AND SWAP1 DUP2 ISZERO PUSH2 0x3FF JUMPI DUP3 AND SWAP1 DUP2 ISZERO PUSH2 0x3FF JUMPI DUP4 ISZERO PUSH2 0x3FF JUMPI PUSH1 0x15 SLOAD SWAP3 DUP4 AND PUSH2 0x3C4 JUMPI PUSH1 0x1 PUSH1 0x1 PUSH1 0x60 SHL SUB PUSH1 0xA0 SHL DUP1 SWAP4 AND OR PUSH1 0x15 SSTORE DUP2 PUSH1 0x16 SLOAD AND OR PUSH1 0x16 SSTORE PUSH1 0x17 SLOAD AND OR PUSH1 0x17 SSTORE DUP1 RETURN JUMPDEST PUSH1 0x40 MLOAD PUSH3 0x461BCD PUSH1 0xE5 SHL DUP2 MSTORE PUSH1 0x20 PUSH1 0x4 DUP3 ADD MSTORE PUSH1 0x13 PUSH1 0x24 DUP3 ADD MSTORE PUSH19 0x105B1C9958591E481A5B9A5D1A585B1A5E9959 PUSH1 0x6A SHL PUSH1 0x44 DUP3 ADD MSTORE PUSH1 0x64 SWAP1 REVERT JUMPDEST PUSH1 0x40 MLOAD PUSH4 0xD92E233D PUSH1 0xE0 SHL DUP2 MSTORE PUSH1 0x4 SWAP1 REVERT JUMPDEST PUSH1 0x0 DUP1 REVERT JUMPDEST PUSH2 0x152C JUMP JUMPDEST POP CALLVALUE PUSH2 0x1AF JUMPI DUP1 PUSH1 0x3 NOT CALLDATASIZE ADD SLT PUSH2 0x1AF JUMPI PUSH1 0x1 DUP1 PUSH1 0xA0 SHL SUB DUP1 PUSH1 0x3 SLOAD AND SWAP1 PUSH1 0x4 SLOAD AND PUSH1 0x5 SLOAD PUSH1 0x6 SLOAD PUSH1 0x7 SLOAD PUSH1 0x8 SLOAD PUSH1 0x9 SLOAD PUSH1 0xA SLOAD PUSH1 0xB SLOAD SWAP1 PUSH1 0xC SLOAD SWAP3 PUSH1 0xD SLOAD SWAP5 PUSH1 0xE SLOAD SWAP7 PUSH1 0xFF PUSH1 0xF SLOAD AND SWAP9 PUSH1 0x10 SLOAD SWAP11 PUSH1 0x11 SLOAD SWAP13 PUSH1 0x12 SLOAD SWAP15 PUSH1 0x40 MLOAD DUP1 PUSH1 0x80 MSTORE MSTORE PUSH1 0x20 PUSH1 0x80 MLOAD ADD MSTORE PUSH1 0x40 PUSH1 0x80 MLOAD ADD MSTORE PUSH1 0x60 PUSH1 0x80 MLOAD ADD MSTORE PUSH1 0x80 DUP1 MLOAD ADD MSTORE PUSH1 0xA0 PUSH1 0x80 MLOAD ADD MSTORE PUSH1 0xC0 PUSH1 0x80 MLOAD ADD MSTORE PUSH1 0xE0 PUSH1 0x80 MLOAD ADD MSTORE PUSH2 0x100 PUSH1 0x80 MLOAD ADD MSTORE PUSH2 0x120 PUSH1 0x80 MLOAD ADD MSTORE PUSH2 0x140 PUSH1 0x80 MLOAD ADD MSTORE PUSH2 0x160 PUSH1 0x80 MLOAD ADD MSTORE ISZERO ISZERO PUSH2 0x180 PUSH1 0x80 MLOAD ADD MSTORE PUSH2 0x1A0 PUSH1 0x80 MLOAD ADD MSTORE PUSH2 0x1C0 PUSH1 0x80 MLOAD ADD MSTORE PUSH2 0x1E0 PUSH1 0x80 MLOAD ADD MSTORE PUSH2 0x200 PUSH1 0x80 MLOAD RETURN JUMPDEST POP CALLVALUE PUSH2 0x1AF JUMPI PUSH1 0x20 CALLDATASIZE PUSH1 0x3 NOT ADD SLT PUSH2 0x1AF JUMPI PUSH1 0x40 PUSH1 0xA0 SWAP2 PUSH1 0x4 CALLDATALOAD DUP2 MSTORE PUSH1 0x13 PUSH1 0x20 MSTORE KECCAK256 DUP1 SLOAD SWAP1 PUSH1 0x1 DUP2 ADD SLOAD SWAP1 PUSH1 0x2 DUP2 ADD SLOAD PUSH1 0x4 PUSH1 0xFF PUSH1 0x3 DUP5 ADD SLOAD AND SWAP3 ADD SLOAD SWAP3 PUSH1 0x40 MLOAD SWAP5 DUP6 MSTORE PUSH1 0x20 DUP6 ADD MSTORE PUSH1 0x40 DUP5 ADD MSTORE ISZERO ISZERO PUSH1 0x60 DUP4 ADD MSTORE PUSH1 0x80 DUP3 ADD MSTORE RETURN JUMPDEST POP CALLVALUE PUSH2 0x1AF JUMPI PUSH1 0x20 CALLDATASIZE PUSH1 0x3 NOT ADD SLT PUSH2 0x1AF JUMPI PUSH1 0x40 PUSH1 0x20 SWAP2 PUSH1 0x4 CALLDATALOAD DUP2 MSTORE PUSH1 0x14 DUP4 MSTORE KECCAK256 SLOAD PUSH1 0x40 MLOAD SWAP1 DUP2 MSTORE RETURN JUMPDEST PUSH2 0x14F4 JUMP JUMPDEST POP CALLVALUE PUSH2 0x1AF JUMPI DUP1 PUSH1 0x3 NOT CALLDATASIZE ADD SLT PUSH2 0x1AF JUMPI PUSH1 0x15 SLOAD PUSH1 0x40 MLOAD PUSH1 0x1 PUSH1 0x1 PUSH1 0xA0 SHL SUB SWAP1 SWAP2 AND DUP2 MSTORE PUSH1 0x20 SWAP1 RETURN JUMPDEST POP CALLVALUE PUSH2 0x1AF JUMPI DUP1 PUSH1 0x3 NOT CALLDATASIZE ADD SLT PUSH2 0x1AF JUMPI PUSH1 0x20 PUSH1 0x40 MLOAD PUSH1 0x32 DUP2 MSTORE RETURN JUMPDEST POP CALLVALUE PUSH2 0x1AF JUMPI DUP1 PUSH1 0x3 NOT CALLDATASIZE ADD SLT PUSH2 0x1AF JUMPI SLOAD PUSH1 0x40 MLOAD PUSH1 0x1 PUSH1 0x1 PUSH1 0xA0 SHL SUB SWAP1 SWAP2 AND DUP2 MSTORE PUSH1 0x20 SWAP1 RETURN JUMPDEST POP CALLVALUE PUSH2 0x1AF JUMPI DUP1 PUSH1 0x3 NOT CALLDATASIZE ADD SLT PUSH2 0x1AF JUMPI PUSH2 0x604 PUSH2 0x1548 JUMP JUMPDEST PUSH1 0x2 SLOAD PUSH1 0xFF DUP2 AND PUSH2 0x647 JUMPI PUSH1 0x1 SWAP1 PUSH1 0xFF NOT AND OR PUSH1 0x2 SSTORE PUSH32 0x62E78CEA01BEE320CD4E420270B5EA74000D11B0C9F74754EBDBFC544B05A258 PUSH1 0x20 PUSH1 0x40 MLOAD CALLER DUP2 MSTORE LOG1 DUP1 RETURN JUMPDEST PUSH1 0x40 MLOAD PUSH4 0xD93C0665 PUSH1 0xE0 SHL DUP2 MSTORE PUSH1 0x4 SWAP1 REVERT JUMPDEST POP CALLVALUE PUSH2 0x1AF JUMPI DUP1 PUSH1 0x3 NOT CALLDATASIZE ADD SLT PUSH2 0x1AF JUMPI PUSH1 0x20 PUSH1 0x40 MLOAD PUSH2 0x3E8 DUP2 MSTORE RETURN JUMPDEST POP CALLVALUE PUSH2 0x1AF JUMPI DUP1 PUSH1 0x3 NOT CALLDATASIZE ADD SLT PUSH2 0x1AF JUMPI PUSH2 0x68F PUSH2 0x1548 JUMP JUMPDEST PUSH1 0x0 DUP1 SLOAD PUSH1 0x1 PUSH1 0x1 PUSH1 0xA0 SHL SUB NOT DUP2 AND DUP3 SSTORE PUSH1 0x1 PUSH1 0x1 PUSH1 0xA0 SHL SUB AND PUSH32 0x8BE0079C531659141344CD1FD0A4F28419497F9722A3DAAFE3B4186F6B6457E0 DUP3 DUP1 LOG3 DUP1 RETURN JUMPDEST POP CALLVALUE PUSH2 0x1AF JUMPI DUP1 PUSH1 0x3 NOT CALLDATASIZE ADD SLT PUSH2 0x1AF JUMPI PUSH1 0x20 PUSH1 0x40 MLOAD PUSH9 0x3635C9ADC5DEA00000 DUP2 MSTORE RETURN JUMPDEST POP CALLVALUE PUSH2 0x1AF JUMPI DUP1 PUSH1 0x3 NOT CALLDATASIZE ADD SLT PUSH2 0x1AF JUMPI PUSH1 0x20 PUSH1 0xFF PUSH1 0x2 SLOAD AND PUSH1 0x40 MLOAD SWAP1 ISZERO ISZERO DUP2 MSTORE RETURN JUMPDEST POP CALLVALUE PUSH2 0x1AF JUMPI PUSH2 0x180 CALLDATASIZE PUSH1 0x3 NOT ADD SLT PUSH2 0x1AF JUMPI PUSH2 0x732 PUSH2 0x14C8 JUMP JUMPDEST PUSH2 0x73A PUSH2 0x14DE JUMP JUMPDEST PUSH2 0x742 PUSH2 0x1548 JUMP JUMPDEST PUSH1 0x1 PUSH1 0x1 PUSH1 0xA0 SHL SUB DUP3 AND ISZERO PUSH2 0x3FF JUMPI PUSH1 0x1 PUSH1 0x1 PUSH1 0xA0 SHL SUB DUP2 AND ISZERO PUSH2 0x3FF JUMPI PUSH1 0x44 CALLDATALOAD ISZERO PUSH2 0xC4E JUMPI PUSH1 0x1 PUSH1 0x64 CALLDATALOAD LT DUP1 ISZERO PUSH2 0xC41 JUMPI JUMPDEST PUSH2 0xC2F JUMPI PUSH7 0x38D7EA4C68000 PUSH1 0x84 CALLDATALOAD LT DUP1 ISZERO PUSH2 0xC1B JUMPI JUMPDEST PUSH2 0xC09 JUMPI PUSH1 0xF SLOAD PUSH1 0xFF DUP2 AND PUSH2 0xBF7 JUMPI PUSH1 0xA4 CALLDATALOAD ISZERO DUP1 ISZERO PUSH2 0xBEB JUMPI JUMPDEST PUSH2 0xBD9 JUMPI PUSH1 0x2 PUSH1 0xC4 CALLDATALOAD GT PUSH2 0xBD9 JUMPI PUSH1 0x2 PUSH1 0xE4 CALLDATALOAD GT PUSH2 0xBD9 JUMPI PUSH2 0x104 CALLDATALOAD ISZERO PUSH2 0xBC7 JUMPI TIMESTAMP PUSH2 0x164 CALLDATALOAD GT ISZERO PUSH2 0xBB6 JUMPI PUSH2 0x124 CALLDATALOAD ISZERO ISZERO DUP1 PUSH2 0xBA7 JUMPI JUMPDEST PUSH2 0xB95 JUMPI PUSH2 0x144 CALLDATALOAD ISZERO ISZERO DUP1 PUSH2 0xB86 JUMPI JUMPDEST PUSH2 0xB74 JUMPI PUSH1 0x40 MLOAD PUSH4 0x70A08231 PUSH1 0xE0 SHL DUP2 MSTORE ADDRESS PUSH1 0x4 DUP3 ADD MSTORE PUSH1 0x20 DUP2 PUSH1 0x24 DUP2 PUSH1 0x1 PUSH1 0x1 PUSH1 0xA0 SHL SUB DUP9 AND GAS STATICCALL SWAP1 DUP2 ISZERO PUSH2 0xB69 JUMPI DUP6 SWAP2 PUSH2 0xB37 JUMPI JUMPDEST POP PUSH1 0x40 MLOAD PUSH4 0x70A08231 PUSH1 0xE0 SHL DUP2 MSTORE ADDRESS PUSH1 0x4 DUP3 ADD MSTORE SWAP1 PUSH1 0x20 DUP3 PUSH1 0x24 DUP2 PUSH1 0x1 PUSH1 0x1 PUSH1 0xA0 SHL SUB DUP9 AND GAS STATICCALL SWAP2 DUP3 ISZERO PUSH2 0xB2C JUMPI DUP7 SWAP3 PUSH2 0xAF8 JUMPI JUMPDEST POP PUSH1 0xC4 CALLDATALOAD PUSH2 0xAA4 JUMPI POP PUSH2 0x104 CALLDATALOAD GT PUSH2 0xA92 JUMPI JUMPDEST PUSH1 0x40 MLOAD SWAP1 DUP2 PUSH2 0x200 DUP2 ADD LT PUSH8 0xFFFFFFFFFFFFFFFF PUSH2 0x200 DUP5 ADD GT OR PUSH2 0xA7C JUMPI DUP5 PUSH2 0x1E0 DUP4 PUSH2 0x200 PUSH1 0x1 SWAP6 ADD PUSH1 0x40 MSTORE DUP5 DUP1 PUSH1 0xA0 SHL SUB DUP8 AND DUP2 MSTORE DUP5 DUP1 PUSH1 0xA0 SHL SUB DUP7 AND PUSH1 0x20 DUP3 ADD MSTORE PUSH1 0x44 CALLDATALOAD PUSH1 0x40 DUP3 ADD MSTORE PUSH1 0x64 CALLDATALOAD PUSH1 0x60 DUP3 ADD MSTORE PUSH1 0x84 CALLDATALOAD PUSH1 0x80 DUP3 ADD MSTORE PUSH1 0xA4 CALLDATALOAD PUSH1 0xA0 DUP3 ADD MSTORE PUSH1 0xC4 CALLDATALOAD PUSH1 0xC0 DUP3 ADD MSTORE PUSH1 0xE4 CALLDATALOAD PUSH1 0xE0 DUP3 ADD MSTORE PUSH2 0x104 CALLDATALOAD PUSH2 0x100 DUP3 ADD MSTORE PUSH2 0x124 CALLDATALOAD PUSH2 0x120 DUP3 ADD MSTORE PUSH2 0x144 CALLDATALOAD PUSH2 0x140 DUP3 ADD MSTORE PUSH2 0x164 CALLDATALOAD PUSH2 0x160 DUP3 ADD MSTORE DUP5 PUSH2 0x180 DUP3 ADD MSTORE DUP3 PUSH2 0x1A0 DUP3 ADD MSTORE DUP3 PUSH2 0x1C0 DUP3 ADD MSTORE ADD MSTORE PUSH1 0x1 PUSH1 0x1 PUSH1 0x60 SHL SUB PUSH1 0xA0 SHL DUP3 DUP1 PUSH1 0xA0 SHL SUB DUP6 AND DUP2 PUSH1 0x3 SLOAD AND OR PUSH1 0x3 SSTORE DUP3 DUP1 PUSH1 0xA0 SHL SUB DUP5 AND SWAP1 PUSH1 0x4 SLOAD AND OR PUSH1 0x4 SSTORE PUSH1 0x44 CALLDATALOAD PUSH1 0x5 SSTORE PUSH1 0x64 CALLDATALOAD PUSH1 0x6 SSTORE PUSH1 0x84 CALLDATALOAD PUSH1 0x7 SSTORE PUSH1 0xA4 CALLDATALOAD PUSH1 0x8 SSTORE PUSH1 0xC4 CALLDATALOAD PUSH1 0x9 SSTORE PUSH1 0xE4 CALLDATALOAD PUSH1 0xA SSTORE PUSH2 0x104 CALLDATALOAD PUSH1 0xB SSTORE PUSH2 0x124 CALLDATALOAD PUSH1 0xC SSTORE PUSH2 0x144 CALLDATALOAD PUSH1 0xD SSTORE PUSH2 0x164 CALLDATALOAD PUSH1 0xE SSTORE PUSH1 0xFF NOT AND OR PUSH1 0xF SSTORE DUP3 PUSH1 0x10 SSTORE DUP3 PUSH1 0x11 SSTORE DUP3 PUSH1 0x12 SSTORE DUP3 PUSH1 0x1 DUP1 PUSH1 0xA0 SHL SUB PUSH1 0x16 SLOAD AND PUSH1 0x1 DUP1 PUSH1 0xA0 SHL SUB DUP3 SLOAD AND DUP2 EXTCODESIZE ISZERO PUSH2 0xA6D JUMPI DUP3 SWAP2 PUSH1 0x64 DUP4 SWAP3 PUSH1 0x40 MLOAD SWAP5 DUP6 SWAP4 DUP5 SWAP3 PUSH4 0x4BE8F2DD PUSH1 0xE0 SHL DUP5 MSTORE ADDRESS PUSH1 0x4 DUP6 ADD MSTORE PUSH1 0x24 DUP5 ADD MSTORE PUSH1 0xC4 CALLDATALOAD PUSH1 0x44 DUP5 ADD MSTORE GAS CALL DUP1 ISZERO PUSH2 0xA71 JUMPI PUSH2 0xA59 JUMPI JUMPDEST POP POP PUSH32 0xF7199C0CA31732B7BBCCCF1C8A1DB62EA93B2621A474CBCE899B5A3A69D828F4 PUSH1 0xA0 PUSH1 0x40 MLOAD SWAP3 PUSH1 0x44 CALLDATALOAD DUP5 MSTORE PUSH1 0x64 CALLDATALOAD PUSH1 0x20 DUP6 ADD MSTORE PUSH1 0x84 CALLDATALOAD PUSH1 0x40 DUP6 ADD MSTORE PUSH1 0xA4 CALLDATALOAD PUSH1 0x60 DUP6 ADD MSTORE PUSH1 0xC4 CALLDATALOAD PUSH1 0x80 DUP6 ADD MSTORE PUSH1 0x1 DUP1 DUP4 SHL SUB AND SWAP4 PUSH1 0x1 DUP1 DUP4 SHL SUB AND SWAP3 LOG3 DUP1 RETURN JUMPDEST PUSH2 0xA62 SWAP1 PUSH2 0x1574 JUMP JUMPDEST PUSH2 0xA6D JUMPI DUP3 CODESIZE PUSH2 0x9F7 JUMP JUMPDEST DUP3 DUP1 REVERT JUMPDEST PUSH1 0x40 MLOAD RETURNDATASIZE DUP5 DUP3 RETURNDATACOPY RETURNDATASIZE SWAP1 REVERT JUMPDEST PUSH4 0x4E487B71 PUSH1 0xE0 SHL PUSH1 0x0 MSTORE PUSH1 0x41 PUSH1 0x4 MSTORE PUSH1 0x24 PUSH1 0x0 REVERT JUMPDEST PUSH1 0x40 MLOAD PUSH4 0x1E9ACF17 PUSH1 0xE3 SHL DUP2 MSTORE PUSH1 0x4 SWAP1 REVERT JUMPDEST SWAP1 PUSH1 0xC4 CALLDATALOAD PUSH1 0x1 SUB PUSH2 0xAD6 JUMPI POP PUSH2 0xABE PUSH1 0xA4 CALLDATALOAD PUSH1 0x84 CALLDATALOAD PUSH2 0x15FF JUMP JUMPDEST GT ISZERO PUSH2 0x86D JUMPI PUSH1 0x40 MLOAD PUSH4 0x1E9ACF17 PUSH1 0xE3 SHL DUP2 MSTORE PUSH1 0x4 SWAP1 REVERT JUMPDEST SWAP1 POP PUSH1 0x2 PUSH1 0xC4 CALLDATALOAD EQ PUSH2 0xAE9 JUMPI JUMPDEST POP PUSH2 0x86D JUMP JUMPDEST PUSH2 0x104 CALLDATALOAD GT PUSH2 0xA92 JUMPI CODESIZE PUSH2 0xAE3 JUMP JUMPDEST SWAP1 SWAP2 POP PUSH1 0x20 DUP2 RETURNDATASIZE PUSH1 0x20 GT PUSH2 0xB24 JUMPI JUMPDEST DUP2 PUSH2 0xB14 PUSH1 0x20 SWAP4 DUP4 PUSH2 0x15DD JUMP JUMPDEST DUP2 ADD SUB SLT PUSH2 0x411 JUMPI MLOAD SWAP1 CODESIZE PUSH2 0x85A JUMP JUMPDEST RETURNDATASIZE SWAP2 POP PUSH2 0xB07 JUMP JUMPDEST PUSH1 0x40 MLOAD RETURNDATASIZE DUP9 DUP3 RETURNDATACOPY RETURNDATASIZE SWAP1 REVERT JUMPDEST SWAP1 POP PUSH1 0x20 DUP2 RETURNDATASIZE PUSH1 0x20 GT PUSH2 0xB61 JUMPI JUMPDEST DUP2 PUSH2 0xB52 PUSH1 0x20 SWAP4 DUP4 PUSH2 0x15DD JUMP JUMPDEST DUP2 ADD SUB SLT PUSH2 0x411 JUMPI MLOAD CODESIZE PUSH2 0x825 JUMP JUMPDEST RETURNDATASIZE SWAP2 POP PUSH2 0xB45 JUMP JUMPDEST PUSH1 0x40 MLOAD RETURNDATASIZE DUP8 DUP3 RETURNDATACOPY RETURNDATASIZE SWAP1 REVERT JUMPDEST PUSH1 0x40 MLOAD PUSH4 0x113F4953 PUSH1 0xE2 SHL DUP2 MSTORE PUSH1 0x4 SWAP1 REVERT JUMPDEST POP PUSH1 0x44 CALLDATALOAD PUSH2 0x144 CALLDATALOAD GT ISZERO PUSH2 0x7EE JUMP JUMPDEST PUSH1 0x40 MLOAD PUSH4 0x7CB1AA01 PUSH1 0xE0 SHL DUP2 MSTORE PUSH1 0x4 SWAP1 REVERT JUMPDEST POP PUSH1 0x44 CALLDATALOAD PUSH2 0x124 CALLDATALOAD LT ISZERO PUSH2 0x7DE JUMP JUMPDEST PUSH1 0x40 MLOAD PUSH3 0xD36C85 PUSH1 0xE8 SHL DUP2 MSTORE PUSH1 0x4 SWAP1 REVERT JUMPDEST PUSH1 0x40 MLOAD PUSH4 0x757BFC9 PUSH1 0xE2 SHL DUP2 MSTORE PUSH1 0x4 SWAP1 REVERT JUMPDEST PUSH1 0x40 MLOAD PUSH4 0x2711B74D PUSH1 0xE1 SHL DUP2 MSTORE PUSH1 0x4 SWAP1 REVERT JUMPDEST POP PUSH1 0x32 PUSH1 0xA4 CALLDATALOAD GT PUSH2 0x7A6 JUMP JUMPDEST PUSH1 0x40 MLOAD PUSH4 0xC976754D PUSH1 0xE0 SHL DUP2 MSTORE PUSH1 0x4 SWAP1 REVERT JUMPDEST PUSH1 0x40 MLOAD PUSH4 0xBC29067 PUSH1 0xE0 SHL DUP2 MSTORE PUSH1 0x4 SWAP1 REVERT JUMPDEST POP PUSH9 0x3635C9ADC5DEA00000 PUSH1 0x84 CALLDATALOAD GT PUSH2 0x78C JUMP JUMPDEST PUSH1 0x40 MLOAD PUSH4 0x6682A97B PUSH1 0xE1 SHL DUP2 MSTORE PUSH1 0x4 SWAP1 REVERT JUMPDEST POP PUSH2 0x3E8 PUSH1 0x64 CALLDATALOAD GT PUSH2 0x775 JUMP JUMPDEST PUSH1 0x40 MLOAD PUSH3 0xBFC921 PUSH1 0xE0 SHL DUP2 MSTORE PUSH1 0x4 SWAP1 REVERT JUMPDEST POP CALLVALUE PUSH2 0x1AF JUMPI PUSH1 0x20 CALLDATASIZE PUSH1 0x3 NOT ADD SLT PUSH2 0x1AF JUMPI PUSH1 0x4 CALLDATALOAD PUSH2 0xC7C PUSH2 0x1548 JUMP JUMPDEST PUSH1 0xFF PUSH1 0xF SLOAD AND ISZERO PUSH2 0xCD5 JUMPI DUP1 ISZERO DUP1 ISZERO PUSH2 0xCCA JUMPI JUMPDEST PUSH2 0x324 JUMPI DUP1 DUP3 MSTORE PUSH1 0x13 PUSH1 0x20 MSTORE PUSH1 0xFF PUSH1 0x3 PUSH1 0x40 DUP5 KECCAK256 ADD SLOAD AND ISZERO PUSH2 0xCB8 JUMPI PUSH2 0xCB5 SWAP1 PUSH2 0x1DEA JUMP JUMPDEST DUP1 RETURN JUMPDEST PUSH1 0x40 MLOAD PUSH4 0xA911F09 PUSH1 0xE0 SHL DUP2 MSTORE PUSH1 0x4 SWAP1 REVERT JUMPDEST POP PUSH1 0x10 SLOAD DUP2 GT PUSH2 0xC90 JUMP JUMPDEST PUSH1 0x40 MLOAD PUSH4 0x1B92E953 PUSH1 0xE3 SHL DUP2 MSTORE PUSH1 0x4 SWAP1 REVERT JUMPDEST POP CALLVALUE PUSH2 0x1AF JUMPI DUP1 PUSH1 0x3 NOT CALLDATASIZE ADD SLT PUSH2 0x1AF JUMPI PUSH2 0xD00 PUSH2 0x1548 JUMP JUMPDEST PUSH1 0x2 SLOAD PUSH1 0xFF DUP2 AND ISZERO PUSH2 0xD40 JUMPI PUSH1 0xFF NOT AND PUSH1 0x2 SSTORE PUSH32 0x5DB9EE0A495BF2E6FF9C91A7834C1BA4FDD244A5E8AA4E537BD38AEAE4B073AA PUSH1 0x20 PUSH1 0x40 MLOAD CALLER DUP2 MSTORE LOG1 DUP1 RETURN JUMPDEST PUSH1 0x40 MLOAD PUSH4 0x8DFC202B PUSH1 0xE0 SHL DUP2 MSTORE PUSH1 0x4 SWAP1 REVERT JUMPDEST POP CALLVALUE PUSH2 0x1AF JUMPI DUP1 PUSH1 0x3 NOT CALLDATASIZE ADD SLT PUSH2 0x1AF JUMPI PUSH1 0x17 SLOAD PUSH1 0x40 MLOAD PUSH1 0x1 PUSH1 0x1 PUSH1 0xA0 SHL SUB SWAP1 SWAP2 AND DUP2 MSTORE PUSH1 0x20 SWAP1 RETURN JUMPDEST POP CALLVALUE PUSH2 0x1AF JUMPI DUP1 PUSH1 0x3 NOT CALLDATASIZE ADD SLT PUSH2 0x1AF JUMPI PUSH1 0x11 SLOAD PUSH1 0x12 SLOAD PUSH1 0x9 SLOAD PUSH1 0x60 SWAP4 SWAP2 SWAP1 DUP1 PUSH2 0xDDA JUMPI POP SWAP1 POP PUSH2 0xDC6 DUP2 PUSH8 0xDE0B6B3A7640000 PUSH2 0xDC0 PUSH2 0xDBA PUSH2 0x1F7D JUMP JUMPDEST DUP7 PUSH2 0x15FF JUMP JUMPDEST DIV PUSH2 0x1669 JUMP JUMPDEST SWAP1 JUMPDEST PUSH1 0x40 MLOAD SWAP3 DUP4 MSTORE PUSH1 0x20 DUP4 ADD MSTORE PUSH1 0x40 DUP3 ADD MSTORE RETURN JUMPDEST PUSH1 0x1 SUB PUSH2 0xDC8 JUMPI SWAP1 POP PUSH2 0xE07 PUSH8 0xDE0B6B3A7640000 PUSH2 0xE00 PUSH2 0xDFA PUSH2 0x1F7D JUMP JUMPDEST DUP6 PUSH2 0x15FF JUMP JUMPDEST DIV DUP3 PUSH2 0x1669 JUMP JUMPDEST SWAP1 PUSH2 0xDC8 JUMP JUMPDEST POP CALLVALUE PUSH2 0x1AF JUMPI PUSH1 0x60 CALLDATASIZE PUSH1 0x3 NOT ADD SLT PUSH2 0x1AF JUMPI DUP1 SLOAD PUSH1 0x1 PUSH1 0x1 PUSH1 0xA0 SHL SUB SWAP1 PUSH1 0x44 CALLDATALOAD SWAP1 PUSH1 0x4 CALLDATALOAD SWAP1 PUSH1 0x24 CALLDATALOAD SWAP1 DUP5 AND CALLER EQ ISZERO DUP1 PUSH2 0xFA1 JUMPI JUMPDEST PUSH2 0xF8F JUMPI DUP2 DUP6 MSTORE PUSH1 0x14 PUSH1 0x20 MSTORE PUSH1 0x40 DUP6 KECCAK256 SLOAD SWAP4 DUP5 ISZERO PUSH2 0x324 JUMPI DUP5 DUP7 MSTORE PUSH1 0x13 PUSH1 0x20 MSTORE PUSH1 0x40 DUP7 KECCAK256 PUSH1 0x3 DUP2 ADD SWAP5 PUSH1 0xFF DUP7 SLOAD AND ISZERO PUSH2 0xCB8 JUMPI PUSH1 0x1 DUP9 SWAP3 PUSH2 0xE90 DUP4 ISZERO SWAP9 DUP10 ISZERO PUSH1 0xFF DUP1 NOT DUP4 SLOAD AND SWAP2 ISZERO ISZERO AND OR SWAP1 SSTORE JUMP JUMPDEST PUSH2 0xE9C DUP7 PUSH1 0x11 SLOAD PUSH2 0x1635 JUMP JUMPDEST PUSH1 0x11 SSTORE ADD SWAP3 PUSH2 0xEC1 PUSH8 0xDE0B6B3A7640000 PUSH2 0xEB8 DUP7 SLOAD DUP9 PUSH2 0x15FF JUMP JUMPDEST DIV PUSH1 0x12 SLOAD PUSH2 0x1635 JUMP JUMPDEST PUSH1 0x12 SSTORE PUSH1 0x16 SLOAD AND DUP1 EXTCODESIZE ISZERO PUSH2 0xA6D JUMPI PUSH1 0x64 DUP4 SWAP3 PUSH1 0x40 MLOAD SWAP5 DUP6 SWAP4 DUP5 SWAP3 PUSH4 0x89389F31 PUSH1 0xE0 SHL DUP5 MSTORE DUP11 PUSH1 0x4 DUP6 ADD MSTORE DUP10 PUSH1 0x24 DUP6 ADD MSTORE PUSH1 0x44 DUP5 ADD MSTORE GAS CALL DUP1 ISZERO PUSH2 0xF84 JUMPI PUSH2 0xF48 JUMPI JUMPDEST POP PUSH1 0x40 DUP6 SWAP4 SWAP3 PUSH32 0xE678418BE901AC9A27919225BD4D60E450082EF609D1C5E6790E2A201B0E0430 SWAP3 SLOAD DUP3 MLOAD SWAP2 DUP3 MSTORE PUSH1 0x20 DUP3 ADD MSTORE LOG3 PUSH2 0xF3F JUMPI POP DUP1 RETURN JUMPDEST PUSH2 0xCB5 SWAP1 PUSH2 0x1A3E JUMP JUMPDEST DUP6 SWAP4 SWAP3 PUSH32 0xE678418BE901AC9A27919225BD4D60E450082EF609D1C5E6790E2A201B0E0430 SWAP3 SWAP8 PUSH2 0xF79 PUSH1 0x40 SWAP4 PUSH2 0x1574 JUMP JUMPDEST SWAP8 SWAP3 POP SWAP3 SWAP4 POP PUSH2 0xF03 JUMP JUMPDEST PUSH1 0x40 MLOAD RETURNDATASIZE DUP10 DUP3 RETURNDATACOPY RETURNDATASIZE SWAP1 REVERT JUMPDEST PUSH1 0x40 MLOAD PUSH4 0x5C427CD9 PUSH1 0xE0 SHL DUP2 MSTORE PUSH1 0x4 SWAP1 REVERT JUMPDEST POP PUSH1 0x24 PUSH1 0x20 DUP6 PUSH1 0x16 SLOAD AND PUSH1 0x40 MLOAD SWAP3 DUP4 DUP1 SWAP3 PUSH4 0x3220C859 PUSH1 0xE1 SHL DUP3 MSTORE ADDRESS PUSH1 0x4 DUP4 ADD MSTORE GAS STATICCALL SWAP1 DUP2 ISZERO PUSH2 0xB2C JUMPI DUP7 SWAP2 PUSH2 0xFD9 JUMPI JUMPDEST POP ISZERO PUSH2 0xE41 JUMP JUMPDEST SWAP1 POP PUSH1 0x20 DUP2 RETURNDATASIZE DUP3 GT PUSH2 0x100E JUMPI JUMPDEST DUP2 PUSH2 0xFF3 PUSH1 0x20 SWAP4 DUP4 PUSH2 0x15DD JUMP JUMPDEST DUP2 ADD SUB SLT PUSH2 0x100A JUMPI PUSH2 0x1004 SWAP1 PUSH2 0x1628 JUMP JUMPDEST CODESIZE PUSH2 0xFD2 JUMP JUMPDEST DUP6 DUP1 REVERT JUMPDEST RETURNDATASIZE SWAP2 POP PUSH2 0xFE6 JUMP JUMPDEST POP CALLVALUE PUSH2 0x1AF JUMPI DUP1 PUSH1 0x3 NOT CALLDATASIZE ADD SLT PUSH2 0x1AF JUMPI PUSH2 0x102F PUSH2 0x1548 JUMP JUMPDEST PUSH1 0xFF PUSH1 0xF SLOAD AND ISZERO PUSH2 0xCD5 JUMPI PUSH2 0x1042 PUSH2 0x1F7D JUMP JUMPDEST PUSH1 0xC SLOAD DUP1 ISZERO ISZERO SWAP1 DUP2 PUSH2 0x121E JUMPI JUMPDEST POP PUSH2 0x120C JUMPI PUSH1 0xD SLOAD DUP1 ISZERO ISZERO SWAP2 DUP3 PUSH2 0x1201 JUMPI JUMPDEST POP POP PUSH2 0x11EF JUMPI PUSH1 0xE SLOAD TIMESTAMP GT PUSH2 0x11DD JUMPI PUSH1 0x9 SLOAD DUP1 PUSH2 0x10D6 JUMPI POP PUSH2 0x1081 PUSH2 0x1F7D JUMP JUMPDEST PUSH2 0x1089 PUSH2 0x2059 JUMP JUMPDEST DUP3 JUMPDEST PUSH1 0x8 SLOAD DUP2 LT ISZERO PUSH2 0x10D0 JUMPI PUSH2 0x10A8 PUSH2 0x10A2 DUP4 DUP4 PUSH2 0x15FF JUMP JUMPDEST DUP5 PUSH2 0x1682 JUMP JUMPDEST SWAP1 DUP2 ISZERO PUSH2 0x10C9 JUMPI PUSH2 0x10BF PUSH2 0x10C4 SWAP3 PUSH1 0x7 SLOAD SWAP1 PUSH2 0x174D JUMP JUMPDEST PUSH2 0x1642 JUMP JUMPDEST PUSH2 0x108B JUMP JUMPDEST POP POP POP POP DUP1 RETURN JUMPDEST POP POP POP DUP1 RETURN JUMPDEST PUSH1 0x1 SWAP1 DUP1 DUP3 SUB PUSH2 0x1138 JUMPI POP PUSH2 0x10E9 PUSH2 0x1F7D JUMP JUMPDEST SWAP1 PUSH2 0x10F2 PUSH2 0x2059 JUMP JUMPDEST DUP4 DUP3 JUMPDEST PUSH2 0x1100 JUMPI POP POP POP POP DUP1 RETURN JUMPDEST PUSH1 0x8 SLOAD DUP2 LT ISZERO PUSH2 0x1133 JUMPI DUP1 PUSH2 0x10BF PUSH2 0x1124 PUSH2 0x111E DUP6 PUSH2 0x112D SWAP6 PUSH2 0x15FF JUMP JUMPDEST DUP8 PUSH2 0x1635 JUMP JUMPDEST PUSH1 0x7 SLOAD SWAP1 PUSH2 0x19E4 JUMP JUMPDEST DUP3 PUSH2 0x10F5 JUMP JUMPDEST PUSH2 0x10C9 JUMP JUMPDEST PUSH1 0x2 EQ PUSH2 0x1143 JUMPI POP DUP1 RETURN JUMPDEST PUSH2 0x114B PUSH2 0x1F7D JUMP JUMPDEST SWAP1 PUSH2 0x1154 PUSH2 0x2059 JUMP JUMPDEST DUP2 DUP1 DUP1 JUMPDEST PUSH2 0x1197 JUMPI JUMPDEST POP DUP1 JUMPDEST PUSH2 0x116B JUMPI POP POP POP POP DUP1 RETURN JUMPDEST PUSH1 0x8 SLOAD DUP4 SHR DUP2 GT PUSH2 0x1133 JUMPI PUSH2 0x1191 DUP2 PUSH2 0x10BF PUSH2 0x1124 PUSH2 0x118B DUP7 DUP9 SWAP7 PUSH2 0x15FF JUMP JUMPDEST DUP9 PUSH2 0x1635 JUMP JUMPDEST SWAP1 PUSH2 0x1160 JUMP JUMPDEST PUSH1 0x8 SLOAD DUP3 SHR DUP2 GT PUSH2 0x11D8 JUMPI PUSH2 0x11B5 PUSH2 0x11AF DUP5 DUP4 PUSH2 0x15FF JUMP JUMPDEST DUP7 PUSH2 0x1682 JUMP JUMPDEST SWAP1 DUP2 ISZERO PUSH2 0x11D2 JUMPI PUSH2 0x10BF PUSH2 0x11CC SWAP3 PUSH1 0x7 SLOAD SWAP1 PUSH2 0x174D JUMP JUMPDEST DUP2 PUSH2 0x1158 JUMP JUMPDEST POP PUSH2 0x115D JUMP JUMPDEST PUSH2 0x115D JUMP JUMPDEST PUSH1 0x40 MLOAD PUSH4 0x10BFB6D PUSH1 0xE6 SHL DUP2 MSTORE PUSH1 0x4 SWAP1 REVERT JUMPDEST PUSH1 0x40 MLOAD PUSH4 0xE25C9BF PUSH1 0xE2 SHL DUP2 MSTORE PUSH1 0x4 SWAP1 REVERT JUMPDEST LT ISZERO SWAP1 POP CODESIZE DUP1 PUSH2 0x1061 JUMP JUMPDEST PUSH1 0x40 MLOAD PUSH4 0x7F39D2B7 PUSH1 0xE0 SHL DUP2 MSTORE PUSH1 0x4 SWAP1 REVERT JUMPDEST SWAP1 POP DUP2 GT ISZERO CODESIZE PUSH2 0x104F JUMP JUMPDEST POP CALLVALUE PUSH2 0x1AF JUMPI PUSH1 0x40 CALLDATASIZE PUSH1 0x3 NOT ADD SLT PUSH2 0x1AF JUMPI PUSH2 0x1243 PUSH2 0x14C8 JUMP JUMPDEST PUSH2 0x124B PUSH2 0x1548 JUMP JUMPDEST DUP2 SLOAD PUSH1 0x40 MLOAD PUSH4 0xA9059CBB PUSH1 0xE0 SHL PUSH1 0x20 DUP1 DUP4 ADD SWAP2 DUP3 MSTORE PUSH1 0x1 PUSH1 0x1 PUSH1 0xA0 SHL SUB SWAP4 DUP5 AND PUSH1 0x24 DUP1 DUP6 ADD SWAP2 SWAP1 SWAP2 MSTORE CALLDATALOAD PUSH1 0x44 DUP1 DUP6 ADD SWAP2 SWAP1 SWAP2 MSTORE DUP4 MSTORE SWAP4 SWAP1 SWAP3 AND SWAP3 SWAP2 DUP5 SWAP2 PUSH2 0x1293 PUSH1 0x64 DUP3 PUSH2 0x15DD JUMP JUMPDEST MLOAD SWAP1 DUP3 DUP6 GAS CALL ISZERO PUSH2 0x12D3 JUMPI DUP2 MLOAD RETURNDATASIZE PUSH2 0x12CA JUMPI POP DUP1 EXTCODESIZE ISZERO JUMPDEST PUSH2 0x12B2 JUMPI POP DUP1 RETURN JUMPDEST PUSH1 0x24 SWAP1 PUSH1 0x40 MLOAD SWAP1 PUSH4 0x5274AFE7 PUSH1 0xE0 SHL DUP3 MSTORE PUSH1 0x4 DUP3 ADD MSTORE REVERT JUMPDEST PUSH1 0x1 EQ ISZERO PUSH2 0x12AA JUMP JUMPDEST POP PUSH1 0x40 MLOAD SWAP1 RETURNDATASIZE SWAP1 DUP3 RETURNDATACOPY RETURNDATASIZE SWAP1 REVERT JUMPDEST POP CALLVALUE PUSH2 0x1AF JUMPI DUP1 PUSH1 0x3 NOT CALLDATASIZE ADD SLT PUSH2 0x1AF JUMPI PUSH2 0x12F9 PUSH2 0x1548 JUMP JUMPDEST PUSH1 0xFF DUP1 PUSH1 0xF SLOAD AND ISZERO PUSH2 0xCD5 JUMPI PUSH1 0x1 SWAP1 DUP2 DUP1 JUMPDEST PUSH2 0x1342 JUMPI JUMPDEST DUP4 PUSH1 0xFF NOT PUSH1 0xF SLOAD AND PUSH1 0xF SSTORE PUSH32 0x52AA97DAED5E7ADCD2E1538F5A054DE116B9ED2F299EE99FC0715359A3F6AEE5 DUP2 DUP1 LOG1 DUP1 RETURN JUMPDEST PUSH1 0x10 SLOAD DUP2 GT PUSH2 0x1379 JUMPI DUP1 PUSH2 0x136A SWAP2 DUP6 MSTORE PUSH1 0x13 PUSH1 0x20 MSTORE DUP3 PUSH1 0x3 PUSH1 0x40 DUP8 KECCAK256 ADD SLOAD AND PUSH2 0x1370 JUMPI PUSH2 0x1642 JUMP JUMPDEST DUP3 PUSH2 0x130B JUMP JUMPDEST PUSH2 0x10BF DUP2 PUSH2 0x1DEA JUMP JUMPDEST PUSH2 0x1310 JUMP JUMPDEST POP CALLVALUE PUSH2 0x1AF JUMPI DUP1 PUSH1 0x3 NOT CALLDATASIZE ADD SLT PUSH2 0x1AF JUMPI PUSH1 0x10 SLOAD PUSH1 0x1 DUP3 DUP2 JUMPDEST DUP4 DUP2 GT ISZERO PUSH2 0x1484 JUMPI POP PUSH2 0x13C2 PUSH2 0x13AC DUP6 PUSH2 0x1651 JUMP JUMPDEST SWAP5 PUSH2 0x13BA PUSH1 0x40 MLOAD SWAP7 DUP8 PUSH2 0x15DD JUMP JUMPDEST DUP1 DUP7 MSTORE PUSH2 0x1651 JUMP JUMPDEST SWAP4 PUSH1 0x20 SWAP4 DUP5 DUP3 ADD SWAP6 PUSH1 0x1F NOT ADD CALLDATASIZE DUP8 CALLDATACOPY DUP3 SWAP1 DUP5 JUMPDEST DUP2 DUP2 GT ISZERO PUSH2 0x1416 JUMPI POP POP POP PUSH1 0x40 MLOAD SWAP4 DUP1 DUP6 ADD SWAP2 DUP2 DUP7 MSTORE MLOAD DUP1 SWAP3 MSTORE PUSH1 0x40 DUP6 ADD SWAP6 SWAP3 JUMPDEST DUP3 DUP2 LT PUSH2 0x1403 JUMPI DUP6 DUP8 SUB DUP7 RETURN JUMPDEST DUP4 MLOAD DUP8 MSTORE SWAP6 DUP2 ADD SWAP6 SWAP3 DUP2 ADD SWAP3 DUP5 ADD PUSH2 0x13F6 JUMP JUMPDEST DUP1 DUP6 SWAP8 SWAP5 SWAP6 SWAP9 SWAP7 SWAP9 MSTORE PUSH1 0x13 DUP5 MSTORE PUSH1 0xFF PUSH1 0x3 PUSH1 0x40 DUP10 KECCAK256 ADD SLOAD AND PUSH2 0x1448 JUMPI JUMPDEST PUSH2 0x143C SWAP1 PUSH2 0x1642 JUMP JUMPDEST SWAP7 SWAP5 SWAP7 SWAP6 SWAP4 SWAP3 SWAP6 PUSH2 0x13D5 JUMP JUMPDEST SWAP2 DUP5 MLOAD DUP2 LT ISZERO PUSH2 0x1470 JUMPI PUSH2 0x1468 DUP2 DUP5 DUP7 PUSH2 0x143C SWAP5 PUSH1 0x5 SHL DUP10 ADD ADD MSTORE PUSH2 0x1642 JUMP JUMPDEST SWAP3 SWAP1 POP PUSH2 0x1433 JUMP JUMPDEST PUSH4 0x4E487B71 PUSH1 0xE0 SHL DUP8 MSTORE PUSH1 0x32 PUSH1 0x4 MSTORE PUSH1 0x24 DUP8 REVERT JUMPDEST DUP1 DUP3 SWAP5 SWAP4 SWAP6 SWAP3 MSTORE PUSH1 0x13 PUSH1 0x20 MSTORE PUSH1 0xFF PUSH1 0x3 PUSH1 0x40 DUP7 KECCAK256 ADD SLOAD AND PUSH2 0x14B3 JUMPI JUMPDEST PUSH2 0x14A9 SWAP1 PUSH2 0x1642 JUMP JUMPDEST SWAP4 SWAP2 SWAP3 SWAP1 SWAP4 PUSH2 0x1397 JUMP JUMPDEST SWAP1 PUSH2 0x14C0 PUSH2 0x14A9 SWAP2 PUSH2 0x1642 JUMP JUMPDEST SWAP2 SWAP1 POP PUSH2 0x14A0 JUMP JUMPDEST PUSH1 0x4 CALLDATALOAD SWAP1 PUSH1 0x1 PUSH1 0x1 PUSH1 0xA0 SHL SUB DUP3 AND DUP3 SUB PUSH2 0x411 JUMPI JUMP JUMPDEST PUSH1 0x24 CALLDATALOAD SWAP1 PUSH1 0x1 PUSH1 0x1 PUSH1 0xA0 SHL SUB DUP3 AND DUP3 SUB PUSH2 0x411 JUMPI JUMP JUMPDEST CALLVALUE PUSH2 0x411 JUMPI PUSH1 0x0 CALLDATASIZE PUSH1 0x3 NOT ADD SLT PUSH2 0x411 JUMPI PUSH1 0x20 PUSH1 0x40 MLOAD PUSH1 0x0 DUP2 MSTORE RETURN JUMPDEST CALLVALUE PUSH2 0x411 JUMPI PUSH1 0x0 CALLDATASIZE PUSH1 0x3 NOT ADD SLT PUSH2 0x411 JUMPI PUSH1 0x20 PUSH1 0x40 MLOAD PUSH1 0x1 DUP2 MSTORE RETURN JUMPDEST CALLVALUE PUSH2 0x411 JUMPI PUSH1 0x0 CALLDATASIZE PUSH1 0x3 NOT ADD SLT PUSH2 0x411 JUMPI PUSH1 0x20 PUSH1 0x40 MLOAD PUSH1 0x2 DUP2 MSTORE RETURN JUMPDEST PUSH1 0x0 SLOAD PUSH1 0x1 PUSH1 0x1 PUSH1 0xA0 SHL SUB AND CALLER SUB PUSH2 0x155C JUMPI JUMP JUMPDEST PUSH1 0x40 MLOAD PUSH4 0x118CDAA7 PUSH1 0xE0 SHL DUP2 MSTORE CALLER PUSH1 0x4 DUP3 ADD MSTORE PUSH1 0x24 SWAP1 REVERT JUMPDEST PUSH8 0xFFFFFFFFFFFFFFFF DUP2 GT PUSH2 0xA7C JUMPI PUSH1 0x40 MSTORE JUMP JUMPDEST PUSH1 0xA0 DUP2 ADD SWAP1 DUP2 LT PUSH8 0xFFFFFFFFFFFFFFFF DUP3 GT OR PUSH2 0xA7C JUMPI PUSH1 0x40 MSTORE JUMP JUMPDEST PUSH2 0x140 DUP2 ADD SWAP1 DUP2 LT PUSH8 0xFFFFFFFFFFFFFFFF DUP3 GT OR PUSH2 0xA7C JUMPI PUSH1 0x40 MSTORE JUMP JUMPDEST PUSH1 0x60 DUP2 ADD SWAP1 DUP2 LT PUSH8 0xFFFFFFFFFFFFFFFF DUP3 GT OR PUSH2 0xA7C JUMPI PUSH1 0x40 MSTORE JUMP JUMPDEST SWAP1 PUSH1 0x1F DUP1 NOT SWAP2 ADD AND DUP2 ADD SWAP1 DUP2 LT PUSH8 0xFFFFFFFFFFFFFFFF DUP3 GT OR PUSH2 0xA7C JUMPI PUSH1 0x40 MSTORE JUMP JUMPDEST DUP2 DUP2 MUL SWAP3 SWAP2 DUP2 ISZERO SWAP2 DUP5 DIV EQ OR ISZERO PUSH2 0x1612 JUMPI JUMP JUMPDEST PUSH4 0x4E487B71 PUSH1 0xE0 SHL PUSH1 0x0 MSTORE PUSH1 0x11 PUSH1 0x4 MSTORE PUSH1 0x24 PUSH1 0x0 REVERT JUMPDEST MLOAD SWAP1 DUP2 ISZERO ISZERO DUP3 SUB PUSH2 0x411 JUMPI JUMP JUMPDEST SWAP2 SWAP1 DUP3 ADD DUP1 SWAP3 GT PUSH2 0x1612 JUMPI JUMP JUMPDEST PUSH1 0x0 NOT DUP2 EQ PUSH2 0x1612 JUMPI PUSH1 0x1 ADD SWAP1 JUMP JUMPDEST PUSH8 0xFFFFFFFFFFFFFFFF DUP2 GT PUSH2 0xA7C JUMPI PUSH1 0x5 SHL PUSH1 0x20 ADD SWAP1 JUMP JUMPDEST DUP2 DUP2 SUB SWAP3 SWAP2 PUSH1 0x0 SGT DUP1 ISZERO DUP3 DUP6 SGT AND SWAP2 DUP5 SLT AND OR PUSH2 0x1612 JUMPI JUMP JUMPDEST SWAP2 SWAP1 DUP3 SUB SWAP2 DUP3 GT PUSH2 0x1612 JUMPI JUMP JUMPDEST PUSH1 0x20 SWAP2 DUP3 DUP3 MSTORE DUP1 MLOAD DUP4 DUP4 ADD MSTORE PUSH1 0x1 DUP1 PUSH1 0xA0 SHL SUB DUP1 DUP5 DUP4 ADD MLOAD AND PUSH1 0x40 DUP5 ADD MSTORE DUP1 PUSH1 0x40 DUP4 ADD MLOAD AND PUSH1 0x60 DUP5 ADD MSTORE DUP1 PUSH1 0x60 DUP4 ADD MLOAD AND PUSH1 0x80 DUP5 ADD MSTORE DUP1 PUSH1 0x80 DUP4 ADD MLOAD AND PUSH1 0xA0 DUP5 ADD MSTORE PUSH1 0xA0 DUP3 ADD MLOAD AND PUSH1 0xC0 DUP4 ADD MSTORE PUSH1 0xC0 DUP2 ADD MLOAD PUSH1 0xE0 DUP4 ADD MSTORE PUSH1 0xE0 DUP2 ADD MLOAD PUSH2 0x100 SWAP1 DUP2 DUP5 ADD MSTORE DUP2 ADD MLOAD SWAP1 PUSH2 0x120 SWAP2 DUP3 DUP5 ADD MSTORE ADD MLOAD SWAP2 PUSH2 0x140 DUP1 DUP4 ADD MSTORE DUP3 MLOAD SWAP3 DUP4 PUSH2 0x160 DUP5 ADD MSTORE PUSH1 0x0 JUMPDEST DUP5 DUP2 LT PUSH2 0x1738 JUMPI POP POP POP PUSH2 0x180 SWAP2 PUSH1 0x0 DUP4 DUP3 DUP5 ADD ADD MSTORE PUSH1 0x1F DUP1 NOT SWAP2 ADD AND ADD ADD SWAP1 JUMP JUMPDEST DUP2 DUP2 ADD DUP4 ADD MLOAD DUP5 DUP3 ADD PUSH2 0x180 ADD MSTORE DUP3 ADD PUSH2 0x1716 JUMP JUMPDEST PUSH2 0x1758 PUSH1 0x10 SLOAD PUSH2 0x1642 JUMP JUMPDEST SWAP1 DUP2 PUSH1 0x10 SSTORE PUSH1 0x40 SWAP1 DUP2 MLOAD SWAP4 PUSH1 0x20 SWAP5 DUP6 DUP2 ADD SWAP1 TIMESTAMP DUP3 MSTORE DUP6 DUP6 DUP3 ADD MSTORE DUP5 DUP2 MSTORE PUSH2 0x177E DUP2 PUSH2 0x15C1 JUMP JUMPDEST MLOAD SWAP1 KECCAK256 SWAP4 PUSH1 0x1 DUP1 PUSH1 0xA0 SHL SUB DUP1 PUSH1 0x4 SLOAD AND DUP2 PUSH1 0x3 SLOAD AND SWAP1 PUSH8 0xDE0B6B3A7640000 PUSH2 0x17A7 DUP8 DUP8 PUSH2 0x15FF JUMP JUMPDEST DIV DUP8 MLOAD SWAP4 PUSH4 0x4167A6B PUSH1 0xE3 SHL DUP12 DUP7 ADD MSTORE PUSH1 0x0 SWAP6 DUP7 PUSH1 0x24 DUP8 ADD MSTORE DUP7 PUSH1 0x44 DUP8 ADD MSTORE DUP7 PUSH1 0x64 DUP8 ADD MSTORE PUSH1 0x64 DUP7 MSTORE PUSH2 0x17D9 DUP7 PUSH2 0x1588 JUMP JUMPDEST DUP10 MLOAD SWAP11 PUSH2 0x17E5 DUP13 PUSH2 0x15A4 JUMP JUMPDEST DUP12 MSTORE DUP12 DUP12 ADD SWAP4 DUP5 MSTORE DUP10 DUP12 ADD SWAP5 DUP6 MSTORE ADDRESS PUSH1 0x60 DUP13 ADD MSTORE ADDRESS PUSH1 0x80 DUP13 ADD MSTORE DUP7 PUSH1 0xA0 DUP13 ADD MSTORE PUSH1 0xC0 DUP12 ADD SWAP6 DUP9 DUP8 MSTORE PUSH1 0xE0 DUP13 ADD SWAP4 DUP5 MSTORE DUP8 PUSH2 0x100 DUP14 ADD MSTORE PUSH2 0x120 DUP13 ADD MSTORE DUP12 PUSH2 0x1845 DUP4 PUSH1 0x15 SLOAD AND DUP13 MLOAD DUP1 SWAP15 DUP2 SWAP4 DUP3 SWAP2 PUSH4 0x110DDBFF PUSH1 0xE2 SHL DUP4 MSTORE PUSH1 0x4 DUP4 ADD PUSH2 0x168F JUMP JUMPDEST SUB SWAP2 GAS STATICCALL SWAP11 DUP12 ISZERO PUSH2 0x19DA JUMPI SWAP1 DUP13 SWAP6 SWAP5 SWAP4 SWAP3 SWAP2 DUP9 SWAP13 PUSH2 0x1998 JUMPI JUMPDEST POP SWAP3 DUP12 SWAP3 DUP9 SWAP3 DUP13 PUSH1 0x4 DUP6 PUSH2 0x18CC DUP16 SWAP10 DUP13 PUSH1 0xC4 SWAP12 DUP7 MLOAD SWAP7 PUSH2 0x187D DUP9 PUSH2 0x1588 JUMP JUMPDEST DUP13 DUP9 MSTORE DUP3 DUP9 ADD SWAP2 DUP3 MSTORE PUSH1 0x13 DUP2 DUP10 ADD SWAP4 DUP6 DUP6 MSTORE PUSH1 0x60 DUP11 ADD SWAP6 PUSH1 0x1 DUP8 MSTORE PUSH1 0x80 DUP12 ADD SWAP9 TIMESTAMP DUP11 MSTORE MSTORE MSTORE DUP12 KECCAK256 SWAP7 MLOAD DUP8 SSTORE MLOAD PUSH1 0x1 DUP8 ADD SSTORE MLOAD PUSH1 0x2 DUP7 ADD SSTORE MLOAD ISZERO ISZERO PUSH1 0x3 DUP6 ADD SWAP1 PUSH1 0xFF DUP1 NOT DUP4 SLOAD AND SWAP2 ISZERO ISZERO AND OR SWAP1 SSTORE JUMP JUMPDEST MLOAD SWAP2 ADD SSTORE PUSH1 0x10 SLOAD DUP6 DUP6 MSTORE PUSH1 0x14 DUP10 MSTORE DUP14 DUP6 KECCAK256 SSTORE DUP1 DUP1 PUSH1 0x16 SLOAD AND SWAP4 MLOAD AND SWAP7 MLOAD AND SWAP8 MLOAD SWAP1 MLOAD SWAP1 DUP13 MLOAD SWAP9 DUP10 SWAP8 DUP9 SWAP7 PUSH4 0x6C50DCC1 PUSH1 0xE1 SHL DUP9 MSTORE PUSH1 0x4 DUP9 ADD MSTORE ADDRESS PUSH1 0x24 DUP9 ADD MSTORE PUSH1 0x44 DUP8 ADD MSTORE PUSH1 0x64 DUP7 ADD MSTORE PUSH1 0x84 DUP6 ADD MSTORE PUSH1 0xA4 DUP5 ADD MSTORE GAS CALL DUP1 ISZERO PUSH2 0x198E JUMPI SWAP1 DUP8 SWAP2 PUSH2 0x1965 JUMPI JUMPDEST POP POP POP SWAP1 PUSH32 0x6239AB9E61392C8AE40F6F0FB586F4AC54C41E09738751365887176C30BB0809 SWAP3 SWAP2 PUSH1 0x10 SLOAD SWAP6 DUP4 MLOAD SWAP3 DUP4 MSTORE DUP3 ADD MSTORE LOG3 JUMP JUMPDEST DUP2 RETURNDATASIZE DUP4 GT PUSH2 0x1987 JUMPI JUMPDEST PUSH2 0x1978 DUP2 DUP4 PUSH2 0x15DD JUMP JUMPDEST DUP2 ADD SUB SLT PUSH2 0x1AF JUMPI DUP6 DUP2 PUSH2 0x192F JUMP JUMPDEST POP RETURNDATASIZE PUSH2 0x196E JUMP JUMPDEST DUP6 MLOAD RETURNDATASIZE DUP5 DUP3 RETURNDATACOPY RETURNDATASIZE SWAP1 REVERT JUMPDEST DUP1 SWAP3 SWAP4 SWAP5 SWAP6 SWAP8 SWAP9 SWAP13 POP DUP7 SWAP2 SWAP7 RETURNDATASIZE DUP4 GT PUSH2 0x19D3 JUMPI JUMPDEST PUSH2 0x19B6 DUP2 DUP4 PUSH2 0x15DD JUMP JUMPDEST DUP2 ADD SUB SLT PUSH2 0x19CF JUMPI MLOAD SWAP10 SWAP6 SWAP5 DUP12 SWAP5 SWAP1 SWAP4 SWAP3 SWAP2 SWAP1 DUP10 PUSH2 0x185E JUMP JUMPDEST DUP11 DUP1 REVERT JUMPDEST POP RETURNDATASIZE PUSH2 0x19AC JUMP JUMPDEST DUP11 MLOAD RETURNDATASIZE DUP10 DUP3 RETURNDATACOPY RETURNDATASIZE SWAP1 REVERT JUMPDEST PUSH2 0x19EF PUSH1 0x10 SLOAD PUSH2 0x1642 JUMP JUMPDEST SWAP1 DUP2 PUSH1 0x10 SSTORE PUSH1 0x40 SWAP1 DUP2 MLOAD SWAP4 PUSH1 0x20 SWAP5 DUP6 DUP2 ADD SWAP1 TIMESTAMP DUP3 MSTORE DUP6 DUP6 DUP3 ADD MSTORE DUP5 DUP2 MSTORE PUSH2 0x1A15 DUP2 PUSH2 0x15C1 JUMP JUMPDEST MLOAD SWAP1 KECCAK256 SWAP4 PUSH1 0x1 DUP1 PUSH1 0xA0 SHL SUB DUP1 PUSH1 0x3 SLOAD AND DUP2 PUSH1 0x4 SLOAD AND SWAP1 PUSH8 0xDE0B6B3A7640000 PUSH2 0x17A7 DUP8 DUP8 PUSH2 0x15FF JUMP JUMPDEST PUSH1 0xA SLOAD SWAP1 PUSH1 0x2 DUP3 EQ PUSH2 0x1DE6 JUMPI PUSH1 0x0 SWAP1 DUP2 MSTORE PUSH1 0x20 SWAP2 PUSH1 0x13 DUP4 MSTORE PUSH1 0x40 SWAP1 DUP2 DUP4 KECCAK256 PUSH1 0x1 DUP2 ADD SLOAD SWAP2 PUSH1 0x1 DUP4 SWAP2 EQ PUSH2 0x1D9F JUMPI JUMPDEST POP DUP2 PUSH2 0x1A7A JUMPI JUMPDEST POP POP POP POP POP JUMP JUMPDEST PUSH1 0x7 SLOAD PUSH2 0x1B90 PUSH1 0x9 SLOAD ISZERO DUP7 PUSH2 0x1A90 PUSH1 0x10 SLOAD PUSH2 0x1642 JUMP JUMPDEST DUP1 PUSH1 0x10 SSTORE DUP8 MLOAD DUP11 DUP2 ADD SWAP1 TIMESTAMP DUP3 MSTORE DUP3 DUP11 DUP3 ADD MSTORE DUP10 DUP2 MSTORE PUSH2 0x1AAE DUP2 PUSH2 0x15C1 JUMP JUMPDEST MLOAD SWAP1 KECCAK256 SWAP3 DUP1 ISZERO PUSH2 0x1D8D JUMPI PUSH1 0x4 SLOAD PUSH1 0x1 PUSH1 0x1 PUSH1 0xA0 SHL SUB AND SWAP1 JUMPDEST ISZERO PUSH2 0x1D79 JUMPI PUSH1 0x3 SLOAD PUSH1 0x1 PUSH1 0x1 PUSH1 0xA0 SHL SUB AND SWAP2 DUP10 SWAP1 JUMPDEST DUP13 PUSH8 0xDE0B6B3A7640000 PUSH2 0x1AEF DUP13 DUP12 PUSH2 0x15FF JUMP JUMPDEST DIV SWAP7 DUP4 MLOAD PUSH4 0x4167A6B PUSH1 0xE3 SHL DUP4 DUP3 ADD MSTORE DUP8 PUSH1 0x24 DUP3 ADD MSTORE DUP8 PUSH1 0x44 DUP3 ADD MSTORE DUP8 PUSH1 0x64 DUP3 ADD MSTORE PUSH1 0x64 DUP2 MSTORE PUSH2 0x1B1E DUP2 PUSH2 0x1588 JUMP JUMPDEST DUP5 MLOAD SWAP2 PUSH2 0x1B2A DUP4 PUSH2 0x15A4 JUMP JUMPDEST DUP3 MSTORE DUP3 DUP3 ADD SWAP6 PUSH1 0x1 DUP1 PUSH1 0xA0 SHL SUB SWAP6 DUP7 DUP1 SWAP3 AND DUP9 MSTORE DUP4 ADD SWAP8 AND DUP8 MSTORE ADDRESS PUSH1 0x60 DUP4 ADD MSTORE ADDRESS PUSH1 0x80 DUP4 ADD MSTORE DUP8 PUSH1 0xA0 DUP4 ADD MSTORE PUSH1 0xC0 DUP3 ADD SWAP8 DUP12 DUP10 MSTORE PUSH1 0xE0 DUP4 ADD SWAP10 DUP11 MSTORE PUSH2 0x100 DUP4 ADD MSTORE PUSH2 0x120 DUP3 ADD MSTORE DUP4 PUSH1 0x15 SLOAD AND DUP14 MLOAD DUP1 DUP1 SWAP12 DUP2 SWAP5 PUSH4 0x110DDBFF PUSH1 0xE2 SHL DUP4 MSTORE PUSH1 0x4 DUP4 ADD PUSH2 0x168F JUMP JUMPDEST SUB SWAP2 GAS STATICCALL SWAP7 DUP8 ISZERO PUSH2 0x1D6F JUMPI SWAP2 DUP14 SWAP6 SWAP5 SWAP4 SWAP2 DUP13 DUP13 DUP16 SWAP6 DUP7 SWAP12 PUSH2 0x1D29 JUMPI JUMPDEST POP PUSH1 0xC4 SWAP7 SWAP6 SWAP5 SWAP4 SWAP3 PUSH2 0x1C18 DUP11 DUP5 PUSH1 0x4 SWAP5 DUP16 SWAP7 MLOAD SWAP7 PUSH2 0x1BC9 DUP9 PUSH2 0x1588 JUMP JUMPDEST DUP8 MSTORE DUP3 DUP8 ADD SWAP1 DUP2 MSTORE DUP2 DUP8 ADD SWAP2 DUP6 DUP4 MSTORE PUSH1 0x13 PUSH1 0x60 DUP10 ADD SWAP5 PUSH1 0x1 DUP7 MSTORE PUSH1 0x80 DUP11 ADD SWAP8 TIMESTAMP DUP10 MSTORE DUP14 MSTORE MSTORE DUP11 KECCAK256 SWAP7 MLOAD DUP8 SSTORE MLOAD PUSH1 0x1 DUP8 ADD SSTORE MLOAD PUSH1 0x2 DUP7 ADD SSTORE MLOAD ISZERO ISZERO PUSH1 0x3 DUP6 ADD SWAP1 PUSH1 0xFF DUP1 NOT DUP4 SLOAD AND SWAP2 ISZERO ISZERO AND OR SWAP1 SSTORE JUMP JUMPDEST MLOAD SWAP2 ADD SSTORE PUSH1 0x10 SLOAD DUP10 DUP5 MSTORE PUSH1 0x14 DUP9 MSTORE DUP14 DUP5 KECCAK256 SSTORE DUP1 DUP1 PUSH1 0x16 SLOAD AND SWAP3 MLOAD AND SWAP4 MLOAD AND SWAP5 MLOAD SWAP7 MLOAD DUP13 MLOAD SWAP8 DUP9 SWAP7 DUP8 SWAP6 PUSH4 0x6C50DCC1 PUSH1 0xE1 SHL DUP8 MSTORE DUP12 PUSH1 0x4 DUP9 ADD MSTORE ADDRESS PUSH1 0x24 DUP9 ADD MSTORE PUSH1 0x44 DUP8 ADD MSTORE PUSH1 0x64 DUP7 ADD MSTORE PUSH1 0x84 DUP6 ADD MSTORE PUSH1 0xA4 DUP5 ADD MSTORE GAS CALL DUP1 ISZERO PUSH2 0x1D1F JUMPI SWAP1 DUP9 SWAP2 PUSH2 0x1CF6 JUMPI JUMPDEST POP POP SWAP4 DUP1 SWAP4 SWAP3 DUP2 SWAP3 PUSH32 0x1112EE369666DEB054B7A2B6D507C60E60FF930B7A3E64945ED408CF735448C0 SWAP7 PUSH32 0x6239AB9E61392C8AE40F6F0FB586F4AC54C41E09738751365887176C30BB0809 PUSH1 0x10 SLOAD SWAP6 DUP7 SWAP4 DUP2 MLOAD SWAP1 DUP10 DUP3 MSTORE DUP14 DUP3 ADD MSTORE LOG3 SLOAD SWAP6 DUP3 DUP2 MSTORE PUSH1 0x13 DUP9 MSTORE KECCAK256 SLOAD SWAP6 DUP4 MLOAD SWAP3 DUP4 MSTORE DUP3 ADD MSTORE LOG3 CODESIZE DUP1 DUP1 DUP1 DUP1 PUSH2 0x1A73 JUMP JUMPDEST DUP2 RETURNDATASIZE DUP4 GT PUSH2 0x1D18 JUMPI JUMPDEST PUSH2 0x1D09 DUP2 DUP4 PUSH2 0x15DD JUMP JUMPDEST DUP2 ADD SUB SLT PUSH2 0x100A JUMPI DUP7 CODESIZE PUSH2 0x1C7B JUMP JUMPDEST POP RETURNDATASIZE PUSH2 0x1CFF JUMP JUMPDEST DUP7 MLOAD RETURNDATASIZE DUP10 DUP3 RETURNDATACOPY RETURNDATASIZE SWAP1 REVERT JUMPDEST SWAP5 SWAP8 SWAP10 SWAP11 POP POP POP SWAP3 POP SWAP3 SWAP5 DUP2 DUP2 RETURNDATASIZE DUP4 GT PUSH2 0x1D68 JUMPI JUMPDEST PUSH2 0x1D48 DUP2 DUP4 PUSH2 0x15DD JUMP JUMPDEST DUP2 ADD SUB SLT PUSH2 0x1D64 JUMPI MLOAD SWAP6 SWAP5 DUP13 SWAP5 SWAP1 SWAP4 SWAP1 SWAP3 DUP13 SWAP3 DUP13 DUP13 PUSH1 0xC4 PUSH2 0x1BAC JUMP JUMPDEST DUP12 DUP1 REVERT JUMPDEST POP RETURNDATASIZE PUSH2 0x1D3E JUMP JUMPDEST DUP12 MLOAD RETURNDATASIZE DUP15 DUP3 RETURNDATACOPY RETURNDATASIZE SWAP1 REVERT JUMPDEST PUSH1 0x4 SLOAD PUSH1 0x1 PUSH1 0x1 PUSH1 0xA0 SHL SUB AND SWAP2 DUP10 SWAP1 PUSH2 0x1ADB JUMP JUMPDEST PUSH1 0x3 SLOAD PUSH1 0x1 PUSH1 0x1 PUSH1 0xA0 SHL SUB AND SWAP1 PUSH2 0x1AC6 JUMP JUMPDEST PUSH1 0x9 SLOAD DUP1 PUSH2 0x1DC4 JUMPI POP PUSH2 0x1DBC SWAP2 SWAP3 POP PUSH2 0x1DB6 PUSH2 0x2059 JUMP JUMPDEST SWAP1 PUSH2 0x1682 JUMP JUMPDEST SWAP1 JUMPDEST CODESIZE PUSH2 0x1A6C JUMP JUMPDEST PUSH1 0x1 SWAP2 POP SUB PUSH2 0x1DBE JUMPI SWAP1 PUSH2 0x1DE0 SWAP1 PUSH2 0x1DDA PUSH2 0x2059 JUMP JUMPDEST SWAP1 PUSH2 0x1635 JUMP JUMPDEST SWAP1 PUSH2 0x1DBE JUMP JUMPDEST POP POP JUMP JUMPDEST PUSH1 0x0 SWAP1 DUP1 DUP3 MSTORE PUSH1 0x13 PUSH1 0x20 MSTORE PUSH1 0x40 SWAP1 DUP2 DUP4 KECCAK256 SWAP1 DUP3 MLOAD PUSH1 0x20 DUP2 ADD SWAP2 TIMESTAMP DUP4 MSTORE DUP5 DUP3 ADD MSTORE DUP4 DUP2 MSTORE PUSH2 0x1E16 DUP2 PUSH2 0x15C1 JUMP JUMPDEST MLOAD SWAP1 KECCAK256 PUSH1 0x1 DUP1 PUSH1 0xA0 SHL SUB SWAP1 DUP2 PUSH1 0x3 SLOAD AND DUP3 PUSH1 0x4 SLOAD AND PUSH1 0x7 SLOAD SWAP1 PUSH8 0xDE0B6B3A7640000 PUSH2 0x1E46 PUSH1 0x1 DUP9 ADD SLOAD DUP5 PUSH2 0x15FF JUMP JUMPDEST DIV SWAP3 DUP8 MLOAD SWAP5 PUSH2 0x1E54 DUP7 PUSH2 0x15A4 JUMP JUMPDEST DUP6 MSTORE PUSH1 0x20 DUP6 ADD MSTORE DUP7 DUP5 ADD MSTORE ADDRESS PUSH1 0x60 DUP5 ADD MSTORE ADDRESS PUSH1 0x80 DUP5 ADD MSTORE DUP7 PUSH1 0xA0 DUP5 ADD MSTORE PUSH1 0xC0 DUP4 ADD MSTORE PUSH1 0xE0 DUP3 ADD MSTORE DUP5 PUSH2 0x100 DUP3 ADD MSTORE DUP4 MLOAD PUSH1 0x20 DUP2 ADD DUP2 DUP2 LT PUSH8 0xFFFFFFFFFFFFFFFF DUP3 GT OR PUSH2 0x1F69 JUMPI DUP6 MSTORE DUP6 DUP2 MSTORE PUSH2 0x120 DUP3 ADD MSTORE DUP2 PUSH1 0x15 SLOAD AND SWAP1 DUP2 EXTCODESIZE ISZERO PUSH2 0x100A JUMPI PUSH2 0x1ED5 DUP7 SWAP3 DUP4 SWAP3 DUP8 MLOAD SWAP5 DUP6 DUP1 SWAP5 DUP2 SWAP4 PUSH4 0x16CD2B7B PUSH1 0xE1 SHL DUP4 MSTORE PUSH1 0x4 DUP4 ADD PUSH2 0x168F JUMP JUMPDEST SUB SWAP3 GAS CALL DUP1 ISZERO PUSH2 0x1F5F JUMPI PUSH2 0x1F4C JUMPI JUMPDEST POP PUSH1 0x3 DUP3 ADD PUSH1 0xFF NOT DUP2 SLOAD AND SWAP1 SSTORE PUSH1 0x16 SLOAD AND SWAP1 SLOAD DUP2 EXTCODESIZE ISZERO PUSH2 0x1F48 JUMPI DUP3 SWAP2 PUSH1 0x24 DUP6 SWAP5 SWAP3 DUP6 SWAP4 MLOAD SWAP6 DUP7 SWAP4 DUP5 SWAP3 PUSH4 0x7489EC23 PUSH1 0xE0 SHL DUP5 MSTORE PUSH1 0x4 DUP5 ADD MSTORE GAS CALL SWAP1 DUP2 ISZERO PUSH2 0x1F3F JUMPI POP PUSH2 0x1F2E JUMPI POP POP JUMP JUMPDEST PUSH2 0x1F38 DUP3 SWAP2 PUSH2 0x1574 JUMP JUMPDEST PUSH2 0x1AF JUMPI POP JUMP JUMPDEST MLOAD RETURNDATASIZE DUP5 DUP3 RETURNDATACOPY RETURNDATASIZE SWAP1 REVERT JUMPDEST DUP4 DUP1 REVERT JUMPDEST PUSH2 0x1F58 SWAP1 SWAP5 SWAP2 SWAP5 PUSH2 0x1574 JUMP JUMPDEST SWAP3 CODESIZE PUSH2 0x1EE4 JUMP JUMPDEST DUP5 MLOAD RETURNDATASIZE DUP8 DUP3 RETURNDATACOPY RETURNDATASIZE SWAP1 REVERT JUMPDEST PUSH4 0x4E487B71 PUSH1 0xE0 SHL DUP8 MSTORE PUSH1 0x41 PUSH1 0x4 MSTORE PUSH1 0x24 DUP8 REVERT JUMPDEST PUSH1 0x17 SLOAD PUSH1 0x3 SLOAD PUSH1 0x40 MLOAD PUSH4 0x2C68BE3 PUSH1 0xE3 SHL DUP2 MSTORE PUSH1 0x1 PUSH1 0x1 PUSH1 0xA0 SHL SUB SWAP2 DUP3 AND PUSH1 0x4 DUP3 ADD MSTORE SWAP2 PUSH1 0x80 SWAP2 DUP4 SWAP2 PUSH1 0x24 SWAP2 DUP4 SWAP2 AND GAS STATICCALL DUP1 SWAP2 PUSH1 0x0 SWAP2 PUSH2 0x1FC9 JUMPI JUMPDEST POP SWAP1 PUSH2 0x1FC5 JUMPI POP PUSH1 0x5 SLOAD SWAP1 JUMP JUMPDEST MLOAD SWAP1 JUMP JUMPDEST PUSH1 0x80 DUP2 RETURNDATASIZE DUP3 GT PUSH2 0x2051 JUMPI JUMPDEST DUP2 PUSH2 0x1FE1 PUSH1 0x80 SWAP4 DUP4 PUSH2 0x15DD JUMP JUMPDEST DUP2 ADD SUB SLT PUSH2 0x204D JUMPI PUSH1 0x40 MLOAD SWAP2 PUSH1 0x80 DUP4 ADD SWAP1 DUP4 DUP3 LT PUSH8 0xFFFFFFFFFFFFFFFF DUP4 GT OR PUSH2 0x2039 JUMPI POP PUSH2 0x202E SWAP2 PUSH1 0x60 SWAP2 PUSH1 0x40 MSTORE DUP1 MLOAD DUP5 MSTORE PUSH1 0x20 DUP2 ADD MLOAD PUSH1 0x20 DUP6 ADD MSTORE PUSH1 0x40 DUP2 ADD MLOAD PUSH1 0x40 DUP6 ADD MSTORE ADD PUSH2 0x1628 JUMP JUMPDEST PUSH1 0x60 DUP3 ADD MSTORE CODESIZE PUSH2 0x1FB8 JUMP JUMPDEST PUSH4 0x4E487B71 PUSH1 0xE0 SHL DUP2 MSTORE PUSH1 0x41 PUSH1 0x4 MSTORE PUSH1 0x24 SWAP1 REVERT JUMPDEST POP DUP1 REVERT JUMPDEST RETURNDATASIZE SWAP2 POP PUSH2 0x1FD4 JUMP JUMPDEST PUSH1 0x17 SLOAD PUSH1 0x3 SLOAD PUSH1 0x6 SLOAD PUSH1 0x40 MLOAD PUSH4 0x2CA81A51 PUSH1 0xE0 SHL DUP2 MSTORE PUSH1 0x1 PUSH1 0x1 PUSH1 0xA0 SHL SUB SWAP3 DUP4 AND PUSH1 0x4 DUP3 ADD MSTORE PUSH1 0x24 DUP2 ADD DUP3 SWAP1 MSTORE SWAP1 SWAP3 SWAP1 SWAP2 PUSH1 0x20 SWAP2 DUP4 SWAP2 PUSH1 0x44 SWAP2 DUP4 SWAP2 AND GAS STATICCALL PUSH1 0x0 SWAP2 DUP2 PUSH2 0x20AE JUMPI JUMPDEST POP PUSH2 0x20A9 JUMPI POP SWAP1 JUMP JUMPDEST SWAP1 POP SWAP1 JUMP JUMPDEST SWAP1 SWAP2 PUSH1 0x20 DUP3 RETURNDATASIZE DUP3 GT PUSH2 0x20D9 JUMPI JUMPDEST DUP2 PUSH2 0x20C8 PUSH1 0x20 SWAP4 DUP4 PUSH2 0x15DD JUMP JUMPDEST DUP2 ADD SUB SLT PUSH2 0x1AF JUMPI POP MLOAD SWAP1 CODESIZE PUSH2 0x20A0 JUMP JUMPDEST RETURNDATASIZE SWAP2 POP PUSH2 0x20BB JUMP INVALID LOG2 PUSH5 0x6970667358 0x22 SLT KECCAK256 REVERT OR CALLDATALOAD 0xCB COINBASE 0xE1 0xD3 DUP7 0x21 0xAB 0xCC 0xCE SWAP2 0x26 0xB0 0xF 0xBA GAS 0xB4 PUSH19 0xECCE0C7A477CA22D98D906F164736F6C634300 ADDMOD EQ STOP CALLER "},"methodIdentifiers":{"MAX_ORDERS()":"93254b0e","MAX_ORDER_SIZE()":"61555e2e","MAX_SPACING()":"716df225","MIN_ORDER_SIZE()":"d3f82d8e","MIN_SPACING()":"e3d26090","REPOST_NEXT_PRICE()":"51570fdd","REPOST_SAME_PRICE()":"9f215fa5","REPOST_SKIP()":"627cb7f8","STRATEGY_BUY_LADDER()":"2bf8ff4c","STRATEGY_BUY_SELL()":"ac0e764e","STRATEGY_SELL_LADDER()":"f160991b","cancelAllOrders()":"028afabf","cancelOrder(uint256)":"514fcac7","createStrategy(address,address,uint256,uint256,uint256,uint256,uint256,uint256,uint256,uint256,uint256,uint256)":"55bb366e","getActiveOrders()":"0086e68b","getOrder(uint256)":"d09ef241","getStrategyPerformance()":"3bfe2483","handleOrderFill(bytes32,uint256,uint256)":"20b3d358","initialize(address,address,address)":"c0c53b8b","lop()":"9ccf88c7","oracleAdapter()":"3d9f3163","orderIndexByHash(bytes32)":"a832a065","orderManager()":"f9b6117f","orders(uint256)":"a85c38ef","owner()":"8da5cb5b","pause()":"8456cb59","paused()":"5c975abb","placeLadderOrders()":"18354044","renounceOwnership()":"715018a6","strategy()":"a8c62e76","transferOwnership(address)":"f2fde38b","unpause()":"3f4ba83a","withdrawTokens(address,uint256)":"06b091f9"}}}}}