{"contracts/inchbyinchFactory.sol":{"inchbyinchFactory":{"abi":[{"inputs":[{"internalType":"address","name":"_botImplementation","type":"address"},{"internalType":"address","name":"_orderManager","type":"address"},{"internalType":"address","name":"_oracleAdapter","type":"address"},{"internalType":"address","name":"_lop","type":"address"}],"stateMutability":"nonpayable","type":"constructor"},{"inputs":[],"name":"BotAlreadyExists","type":"error"},{"inputs":[],"name":"BotDeploymentFailed","type":"error"},{"inputs":[],"name":"BotNotFound","type":"error"},{"inputs":[],"name":"BotUpgradeFailed","type":"error"},{"inputs":[],"name":"EnforcedPause","type":"error"},{"inputs":[],"name":"ExcessiveDeposit","type":"error"},{"inputs":[],"name":"ExpectedPause","type":"error"},{"inputs":[],"name":"FailedDeployment","type":"error"},{"inputs":[{"internalType":"uint256","name":"balance","type":"uint256"},{"internalType":"uint256","name":"needed","type":"uint256"}],"name":"InsufficientBalance","type":"error"},{"inputs":[],"name":"InsufficientDeposit","type":"error"},{"inputs":[],"name":"InvalidBotAddress","type":"error"},{"inputs":[],"name":"InvalidDeposit","type":"error"},{"inputs":[{"internalType":"address","name":"owner","type":"address"}],"name":"OwnableInvalidOwner","type":"error"},{"inputs":[{"internalType":"address","name":"account","type":"address"}],"name":"OwnableUnauthorizedAccount","type":"error"},{"inputs":[],"name":"ReentrancyGuardReentrantCall","type":"error"},{"inputs":[],"name":"UnauthorizedToken","type":"error"},{"inputs":[],"name":"UserLimitExceeded","type":"error"},{"inputs":[],"name":"ZeroAddress","type":"error"},{"inputs":[],"name":"ZeroAmount","type":"error"},{"anonymous":false,"inputs":[{"indexed":true,"internalType":"address","name":"user","type":"address"},{"indexed":true,"internalType":"address","name":"bot","type":"address"},{"indexed":true,"internalType":"uint256","name":"botIndex","type":"uint256"},{"indexed":false,"internalType":"uint256","name":"deploymentCost","type":"uint256"}],"name":"BotDeployed","type":"event"},{"anonymous":false,"inputs":[{"indexed":true,"internalType":"address","name":"user","type":"address"},{"indexed":true,"internalType":"address","name":"oldBot","type":"address"},{"indexed":true,"internalType":"address","name":"newBot","type":"address"}],"name":"BotUpgraded","type":"event"},{"anonymous":false,"inputs":[{"indexed":false,"internalType":"uint256","name":"minDeposit","type":"uint256"},{"indexed":false,"internalType":"uint256","name":"maxDeposit","type":"uint256"}],"name":"DepositLimitsUpdated","type":"event"},{"anonymous":false,"inputs":[{"indexed":true,"internalType":"address","name":"previousOwner","type":"address"},{"indexed":true,"internalType":"address","name":"newOwner","type":"address"}],"name":"OwnershipTransferred","type":"event"},{"anonymous":false,"inputs":[{"indexed":false,"internalType":"address","name":"account","type":"address"}],"name":"Paused","type":"event"},{"anonymous":false,"inputs":[{"indexed":true,"internalType":"address","name":"token","type":"address"}],"name":"TokenAuthorized","type":"event"},{"anonymous":false,"inputs":[{"indexed":true,"internalType":"address","name":"token","type":"address"}],"name":"TokenDeauthorized","type":"event"},{"anonymous":false,"inputs":[{"indexed":false,"internalType":"address","name":"account","type":"address"}],"name":"Unpaused","type":"event"},{"anonymous":false,"inputs":[{"indexed":false,"internalType":"uint256","name":"newLimit","type":"uint256"}],"name":"UserLimitUpdated","type":"event"},{"stateMutability":"payable","type":"fallback"},{"inputs":[],"name":"MAX_BOTS_PER_USER","outputs":[{"internalType":"uint256","name":"","type":"uint256"}],"stateMutability":"view","type":"function"},{"inputs":[],"name":"MAX_DEPOSIT","outputs":[{"internalType":"uint256","name":"","type":"uint256"}],"stateMutability":"view","type":"function"},{"inputs":[],"name":"MIN_DEPOSIT","outputs":[{"internalType":"uint256","name":"","type":"uint256"}],"stateMutability":"view","type":"function"},{"inputs":[{"internalType":"address","name":"token","type":"address"}],"name":"authorizeToken","outputs":[],"stateMutability":"nonpayable","type":"function"},{"inputs":[{"internalType":"address","name":"","type":"address"}],"name":"authorizedTokens","outputs":[{"internalType":"bool","name":"","type":"bool"}],"stateMutability":"view","type":"function"},{"inputs":[{"internalType":"address","name":"","type":"address"}],"name":"botDeploymentCount","outputs":[{"internalType":"uint256","name":"","type":"uint256"}],"stateMutability":"view","type":"function"},{"inputs":[],"name":"botImplementation","outputs":[{"internalType":"address","name":"","type":"address"}],"stateMutability":"view","type":"function"},{"inputs":[{"internalType":"address","name":"token","type":"address"}],"name":"deauthorizeToken","outputs":[],"stateMutability":"nonpayable","type":"function"},{"inputs":[{"internalType":"address","name":"user","type":"address"}],"name":"deployBot","outputs":[{"internalType":"address","name":"bot","type":"address"}],"stateMutability":"payable","type":"function"},{"inputs":[{"internalType":"address","name":"user","type":"address"},{"internalType":"uint256","name":"count","type":"uint256"}],"name":"deployMultipleBots","outputs":[{"internalType":"address[]","name":"bots","type":"address[]"}],"stateMutability":"payable","type":"function"},{"inputs":[{"internalType":"address","name":"token","type":"address"},{"internalType":"address","name":"to","type":"address"},{"internalType":"uint256","name":"amount","type":"uint256"}],"name":"emergencyRecover","outputs":[],"stateMutability":"nonpayable","type":"function"},{"inputs":[],"name":"getBotImplementation","outputs":[{"internalType":"address","name":"implementation","type":"address"}],"stateMutability":"view","type":"function"},{"inputs":[],"name":"getFactoryConfig","outputs":[{"internalType":"address","name":"_orderManager","type":"address"},{"internalType":"address","name":"_oracleAdapter","type":"address"},{"internalType":"address","name":"_lop","type":"address"},{"internalType":"uint256","name":"_maxBotsPerUser","type":"uint256"},{"internalType":"uint256","name":"_minDeposit","type":"uint256"},{"internalType":"uint256","name":"_maxDeposit","type":"uint256"}],"stateMutability":"view","type":"function"},{"inputs":[{"internalType":"address","name":"user","type":"address"},{"internalType":"uint256","name":"botIndex","type":"uint256"}],"name":"getUserBot","outputs":[{"internalType":"address","name":"bot","type":"address"}],"stateMutability":"view","type":"function"},{"inputs":[{"internalType":"address","name":"user","type":"address"}],"name":"getUserBotCount","outputs":[{"internalType":"uint256","name":"count","type":"uint256"}],"stateMutability":"view","type":"function"},{"inputs":[{"internalType":"address","name":"user","type":"address"}],"name":"getUserBots","outputs":[{"internalType":"address[]","name":"bots","type":"address[]"}],"stateMutability":"view","type":"function"},{"inputs":[{"internalType":"address","name":"user","type":"address"}],"name":"getUserDeploymentCount","outputs":[{"internalType":"uint256","name":"count","type":"uint256"}],"stateMutability":"view","type":"function"},{"inputs":[{"internalType":"address","name":"token","type":"address"}],"name":"isTokenAuthorized","outputs":[{"internalType":"bool","name":"isAuthorized","type":"bool"}],"stateMutability":"view","type":"function"},{"inputs":[],"name":"lop","outputs":[{"internalType":"address","name":"","type":"address"}],"stateMutability":"view","type":"function"},{"inputs":[],"name":"oracleAdapter","outputs":[{"internalType":"address","name":"","type":"address"}],"stateMutability":"view","type":"function"},{"inputs":[],"name":"orderManager","outputs":[{"internalType":"address","name":"","type":"address"}],"stateMutability":"view","type":"function"},{"inputs":[],"name":"owner","outputs":[{"internalType":"address","name":"","type":"address"}],"stateMutability":"view","type":"function"},{"inputs":[],"name":"pause","outputs":[],"stateMutability":"nonpayable","type":"function"},{"inputs":[],"name":"paused","outputs":[{"internalType":"bool","name":"","type":"bool"}],"stateMutability":"view","type":"function"},{"inputs":[],"name":"renounceOwnership","outputs":[],"stateMutability":"nonpayable","type":"function"},{"inputs":[{"internalType":"address","name":"newOwner","type":"address"}],"name":"transferOwnership","outputs":[],"stateMutability":"nonpayable","type":"function"},{"inputs":[],"name":"unpause","outputs":[],"stateMutability":"nonpayable","type":"function"},{"inputs":[{"internalType":"address","name":"user","type":"address"},{"internalType":"uint256","name":"botIndex","type":"uint256"}],"name":"upgradeBot","outputs":[{"internalType":"address","name":"newBot","type":"address"}],"stateMutability":"payable","type":"function"},{"inputs":[{"internalType":"address","name":"","type":"address"},{"internalType":"uint256","name":"","type":"uint256"}],"name":"userBots","outputs":[{"internalType":"address","name":"","type":"address"}],"stateMutability":"view","type":"function"},{"inputs":[{"internalType":"uint256","name":"amount","type":"uint256"}],"name":"withdrawETH","outputs":[],"stateMutability":"nonpayable","type":"function"},{"inputs":[{"internalType":"address","name":"token","type":"address"},{"internalType":"uint256","name":"amount","type":"uint256"}],"name":"withdrawTokens","outputs":[],"stateMutability":"nonpayable","type":"function"},{"stateMutability":"payable","type":"receive"}],"evm":{"bytecode":{"linkReferences":{},"object":"61010034620001e457601f6200166138819003918201601f191683019291906001600160401b03841183851017620001e9578160809284926040968752833981010312620001e4576200005281620001ff565b906200006160208201620001ff565b6200007c606062000074868501620001ff565b9301620001ff565b923315620001cc5760008054336001600160a01b031982168117835587516001600160a01b039390928416907f8be0079c531659141344cd1fd0a4f28419497f9722a3daafe3b4186f6b6457e09080a36001805581831615620001bd575080831615620001ac5780841615620001ac578416156200019b5760805260a05260c05260e0525161144c90816200021582396080518181816102ac0152818161093501528181610cba01526111b0015260a05181818161018e0152818161031f015281816109a301528181610d28015261102e015260c051818181610347015281816109cb01528181610d5001528181610ec00152611053015260e0518181816102f7015281816107b30152818161097b01528181610d00015261107a0152f35b845163d92e233d60e01b8152600490fd5b855163d92e233d60e01b8152600490fd5b63d92e233d60e01b8152600490fd5b8451631e4fbdf760e01b815260006004820152602490fd5b600080fd5b634e487b7160e01b600052604160045260246000fd5b51906001600160a01b0382168203620001e45756fe60806040526004361015610018575b361561001657005b005b6000803560e01c806306b091f9146111035780630c4ce2ed146110c4578063159037631461100e57806325c596cc14610fcf5780632655675314610e3a578063301a2fa614610f7f57806334c1d42914610eef5780633d9f316314610eaa5780633f4ba83a14610e3f57806348131a0614610e3a5780635912642e14610c5b5780635c975abb14610c38578063715018a614610bde57806379ea766914610ba55780637f6734d614610b4a5780637ffe2b4014610b055780638456cb5914610a9757806387c66739146108b75780638da5cb5b1461089057806398e9cb12146108215780639bc7c586146107e25780639ccf88c71461079d578063ad1329d1146106f4578063adf2067a14610688578063d50973081461066c578063dd5967c314610648578063e1e158a514610626578063f14210a61461059b578063f2fde38b1461050b578063f7e34412146101c05763f9b6117f14610179575061000e565b346101bd57806003193601126101bd576040517f00000000000000000000000000000000000000000000000000000000000000006001600160a01b03168152602090f35b80fd5b5060403660031901126101bd576001600160a01b036101dd611184565b1680156104f9576024351580156104ed575b6104db578082526003602052604082205460243581018091116104a357600a106104c957602435662386f26fc1000002662386f26fc100008104602435036104a35734106104b757683635c9adc5dea000006024358102908104602435036104a357341161049157610262602435611380565b9061027060405192836112a7565b6024358252601f19610283602435611380565b01366020840137825b60243581106102a757604051806102a385826111df565b0390f35b6102d07f0000000000000000000000000000000000000000000000000000000000000000611318565b6001600160a01b0381163b156104825760405163c0c53b8b60e01b81526001600160a01b037f0000000000000000000000000000000000000000000000000000000000000000811660048301527f0000000000000000000000000000000000000000000000000000000000000000811660248301527f00000000000000000000000000000000000000000000000000000000000000001660448201528590818180606481010381836001600160a01b0388165af180156104865761046e575b5083905260036020526103a581604087206112c9565b8285526005602052604085206103bb81546112f3565b9055835182101561045a5760018060a01b03811660208360051b86010152828552600360205260408520548060001981011161044657604051662386f26fc1000081526104419392600019909201916001600160a01b03169085907fcbd143ab29dda74d196e269af025f1c0372f07ae1c5684395b6ec105a55cd23690602090a46112f3565b61028c565b634e487b7160e01b86526011600452602486fd5b634e487b7160e01b85526032600452602485fd5b6104779061127d565b61048257843861038f565b8480fd5b6040513d84823e3d90fd5b60405163496d3e1160e11b8152600490fd5b634e487b7160e01b83526011600452602483fd5b60405163070f6eed60e11b8152600490fd5b6040516361eea57560e11b8152600490fd5b604051631f2a200560e01b8152600490fd5b506005602435116101ef565b60405163d92e233d60e01b8152600490fd5b50346101bd5760203660031901126101bd57610525611184565b61052d611251565b6001600160a01b0390811690811561058257600054826bffffffffffffffffffffffff60a01b821617600055167f8be0079c531659141344cd1fd0a4f28419497f9722a3daafe3b4186f6b6457e0600080a380f35b604051631e4fbdf760e01b815260048101849052602490fd5b50346101bd5760203660031901126101bd576004356105b8611251565b80156104db574781116105ea57818080806105e79460018060a01b038254165af16105e1611398565b506113d8565b80f35b60405162461bcd60e51b8152602060048201526014602482015273496e73756666696369656e742062616c616e636560601b6044820152606490fd5b50346101bd57806003193601126101bd576020604051662386f26fc100008152f35b50346101bd57806003193601126101bd576020604051683635c9adc5dea000008152f35b50346101bd57806003193601126101bd576020604051600a8152f35b50346101bd5760203660031901126101bd576106a2611184565b6106aa611251565b6001600160a01b031680156104f957808252600460205260408220805460ff191690557fc2e555ff9a88291de51a4e867095d0f6c64f59714f0a0be28fc1b0d345674f578280a280f35b50346101bd5760603660031901126101bd5761070e611184565b6024356001600160a01b03808216808303610798576044359161072f611251565b8416156104f957156104f95780156104db5760405163a9059cbb60e01b602082019081526001600160a01b03909316602482015260448101919091526105e79284928392839061078c81606481015b03601f1981018352826112a7565b51925af16105e1611398565b600080fd5b50346101bd57806003193601126101bd576040517f00000000000000000000000000000000000000000000000000000000000000006001600160a01b03168152602090f35b50346101bd5760203660031901126101bd5760209060ff906040906001600160a01b0361080d611184565b168152600484522054166040519015158152f35b50346101bd5760203660031901126101bd5761083b611184565b610843611251565b6001600160a01b031680156104f957808252600460205260408220805460ff191660011790557f4f212173e1223404ad18982e997212dfadb852b7cd98cdd495b14b58c684cdc28280a280f35b50346101bd57806003193601126101bd57546040516001600160a01b039091168152602090f35b5060403660031901126101bd576108cc611184565b60243591906001600160a01b0390811680156104f957662386f26fc1000034106104b757683635c9adc5dea00000341161049157808352600360205260408320918254851015610a8557806109218685611223565b90549060031b1c16948515610a85576109597f0000000000000000000000000000000000000000000000000000000000000000611318565b91821693843b15610a765760405163c0c53b8b60e01b81526001600160a01b037f0000000000000000000000000000000000000000000000000000000000000000811660048301527f0000000000000000000000000000000000000000000000000000000000000000811660248301527f00000000000000000000000000000000000000000000000000000000000000001660448201528681606481838a5af18015610a7a57610a62575b5060209692610a18869593610a3793611223565b90919082549060031b9160018060a01b03809116831b921b1916179055565b7f68728588b9bd047e94c7d39855d8480b0bd9c2d8acb759f6e9b9b838cf497a636040519580a48152f35b610a6c879161127d565b610a765738610a04565b8580fd5b6040513d89823e3d90fd5b60405163515b928360e01b8152600490fd5b50346101bd57806003193601126101bd57610ab0611251565b60025460ff8116610af35760019060ff1916176002557f62e78cea01bee320cd4e420270b5ea74000d11b0c9f74754ebdbfc544b05a2586020604051338152a180f35b60405163d93c066560e01b8152600490fd5b50346101bd5760203660031901126101bd576001600160a01b03610b27611184565b169081156104f95760408160209360ff9352600484522054166040519015158152f35b50346101bd5760403660031901126101bd57610b64611184565b6001600160a01b039081168252600360205260408220805460243593908410156101bd5750602092610b9591611223565b90549060031b1c16604051908152f35b50346101bd5760203660031901126101bd576020906040906001600160a01b03610bcd611184565b168152600583522054604051908152f35b50346101bd57806003193601126101bd57610bf7611251565b600080546001600160a01b0319811682556001600160a01b03167f8be0079c531659141344cd1fd0a4f28419497f9722a3daafe3b4186f6b6457e08280a380f35b50346101bd57806003193601126101bd57602060ff600254166040519015158152f35b50602090816003193601126101bd576001600160a01b039081610c7c611184565b1680156104f957662386f26fc1000034106104b757683635c9adc5dea0000034116104915780825260038452600a604083205410156104c957610cde7f0000000000000000000000000000000000000000000000000000000000000000611318565b92831692833b15610e365760405163c0c53b8b60e01b81526001600160a01b037f0000000000000000000000000000000000000000000000000000000000000000811660048301527f0000000000000000000000000000000000000000000000000000000000000000811660248301527f0000000000000000000000000000000000000000000000000000000000000000166044820152838160648183895af18015610e2b57610e16575b50610d9e9082845260038652604084206112c9565b8082526005845260408220610db381546112f3565b9055808252600384526040822054600019810192908311610e02575082907fcbd143ab29dda74d196e269af025f1c0372f07ae1c5684395b6ec105a55cd23685604051348152a4604051908152f35b634e487b7160e01b81526011600452602490fd5b92610e24610d9e929461127d565b9290610d89565b6040513d86823e3d90fd5b8280fd5b61119a565b50346101bd57806003193601126101bd57610e58611251565b60025460ff811615610e985760ff19166002557f5db9ee0a495bf2e6ff9c91a7834c1ba4fdd244a5e8aa4e537bd38aeae4b073aa6020604051338152a180f35b604051638dfc202b60e01b8152600490fd5b50346101bd57806003193601126101bd576040517f00000000000000000000000000000000000000000000000000000000000000006001600160a01b03168152602090f35b50346101bd57602080600319360112610f7b576001600160a01b039081610f14611184565b1680156104f95783908152600382526040812092604051908193808654938481520195845280842093915b838310610f62576102a386610f56818a03826112a7565b604051918291826111df565b8454811687529581019560019485019490920191610f3f565b5080fd5b50346101bd5760403660031901126101bd57610f99611184565b602435916001600160a01b039182169081156104f95760409181526003602052208054831015610a8557602092610b9591611223565b50346101bd5760203660031901126101bd576001600160a01b03610ff1611184565b1680156104f9578160409160209352600583522054604051908152f35b50346101bd57806003193601126101bd5760c060405160018060a01b03807f0000000000000000000000000000000000000000000000000000000000000000168252807f00000000000000000000000000000000000000000000000000000000000000001660208301527f0000000000000000000000000000000000000000000000000000000000000000166040820152600a6060820152662386f26fc100006080820152683635c9adc5dea0000060a0820152f35b50346101bd5760203660031901126101bd576001600160a01b036110e6611184565b1680156104f9578160409160209352600383522054604051908152f35b50346101bd5760403660031901126101bd5761111d611184565b602435611128611251565b6001600160a01b03828116156104f95781156104db57835460405163a9059cbb60e01b60208201908152929091166001600160a01b0316602482015260448101929092526105e7928492839290839061078c816064810161077e565b600435906001600160a01b038216820361079857565b34610798576000366003190112610798576040517f00000000000000000000000000000000000000000000000000000000000000006001600160a01b03168152602090f35b6020908160408183019282815285518094520193019160005b828110611206575050505090565b83516001600160a01b0316855293810193928101926001016111f8565b805482101561123b5760005260206000200190600090565b634e487b7160e01b600052603260045260246000fd5b6000546001600160a01b0316330361126557565b60405163118cdaa760e01b8152336004820152602490fd5b67ffffffffffffffff811161129157604052565b634e487b7160e01b600052604160045260246000fd5b90601f8019910116810190811067ffffffffffffffff82111761129157604052565b90815491680100000000000000008310156112915782610a189160016112f195018155611223565b565b60001981146113025760010190565b634e487b7160e01b600052601160045260246000fd5b6e5af43d82803e903d91602b57fd5bf390763d602d80600a3d3981f3363d3d373d3d3d363d7300000062ffffff8260881c161760005260781b17602052603760096000f0906001600160a01b0382161561136e57565b60405163b06ebf3d60e01b8152600490fd5b67ffffffffffffffff81116112915760051b60200190565b3d156113d3573d9067ffffffffffffffff821161129157604051916113c7601f8201601f1916602001846112a7565b82523d6000602084013e565b606090565b156113df57565b60405162461bcd60e51b815260206004820152600f60248201526e151c985b9cd9995c8819985a5b1959608a1b6044820152606490fdfea264697066735822122047d7d0f06fae835e88506ae1efca011e39d86025d67f2f66085bf52d13ab92d564736f6c63430008140033","opcodes":"PUSH2 0x100 CALLVALUE PUSH3 0x1E4 JUMPI PUSH1 0x1F PUSH3 0x1661 CODESIZE DUP2 SWAP1 SUB SWAP2 DUP3 ADD PUSH1 0x1F NOT AND DUP4 ADD SWAP3 SWAP2 SWAP1 PUSH1 0x1 PUSH1 0x1 PUSH1 0x40 SHL SUB DUP5 GT DUP4 DUP6 LT OR PUSH3 0x1E9 JUMPI DUP2 PUSH1 0x80 SWAP3 DUP5 SWAP3 PUSH1 0x40 SWAP7 DUP8 MSTORE DUP4 CODECOPY DUP2 ADD SUB SLT PUSH3 0x1E4 JUMPI PUSH3 0x52 DUP2 PUSH3 0x1FF JUMP JUMPDEST SWAP1 PUSH3 0x61 PUSH1 0x20 DUP3 ADD PUSH3 0x1FF JUMP JUMPDEST PUSH3 0x7C PUSH1 0x60 PUSH3 0x74 DUP7 DUP6 ADD PUSH3 0x1FF JUMP JUMPDEST SWAP4 ADD PUSH3 0x1FF JUMP JUMPDEST SWAP3 CALLER ISZERO PUSH3 0x1CC JUMPI PUSH1 0x0 DUP1 SLOAD CALLER PUSH1 0x1 PUSH1 0x1 PUSH1 0xA0 SHL SUB NOT DUP3 AND DUP2 OR DUP4 SSTORE DUP8 MLOAD PUSH1 0x1 PUSH1 0x1 PUSH1 0xA0 SHL SUB SWAP4 SWAP1 SWAP3 DUP5 AND SWAP1 PUSH32 0x8BE0079C531659141344CD1FD0A4F28419497F9722A3DAAFE3B4186F6B6457E0 SWAP1 DUP1 LOG3 PUSH1 0x1 DUP1 SSTORE DUP2 DUP4 AND ISZERO PUSH3 0x1BD JUMPI POP DUP1 DUP4 AND ISZERO PUSH3 0x1AC JUMPI DUP1 DUP5 AND ISZERO PUSH3 0x1AC JUMPI DUP5 AND ISZERO PUSH3 0x19B JUMPI PUSH1 0x80 MSTORE PUSH1 0xA0 MSTORE PUSH1 0xC0 MSTORE PUSH1 0xE0 MSTORE MLOAD PUSH2 0x144C SWAP1 DUP2 PUSH3 0x215 DUP3 CODECOPY PUSH1 0x80 MLOAD DUP2 DUP2 DUP2 PUSH2 0x2AC ADD MSTORE DUP2 DUP2 PUSH2 0x935 ADD MSTORE DUP2 DUP2 PUSH2 0xCBA ADD MSTORE PUSH2 0x11B0 ADD MSTORE PUSH1 0xA0 MLOAD DUP2 DUP2 DUP2 PUSH2 0x18E ADD MSTORE DUP2 DUP2 PUSH2 0x31F ADD MSTORE DUP2 DUP2 PUSH2 0x9A3 ADD MSTORE DUP2 DUP2 PUSH2 0xD28 ADD MSTORE PUSH2 0x102E ADD MSTORE PUSH1 0xC0 MLOAD DUP2 DUP2 DUP2 PUSH2 0x347 ADD MSTORE DUP2 DUP2 PUSH2 0x9CB ADD MSTORE DUP2 DUP2 PUSH2 0xD50 ADD MSTORE DUP2 DUP2 PUSH2 0xEC0 ADD MSTORE PUSH2 0x1053 ADD MSTORE PUSH1 0xE0 MLOAD DUP2 DUP2 DUP2 PUSH2 0x2F7 ADD MSTORE DUP2 DUP2 PUSH2 0x7B3 ADD MSTORE DUP2 DUP2 PUSH2 0x97B ADD MSTORE DUP2 DUP2 PUSH2 0xD00 ADD MSTORE PUSH2 0x107A ADD MSTORE RETURN JUMPDEST DUP5 MLOAD PUSH4 0xD92E233D PUSH1 0xE0 SHL DUP2 MSTORE PUSH1 0x4 SWAP1 REVERT JUMPDEST DUP6 MLOAD PUSH4 0xD92E233D PUSH1 0xE0 SHL DUP2 MSTORE PUSH1 0x4 SWAP1 REVERT JUMPDEST PUSH4 0xD92E233D PUSH1 0xE0 SHL DUP2 MSTORE PUSH1 0x4 SWAP1 REVERT JUMPDEST DUP5 MLOAD PUSH4 0x1E4FBDF7 PUSH1 0xE0 SHL DUP2 MSTORE PUSH1 0x0 PUSH1 0x4 DUP3 ADD MSTORE PUSH1 0x24 SWAP1 REVERT JUMPDEST PUSH1 0x0 DUP1 REVERT JUMPDEST PUSH4 0x4E487B71 PUSH1 0xE0 SHL PUSH1 0x0 MSTORE PUSH1 0x41 PUSH1 0x4 MSTORE PUSH1 0x24 PUSH1 0x0 REVERT JUMPDEST MLOAD SWAP1 PUSH1 0x1 PUSH1 0x1 PUSH1 0xA0 SHL SUB DUP3 AND DUP3 SUB PUSH3 0x1E4 JUMPI JUMP INVALID PUSH1 0x80 PUSH1 0x40 MSTORE PUSH1 0x4 CALLDATASIZE LT ISZERO PUSH2 0x18 JUMPI JUMPDEST CALLDATASIZE ISZERO PUSH2 0x16 JUMPI STOP JUMPDEST STOP JUMPDEST PUSH1 0x0 DUP1 CALLDATALOAD PUSH1 0xE0 SHR DUP1 PUSH4 0x6B091F9 EQ PUSH2 0x1103 JUMPI DUP1 PUSH4 0xC4CE2ED EQ PUSH2 0x10C4 JUMPI DUP1 PUSH4 0x15903763 EQ PUSH2 0x100E JUMPI DUP1 PUSH4 0x25C596CC EQ PUSH2 0xFCF JUMPI DUP1 PUSH4 0x26556753 EQ PUSH2 0xE3A JUMPI DUP1 PUSH4 0x301A2FA6 EQ PUSH2 0xF7F JUMPI DUP1 PUSH4 0x34C1D429 EQ PUSH2 0xEEF JUMPI DUP1 PUSH4 0x3D9F3163 EQ PUSH2 0xEAA JUMPI DUP1 PUSH4 0x3F4BA83A EQ PUSH2 0xE3F JUMPI DUP1 PUSH4 0x48131A06 EQ PUSH2 0xE3A JUMPI DUP1 PUSH4 0x5912642E EQ PUSH2 0xC5B JUMPI DUP1 PUSH4 0x5C975ABB EQ PUSH2 0xC38 JUMPI DUP1 PUSH4 0x715018A6 EQ PUSH2 0xBDE JUMPI DUP1 PUSH4 0x79EA7669 EQ PUSH2 0xBA5 JUMPI DUP1 PUSH4 0x7F6734D6 EQ PUSH2 0xB4A JUMPI DUP1 PUSH4 0x7FFE2B40 EQ PUSH2 0xB05 JUMPI DUP1 PUSH4 0x8456CB59 EQ PUSH2 0xA97 JUMPI DUP1 PUSH4 0x87C66739 EQ PUSH2 0x8B7 JUMPI DUP1 PUSH4 0x8DA5CB5B EQ PUSH2 0x890 JUMPI DUP1 PUSH4 0x98E9CB12 EQ PUSH2 0x821 JUMPI DUP1 PUSH4 0x9BC7C586 EQ PUSH2 0x7E2 JUMPI DUP1 PUSH4 0x9CCF88C7 EQ PUSH2 0x79D JUMPI DUP1 PUSH4 0xAD1329D1 EQ PUSH2 0x6F4 JUMPI DUP1 PUSH4 0xADF2067A EQ PUSH2 0x688 JUMPI DUP1 PUSH4 0xD5097308 EQ PUSH2 0x66C JUMPI DUP1 PUSH4 0xDD5967C3 EQ PUSH2 0x648 JUMPI DUP1 PUSH4 0xE1E158A5 EQ PUSH2 0x626 JUMPI DUP1 PUSH4 0xF14210A6 EQ PUSH2 0x59B JUMPI DUP1 PUSH4 0xF2FDE38B EQ PUSH2 0x50B JUMPI DUP1 PUSH4 0xF7E34412 EQ PUSH2 0x1C0 JUMPI PUSH4 0xF9B6117F EQ PUSH2 0x179 JUMPI POP PUSH2 0xE JUMP JUMPDEST CALLVALUE PUSH2 0x1BD JUMPI DUP1 PUSH1 0x3 NOT CALLDATASIZE ADD SLT PUSH2 0x1BD JUMPI PUSH1 0x40 MLOAD PUSH32 0x0 PUSH1 0x1 PUSH1 0x1 PUSH1 0xA0 SHL SUB AND DUP2 MSTORE PUSH1 0x20 SWAP1 RETURN JUMPDEST DUP1 REVERT JUMPDEST POP PUSH1 0x40 CALLDATASIZE PUSH1 0x3 NOT ADD SLT PUSH2 0x1BD JUMPI PUSH1 0x1 PUSH1 0x1 PUSH1 0xA0 SHL SUB PUSH2 0x1DD PUSH2 0x1184 JUMP JUMPDEST AND DUP1 ISZERO PUSH2 0x4F9 JUMPI PUSH1 0x24 CALLDATALOAD ISZERO DUP1 ISZERO PUSH2 0x4ED JUMPI JUMPDEST PUSH2 0x4DB JUMPI DUP1 DUP3 MSTORE PUSH1 0x3 PUSH1 0x20 MSTORE PUSH1 0x40 DUP3 KECCAK256 SLOAD PUSH1 0x24 CALLDATALOAD DUP2 ADD DUP1 SWAP2 GT PUSH2 0x4A3 JUMPI PUSH1 0xA LT PUSH2 0x4C9 JUMPI PUSH1 0x24 CALLDATALOAD PUSH7 0x2386F26FC10000 MUL PUSH7 0x2386F26FC10000 DUP2 DIV PUSH1 0x24 CALLDATALOAD SUB PUSH2 0x4A3 JUMPI CALLVALUE LT PUSH2 0x4B7 JUMPI PUSH9 0x3635C9ADC5DEA00000 PUSH1 0x24 CALLDATALOAD DUP2 MUL SWAP1 DUP2 DIV PUSH1 0x24 CALLDATALOAD SUB PUSH2 0x4A3 JUMPI CALLVALUE GT PUSH2 0x491 JUMPI PUSH2 0x262 PUSH1 0x24 CALLDATALOAD PUSH2 0x1380 JUMP JUMPDEST SWAP1 PUSH2 0x270 PUSH1 0x40 MLOAD SWAP3 DUP4 PUSH2 0x12A7 JUMP JUMPDEST PUSH1 0x24 CALLDATALOAD DUP3 MSTORE PUSH1 0x1F NOT PUSH2 0x283 PUSH1 0x24 CALLDATALOAD PUSH2 0x1380 JUMP JUMPDEST ADD CALLDATASIZE PUSH1 0x20 DUP5 ADD CALLDATACOPY DUP3 JUMPDEST PUSH1 0x24 CALLDATALOAD DUP2 LT PUSH2 0x2A7 JUMPI PUSH1 0x40 MLOAD DUP1 PUSH2 0x2A3 DUP6 DUP3 PUSH2 0x11DF JUMP JUMPDEST SUB SWAP1 RETURN JUMPDEST PUSH2 0x2D0 PUSH32 0x0 PUSH2 0x1318 JUMP JUMPDEST PUSH1 0x1 PUSH1 0x1 PUSH1 0xA0 SHL SUB DUP2 AND EXTCODESIZE ISZERO PUSH2 0x482 JUMPI PUSH1 0x40 MLOAD PUSH4 0xC0C53B8B PUSH1 0xE0 SHL DUP2 MSTORE PUSH1 0x1 PUSH1 0x1 PUSH1 0xA0 SHL SUB PUSH32 0x0 DUP2 AND PUSH1 0x4 DUP4 ADD MSTORE PUSH32 0x0 DUP2 AND PUSH1 0x24 DUP4 ADD MSTORE PUSH32 0x0 AND PUSH1 0x44 DUP3 ADD MSTORE DUP6 SWAP1 DUP2 DUP2 DUP1 PUSH1 0x64 DUP2 ADD SUB DUP2 DUP4 PUSH1 0x1 PUSH1 0x1 PUSH1 0xA0 SHL SUB DUP9 AND GAS CALL DUP1 ISZERO PUSH2 0x486 JUMPI PUSH2 0x46E JUMPI JUMPDEST POP DUP4 SWAP1 MSTORE PUSH1 0x3 PUSH1 0x20 MSTORE PUSH2 0x3A5 DUP2 PUSH1 0x40 DUP8 KECCAK256 PUSH2 0x12C9 JUMP JUMPDEST DUP3 DUP6 MSTORE PUSH1 0x5 PUSH1 0x20 MSTORE PUSH1 0x40 DUP6 KECCAK256 PUSH2 0x3BB DUP2 SLOAD PUSH2 0x12F3 JUMP JUMPDEST SWAP1 SSTORE DUP4 MLOAD DUP3 LT ISZERO PUSH2 0x45A JUMPI PUSH1 0x1 DUP1 PUSH1 0xA0 SHL SUB DUP2 AND PUSH1 0x20 DUP4 PUSH1 0x5 SHL DUP7 ADD ADD MSTORE DUP3 DUP6 MSTORE PUSH1 0x3 PUSH1 0x20 MSTORE PUSH1 0x40 DUP6 KECCAK256 SLOAD DUP1 PUSH1 0x0 NOT DUP2 ADD GT PUSH2 0x446 JUMPI PUSH1 0x40 MLOAD PUSH7 0x2386F26FC10000 DUP2 MSTORE PUSH2 0x441 SWAP4 SWAP3 PUSH1 0x0 NOT SWAP1 SWAP3 ADD SWAP2 PUSH1 0x1 PUSH1 0x1 PUSH1 0xA0 SHL SUB AND SWAP1 DUP6 SWAP1 PUSH32 0xCBD143AB29DDA74D196E269AF025F1C0372F07AE1C5684395B6EC105A55CD236 SWAP1 PUSH1 0x20 SWAP1 LOG4 PUSH2 0x12F3 JUMP JUMPDEST PUSH2 0x28C JUMP JUMPDEST PUSH4 0x4E487B71 PUSH1 0xE0 SHL DUP7 MSTORE PUSH1 0x11 PUSH1 0x4 MSTORE PUSH1 0x24 DUP7 REVERT JUMPDEST PUSH4 0x4E487B71 PUSH1 0xE0 SHL DUP6 MSTORE PUSH1 0x32 PUSH1 0x4 MSTORE PUSH1 0x24 DUP6 REVERT JUMPDEST PUSH2 0x477 SWAP1 PUSH2 0x127D JUMP JUMPDEST PUSH2 0x482 JUMPI DUP5 CODESIZE PUSH2 0x38F JUMP JUMPDEST DUP5 DUP1 REVERT JUMPDEST PUSH1 0x40 MLOAD RETURNDATASIZE DUP5 DUP3 RETURNDATACOPY RETURNDATASIZE SWAP1 REVERT JUMPDEST PUSH1 0x40 MLOAD PUSH4 0x496D3E11 PUSH1 0xE1 SHL DUP2 MSTORE PUSH1 0x4 SWAP1 REVERT JUMPDEST PUSH4 0x4E487B71 PUSH1 0xE0 SHL DUP4 MSTORE PUSH1 0x11 PUSH1 0x4 MSTORE PUSH1 0x24 DUP4 REVERT JUMPDEST PUSH1 0x40 MLOAD PUSH4 0x70F6EED PUSH1 0xE1 SHL DUP2 MSTORE PUSH1 0x4 SWAP1 REVERT JUMPDEST PUSH1 0x40 MLOAD PUSH4 0x61EEA575 PUSH1 0xE1 SHL DUP2 MSTORE PUSH1 0x4 SWAP1 REVERT JUMPDEST PUSH1 0x40 MLOAD PUSH4 0x1F2A2005 PUSH1 0xE0 SHL DUP2 MSTORE PUSH1 0x4 SWAP1 REVERT JUMPDEST POP PUSH1 0x5 PUSH1 0x24 CALLDATALOAD GT PUSH2 0x1EF JUMP JUMPDEST PUSH1 0x40 MLOAD PUSH4 0xD92E233D PUSH1 0xE0 SHL DUP2 MSTORE PUSH1 0x4 SWAP1 REVERT JUMPDEST POP CALLVALUE PUSH2 0x1BD JUMPI PUSH1 0x20 CALLDATASIZE PUSH1 0x3 NOT ADD SLT PUSH2 0x1BD JUMPI PUSH2 0x525 PUSH2 0x1184 JUMP JUMPDEST PUSH2 0x52D PUSH2 0x1251 JUMP JUMPDEST PUSH1 0x1 PUSH1 0x1 PUSH1 0xA0 SHL SUB SWAP1 DUP2 AND SWAP1 DUP2 ISZERO PUSH2 0x582 JUMPI PUSH1 0x0 SLOAD DUP3 PUSH12 0xFFFFFFFFFFFFFFFFFFFFFFFF PUSH1 0xA0 SHL DUP3 AND OR PUSH1 0x0 SSTORE AND PUSH32 0x8BE0079C531659141344CD1FD0A4F28419497F9722A3DAAFE3B4186F6B6457E0 PUSH1 0x0 DUP1 LOG3 DUP1 RETURN JUMPDEST PUSH1 0x40 MLOAD PUSH4 0x1E4FBDF7 PUSH1 0xE0 SHL DUP2 MSTORE PUSH1 0x4 DUP2 ADD DUP5 SWAP1 MSTORE PUSH1 0x24 SWAP1 REVERT JUMPDEST POP CALLVALUE PUSH2 0x1BD JUMPI PUSH1 0x20 CALLDATASIZE PUSH1 0x3 NOT ADD SLT PUSH2 0x1BD JUMPI PUSH1 0x4 CALLDATALOAD PUSH2 0x5B8 PUSH2 0x1251 JUMP JUMPDEST DUP1 ISZERO PUSH2 0x4DB JUMPI SELFBALANCE DUP2 GT PUSH2 0x5EA JUMPI DUP2 DUP1 DUP1 DUP1 PUSH2 0x5E7 SWAP5 PUSH1 0x1 DUP1 PUSH1 0xA0 SHL SUB DUP3 SLOAD AND GAS CALL PUSH2 0x5E1 PUSH2 0x1398 JUMP JUMPDEST POP PUSH2 0x13D8 JUMP JUMPDEST DUP1 RETURN JUMPDEST PUSH1 0x40 MLOAD PUSH3 0x461BCD PUSH1 0xE5 SHL DUP2 MSTORE PUSH1 0x20 PUSH1 0x4 DUP3 ADD MSTORE PUSH1 0x14 PUSH1 0x24 DUP3 ADD MSTORE PUSH20 0x496E73756666696369656E742062616C616E6365 PUSH1 0x60 SHL PUSH1 0x44 DUP3 ADD MSTORE PUSH1 0x64 SWAP1 REVERT JUMPDEST POP CALLVALUE PUSH2 0x1BD JUMPI DUP1 PUSH1 0x3 NOT CALLDATASIZE ADD SLT PUSH2 0x1BD JUMPI PUSH1 0x20 PUSH1 0x40 MLOAD PUSH7 0x2386F26FC10000 DUP2 MSTORE RETURN JUMPDEST POP CALLVALUE PUSH2 0x1BD JUMPI DUP1 PUSH1 0x3 NOT CALLDATASIZE ADD SLT PUSH2 0x1BD JUMPI PUSH1 0x20 PUSH1 0x40 MLOAD PUSH9 0x3635C9ADC5DEA00000 DUP2 MSTORE RETURN JUMPDEST POP CALLVALUE PUSH2 0x1BD JUMPI DUP1 PUSH1 0x3 NOT CALLDATASIZE ADD SLT PUSH2 0x1BD JUMPI PUSH1 0x20 PUSH1 0x40 MLOAD PUSH1 0xA DUP2 MSTORE RETURN JUMPDEST POP CALLVALUE PUSH2 0x1BD JUMPI PUSH1 0x20 CALLDATASIZE PUSH1 0x3 NOT ADD SLT PUSH2 0x1BD JUMPI PUSH2 0x6A2 PUSH2 0x1184 JUMP JUMPDEST PUSH2 0x6AA PUSH2 0x1251 JUMP JUMPDEST PUSH1 0x1 PUSH1 0x1 PUSH1 0xA0 SHL SUB AND DUP1 ISZERO PUSH2 0x4F9 JUMPI DUP1 DUP3 MSTORE PUSH1 0x4 PUSH1 0x20 MSTORE PUSH1 0x40 DUP3 KECCAK256 DUP1 SLOAD PUSH1 0xFF NOT AND SWAP1 SSTORE PUSH32 0xC2E555FF9A88291DE51A4E867095D0F6C64F59714F0A0BE28FC1B0D345674F57 DUP3 DUP1 LOG2 DUP1 RETURN JUMPDEST POP CALLVALUE PUSH2 0x1BD JUMPI PUSH1 0x60 CALLDATASIZE PUSH1 0x3 NOT ADD SLT PUSH2 0x1BD JUMPI PUSH2 0x70E PUSH2 0x1184 JUMP JUMPDEST PUSH1 0x24 CALLDATALOAD PUSH1 0x1 PUSH1 0x1 PUSH1 0xA0 SHL SUB DUP1 DUP3 AND DUP1 DUP4 SUB PUSH2 0x798 JUMPI PUSH1 0x44 CALLDATALOAD SWAP2 PUSH2 0x72F PUSH2 0x1251 JUMP JUMPDEST DUP5 AND ISZERO PUSH2 0x4F9 JUMPI ISZERO PUSH2 0x4F9 JUMPI DUP1 ISZERO PUSH2 0x4DB JUMPI PUSH1 0x40 MLOAD PUSH4 0xA9059CBB PUSH1 0xE0 SHL PUSH1 0x20 DUP3 ADD SWAP1 DUP2 MSTORE PUSH1 0x1 PUSH1 0x1 PUSH1 0xA0 SHL SUB SWAP1 SWAP4 AND PUSH1 0x24 DUP3 ADD MSTORE PUSH1 0x44 DUP2 ADD SWAP2 SWAP1 SWAP2 MSTORE PUSH2 0x5E7 SWAP3 DUP5 SWAP3 DUP4 SWAP3 DUP4 SWAP1 PUSH2 0x78C DUP2 PUSH1 0x64 DUP2 ADD JUMPDEST SUB PUSH1 0x1F NOT DUP2 ADD DUP4 MSTORE DUP3 PUSH2 0x12A7 JUMP JUMPDEST MLOAD SWAP3 GAS CALL PUSH2 0x5E1 PUSH2 0x1398 JUMP JUMPDEST PUSH1 0x0 DUP1 REVERT JUMPDEST POP CALLVALUE PUSH2 0x1BD JUMPI DUP1 PUSH1 0x3 NOT CALLDATASIZE ADD SLT PUSH2 0x1BD JUMPI PUSH1 0x40 MLOAD PUSH32 0x0 PUSH1 0x1 PUSH1 0x1 PUSH1 0xA0 SHL SUB AND DUP2 MSTORE PUSH1 0x20 SWAP1 RETURN JUMPDEST POP CALLVALUE PUSH2 0x1BD JUMPI PUSH1 0x20 CALLDATASIZE PUSH1 0x3 NOT ADD SLT PUSH2 0x1BD JUMPI PUSH1 0x20 SWAP1 PUSH1 0xFF SWAP1 PUSH1 0x40 SWAP1 PUSH1 0x1 PUSH1 0x1 PUSH1 0xA0 SHL SUB PUSH2 0x80D PUSH2 0x1184 JUMP JUMPDEST AND DUP2 MSTORE PUSH1 0x4 DUP5 MSTORE KECCAK256 SLOAD AND PUSH1 0x40 MLOAD SWAP1 ISZERO ISZERO DUP2 MSTORE RETURN JUMPDEST POP CALLVALUE PUSH2 0x1BD JUMPI PUSH1 0x20 CALLDATASIZE PUSH1 0x3 NOT ADD SLT PUSH2 0x1BD JUMPI PUSH2 0x83B PUSH2 0x1184 JUMP JUMPDEST PUSH2 0x843 PUSH2 0x1251 JUMP JUMPDEST PUSH1 0x1 PUSH1 0x1 PUSH1 0xA0 SHL SUB AND DUP1 ISZERO PUSH2 0x4F9 JUMPI DUP1 DUP3 MSTORE PUSH1 0x4 PUSH1 0x20 MSTORE PUSH1 0x40 DUP3 KECCAK256 DUP1 SLOAD PUSH1 0xFF NOT AND PUSH1 0x1 OR SWAP1 SSTORE PUSH32 0x4F212173E1223404AD18982E997212DFADB852B7CD98CDD495B14B58C684CDC2 DUP3 DUP1 LOG2 DUP1 RETURN JUMPDEST POP CALLVALUE PUSH2 0x1BD JUMPI DUP1 PUSH1 0x3 NOT CALLDATASIZE ADD SLT PUSH2 0x1BD JUMPI SLOAD PUSH1 0x40 MLOAD PUSH1 0x1 PUSH1 0x1 PUSH1 0xA0 SHL SUB SWAP1 SWAP2 AND DUP2 MSTORE PUSH1 0x20 SWAP1 RETURN JUMPDEST POP PUSH1 0x40 CALLDATASIZE PUSH1 0x3 NOT ADD SLT PUSH2 0x1BD JUMPI PUSH2 0x8CC PUSH2 0x1184 JUMP JUMPDEST PUSH1 0x24 CALLDATALOAD SWAP2 SWAP1 PUSH1 0x1 PUSH1 0x1 PUSH1 0xA0 SHL SUB SWAP1 DUP2 AND DUP1 ISZERO PUSH2 0x4F9 JUMPI PUSH7 0x2386F26FC10000 CALLVALUE LT PUSH2 0x4B7 JUMPI PUSH9 0x3635C9ADC5DEA00000 CALLVALUE GT PUSH2 0x491 JUMPI DUP1 DUP4 MSTORE PUSH1 0x3 PUSH1 0x20 MSTORE PUSH1 0x40 DUP4 KECCAK256 SWAP2 DUP3 SLOAD DUP6 LT ISZERO PUSH2 0xA85 JUMPI DUP1 PUSH2 0x921 DUP7 DUP6 PUSH2 0x1223 JUMP JUMPDEST SWAP1 SLOAD SWAP1 PUSH1 0x3 SHL SHR AND SWAP5 DUP6 ISZERO PUSH2 0xA85 JUMPI PUSH2 0x959 PUSH32 0x0 PUSH2 0x1318 JUMP JUMPDEST SWAP2 DUP3 AND SWAP4 DUP5 EXTCODESIZE ISZERO PUSH2 0xA76 JUMPI PUSH1 0x40 MLOAD PUSH4 0xC0C53B8B PUSH1 0xE0 SHL DUP2 MSTORE PUSH1 0x1 PUSH1 0x1 PUSH1 0xA0 SHL SUB PUSH32 0x0 DUP2 AND PUSH1 0x4 DUP4 ADD MSTORE PUSH32 0x0 DUP2 AND PUSH1 0x24 DUP4 ADD MSTORE PUSH32 0x0 AND PUSH1 0x44 DUP3 ADD MSTORE DUP7 DUP2 PUSH1 0x64 DUP2 DUP4 DUP11 GAS CALL DUP1 ISZERO PUSH2 0xA7A JUMPI PUSH2 0xA62 JUMPI JUMPDEST POP PUSH1 0x20 SWAP7 SWAP3 PUSH2 0xA18 DUP7 SWAP6 SWAP4 PUSH2 0xA37 SWAP4 PUSH2 0x1223 JUMP JUMPDEST SWAP1 SWAP2 SWAP1 DUP3 SLOAD SWAP1 PUSH1 0x3 SHL SWAP2 PUSH1 0x1 DUP1 PUSH1 0xA0 SHL SUB DUP1 SWAP2 AND DUP4 SHL SWAP3 SHL NOT AND OR SWAP1 SSTORE JUMP JUMPDEST PUSH32 0x68728588B9BD047E94C7D39855D8480B0BD9C2D8ACB759F6E9B9B838CF497A63 PUSH1 0x40 MLOAD SWAP6 DUP1 LOG4 DUP2 MSTORE RETURN JUMPDEST PUSH2 0xA6C DUP8 SWAP2 PUSH2 0x127D JUMP JUMPDEST PUSH2 0xA76 JUMPI CODESIZE PUSH2 0xA04 JUMP JUMPDEST DUP6 DUP1 REVERT JUMPDEST PUSH1 0x40 MLOAD RETURNDATASIZE DUP10 DUP3 RETURNDATACOPY RETURNDATASIZE SWAP1 REVERT JUMPDEST PUSH1 0x40 MLOAD PUSH4 0x515B9283 PUSH1 0xE0 SHL DUP2 MSTORE PUSH1 0x4 SWAP1 REVERT JUMPDEST POP CALLVALUE PUSH2 0x1BD JUMPI DUP1 PUSH1 0x3 NOT CALLDATASIZE ADD SLT PUSH2 0x1BD JUMPI PUSH2 0xAB0 PUSH2 0x1251 JUMP JUMPDEST PUSH1 0x2 SLOAD PUSH1 0xFF DUP2 AND PUSH2 0xAF3 JUMPI PUSH1 0x1 SWAP1 PUSH1 0xFF NOT AND OR PUSH1 0x2 SSTORE PUSH32 0x62E78CEA01BEE320CD4E420270B5EA74000D11B0C9F74754EBDBFC544B05A258 PUSH1 0x20 PUSH1 0x40 MLOAD CALLER DUP2 MSTORE LOG1 DUP1 RETURN JUMPDEST PUSH1 0x40 MLOAD PUSH4 0xD93C0665 PUSH1 0xE0 SHL DUP2 MSTORE PUSH1 0x4 SWAP1 REVERT JUMPDEST POP CALLVALUE PUSH2 0x1BD JUMPI PUSH1 0x20 CALLDATASIZE PUSH1 0x3 NOT ADD SLT PUSH2 0x1BD JUMPI PUSH1 0x1 PUSH1 0x1 PUSH1 0xA0 SHL SUB PUSH2 0xB27 PUSH2 0x1184 JUMP JUMPDEST AND SWAP1 DUP2 ISZERO PUSH2 0x4F9 JUMPI PUSH1 0x40 DUP2 PUSH1 0x20 SWAP4 PUSH1 0xFF SWAP4 MSTORE PUSH1 0x4 DUP5 MSTORE KECCAK256 SLOAD AND PUSH1 0x40 MLOAD SWAP1 ISZERO ISZERO DUP2 MSTORE RETURN JUMPDEST POP CALLVALUE PUSH2 0x1BD JUMPI PUSH1 0x40 CALLDATASIZE PUSH1 0x3 NOT ADD SLT PUSH2 0x1BD JUMPI PUSH2 0xB64 PUSH2 0x1184 JUMP JUMPDEST PUSH1 0x1 PUSH1 0x1 PUSH1 0xA0 SHL SUB SWAP1 DUP2 AND DUP3 MSTORE PUSH1 0x3 PUSH1 0x20 MSTORE PUSH1 0x40 DUP3 KECCAK256 DUP1 SLOAD PUSH1 0x24 CALLDATALOAD SWAP4 SWAP1 DUP5 LT ISZERO PUSH2 0x1BD JUMPI POP PUSH1 0x20 SWAP3 PUSH2 0xB95 SWAP2 PUSH2 0x1223 JUMP JUMPDEST SWAP1 SLOAD SWAP1 PUSH1 0x3 SHL SHR AND PUSH1 0x40 MLOAD SWAP1 DUP2 MSTORE RETURN JUMPDEST POP CALLVALUE PUSH2 0x1BD JUMPI PUSH1 0x20 CALLDATASIZE PUSH1 0x3 NOT ADD SLT PUSH2 0x1BD JUMPI PUSH1 0x20 SWAP1 PUSH1 0x40 SWAP1 PUSH1 0x1 PUSH1 0x1 PUSH1 0xA0 SHL SUB PUSH2 0xBCD PUSH2 0x1184 JUMP JUMPDEST AND DUP2 MSTORE PUSH1 0x5 DUP4 MSTORE KECCAK256 SLOAD PUSH1 0x40 MLOAD SWAP1 DUP2 MSTORE RETURN JUMPDEST POP CALLVALUE PUSH2 0x1BD JUMPI DUP1 PUSH1 0x3 NOT CALLDATASIZE ADD SLT PUSH2 0x1BD JUMPI PUSH2 0xBF7 PUSH2 0x1251 JUMP JUMPDEST PUSH1 0x0 DUP1 SLOAD PUSH1 0x1 PUSH1 0x1 PUSH1 0xA0 SHL SUB NOT DUP2 AND DUP3 SSTORE PUSH1 0x1 PUSH1 0x1 PUSH1 0xA0 SHL SUB AND PUSH32 0x8BE0079C531659141344CD1FD0A4F28419497F9722A3DAAFE3B4186F6B6457E0 DUP3 DUP1 LOG3 DUP1 RETURN JUMPDEST POP CALLVALUE PUSH2 0x1BD JUMPI DUP1 PUSH1 0x3 NOT CALLDATASIZE ADD SLT PUSH2 0x1BD JUMPI PUSH1 0x20 PUSH1 0xFF PUSH1 0x2 SLOAD AND PUSH1 0x40 MLOAD SWAP1 ISZERO ISZERO DUP2 MSTORE RETURN JUMPDEST POP PUSH1 0x20 SWAP1 DUP2 PUSH1 0x3 NOT CALLDATASIZE ADD SLT PUSH2 0x1BD JUMPI PUSH1 0x1 PUSH1 0x1 PUSH1 0xA0 SHL SUB SWAP1 DUP2 PUSH2 0xC7C PUSH2 0x1184 JUMP JUMPDEST AND DUP1 ISZERO PUSH2 0x4F9 JUMPI PUSH7 0x2386F26FC10000 CALLVALUE LT PUSH2 0x4B7 JUMPI PUSH9 0x3635C9ADC5DEA00000 CALLVALUE GT PUSH2 0x491 JUMPI DUP1 DUP3 MSTORE PUSH1 0x3 DUP5 MSTORE PUSH1 0xA PUSH1 0x40 DUP4 KECCAK256 SLOAD LT ISZERO PUSH2 0x4C9 JUMPI PUSH2 0xCDE PUSH32 0x0 PUSH2 0x1318 JUMP JUMPDEST SWAP3 DUP4 AND SWAP3 DUP4 EXTCODESIZE ISZERO PUSH2 0xE36 JUMPI PUSH1 0x40 MLOAD PUSH4 0xC0C53B8B PUSH1 0xE0 SHL DUP2 MSTORE PUSH1 0x1 PUSH1 0x1 PUSH1 0xA0 SHL SUB PUSH32 0x0 DUP2 AND PUSH1 0x4 DUP4 ADD MSTORE PUSH32 0x0 DUP2 AND PUSH1 0x24 DUP4 ADD MSTORE PUSH32 0x0 AND PUSH1 0x44 DUP3 ADD MSTORE DUP4 DUP2 PUSH1 0x64 DUP2 DUP4 DUP10 GAS CALL DUP1 ISZERO PUSH2 0xE2B JUMPI PUSH2 0xE16 JUMPI JUMPDEST POP PUSH2 0xD9E SWAP1 DUP3 DUP5 MSTORE PUSH1 0x3 DUP7 MSTORE PUSH1 0x40 DUP5 KECCAK256 PUSH2 0x12C9 JUMP JUMPDEST DUP1 DUP3 MSTORE PUSH1 0x5 DUP5 MSTORE PUSH1 0x40 DUP3 KECCAK256 PUSH2 0xDB3 DUP2 SLOAD PUSH2 0x12F3 JUMP JUMPDEST SWAP1 SSTORE DUP1 DUP3 MSTORE PUSH1 0x3 DUP5 MSTORE PUSH1 0x40 DUP3 KECCAK256 SLOAD PUSH1 0x0 NOT DUP2 ADD SWAP3 SWAP1 DUP4 GT PUSH2 0xE02 JUMPI POP DUP3 SWAP1 PUSH32 0xCBD143AB29DDA74D196E269AF025F1C0372F07AE1C5684395B6EC105A55CD236 DUP6 PUSH1 0x40 MLOAD CALLVALUE DUP2 MSTORE LOG4 PUSH1 0x40 MLOAD SWAP1 DUP2 MSTORE RETURN JUMPDEST PUSH4 0x4E487B71 PUSH1 0xE0 SHL DUP2 MSTORE PUSH1 0x11 PUSH1 0x4 MSTORE PUSH1 0x24 SWAP1 REVERT JUMPDEST SWAP3 PUSH2 0xE24 PUSH2 0xD9E SWAP3 SWAP5 PUSH2 0x127D JUMP JUMPDEST SWAP3 SWAP1 PUSH2 0xD89 JUMP JUMPDEST PUSH1 0x40 MLOAD RETURNDATASIZE DUP7 DUP3 RETURNDATACOPY RETURNDATASIZE SWAP1 REVERT JUMPDEST DUP3 DUP1 REVERT JUMPDEST PUSH2 0x119A JUMP JUMPDEST POP CALLVALUE PUSH2 0x1BD JUMPI DUP1 PUSH1 0x3 NOT CALLDATASIZE ADD SLT PUSH2 0x1BD JUMPI PUSH2 0xE58 PUSH2 0x1251 JUMP JUMPDEST PUSH1 0x2 SLOAD PUSH1 0xFF DUP2 AND ISZERO PUSH2 0xE98 JUMPI PUSH1 0xFF NOT AND PUSH1 0x2 SSTORE PUSH32 0x5DB9EE0A495BF2E6FF9C91A7834C1BA4FDD244A5E8AA4E537BD38AEAE4B073AA PUSH1 0x20 PUSH1 0x40 MLOAD CALLER DUP2 MSTORE LOG1 DUP1 RETURN JUMPDEST PUSH1 0x40 MLOAD PUSH4 0x8DFC202B PUSH1 0xE0 SHL DUP2 MSTORE PUSH1 0x4 SWAP1 REVERT JUMPDEST POP CALLVALUE PUSH2 0x1BD JUMPI DUP1 PUSH1 0x3 NOT CALLDATASIZE ADD SLT PUSH2 0x1BD JUMPI PUSH1 0x40 MLOAD PUSH32 0x0 PUSH1 0x1 PUSH1 0x1 PUSH1 0xA0 SHL SUB AND DUP2 MSTORE PUSH1 0x20 SWAP1 RETURN JUMPDEST POP CALLVALUE PUSH2 0x1BD JUMPI PUSH1 0x20 DUP1 PUSH1 0x3 NOT CALLDATASIZE ADD SLT PUSH2 0xF7B JUMPI PUSH1 0x1 PUSH1 0x1 PUSH1 0xA0 SHL SUB SWAP1 DUP2 PUSH2 0xF14 PUSH2 0x1184 JUMP JUMPDEST AND DUP1 ISZERO PUSH2 0x4F9 JUMPI DUP4 SWAP1 DUP2 MSTORE PUSH1 0x3 DUP3 MSTORE PUSH1 0x40 DUP2 KECCAK256 SWAP3 PUSH1 0x40 MLOAD SWAP1 DUP2 SWAP4 DUP1 DUP7 SLOAD SWAP4 DUP5 DUP2 MSTORE ADD SWAP6 DUP5 MSTORE DUP1 DUP5 KECCAK256 SWAP4 SWAP2 JUMPDEST DUP4 DUP4 LT PUSH2 0xF62 JUMPI PUSH2 0x2A3 DUP7 PUSH2 0xF56 DUP2 DUP11 SUB DUP3 PUSH2 0x12A7 JUMP JUMPDEST PUSH1 0x40 MLOAD SWAP2 DUP3 SWAP2 DUP3 PUSH2 0x11DF JUMP JUMPDEST DUP5 SLOAD DUP2 AND DUP8 MSTORE SWAP6 DUP2 ADD SWAP6 PUSH1 0x1 SWAP5 DUP6 ADD SWAP5 SWAP1 SWAP3 ADD SWAP2 PUSH2 0xF3F JUMP JUMPDEST POP DUP1 REVERT JUMPDEST POP CALLVALUE PUSH2 0x1BD JUMPI PUSH1 0x40 CALLDATASIZE PUSH1 0x3 NOT ADD SLT PUSH2 0x1BD JUMPI PUSH2 0xF99 PUSH2 0x1184 JUMP JUMPDEST PUSH1 0x24 CALLDATALOAD SWAP2 PUSH1 0x1 PUSH1 0x1 PUSH1 0xA0 SHL SUB SWAP2 DUP3 AND SWAP1 DUP2 ISZERO PUSH2 0x4F9 JUMPI PUSH1 0x40 SWAP2 DUP2 MSTORE PUSH1 0x3 PUSH1 0x20 MSTORE KECCAK256 DUP1 SLOAD DUP4 LT ISZERO PUSH2 0xA85 JUMPI PUSH1 0x20 SWAP3 PUSH2 0xB95 SWAP2 PUSH2 0x1223 JUMP JUMPDEST POP CALLVALUE PUSH2 0x1BD JUMPI PUSH1 0x20 CALLDATASIZE PUSH1 0x3 NOT ADD SLT PUSH2 0x1BD JUMPI PUSH1 0x1 PUSH1 0x1 PUSH1 0xA0 SHL SUB PUSH2 0xFF1 PUSH2 0x1184 JUMP JUMPDEST AND DUP1 ISZERO PUSH2 0x4F9 JUMPI DUP2 PUSH1 0x40 SWAP2 PUSH1 0x20 SWAP4 MSTORE PUSH1 0x5 DUP4 MSTORE KECCAK256 SLOAD PUSH1 0x40 MLOAD SWAP1 DUP2 MSTORE RETURN JUMPDEST POP CALLVALUE PUSH2 0x1BD JUMPI DUP1 PUSH1 0x3 NOT CALLDATASIZE ADD SLT PUSH2 0x1BD JUMPI PUSH1 0xC0 PUSH1 0x40 MLOAD PUSH1 0x1 DUP1 PUSH1 0xA0 SHL SUB DUP1 PUSH32 0x0 AND DUP3 MSTORE DUP1 PUSH32 0x0 AND PUSH1 0x20 DUP4 ADD MSTORE PUSH32 0x0 AND PUSH1 0x40 DUP3 ADD MSTORE PUSH1 0xA PUSH1 0x60 DUP3 ADD MSTORE PUSH7 0x2386F26FC10000 PUSH1 0x80 DUP3 ADD MSTORE PUSH9 0x3635C9ADC5DEA00000 PUSH1 0xA0 DUP3 ADD MSTORE RETURN JUMPDEST POP CALLVALUE PUSH2 0x1BD JUMPI PUSH1 0x20 CALLDATASIZE PUSH1 0x3 NOT ADD SLT PUSH2 0x1BD JUMPI PUSH1 0x1 PUSH1 0x1 PUSH1 0xA0 SHL SUB PUSH2 0x10E6 PUSH2 0x1184 JUMP JUMPDEST AND DUP1 ISZERO PUSH2 0x4F9 JUMPI DUP2 PUSH1 0x40 SWAP2 PUSH1 0x20 SWAP4 MSTORE PUSH1 0x3 DUP4 MSTORE KECCAK256 SLOAD PUSH1 0x40 MLOAD SWAP1 DUP2 MSTORE RETURN JUMPDEST POP CALLVALUE PUSH2 0x1BD JUMPI PUSH1 0x40 CALLDATASIZE PUSH1 0x3 NOT ADD SLT PUSH2 0x1BD JUMPI PUSH2 0x111D PUSH2 0x1184 JUMP JUMPDEST PUSH1 0x24 CALLDATALOAD PUSH2 0x1128 PUSH2 0x1251 JUMP JUMPDEST PUSH1 0x1 PUSH1 0x1 PUSH1 0xA0 SHL SUB DUP3 DUP2 AND ISZERO PUSH2 0x4F9 JUMPI DUP2 ISZERO PUSH2 0x4DB JUMPI DUP4 SLOAD PUSH1 0x40 MLOAD PUSH4 0xA9059CBB PUSH1 0xE0 SHL PUSH1 0x20 DUP3 ADD SWAP1 DUP2 MSTORE SWAP3 SWAP1 SWAP2 AND PUSH1 0x1 PUSH1 0x1 PUSH1 0xA0 SHL SUB AND PUSH1 0x24 DUP3 ADD MSTORE PUSH1 0x44 DUP2 ADD SWAP3 SWAP1 SWAP3 MSTORE PUSH2 0x5E7 SWAP3 DUP5 SWAP3 DUP4 SWAP3 SWAP1 DUP4 SWAP1 PUSH2 0x78C DUP2 PUSH1 0x64 DUP2 ADD PUSH2 0x77E JUMP JUMPDEST PUSH1 0x4 CALLDATALOAD SWAP1 PUSH1 0x1 PUSH1 0x1 PUSH1 0xA0 SHL SUB DUP3 AND DUP3 SUB PUSH2 0x798 JUMPI JUMP JUMPDEST CALLVALUE PUSH2 0x798 JUMPI PUSH1 0x0 CALLDATASIZE PUSH1 0x3 NOT ADD SLT PUSH2 0x798 JUMPI PUSH1 0x40 MLOAD PUSH32 0x0 PUSH1 0x1 PUSH1 0x1 PUSH1 0xA0 SHL SUB AND DUP2 MSTORE PUSH1 0x20 SWAP1 RETURN JUMPDEST PUSH1 0x20 SWAP1 DUP2 PUSH1 0x40 DUP2 DUP4 ADD SWAP3 DUP3 DUP2 MSTORE DUP6 MLOAD DUP1 SWAP5 MSTORE ADD SWAP4 ADD SWAP2 PUSH1 0x0 JUMPDEST DUP3 DUP2 LT PUSH2 0x1206 JUMPI POP POP POP POP SWAP1 JUMP JUMPDEST DUP4 MLOAD PUSH1 0x1 PUSH1 0x1 PUSH1 0xA0 SHL SUB AND DUP6 MSTORE SWAP4 DUP2 ADD SWAP4 SWAP3 DUP2 ADD SWAP3 PUSH1 0x1 ADD PUSH2 0x11F8 JUMP JUMPDEST DUP1 SLOAD DUP3 LT ISZERO PUSH2 0x123B JUMPI PUSH1 0x0 MSTORE PUSH1 0x20 PUSH1 0x0 KECCAK256 ADD SWAP1 PUSH1 0x0 SWAP1 JUMP JUMPDEST PUSH4 0x4E487B71 PUSH1 0xE0 SHL PUSH1 0x0 MSTORE PUSH1 0x32 PUSH1 0x4 MSTORE PUSH1 0x24 PUSH1 0x0 REVERT JUMPDEST PUSH1 0x0 SLOAD PUSH1 0x1 PUSH1 0x1 PUSH1 0xA0 SHL SUB AND CALLER SUB PUSH2 0x1265 JUMPI JUMP JUMPDEST PUSH1 0x40 MLOAD PUSH4 0x118CDAA7 PUSH1 0xE0 SHL DUP2 MSTORE CALLER PUSH1 0x4 DUP3 ADD MSTORE PUSH1 0x24 SWAP1 REVERT JUMPDEST PUSH8 0xFFFFFFFFFFFFFFFF DUP2 GT PUSH2 0x1291 JUMPI PUSH1 0x40 MSTORE JUMP JUMPDEST PUSH4 0x4E487B71 PUSH1 0xE0 SHL PUSH1 0x0 MSTORE PUSH1 0x41 PUSH1 0x4 MSTORE PUSH1 0x24 PUSH1 0x0 REVERT JUMPDEST SWAP1 PUSH1 0x1F DUP1 NOT SWAP2 ADD AND DUP2 ADD SWAP1 DUP2 LT PUSH8 0xFFFFFFFFFFFFFFFF DUP3 GT OR PUSH2 0x1291 JUMPI PUSH1 0x40 MSTORE JUMP JUMPDEST SWAP1 DUP2 SLOAD SWAP2 PUSH9 0x10000000000000000 DUP4 LT ISZERO PUSH2 0x1291 JUMPI DUP3 PUSH2 0xA18 SWAP2 PUSH1 0x1 PUSH2 0x12F1 SWAP6 ADD DUP2 SSTORE PUSH2 0x1223 JUMP JUMPDEST JUMP JUMPDEST PUSH1 0x0 NOT DUP2 EQ PUSH2 0x1302 JUMPI PUSH1 0x1 ADD SWAP1 JUMP JUMPDEST PUSH4 0x4E487B71 PUSH1 0xE0 SHL PUSH1 0x0 MSTORE PUSH1 0x11 PUSH1 0x4 MSTORE PUSH1 0x24 PUSH1 0x0 REVERT JUMPDEST PUSH15 0x5AF43D82803E903D91602B57FD5BF3 SWAP1 PUSH23 0x3D602D80600A3D3981F3363D3D373D3D3D363D73000000 PUSH3 0xFFFFFF DUP3 PUSH1 0x88 SHR AND OR PUSH1 0x0 MSTORE PUSH1 0x78 SHL OR PUSH1 0x20 MSTORE PUSH1 0x37 PUSH1 0x9 PUSH1 0x0 CREATE SWAP1 PUSH1 0x1 PUSH1 0x1 PUSH1 0xA0 SHL SUB DUP3 AND ISZERO PUSH2 0x136E JUMPI JUMP JUMPDEST PUSH1 0x40 MLOAD PUSH4 0xB06EBF3D PUSH1 0xE0 SHL DUP2 MSTORE PUSH1 0x4 SWAP1 REVERT JUMPDEST PUSH8 0xFFFFFFFFFFFFFFFF DUP2 GT PUSH2 0x1291 JUMPI PUSH1 0x5 SHL PUSH1 0x20 ADD SWAP1 JUMP JUMPDEST RETURNDATASIZE ISZERO PUSH2 0x13D3 JUMPI RETURNDATASIZE SWAP1 PUSH8 0xFFFFFFFFFFFFFFFF DUP3 GT PUSH2 0x1291 JUMPI PUSH1 0x40 MLOAD SWAP2 PUSH2 0x13C7 PUSH1 0x1F DUP3 ADD PUSH1 0x1F NOT AND PUSH1 0x20 ADD DUP5 PUSH2 0x12A7 JUMP JUMPDEST DUP3 MSTORE RETURNDATASIZE PUSH1 0x0 PUSH1 0x20 DUP5 ADD RETURNDATACOPY JUMP JUMPDEST PUSH1 0x60 SWAP1 JUMP JUMPDEST ISZERO PUSH2 0x13DF JUMPI JUMP JUMPDEST PUSH1 0x40 MLOAD PUSH3 0x461BCD PUSH1 0xE5 SHL DUP2 MSTORE PUSH1 0x20 PUSH1 0x4 DUP3 ADD MSTORE PUSH1 0xF PUSH1 0x24 DUP3 ADD MSTORE PUSH15 0x151C985B9CD9995C8819985A5B1959 PUSH1 0x8A SHL PUSH1 0x44 DUP3 ADD MSTORE PUSH1 0x64 SWAP1 REVERT INVALID LOG2 PUSH5 0x6970667358 0x22 SLT KECCAK256 SELFBALANCE 0xD7 0xD0 CREATE PUSH16 0xAE835E88506AE1EFCA011E39D86025D6 PUSH32 0x2F66085BF52D13AB92D564736F6C634300081400330000000000000000000000 "},"methodIdentifiers":{"MAX_BOTS_PER_USER()":"d5097308","MAX_DEPOSIT()":"dd5967c3","MIN_DEPOSIT()":"e1e158a5","authorizeToken(address)":"98e9cb12","authorizedTokens(address)":"9bc7c586","botDeploymentCount(address)":"79ea7669","botImplementation()":"48131a06","deauthorizeToken(address)":"adf2067a","deployBot(address)":"5912642e","deployMultipleBots(address,uint256)":"f7e34412","emergencyRecover(address,address,uint256)":"ad1329d1","getBotImplementation()":"26556753","getFactoryConfig()":"15903763","getUserBot(address,uint256)":"301a2fa6","getUserBotCount(address)":"0c4ce2ed","getUserBots(address)":"34c1d429","getUserDeploymentCount(address)":"25c596cc","isTokenAuthorized(address)":"7ffe2b40","lop()":"9ccf88c7","oracleAdapter()":"3d9f3163","orderManager()":"f9b6117f","owner()":"8da5cb5b","pause()":"8456cb59","paused()":"5c975abb","renounceOwnership()":"715018a6","transferOwnership(address)":"f2fde38b","unpause()":"3f4ba83a","upgradeBot(address,uint256)":"87c66739","userBots(address,uint256)":"7f6734d6","withdrawETH(uint256)":"f14210a6","withdrawTokens(address,uint256)":"06b091f9"}}}}}