{
  "_format": "hh-sol-artifact-1",
  "contractName": "inchbyinchFactory",
  "sourceName": "contracts/inchbyinchFactory.sol",
  "abi": [
    {
      "inputs": [
        {
          "internalType": "address",
          "name": "_botImplementation",
          "type": "address"
        },
        {
          "internalType": "address",
          "name": "_orderManager",
          "type": "address"
        },
        {
          "internalType": "address",
          "name": "_oracleAdapter",
          "type": "address"
        },
        {
          "internalType": "address",
          "name": "_lop",
          "type": "address"
        }
      ],
      "stateMutability": "nonpayable",
      "type": "constructor"
    },
    {
      "inputs": [],
      "name": "BotAlreadyExists",
      "type": "error"
    },
    {
      "inputs": [],
      "name": "BotDeploymentFailed",
      "type": "error"
    },
    {
      "inputs": [],
      "name": "BotNotFound",
      "type": "error"
    },
    {
      "inputs": [],
      "name": "BotUpgradeFailed",
      "type": "error"
    },
    {
      "inputs": [],
      "name": "EnforcedPause",
      "type": "error"
    },
    {
      "inputs": [],
      "name": "ExcessiveDeposit",
      "type": "error"
    },
    {
      "inputs": [],
      "name": "ExpectedPause",
      "type": "error"
    },
    {
      "inputs": [],
      "name": "FailedDeployment",
      "type": "error"
    },
    {
      "inputs": [
        {
          "internalType": "uint256",
          "name": "balance",
          "type": "uint256"
        },
        {
          "internalType": "uint256",
          "name": "needed",
          "type": "uint256"
        }
      ],
      "name": "InsufficientBalance",
      "type": "error"
    },
    {
      "inputs": [],
      "name": "InsufficientDeposit",
      "type": "error"
    },
    {
      "inputs": [],
      "name": "InvalidBotAddress",
      "type": "error"
    },
    {
      "inputs": [],
      "name": "InvalidDeposit",
      "type": "error"
    },
    {
      "inputs": [
        {
          "internalType": "address",
          "name": "owner",
          "type": "address"
        }
      ],
      "name": "OwnableInvalidOwner",
      "type": "error"
    },
    {
      "inputs": [
        {
          "internalType": "address",
          "name": "account",
          "type": "address"
        }
      ],
      "name": "OwnableUnauthorizedAccount",
      "type": "error"
    },
    {
      "inputs": [],
      "name": "ReentrancyGuardReentrantCall",
      "type": "error"
    },
    {
      "inputs": [],
      "name": "UnauthorizedToken",
      "type": "error"
    },
    {
      "inputs": [],
      "name": "UserLimitExceeded",
      "type": "error"
    },
    {
      "inputs": [],
      "name": "ZeroAddress",
      "type": "error"
    },
    {
      "inputs": [],
      "name": "ZeroAmount",
      "type": "error"
    },
    {
      "anonymous": false,
      "inputs": [
        {
          "indexed": true,
          "internalType": "address",
          "name": "user",
          "type": "address"
        },
        {
          "indexed": true,
          "internalType": "address",
          "name": "bot",
          "type": "address"
        },
        {
          "indexed": true,
          "internalType": "uint256",
          "name": "botIndex",
          "type": "uint256"
        },
        {
          "indexed": false,
          "internalType": "uint256",
          "name": "deploymentCost",
          "type": "uint256"
        }
      ],
      "name": "BotDeployed",
      "type": "event"
    },
    {
      "anonymous": false,
      "inputs": [
        {
          "indexed": true,
          "internalType": "address",
          "name": "user",
          "type": "address"
        },
        {
          "indexed": true,
          "internalType": "address",
          "name": "oldBot",
          "type": "address"
        },
        {
          "indexed": true,
          "internalType": "address",
          "name": "newBot",
          "type": "address"
        }
      ],
      "name": "BotUpgraded",
      "type": "event"
    },
    {
      "anonymous": false,
      "inputs": [
        {
          "indexed": false,
          "internalType": "uint256",
          "name": "minDeposit",
          "type": "uint256"
        },
        {
          "indexed": false,
          "internalType": "uint256",
          "name": "maxDeposit",
          "type": "uint256"
        }
      ],
      "name": "DepositLimitsUpdated",
      "type": "event"
    },
    {
      "anonymous": false,
      "inputs": [
        {
          "indexed": true,
          "internalType": "address",
          "name": "previousOwner",
          "type": "address"
        },
        {
          "indexed": true,
          "internalType": "address",
          "name": "newOwner",
          "type": "address"
        }
      ],
      "name": "OwnershipTransferred",
      "type": "event"
    },
    {
      "anonymous": false,
      "inputs": [
        {
          "indexed": false,
          "internalType": "address",
          "name": "account",
          "type": "address"
        }
      ],
      "name": "Paused",
      "type": "event"
    },
    {
      "anonymous": false,
      "inputs": [
        {
          "indexed": true,
          "internalType": "address",
          "name": "token",
          "type": "address"
        }
      ],
      "name": "TokenAuthorized",
      "type": "event"
    },
    {
      "anonymous": false,
      "inputs": [
        {
          "indexed": true,
          "internalType": "address",
          "name": "token",
          "type": "address"
        }
      ],
      "name": "TokenDeauthorized",
      "type": "event"
    },
    {
      "anonymous": false,
      "inputs": [
        {
          "indexed": false,
          "internalType": "address",
          "name": "account",
          "type": "address"
        }
      ],
      "name": "Unpaused",
      "type": "event"
    },
    {
      "anonymous": false,
      "inputs": [
        {
          "indexed": false,
          "internalType": "uint256",
          "name": "newLimit",
          "type": "uint256"
        }
      ],
      "name": "UserLimitUpdated",
      "type": "event"
    },
    {
      "stateMutability": "payable",
      "type": "fallback"
    },
    {
      "inputs": [],
      "name": "MAX_BOTS_PER_USER",
      "outputs": [
        {
          "internalType": "uint256",
          "name": "",
          "type": "uint256"
        }
      ],
      "stateMutability": "view",
      "type": "function"
    },
    {
      "inputs": [],
      "name": "MAX_DEPOSIT",
      "outputs": [
        {
          "internalType": "uint256",
          "name": "",
          "type": "uint256"
        }
      ],
      "stateMutability": "view",
      "type": "function"
    },
    {
      "inputs": [],
      "name": "MIN_DEPOSIT",
      "outputs": [
        {
          "internalType": "uint256",
          "name": "",
          "type": "uint256"
        }
      ],
      "stateMutability": "view",
      "type": "function"
    },
    {
      "inputs": [
        {
          "internalType": "address",
          "name": "token",
          "type": "address"
        }
      ],
      "name": "authorizeToken",
      "outputs": [],
      "stateMutability": "nonpayable",
      "type": "function"
    },
    {
      "inputs": [
        {
          "internalType": "address",
          "name": "",
          "type": "address"
        }
      ],
      "name": "authorizedTokens",
      "outputs": [
        {
          "internalType": "bool",
          "name": "",
          "type": "bool"
        }
      ],
      "stateMutability": "view",
      "type": "function"
    },
    {
      "inputs": [
        {
          "internalType": "address",
          "name": "",
          "type": "address"
        }
      ],
      "name": "botDeploymentCount",
      "outputs": [
        {
          "internalType": "uint256",
          "name": "",
          "type": "uint256"
        }
      ],
      "stateMutability": "view",
      "type": "function"
    },
    {
      "inputs": [],
      "name": "botImplementation",
      "outputs": [
        {
          "internalType": "address",
          "name": "",
          "type": "address"
        }
      ],
      "stateMutability": "view",
      "type": "function"
    },
    {
      "inputs": [
        {
          "internalType": "address",
          "name": "token",
          "type": "address"
        }
      ],
      "name": "deauthorizeToken",
      "outputs": [],
      "stateMutability": "nonpayable",
      "type": "function"
    },
    {
      "inputs": [
        {
          "internalType": "address",
          "name": "user",
          "type": "address"
        }
      ],
      "name": "deployBot",
      "outputs": [
        {
          "internalType": "address",
          "name": "bot",
          "type": "address"
        }
      ],
      "stateMutability": "payable",
      "type": "function"
    },
    {
      "inputs": [
        {
          "internalType": "address",
          "name": "user",
          "type": "address"
        },
        {
          "internalType": "uint256",
          "name": "count",
          "type": "uint256"
        }
      ],
      "name": "deployMultipleBots",
      "outputs": [
        {
          "internalType": "address[]",
          "name": "bots",
          "type": "address[]"
        }
      ],
      "stateMutability": "payable",
      "type": "function"
    },
    {
      "inputs": [
        {
          "internalType": "address",
          "name": "token",
          "type": "address"
        },
        {
          "internalType": "address",
          "name": "to",
          "type": "address"
        },
        {
          "internalType": "uint256",
          "name": "amount",
          "type": "uint256"
        }
      ],
      "name": "emergencyRecover",
      "outputs": [],
      "stateMutability": "nonpayable",
      "type": "function"
    },
    {
      "inputs": [],
      "name": "getBotImplementation",
      "outputs": [
        {
          "internalType": "address",
          "name": "implementation",
          "type": "address"
        }
      ],
      "stateMutability": "view",
      "type": "function"
    },
    {
      "inputs": [],
      "name": "getFactoryConfig",
      "outputs": [
        {
          "internalType": "address",
          "name": "_orderManager",
          "type": "address"
        },
        {
          "internalType": "address",
          "name": "_oracleAdapter",
          "type": "address"
        },
        {
          "internalType": "address",
          "name": "_lop",
          "type": "address"
        },
        {
          "internalType": "uint256",
          "name": "_maxBotsPerUser",
          "type": "uint256"
        },
        {
          "internalType": "uint256",
          "name": "_minDeposit",
          "type": "uint256"
        },
        {
          "internalType": "uint256",
          "name": "_maxDeposit",
          "type": "uint256"
        }
      ],
      "stateMutability": "view",
      "type": "function"
    },
    {
      "inputs": [
        {
          "internalType": "address",
          "name": "user",
          "type": "address"
        },
        {
          "internalType": "uint256",
          "name": "botIndex",
          "type": "uint256"
        }
      ],
      "name": "getUserBot",
      "outputs": [
        {
          "internalType": "address",
          "name": "bot",
          "type": "address"
        }
      ],
      "stateMutability": "view",
      "type": "function"
    },
    {
      "inputs": [
        {
          "internalType": "address",
          "name": "user",
          "type": "address"
        }
      ],
      "name": "getUserBotCount",
      "outputs": [
        {
          "internalType": "uint256",
          "name": "count",
          "type": "uint256"
        }
      ],
      "stateMutability": "view",
      "type": "function"
    },
    {
      "inputs": [
        {
          "internalType": "address",
          "name": "user",
          "type": "address"
        }
      ],
      "name": "getUserBots",
      "outputs": [
        {
          "internalType": "address[]",
          "name": "bots",
          "type": "address[]"
        }
      ],
      "stateMutability": "view",
      "type": "function"
    },
    {
      "inputs": [
        {
          "internalType": "address",
          "name": "user",
          "type": "address"
        }
      ],
      "name": "getUserDeploymentCount",
      "outputs": [
        {
          "internalType": "uint256",
          "name": "count",
          "type": "uint256"
        }
      ],
      "stateMutability": "view",
      "type": "function"
    },
    {
      "inputs": [
        {
          "internalType": "address",
          "name": "token",
          "type": "address"
        }
      ],
      "name": "isTokenAuthorized",
      "outputs": [
        {
          "internalType": "bool",
          "name": "isAuthorized",
          "type": "bool"
        }
      ],
      "stateMutability": "view",
      "type": "function"
    },
    {
      "inputs": [],
      "name": "lop",
      "outputs": [
        {
          "internalType": "address",
          "name": "",
          "type": "address"
        }
      ],
      "stateMutability": "view",
      "type": "function"
    },
    {
      "inputs": [],
      "name": "oracleAdapter",
      "outputs": [
        {
          "internalType": "address",
          "name": "",
          "type": "address"
        }
      ],
      "stateMutability": "view",
      "type": "function"
    },
    {
      "inputs": [],
      "name": "orderManager",
      "outputs": [
        {
          "internalType": "address",
          "name": "",
          "type": "address"
        }
      ],
      "stateMutability": "view",
      "type": "function"
    },
    {
      "inputs": [],
      "name": "owner",
      "outputs": [
        {
          "internalType": "address",
          "name": "",
          "type": "address"
        }
      ],
      "stateMutability": "view",
      "type": "function"
    },
    {
      "inputs": [],
      "name": "pause",
      "outputs": [],
      "stateMutability": "nonpayable",
      "type": "function"
    },
    {
      "inputs": [],
      "name": "paused",
      "outputs": [
        {
          "internalType": "bool",
          "name": "",
          "type": "bool"
        }
      ],
      "stateMutability": "view",
      "type": "function"
    },
    {
      "inputs": [],
      "name": "renounceOwnership",
      "outputs": [],
      "stateMutability": "nonpayable",
      "type": "function"
    },
    {
      "inputs": [
        {
          "internalType": "address",
          "name": "newOwner",
          "type": "address"
        }
      ],
      "name": "transferOwnership",
      "outputs": [],
      "stateMutability": "nonpayable",
      "type": "function"
    },
    {
      "inputs": [],
      "name": "unpause",
      "outputs": [],
      "stateMutability": "nonpayable",
      "type": "function"
    },
    {
      "inputs": [
        {
          "internalType": "address",
          "name": "user",
          "type": "address"
        },
        {
          "internalType": "uint256",
          "name": "botIndex",
          "type": "uint256"
        }
      ],
      "name": "upgradeBot",
      "outputs": [
        {
          "internalType": "address",
          "name": "newBot",
          "type": "address"
        }
      ],
      "stateMutability": "payable",
      "type": "function"
    },
    {
      "inputs": [
        {
          "internalType": "address",
          "name": "",
          "type": "address"
        },
        {
          "internalType": "uint256",
          "name": "",
          "type": "uint256"
        }
      ],
      "name": "userBots",
      "outputs": [
        {
          "internalType": "address",
          "name": "",
          "type": "address"
        }
      ],
      "stateMutability": "view",
      "type": "function"
    },
    {
      "inputs": [
        {
          "internalType": "uint256",
          "name": "amount",
          "type": "uint256"
        }
      ],
      "name": "withdrawETH",
      "outputs": [],
      "stateMutability": "nonpayable",
      "type": "function"
    },
    {
      "inputs": [
        {
          "internalType": "address",
          "name": "token",
          "type": "address"
        },
        {
          "internalType": "uint256",
          "name": "amount",
          "type": "uint256"
        }
      ],
      "name": "withdrawTokens",
      "outputs": [],
      "stateMutability": "nonpayable",
      "type": "function"
    },
    {
      "stateMutability": "payable",
      "type": "receive"
    }
  ],
  "bytecode": "0x61010034620001e457601f6200166138819003918201601f191683019291906001600160401b03841183851017620001e9578160809284926040968752833981010312620001e4576200005281620001ff565b906200006160208201620001ff565b6200007c606062000074868501620001ff565b9301620001ff565b923315620001cc5760008054336001600160a01b031982168117835587516001600160a01b039390928416907f8be0079c531659141344cd1fd0a4f28419497f9722a3daafe3b4186f6b6457e09080a36001805581831615620001bd575080831615620001ac5780841615620001ac578416156200019b5760805260a05260c05260e0525161144c90816200021582396080518181816102ac0152818161093501528181610cba01526111b0015260a05181818161018e0152818161031f015281816109a301528181610d28015261102e015260c051818181610347015281816109cb01528181610d5001528181610ec00152611053015260e0518181816102f7015281816107b30152818161097b01528181610d00015261107a0152f35b845163d92e233d60e01b8152600490fd5b855163d92e233d60e01b8152600490fd5b63d92e233d60e01b8152600490fd5b8451631e4fbdf760e01b815260006004820152602490fd5b600080fd5b634e487b7160e01b600052604160045260246000fd5b51906001600160a01b0382168203620001e45756fe60806040526004361015610018575b361561001657005b005b6000803560e01c806306b091f9146111035780630c4ce2ed146110c4578063159037631461100e57806325c596cc14610fcf5780632655675314610e3a578063301a2fa614610f7f57806334c1d42914610eef5780633d9f316314610eaa5780633f4ba83a14610e3f57806348131a0614610e3a5780635912642e14610c5b5780635c975abb14610c38578063715018a614610bde57806379ea766914610ba55780637f6734d614610b4a5780637ffe2b4014610b055780638456cb5914610a9757806387c66739146108b75780638da5cb5b1461089057806398e9cb12146108215780639bc7c586146107e25780639ccf88c71461079d578063ad1329d1146106f4578063adf2067a14610688578063d50973081461066c578063dd5967c314610648578063e1e158a514610626578063f14210a61461059b578063f2fde38b1461050b578063f7e34412146101c05763f9b6117f14610179575061000e565b346101bd57806003193601126101bd576040517f00000000000000000000000000000000000000000000000000000000000000006001600160a01b03168152602090f35b80fd5b5060403660031901126101bd576001600160a01b036101dd611184565b1680156104f9576024351580156104ed575b6104db578082526003602052604082205460243581018091116104a357600a106104c957602435662386f26fc1000002662386f26fc100008104602435036104a35734106104b757683635c9adc5dea000006024358102908104602435036104a357341161049157610262602435611380565b9061027060405192836112a7565b6024358252601f19610283602435611380565b01366020840137825b60243581106102a757604051806102a385826111df565b0390f35b6102d07f0000000000000000000000000000000000000000000000000000000000000000611318565b6001600160a01b0381163b156104825760405163c0c53b8b60e01b81526001600160a01b037f0000000000000000000000000000000000000000000000000000000000000000811660048301527f0000000000000000000000000000000000000000000000000000000000000000811660248301527f00000000000000000000000000000000000000000000000000000000000000001660448201528590818180606481010381836001600160a01b0388165af180156104865761046e575b5083905260036020526103a581604087206112c9565b8285526005602052604085206103bb81546112f3565b9055835182101561045a5760018060a01b03811660208360051b86010152828552600360205260408520548060001981011161044657604051662386f26fc1000081526104419392600019909201916001600160a01b03169085907fcbd143ab29dda74d196e269af025f1c0372f07ae1c5684395b6ec105a55cd23690602090a46112f3565b61028c565b634e487b7160e01b86526011600452602486fd5b634e487b7160e01b85526032600452602485fd5b6104779061127d565b61048257843861038f565b8480fd5b6040513d84823e3d90fd5b60405163496d3e1160e11b8152600490fd5b634e487b7160e01b83526011600452602483fd5b60405163070f6eed60e11b8152600490fd5b6040516361eea57560e11b8152600490fd5b604051631f2a200560e01b8152600490fd5b506005602435116101ef565b60405163d92e233d60e01b8152600490fd5b50346101bd5760203660031901126101bd57610525611184565b61052d611251565b6001600160a01b0390811690811561058257600054826bffffffffffffffffffffffff60a01b821617600055167f8be0079c531659141344cd1fd0a4f28419497f9722a3daafe3b4186f6b6457e0600080a380f35b604051631e4fbdf760e01b815260048101849052602490fd5b50346101bd5760203660031901126101bd576004356105b8611251565b80156104db574781116105ea57818080806105e79460018060a01b038254165af16105e1611398565b506113d8565b80f35b60405162461bcd60e51b8152602060048201526014602482015273496e73756666696369656e742062616c616e636560601b6044820152606490fd5b50346101bd57806003193601126101bd576020604051662386f26fc100008152f35b50346101bd57806003193601126101bd576020604051683635c9adc5dea000008152f35b50346101bd57806003193601126101bd576020604051600a8152f35b50346101bd5760203660031901126101bd576106a2611184565b6106aa611251565b6001600160a01b031680156104f957808252600460205260408220805460ff191690557fc2e555ff9a88291de51a4e867095d0f6c64f59714f0a0be28fc1b0d345674f578280a280f35b50346101bd5760603660031901126101bd5761070e611184565b6024356001600160a01b03808216808303610798576044359161072f611251565b8416156104f957156104f95780156104db5760405163a9059cbb60e01b602082019081526001600160a01b03909316602482015260448101919091526105e79284928392839061078c81606481015b03601f1981018352826112a7565b51925af16105e1611398565b600080fd5b50346101bd57806003193601126101bd576040517f00000000000000000000000000000000000000000000000000000000000000006001600160a01b03168152602090f35b50346101bd5760203660031901126101bd5760209060ff906040906001600160a01b0361080d611184565b168152600484522054166040519015158152f35b50346101bd5760203660031901126101bd5761083b611184565b610843611251565b6001600160a01b031680156104f957808252600460205260408220805460ff191660011790557f4f212173e1223404ad18982e997212dfadb852b7cd98cdd495b14b58c684cdc28280a280f35b50346101bd57806003193601126101bd57546040516001600160a01b039091168152602090f35b5060403660031901126101bd576108cc611184565b60243591906001600160a01b0390811680156104f957662386f26fc1000034106104b757683635c9adc5dea00000341161049157808352600360205260408320918254851015610a8557806109218685611223565b90549060031b1c16948515610a85576109597f0000000000000000000000000000000000000000000000000000000000000000611318565b91821693843b15610a765760405163c0c53b8b60e01b81526001600160a01b037f0000000000000000000000000000000000000000000000000000000000000000811660048301527f0000000000000000000000000000000000000000000000000000000000000000811660248301527f00000000000000000000000000000000000000000000000000000000000000001660448201528681606481838a5af18015610a7a57610a62575b5060209692610a18869593610a3793611223565b90919082549060031b9160018060a01b03809116831b921b1916179055565b7f68728588b9bd047e94c7d39855d8480b0bd9c2d8acb759f6e9b9b838cf497a636040519580a48152f35b610a6c879161127d565b610a765738610a04565b8580fd5b6040513d89823e3d90fd5b60405163515b928360e01b8152600490fd5b50346101bd57806003193601126101bd57610ab0611251565b60025460ff8116610af35760019060ff1916176002557f62e78cea01bee320cd4e420270b5ea74000d11b0c9f74754ebdbfc544b05a2586020604051338152a180f35b60405163d93c066560e01b8152600490fd5b50346101bd5760203660031901126101bd576001600160a01b03610b27611184565b169081156104f95760408160209360ff9352600484522054166040519015158152f35b50346101bd5760403660031901126101bd57610b64611184565b6001600160a01b039081168252600360205260408220805460243593908410156101bd5750602092610b9591611223565b90549060031b1c16604051908152f35b50346101bd5760203660031901126101bd576020906040906001600160a01b03610bcd611184565b168152600583522054604051908152f35b50346101bd57806003193601126101bd57610bf7611251565b600080546001600160a01b0319811682556001600160a01b03167f8be0079c531659141344cd1fd0a4f28419497f9722a3daafe3b4186f6b6457e08280a380f35b50346101bd57806003193601126101bd57602060ff600254166040519015158152f35b50602090816003193601126101bd576001600160a01b039081610c7c611184565b1680156104f957662386f26fc1000034106104b757683635c9adc5dea0000034116104915780825260038452600a604083205410156104c957610cde7f0000000000000000000000000000000000000000000000000000000000000000611318565b92831692833b15610e365760405163c0c53b8b60e01b81526001600160a01b037f0000000000000000000000000000000000000000000000000000000000000000811660048301527f0000000000000000000000000000000000000000000000000000000000000000811660248301527f0000000000000000000000000000000000000000000000000000000000000000166044820152838160648183895af18015610e2b57610e16575b50610d9e9082845260038652604084206112c9565b8082526005845260408220610db381546112f3565b9055808252600384526040822054600019810192908311610e02575082907fcbd143ab29dda74d196e269af025f1c0372f07ae1c5684395b6ec105a55cd23685604051348152a4604051908152f35b634e487b7160e01b81526011600452602490fd5b92610e24610d9e929461127d565b9290610d89565b6040513d86823e3d90fd5b8280fd5b61119a565b50346101bd57806003193601126101bd57610e58611251565b60025460ff811615610e985760ff19166002557f5db9ee0a495bf2e6ff9c91a7834c1ba4fdd244a5e8aa4e537bd38aeae4b073aa6020604051338152a180f35b604051638dfc202b60e01b8152600490fd5b50346101bd57806003193601126101bd576040517f00000000000000000000000000000000000000000000000000000000000000006001600160a01b03168152602090f35b50346101bd57602080600319360112610f7b576001600160a01b039081610f14611184565b1680156104f95783908152600382526040812092604051908193808654938481520195845280842093915b838310610f62576102a386610f56818a03826112a7565b604051918291826111df565b8454811687529581019560019485019490920191610f3f565b5080fd5b50346101bd5760403660031901126101bd57610f99611184565b602435916001600160a01b039182169081156104f95760409181526003602052208054831015610a8557602092610b9591611223565b50346101bd5760203660031901126101bd576001600160a01b03610ff1611184565b1680156104f9578160409160209352600583522054604051908152f35b50346101bd57806003193601126101bd5760c060405160018060a01b03807f0000000000000000000000000000000000000000000000000000000000000000168252807f00000000000000000000000000000000000000000000000000000000000000001660208301527f0000000000000000000000000000000000000000000000000000000000000000166040820152600a6060820152662386f26fc100006080820152683635c9adc5dea0000060a0820152f35b50346101bd5760203660031901126101bd576001600160a01b036110e6611184565b1680156104f9578160409160209352600383522054604051908152f35b50346101bd5760403660031901126101bd5761111d611184565b602435611128611251565b6001600160a01b03828116156104f95781156104db57835460405163a9059cbb60e01b60208201908152929091166001600160a01b0316602482015260448101929092526105e7928492839290839061078c816064810161077e565b600435906001600160a01b038216820361079857565b34610798576000366003190112610798576040517f00000000000000000000000000000000000000000000000000000000000000006001600160a01b03168152602090f35b6020908160408183019282815285518094520193019160005b828110611206575050505090565b83516001600160a01b0316855293810193928101926001016111f8565b805482101561123b5760005260206000200190600090565b634e487b7160e01b600052603260045260246000fd5b6000546001600160a01b0316330361126557565b60405163118cdaa760e01b8152336004820152602490fd5b67ffffffffffffffff811161129157604052565b634e487b7160e01b600052604160045260246000fd5b90601f8019910116810190811067ffffffffffffffff82111761129157604052565b90815491680100000000000000008310156112915782610a189160016112f195018155611223565b565b60001981146113025760010190565b634e487b7160e01b600052601160045260246000fd5b6e5af43d82803e903d91602b57fd5bf390763d602d80600a3d3981f3363d3d373d3d3d363d7300000062ffffff8260881c161760005260781b17602052603760096000f0906001600160a01b0382161561136e57565b60405163b06ebf3d60e01b8152600490fd5b67ffffffffffffffff81116112915760051b60200190565b3d156113d3573d9067ffffffffffffffff821161129157604051916113c7601f8201601f1916602001846112a7565b82523d6000602084013e565b606090565b156113df57565b60405162461bcd60e51b815260206004820152600f60248201526e151c985b9cd9995c8819985a5b1959608a1b6044820152606490fdfea264697066735822122047d7d0f06fae835e88506ae1efca011e39d86025d67f2f66085bf52d13ab92d564736f6c63430008140033",
  "linkReferences": {},
  "deployedLinkReferences": {}
}