{
  "_format": "hh-sol-artifact-1",
  "contractName": "inchbyinchFactory",
  "sourceName": "contracts/inchbyinchFactory.sol",
  "abi": [
    {
      "inputs": [
        {
          "internalType": "address",
          "name": "_botImplementation",
          "type": "address"
        },
        {
          "internalType": "address",
          "name": "_orderManager",
          "type": "address"
        },
        {
          "internalType": "address",
          "name": "_oracleAdapter",
          "type": "address"
        },
        {
          "internalType": "address",
          "name": "_lop",
          "type": "address"
        }
      ],
      "stateMutability": "nonpayable",
      "type": "constructor"
    },
    {
      "inputs": [],
      "name": "BotAlreadyExists",
      "type": "error"
    },
    {
      "inputs": [],
      "name": "BotDeploymentFailed",
      "type": "error"
    },
    {
      "inputs": [],
      "name": "BotNotFound",
      "type": "error"
    },
    {
      "inputs": [],
      "name": "BotUpgradeFailed",
      "type": "error"
    },
    {
      "inputs": [],
      "name": "EnforcedPause",
      "type": "error"
    },
    {
      "inputs": [],
      "name": "ExcessiveDeposit",
      "type": "error"
    },
    {
      "inputs": [],
      "name": "ExpectedPause",
      "type": "error"
    },
    {
      "inputs": [],
      "name": "FailedDeployment",
      "type": "error"
    },
    {
      "inputs": [
        {
          "internalType": "uint256",
          "name": "balance",
          "type": "uint256"
        },
        {
          "internalType": "uint256",
          "name": "needed",
          "type": "uint256"
        }
      ],
      "name": "InsufficientBalance",
      "type": "error"
    },
    {
      "inputs": [],
      "name": "InsufficientDeposit",
      "type": "error"
    },
    {
      "inputs": [],
      "name": "InvalidBotAddress",
      "type": "error"
    },
    {
      "inputs": [],
      "name": "InvalidDeposit",
      "type": "error"
    },
    {
      "inputs": [
        {
          "internalType": "address",
          "name": "owner",
          "type": "address"
        }
      ],
      "name": "OwnableInvalidOwner",
      "type": "error"
    },
    {
      "inputs": [
        {
          "internalType": "address",
          "name": "account",
          "type": "address"
        }
      ],
      "name": "OwnableUnauthorizedAccount",
      "type": "error"
    },
    {
      "inputs": [],
      "name": "ReentrancyGuardReentrantCall",
      "type": "error"
    },
    {
      "inputs": [],
      "name": "UnauthorizedToken",
      "type": "error"
    },
    {
      "inputs": [],
      "name": "UserLimitExceeded",
      "type": "error"
    },
    {
      "inputs": [],
      "name": "ZeroAddress",
      "type": "error"
    },
    {
      "inputs": [],
      "name": "ZeroAmount",
      "type": "error"
    },
    {
      "anonymous": false,
      "inputs": [
        {
          "indexed": true,
          "internalType": "address",
          "name": "user",
          "type": "address"
        },
        {
          "indexed": true,
          "internalType": "address",
          "name": "bot",
          "type": "address"
        },
        {
          "indexed": true,
          "internalType": "uint256",
          "name": "botIndex",
          "type": "uint256"
        },
        {
          "indexed": false,
          "internalType": "uint256",
          "name": "deploymentCost",
          "type": "uint256"
        }
      ],
      "name": "BotDeployed",
      "type": "event"
    },
    {
      "anonymous": false,
      "inputs": [
        {
          "indexed": true,
          "internalType": "address",
          "name": "user",
          "type": "address"
        },
        {
          "indexed": true,
          "internalType": "address",
          "name": "oldBot",
          "type": "address"
        },
        {
          "indexed": true,
          "internalType": "address",
          "name": "newBot",
          "type": "address"
        }
      ],
      "name": "BotUpgraded",
      "type": "event"
    },
    {
      "anonymous": false,
      "inputs": [
        {
          "indexed": false,
          "internalType": "uint256",
          "name": "minDeposit",
          "type": "uint256"
        },
        {
          "indexed": false,
          "internalType": "uint256",
          "name": "maxDeposit",
          "type": "uint256"
        }
      ],
      "name": "DepositLimitsUpdated",
      "type": "event"
    },
    {
      "anonymous": false,
      "inputs": [
        {
          "indexed": true,
          "internalType": "address",
          "name": "previousOwner",
          "type": "address"
        },
        {
          "indexed": true,
          "internalType": "address",
          "name": "newOwner",
          "type": "address"
        }
      ],
      "name": "OwnershipTransferred",
      "type": "event"
    },
    {
      "anonymous": false,
      "inputs": [
        {
          "indexed": false,
          "internalType": "address",
          "name": "account",
          "type": "address"
        }
      ],
      "name": "Paused",
      "type": "event"
    },
    {
      "anonymous": false,
      "inputs": [
        {
          "indexed": true,
          "internalType": "address",
          "name": "token",
          "type": "address"
        }
      ],
      "name": "TokenAuthorized",
      "type": "event"
    },
    {
      "anonymous": false,
      "inputs": [
        {
          "indexed": true,
          "internalType": "address",
          "name": "token",
          "type": "address"
        }
      ],
      "name": "TokenDeauthorized",
      "type": "event"
    },
    {
      "anonymous": false,
      "inputs": [
        {
          "indexed": false,
          "internalType": "address",
          "name": "account",
          "type": "address"
        }
      ],
      "name": "Unpaused",
      "type": "event"
    },
    {
      "anonymous": false,
      "inputs": [
        {
          "indexed": false,
          "internalType": "uint256",
          "name": "newLimit",
          "type": "uint256"
        }
      ],
      "name": "UserLimitUpdated",
      "type": "event"
    },
    {
      "stateMutability": "payable",
      "type": "fallback"
    },
    {
      "inputs": [],
      "name": "MAX_BOTS_PER_USER",
      "outputs": [
        {
          "internalType": "uint256",
          "name": "",
          "type": "uint256"
        }
      ],
      "stateMutability": "view",
      "type": "function"
    },
    {
      "inputs": [],
      "name": "MAX_DEPOSIT",
      "outputs": [
        {
          "internalType": "uint256",
          "name": "",
          "type": "uint256"
        }
      ],
      "stateMutability": "view",
      "type": "function"
    },
    {
      "inputs": [],
      "name": "MIN_DEPOSIT",
      "outputs": [
        {
          "internalType": "uint256",
          "name": "",
          "type": "uint256"
        }
      ],
      "stateMutability": "view",
      "type": "function"
    },
    {
      "inputs": [
        {
          "internalType": "address",
          "name": "token",
          "type": "address"
        }
      ],
      "name": "authorizeToken",
      "outputs": [],
      "stateMutability": "nonpayable",
      "type": "function"
    },
    {
      "inputs": [
        {
          "internalType": "address",
          "name": "",
          "type": "address"
        }
      ],
      "name": "authorizedTokens",
      "outputs": [
        {
          "internalType": "bool",
          "name": "",
          "type": "bool"
        }
      ],
      "stateMutability": "view",
      "type": "function"
    },
    {
      "inputs": [
        {
          "internalType": "address",
          "name": "",
          "type": "address"
        }
      ],
      "name": "botDeploymentCount",
      "outputs": [
        {
          "internalType": "uint256",
          "name": "",
          "type": "uint256"
        }
      ],
      "stateMutability": "view",
      "type": "function"
    },
    {
      "inputs": [],
      "name": "botImplementation",
      "outputs": [
        {
          "internalType": "address",
          "name": "",
          "type": "address"
        }
      ],
      "stateMutability": "view",
      "type": "function"
    },
    {
      "inputs": [
        {
          "internalType": "address",
          "name": "token",
          "type": "address"
        }
      ],
      "name": "deauthorizeToken",
      "outputs": [],
      "stateMutability": "nonpayable",
      "type": "function"
    },
    {
      "inputs": [
        {
          "internalType": "address",
          "name": "user",
          "type": "address"
        }
      ],
      "name": "deployBot",
      "outputs": [
        {
          "internalType": "address",
          "name": "bot",
          "type": "address"
        }
      ],
      "stateMutability": "payable",
      "type": "function"
    },
    {
      "inputs": [
        {
          "internalType": "address",
          "name": "user",
          "type": "address"
        },
        {
          "internalType": "uint256",
          "name": "count",
          "type": "uint256"
        }
      ],
      "name": "deployMultipleBots",
      "outputs": [
        {
          "internalType": "address[]",
          "name": "bots",
          "type": "address[]"
        }
      ],
      "stateMutability": "payable",
      "type": "function"
    },
    {
      "inputs": [
        {
          "internalType": "address",
          "name": "token",
          "type": "address"
        },
        {
          "internalType": "address",
          "name": "to",
          "type": "address"
        },
        {
          "internalType": "uint256",
          "name": "amount",
          "type": "uint256"
        }
      ],
      "name": "emergencyRecover",
      "outputs": [],
      "stateMutability": "nonpayable",
      "type": "function"
    },
    {
      "inputs": [],
      "name": "getBotImplementation",
      "outputs": [
        {
          "internalType": "address",
          "name": "implementation",
          "type": "address"
        }
      ],
      "stateMutability": "view",
      "type": "function"
    },
    {
      "inputs": [],
      "name": "getFactoryConfig",
      "outputs": [
        {
          "internalType": "address",
          "name": "_orderManager",
          "type": "address"
        },
        {
          "internalType": "address",
          "name": "_oracleAdapter",
          "type": "address"
        },
        {
          "internalType": "address",
          "name": "_lop",
          "type": "address"
        },
        {
          "internalType": "uint256",
          "name": "_maxBotsPerUser",
          "type": "uint256"
        },
        {
          "internalType": "uint256",
          "name": "_minDeposit",
          "type": "uint256"
        },
        {
          "internalType": "uint256",
          "name": "_maxDeposit",
          "type": "uint256"
        }
      ],
      "stateMutability": "view",
      "type": "function"
    },
    {
      "inputs": [
        {
          "internalType": "address",
          "name": "user",
          "type": "address"
        },
        {
          "internalType": "uint256",
          "name": "botIndex",
          "type": "uint256"
        }
      ],
      "name": "getUserBot",
      "outputs": [
        {
          "internalType": "address",
          "name": "bot",
          "type": "address"
        }
      ],
      "stateMutability": "view",
      "type": "function"
    },
    {
      "inputs": [
        {
          "internalType": "address",
          "name": "user",
          "type": "address"
        }
      ],
      "name": "getUserBotCount",
      "outputs": [
        {
          "internalType": "uint256",
          "name": "count",
          "type": "uint256"
        }
      ],
      "stateMutability": "view",
      "type": "function"
    },
    {
      "inputs": [
        {
          "internalType": "address",
          "name": "user",
          "type": "address"
        }
      ],
      "name": "getUserBots",
      "outputs": [
        {
          "internalType": "address[]",
          "name": "bots",
          "type": "address[]"
        }
      ],
      "stateMutability": "view",
      "type": "function"
    },
    {
      "inputs": [
        {
          "internalType": "address",
          "name": "user",
          "type": "address"
        }
      ],
      "name": "getUserDeploymentCount",
      "outputs": [
        {
          "internalType": "uint256",
          "name": "count",
          "type": "uint256"
        }
      ],
      "stateMutability": "view",
      "type": "function"
    },
    {
      "inputs": [
        {
          "internalType": "address",
          "name": "token",
          "type": "address"
        }
      ],
      "name": "isTokenAuthorized",
      "outputs": [
        {
          "internalType": "bool",
          "name": "isAuthorized",
          "type": "bool"
        }
      ],
      "stateMutability": "view",
      "type": "function"
    },
    {
      "inputs": [],
      "name": "lop",
      "outputs": [
        {
          "internalType": "address",
          "name": "",
          "type": "address"
        }
      ],
      "stateMutability": "view",
      "type": "function"
    },
    {
      "inputs": [],
      "name": "oracleAdapter",
      "outputs": [
        {
          "internalType": "address",
          "name": "",
          "type": "address"
        }
      ],
      "stateMutability": "view",
      "type": "function"
    },
    {
      "inputs": [],
      "name": "orderManager",
      "outputs": [
        {
          "internalType": "address",
          "name": "",
          "type": "address"
        }
      ],
      "stateMutability": "view",
      "type": "function"
    },
    {
      "inputs": [],
      "name": "owner",
      "outputs": [
        {
          "internalType": "address",
          "name": "",
          "type": "address"
        }
      ],
      "stateMutability": "view",
      "type": "function"
    },
    {
      "inputs": [],
      "name": "pause",
      "outputs": [],
      "stateMutability": "nonpayable",
      "type": "function"
    },
    {
      "inputs": [],
      "name": "paused",
      "outputs": [
        {
          "internalType": "bool",
          "name": "",
          "type": "bool"
        }
      ],
      "stateMutability": "view",
      "type": "function"
    },
    {
      "inputs": [],
      "name": "renounceOwnership",
      "outputs": [],
      "stateMutability": "nonpayable",
      "type": "function"
    },
    {
      "inputs": [
        {
          "internalType": "address",
          "name": "newOwner",
          "type": "address"
        }
      ],
      "name": "transferOwnership",
      "outputs": [],
      "stateMutability": "nonpayable",
      "type": "function"
    },
    {
      "inputs": [],
      "name": "unpause",
      "outputs": [],
      "stateMutability": "nonpayable",
      "type": "function"
    },
    {
      "inputs": [
        {
          "internalType": "address",
          "name": "user",
          "type": "address"
        },
        {
          "internalType": "uint256",
          "name": "botIndex",
          "type": "uint256"
        }
      ],
      "name": "upgradeBot",
      "outputs": [
        {
          "internalType": "address",
          "name": "newBot",
          "type": "address"
        }
      ],
      "stateMutability": "payable",
      "type": "function"
    },
    {
      "inputs": [
        {
          "internalType": "address",
          "name": "",
          "type": "address"
        },
        {
          "internalType": "uint256",
          "name": "",
          "type": "uint256"
        }
      ],
      "name": "userBots",
      "outputs": [
        {
          "internalType": "address",
          "name": "",
          "type": "address"
        }
      ],
      "stateMutability": "view",
      "type": "function"
    },
    {
      "inputs": [
        {
          "internalType": "uint256",
          "name": "amount",
          "type": "uint256"
        }
      ],
      "name": "withdrawETH",
      "outputs": [],
      "stateMutability": "nonpayable",
      "type": "function"
    },
    {
      "inputs": [
        {
          "internalType": "address",
          "name": "token",
          "type": "address"
        },
        {
          "internalType": "uint256",
          "name": "amount",
          "type": "uint256"
        }
      ],
      "name": "withdrawTokens",
      "outputs": [],
      "stateMutability": "nonpayable",
      "type": "function"
    },
    {
      "stateMutability": "payable",
      "type": "receive"
    }
  ],
  "bytecode": "0x61010034620001f257601f620018ad38819003918201601f191683019291906001600160401b03841183851017620001f7578160809284926040968752833981010312620001f25762000052816200020d565b9062000061602082016200020d565b6200007c6060620000748685016200020d565b93016200020d565b923315620001da5760008054336001600160a01b031982168117835587516001600160a01b039390928416907f8be0079c531659141344cd1fd0a4f28419497f9722a3daafe3b4186f6b6457e09080a36001805581831615620001cb575080831615620001ba5780841615620001ba57841615620001a95760805260a05260c05260e0525161168a90816200022382396080518181816102ac01528181610a2d01528181610e5901526113ee015260a05181818161018e0152818161031f015281816103d80152818161043301528181610a5801528181610e83015261126c015260c05181818161034701528181610ac501528181610ef0015281816110fe0152611291015260e0518181816102f7015281816108ac01528181610a9501528181610ec001526112b80152f35b845163d92e233d60e01b8152600490fd5b855163d92e233d60e01b8152600490fd5b63d92e233d60e01b8152600490fd5b8451631e4fbdf760e01b815260006004820152602490fd5b600080fd5b634e487b7160e01b600052604160045260246000fd5b51906001600160a01b0382168203620001f25756fe60806040526004361015610018575b361561001657005b005b6000803560e01c806306b091f9146113415780630c4ce2ed14611302578063159037631461124c57806325c596cc1461120d5780632655675314611078578063301a2fa6146111bd57806334c1d4291461112d5780633d9f3163146110e85780633f4ba83a1461107d57806348131a06146110785780635912642e14610dfa5780635c975abb14610dd7578063715018a614610d7d57806379ea766914610d445780637f6734d614610ce95780637ffe2b4014610ca45780638456cb5914610c3657806387c66739146109b05780638da5cb5b1461098957806398e9cb121461091a5780639bc7c586146108db5780639ccf88c714610896578063ad1329d1146107ed578063adf2067a14610781578063d509730814610765578063dd5967c314610741578063e1e158a51461071f578063f14210a614610694578063f2fde38b14610604578063f7e34412146101c05763f9b6117f14610179575061000e565b346101bd57806003193601126101bd576040517f00000000000000000000000000000000000000000000000000000000000000006001600160a01b03168152602090f35b80fd5b5060403660031901126101bd576001600160a01b036101dd6113c2565b1680156105f2576024351580156105e6575b6105d45780825260036020526040822054602435810180911161059c57600a106105c257602435662386f26fc1000002662386f26fc1000081046024350361059c5734106105b057683635c9adc5dea0000060243581029081046024350361059c57341161058a576102626024356115be565b9061027060405192836114e5565b6024358252601f196102836024356115be565b01366020840137825b60243581106102a757604051806102a3858261141d565b0390f35b6102d07f0000000000000000000000000000000000000000000000000000000000000000611556565b6001600160a01b0381163b156105535760405163c0c53b8b60e01b81526001600160a01b037f0000000000000000000000000000000000000000000000000000000000000000811660048301527f0000000000000000000000000000000000000000000000000000000000000000811660248301527f00000000000000000000000000000000000000000000000000000000000000001660448201528590818180606481010381836001600160a01b0388165af1801561055757610576575b50506001600160a01b0381163b156105535760405163f2fde38b60e01b81526004810184905285908181602481836001600160a01b0388165af1801561055757610562575b50507f00000000000000000000000000000000000000000000000000000000000000006001600160a01b03163b156105535760405163297a4aad60e11b81526001600160a01b03828116600483015286919082908290602490829084907f0000000000000000000000000000000000000000000000000000000000000000165af180156105575761053f575b5083905260036020526104768160408720611507565b82855260056020526040852061048c8154611531565b9055835182101561052b5760018060a01b03811660208360051b86010152828552600360205260408520548060001981011161051757604051662386f26fc1000081526105129392600019909201916001600160a01b03169085907fcbd143ab29dda74d196e269af025f1c0372f07ae1c5684395b6ec105a55cd23690602090a4611531565b61028c565b634e487b7160e01b86526011600452602486fd5b634e487b7160e01b85526032600452602485fd5b610548906114bb565b610553578438610460565b8480fd5b6040513d84823e3d90fd5b61056b906114bb565b6105535784386103d4565b61057f906114bb565b61055357843861038f565b60405163496d3e1160e11b8152600490fd5b634e487b7160e01b83526011600452602483fd5b60405163070f6eed60e11b8152600490fd5b6040516361eea57560e11b8152600490fd5b604051631f2a200560e01b8152600490fd5b506005602435116101ef565b60405163d92e233d60e01b8152600490fd5b50346101bd5760203660031901126101bd5761061e6113c2565b61062661148f565b6001600160a01b0390811690811561067b57600054826bffffffffffffffffffffffff60a01b821617600055167f8be0079c531659141344cd1fd0a4f28419497f9722a3daafe3b4186f6b6457e0600080a380f35b604051631e4fbdf760e01b815260048101849052602490fd5b50346101bd5760203660031901126101bd576004356106b161148f565b80156105d4574781116106e357818080806106e09460018060a01b038254165af16106da6115d6565b50611616565b80f35b60405162461bcd60e51b8152602060048201526014602482015273496e73756666696369656e742062616c616e636560601b6044820152606490fd5b50346101bd57806003193601126101bd576020604051662386f26fc100008152f35b50346101bd57806003193601126101bd576020604051683635c9adc5dea000008152f35b50346101bd57806003193601126101bd576020604051600a8152f35b50346101bd5760203660031901126101bd5761079b6113c2565b6107a361148f565b6001600160a01b031680156105f257808252600460205260408220805460ff191690557fc2e555ff9a88291de51a4e867095d0f6c64f59714f0a0be28fc1b0d345674f578280a280f35b50346101bd5760603660031901126101bd576108076113c2565b6024356001600160a01b03808216808303610891576044359161082861148f565b8416156105f257156105f25780156105d45760405163a9059cbb60e01b602082019081526001600160a01b03909316602482015260448101919091526106e09284928392839061088581606481015b03601f1981018352826114e5565b51925af16106da6115d6565b600080fd5b50346101bd57806003193601126101bd576040517f00000000000000000000000000000000000000000000000000000000000000006001600160a01b03168152602090f35b50346101bd5760203660031901126101bd5760209060ff906040906001600160a01b036109066113c2565b168152600484522054166040519015158152f35b50346101bd5760203660031901126101bd576109346113c2565b61093c61148f565b6001600160a01b031680156105f257808252600460205260408220805460ff191660011790557f4f212173e1223404ad18982e997212dfadb852b7cd98cdd495b14b58c684cdc28280a280f35b50346101bd57806003193601126101bd57546040516001600160a01b039091168152602090f35b5060403660031901126101bd576109c56113c2565b60243591906001600160a01b0390811680156105f257662386f26fc1000034106105b057683635c9adc5dea00000341161058a578083526003602052604083208054851015610c245782610a198683611461565b90549060031b1c16948515610c2457610a517f0000000000000000000000000000000000000000000000000000000000000000611556565b91848316947f0000000000000000000000000000000000000000000000000000000000000000863b15610c015760405163c0c53b8b60e01b81526001600160a01b037f00000000000000000000000000000000000000000000000000000000000000008116600483015282811660248301527f00000000000000000000000000000000000000000000000000000000000000001660448201528881606481838c5af18015610c0557908991610c10575b5050863b15610c015760405163f2fde38b60e01b8152600481018790528881602481838c5af18015610c0557908991610bed575b505016803b15610be95786809160246040518094819363297a4aad60e11b83528b60048401525af18015610bde57610bc6575b5060209692610b7c869593610b9b93611461565b90919082549060031b9160018060a01b03809116831b921b1916179055565b7f68728588b9bd047e94c7d39855d8480b0bd9c2d8acb759f6e9b9b838cf497a636040519580a48152f35b610bd087916114bb565b610bda5738610b68565b8580fd5b6040513d89823e3d90fd5b8680fd5b610bf6906114bb565b610c01578738610b35565b8780fd5b6040513d8b823e3d90fd5b610c19906114bb565b610c01578738610b01565b60405163515b928360e01b8152600490fd5b50346101bd57806003193601126101bd57610c4f61148f565b60025460ff8116610c925760019060ff1916176002557f62e78cea01bee320cd4e420270b5ea74000d11b0c9f74754ebdbfc544b05a2586020604051338152a180f35b60405163d93c066560e01b8152600490fd5b50346101bd5760203660031901126101bd576001600160a01b03610cc66113c2565b169081156105f25760408160209360ff9352600484522054166040519015158152f35b50346101bd5760403660031901126101bd57610d036113c2565b6001600160a01b039081168252600360205260408220805460243593908410156101bd5750602092610d3491611461565b90549060031b1c16604051908152f35b50346101bd5760203660031901126101bd576020906040906001600160a01b03610d6c6113c2565b168152600583522054604051908152f35b50346101bd57806003193601126101bd57610d9661148f565b600080546001600160a01b0319811682556001600160a01b03167f8be0079c531659141344cd1fd0a4f28419497f9722a3daafe3b4186f6b6457e08280a380f35b50346101bd57806003193601126101bd57602060ff600254166040519015158152f35b50602090816003193601126101bd576001600160a01b039081610e1b6113c2565b1680156105f257662386f26fc1000034106105b057683635c9adc5dea00000341161058a5780825260038452600a604083205410156105c257610e7d7f0000000000000000000000000000000000000000000000000000000000000000611556565b838116937f0000000000000000000000000000000000000000000000000000000000000000853b156105535760405163c0c53b8b60e01b81526001600160a01b037f00000000000000000000000000000000000000000000000000000000000000008116600483015282811660248301527f00000000000000000000000000000000000000000000000000000000000000001660448201528581606481838b5af1801561105a57611065575b50853b156105535760405163f2fde38b60e01b8152600481018590528581602481838b5af1801561105a57908691611046575b505016803b156110425783809160246040518094819363297a4aad60e11b83528a60048401525af180156110375790849161101f575b509082610fa792526003865260408420611507565b8082526005845260408220610fbc8154611531565b905580825260038452604082205460001981019290831161100b575082907fcbd143ab29dda74d196e269af025f1c0372f07ae1c5684395b6ec105a55cd23685604051348152a4604051908152f35b634e487b7160e01b81526011600452602490fd5b611028906114bb565b611033578238610f92565b8280fd5b6040513d86823e3d90fd5b8380fd5b61104f906114bb565b610553578438610f5c565b6040513d88823e3d90fd5b611071909591956114bb565b9338610f29565b6113d8565b50346101bd57806003193601126101bd5761109661148f565b60025460ff8116156110d65760ff19166002557f5db9ee0a495bf2e6ff9c91a7834c1ba4fdd244a5e8aa4e537bd38aeae4b073aa6020604051338152a180f35b604051638dfc202b60e01b8152600490fd5b50346101bd57806003193601126101bd576040517f00000000000000000000000000000000000000000000000000000000000000006001600160a01b03168152602090f35b50346101bd576020806003193601126111b9576001600160a01b0390816111526113c2565b1680156105f25783908152600382526040812092604051908193808654938481520195845280842093915b8383106111a0576102a386611194818a03826114e5565b6040519182918261141d565b845481168752958101956001948501949092019161117d565b5080fd5b50346101bd5760403660031901126101bd576111d76113c2565b602435916001600160a01b039182169081156105f25760409181526003602052208054831015610c2457602092610d3491611461565b50346101bd5760203660031901126101bd576001600160a01b0361122f6113c2565b1680156105f2578160409160209352600583522054604051908152f35b50346101bd57806003193601126101bd5760c060405160018060a01b03807f0000000000000000000000000000000000000000000000000000000000000000168252807f00000000000000000000000000000000000000000000000000000000000000001660208301527f0000000000000000000000000000000000000000000000000000000000000000166040820152600a6060820152662386f26fc100006080820152683635c9adc5dea0000060a0820152f35b50346101bd5760203660031901126101bd576001600160a01b036113246113c2565b1680156105f2578160409160209352600383522054604051908152f35b50346101bd5760403660031901126101bd5761135b6113c2565b60243561136661148f565b6001600160a01b03828116156105f25781156105d457835460405163a9059cbb60e01b60208201908152929091166001600160a01b0316602482015260448101929092526106e092849283929083906108858160648101610877565b600435906001600160a01b038216820361089157565b34610891576000366003190112610891576040517f00000000000000000000000000000000000000000000000000000000000000006001600160a01b03168152602090f35b6020908160408183019282815285518094520193019160005b828110611444575050505090565b83516001600160a01b031685529381019392810192600101611436565b80548210156114795760005260206000200190600090565b634e487b7160e01b600052603260045260246000fd5b6000546001600160a01b031633036114a357565b60405163118cdaa760e01b8152336004820152602490fd5b67ffffffffffffffff81116114cf57604052565b634e487b7160e01b600052604160045260246000fd5b90601f8019910116810190811067ffffffffffffffff8211176114cf57604052565b90815491680100000000000000008310156114cf5782610b7c91600161152f95018155611461565b565b60001981146115405760010190565b634e487b7160e01b600052601160045260246000fd5b6e5af43d82803e903d91602b57fd5bf390763d602d80600a3d3981f3363d3d373d3d3d363d7300000062ffffff8260881c161760005260781b17602052603760096000f0906001600160a01b038216156115ac57565b60405163b06ebf3d60e01b8152600490fd5b67ffffffffffffffff81116114cf5760051b60200190565b3d15611611573d9067ffffffffffffffff82116114cf5760405191611605601f8201601f1916602001846114e5565b82523d6000602084013e565b606090565b1561161d57565b60405162461bcd60e51b815260206004820152600f60248201526e151c985b9cd9995c8819985a5b1959608a1b6044820152606490fdfea2646970667358221220c94fe8fc9779dd51322fb513a979c296f32e5dd9db3a3a73000a08ef9f23082064736f6c63430008140033",
  "linkReferences": {},
  "deployedLinkReferences": {}
}