{
  "_format": "hh-sol-artifact-1",
  "contractName": "inchbyinchBot",
  "sourceName": "contracts/inchbyinchBot.sol",
  "abi": [
    {
      "inputs": [],
      "stateMutability": "nonpayable",
      "type": "constructor"
    },
    {
      "inputs": [],
      "name": "EnforcedPause",
      "type": "error"
    },
    {
      "inputs": [],
      "name": "ExceedsBudget",
      "type": "error"
    },
    {
      "inputs": [],
      "name": "ExpectedPause",
      "type": "error"
    },
    {
      "inputs": [],
      "name": "InsufficientBalance",
      "type": "error"
    },
    {
      "inputs": [],
      "name": "InvalidBudget",
      "type": "error"
    },
    {
      "inputs": [],
      "name": "InvalidExpiry",
      "type": "error"
    },
    {
      "inputs": [],
      "name": "InvalidOrderSize",
      "type": "error"
    },
    {
      "inputs": [],
      "name": "InvalidPrice",
      "type": "error"
    },
    {
      "inputs": [],
      "name": "InvalidSpacing",
      "type": "error"
    },
    {
      "inputs": [],
      "name": "InvalidStopLoss",
      "type": "error"
    },
    {
      "inputs": [],
      "name": "InvalidStrategy",
      "type": "error"
    },
    {
      "inputs": [],
      "name": "InvalidTakeProfit",
      "type": "error"
    },
    {
      "inputs": [],
      "name": "OrderAlreadyCanceled",
      "type": "error"
    },
    {
      "inputs": [],
      "name": "OrderAlreadyExists",
      "type": "error"
    },
    {
      "inputs": [],
      "name": "OrderAlreadyFilled",
      "type": "error"
    },
    {
      "inputs": [],
      "name": "OrderNotFound",
      "type": "error"
    },
    {
      "inputs": [
        {
          "internalType": "address",
          "name": "owner",
          "type": "address"
        }
      ],
      "name": "OwnableInvalidOwner",
      "type": "error"
    },
    {
      "inputs": [
        {
          "internalType": "address",
          "name": "account",
          "type": "address"
        }
      ],
      "name": "OwnableUnauthorizedAccount",
      "type": "error"
    },
    {
      "inputs": [],
      "name": "ReentrancyGuardReentrantCall",
      "type": "error"
    },
    {
      "inputs": [
        {
          "internalType": "address",
          "name": "token",
          "type": "address"
        }
      ],
      "name": "SafeERC20FailedOperation",
      "type": "error"
    },
    {
      "inputs": [],
      "name": "StopLossTriggered",
      "type": "error"
    },
    {
      "inputs": [],
      "name": "StrategyAlreadyActive",
      "type": "error"
    },
    {
      "inputs": [],
      "name": "StrategyExpired",
      "type": "error"
    },
    {
      "inputs": [],
      "name": "StrategyNotActive",
      "type": "error"
    },
    {
      "inputs": [],
      "name": "TakeProfitTriggered",
      "type": "error"
    },
    {
      "inputs": [],
      "name": "UnauthorizedCaller",
      "type": "error"
    },
    {
      "inputs": [],
      "name": "ZeroAddress",
      "type": "error"
    },
    {
      "inputs": [],
      "name": "ZeroAmount",
      "type": "error"
    },
    {
      "anonymous": false,
      "inputs": [
        {
          "indexed": true,
          "internalType": "bytes32",
          "name": "orderHash",
          "type": "bytes32"
        },
        {
          "indexed": true,
          "internalType": "uint256",
          "name": "orderIndex",
          "type": "uint256"
        },
        {
          "indexed": false,
          "internalType": "uint256",
          "name": "filledAmount",
          "type": "uint256"
        },
        {
          "indexed": false,
          "internalType": "uint256",
          "name": "price",
          "type": "uint256"
        }
      ],
      "name": "OrderFilled",
      "type": "event"
    },
    {
      "anonymous": false,
      "inputs": [
        {
          "indexed": true,
          "internalType": "bytes32",
          "name": "orderHash",
          "type": "bytes32"
        },
        {
          "indexed": true,
          "internalType": "uint256",
          "name": "orderIndex",
          "type": "uint256"
        },
        {
          "indexed": false,
          "internalType": "uint256",
          "name": "price",
          "type": "uint256"
        },
        {
          "indexed": false,
          "internalType": "uint256",
          "name": "orderSize",
          "type": "uint256"
        }
      ],
      "name": "OrderPlaced",
      "type": "event"
    },
    {
      "anonymous": false,
      "inputs": [
        {
          "indexed": true,
          "internalType": "bytes32",
          "name": "oldOrderHash",
          "type": "bytes32"
        },
        {
          "indexed": true,
          "internalType": "bytes32",
          "name": "newOrderHash",
          "type": "bytes32"
        },
        {
          "indexed": false,
          "internalType": "uint256",
          "name": "newPrice",
          "type": "uint256"
        },
        {
          "indexed": false,
          "internalType": "uint256",
          "name": "orderIndex",
          "type": "uint256"
        }
      ],
      "name": "OrderReposted",
      "type": "event"
    },
    {
      "anonymous": false,
      "inputs": [
        {
          "indexed": true,
          "internalType": "address",
          "name": "previousOwner",
          "type": "address"
        },
        {
          "indexed": true,
          "internalType": "address",
          "name": "newOwner",
          "type": "address"
        }
      ],
      "name": "OwnershipTransferred",
      "type": "event"
    },
    {
      "anonymous": false,
      "inputs": [
        {
          "indexed": false,
          "internalType": "address",
          "name": "account",
          "type": "address"
        }
      ],
      "name": "Paused",
      "type": "event"
    },
    {
      "anonymous": false,
      "inputs": [
        {
          "indexed": false,
          "internalType": "uint256",
          "name": "orderPrice",
          "type": "uint256"
        },
        {
          "indexed": false,
          "internalType": "uint256",
          "name": "sellPrice",
          "type": "uint256"
        },
        {
          "indexed": false,
          "internalType": "uint256",
          "name": "flipPercentage",
          "type": "uint256"
        }
      ],
      "name": "SellFlipTriggered",
      "type": "event"
    },
    {
      "anonymous": false,
      "inputs": [],
      "name": "StrategyCancelled",
      "type": "event"
    },
    {
      "anonymous": false,
      "inputs": [
        {
          "indexed": false,
          "internalType": "uint256",
          "name": "totalFilled",
          "type": "uint256"
        },
        {
          "indexed": false,
          "internalType": "uint256",
          "name": "totalSpent",
          "type": "uint256"
        },
        {
          "indexed": false,
          "internalType": "uint256",
          "name": "profit",
          "type": "uint256"
        }
      ],
      "name": "StrategyCompleted",
      "type": "event"
    },
    {
      "anonymous": false,
      "inputs": [
        {
          "indexed": true,
          "internalType": "address",
          "name": "makerAsset",
          "type": "address"
        },
        {
          "indexed": true,
          "internalType": "address",
          "name": "takerAsset",
          "type": "address"
        },
        {
          "indexed": false,
          "internalType": "uint256",
          "name": "startPrice",
          "type": "uint256"
        },
        {
          "indexed": false,
          "internalType": "uint256",
          "name": "spacing",
          "type": "uint256"
        },
        {
          "indexed": false,
          "internalType": "uint256",
          "name": "orderSize",
          "type": "uint256"
        },
        {
          "indexed": false,
          "internalType": "uint256",
          "name": "numOrders",
          "type": "uint256"
        },
        {
          "indexed": false,
          "internalType": "uint256",
          "name": "strategyType",
          "type": "uint256"
        }
      ],
      "name": "StrategyCreated",
      "type": "event"
    },
    {
      "anonymous": false,
      "inputs": [
        {
          "indexed": false,
          "internalType": "address",
          "name": "account",
          "type": "address"
        }
      ],
      "name": "Unpaused",
      "type": "event"
    },
    {
      "inputs": [],
      "name": "MAX_ORDERS",
      "outputs": [
        {
          "internalType": "uint256",
          "name": "",
          "type": "uint256"
        }
      ],
      "stateMutability": "view",
      "type": "function"
    },
    {
      "inputs": [],
      "name": "MAX_ORDER_SIZE",
      "outputs": [
        {
          "internalType": "uint256",
          "name": "",
          "type": "uint256"
        }
      ],
      "stateMutability": "view",
      "type": "function"
    },
    {
      "inputs": [],
      "name": "MAX_SPACING",
      "outputs": [
        {
          "internalType": "uint256",
          "name": "",
          "type": "uint256"
        }
      ],
      "stateMutability": "view",
      "type": "function"
    },
    {
      "inputs": [],
      "name": "MIN_ORDER_SIZE",
      "outputs": [
        {
          "internalType": "uint256",
          "name": "",
          "type": "uint256"
        }
      ],
      "stateMutability": "view",
      "type": "function"
    },
    {
      "inputs": [],
      "name": "MIN_SPACING",
      "outputs": [
        {
          "internalType": "uint256",
          "name": "",
          "type": "uint256"
        }
      ],
      "stateMutability": "view",
      "type": "function"
    },
    {
      "inputs": [],
      "name": "REPOST_NEXT_PRICE",
      "outputs": [
        {
          "internalType": "uint256",
          "name": "",
          "type": "uint256"
        }
      ],
      "stateMutability": "view",
      "type": "function"
    },
    {
      "inputs": [],
      "name": "REPOST_SAME_PRICE",
      "outputs": [
        {
          "internalType": "uint256",
          "name": "",
          "type": "uint256"
        }
      ],
      "stateMutability": "view",
      "type": "function"
    },
    {
      "inputs": [],
      "name": "REPOST_SKIP",
      "outputs": [
        {
          "internalType": "uint256",
          "name": "",
          "type": "uint256"
        }
      ],
      "stateMutability": "view",
      "type": "function"
    },
    {
      "inputs": [],
      "name": "STRATEGY_BUY_LADDER",
      "outputs": [
        {
          "internalType": "uint256",
          "name": "",
          "type": "uint256"
        }
      ],
      "stateMutability": "view",
      "type": "function"
    },
    {
      "inputs": [],
      "name": "STRATEGY_BUY_SELL",
      "outputs": [
        {
          "internalType": "uint256",
          "name": "",
          "type": "uint256"
        }
      ],
      "stateMutability": "view",
      "type": "function"
    },
    {
      "inputs": [],
      "name": "STRATEGY_SELL_LADDER",
      "outputs": [
        {
          "internalType": "uint256",
          "name": "",
          "type": "uint256"
        }
      ],
      "stateMutability": "view",
      "type": "function"
    },
    {
      "inputs": [],
      "name": "cancelAllOrders",
      "outputs": [],
      "stateMutability": "nonpayable",
      "type": "function"
    },
    {
      "inputs": [
        {
          "internalType": "uint256",
          "name": "orderIndex",
          "type": "uint256"
        }
      ],
      "name": "cancelOrder",
      "outputs": [],
      "stateMutability": "nonpayable",
      "type": "function"
    },
    {
      "inputs": [
        {
          "internalType": "address",
          "name": "makerAsset",
          "type": "address"
        },
        {
          "internalType": "address",
          "name": "takerAsset",
          "type": "address"
        },
        {
          "internalType": "uint256",
          "name": "startPrice",
          "type": "uint256"
        },
        {
          "internalType": "uint256",
          "name": "spacing",
          "type": "uint256"
        },
        {
          "internalType": "uint256",
          "name": "orderSize",
          "type": "uint256"
        },
        {
          "internalType": "uint256",
          "name": "numOrders",
          "type": "uint256"
        },
        {
          "internalType": "uint256",
          "name": "strategyType",
          "type": "uint256"
        },
        {
          "internalType": "uint256",
          "name": "repostMode",
          "type": "uint256"
        },
        {
          "internalType": "uint256",
          "name": "budget",
          "type": "uint256"
        },
        {
          "internalType": "uint256",
          "name": "stopLoss",
          "type": "uint256"
        },
        {
          "internalType": "uint256",
          "name": "takeProfit",
          "type": "uint256"
        },
        {
          "internalType": "uint256",
          "name": "expiryTime",
          "type": "uint256"
        },
        {
          "internalType": "bool",
          "name": "flipToSell_",
          "type": "bool"
        },
        {
          "internalType": "uint256",
          "name": "flipPercentage_",
          "type": "uint256"
        }
      ],
      "name": "createStrategy",
      "outputs": [],
      "stateMutability": "nonpayable",
      "type": "function"
    },
    {
      "inputs": [],
      "name": "getActiveOrders",
      "outputs": [
        {
          "internalType": "uint256[]",
          "name": "activeOrders",
          "type": "uint256[]"
        }
      ],
      "stateMutability": "view",
      "type": "function"
    },
    {
      "inputs": [
        {
          "internalType": "uint256",
          "name": "orderIndex",
          "type": "uint256"
        }
      ],
      "name": "getOrder",
      "outputs": [
        {
          "components": [
            {
              "internalType": "bytes32",
              "name": "orderHash",
              "type": "bytes32"
            },
            {
              "internalType": "uint256",
              "name": "price",
              "type": "uint256"
            },
            {
              "internalType": "uint256",
              "name": "orderIndex",
              "type": "uint256"
            },
            {
              "internalType": "bool",
              "name": "isActive",
              "type": "bool"
            },
            {
              "internalType": "uint256",
              "name": "createdAt",
              "type": "uint256"
            }
          ],
          "internalType": "struct inchbyinchBot.Order",
          "name": "order",
          "type": "tuple"
        }
      ],
      "stateMutability": "view",
      "type": "function"
    },
    {
      "inputs": [],
      "name": "getStrategyPerformance",
      "outputs": [
        {
          "internalType": "uint256",
          "name": "totalFilled",
          "type": "uint256"
        },
        {
          "internalType": "uint256",
          "name": "totalSpent",
          "type": "uint256"
        },
        {
          "internalType": "int256",
          "name": "profit",
          "type": "int256"
        }
      ],
      "stateMutability": "view",
      "type": "function"
    },
    {
      "inputs": [
        {
          "internalType": "bytes32",
          "name": "orderHash",
          "type": "bytes32"
        },
        {
          "internalType": "uint256",
          "name": "filledAmount",
          "type": "uint256"
        },
        {
          "internalType": "uint256",
          "name": "remainingAmount",
          "type": "uint256"
        }
      ],
      "name": "handleOrderFill",
      "outputs": [],
      "stateMutability": "nonpayable",
      "type": "function"
    },
    {
      "inputs": [
        {
          "internalType": "address",
          "name": "_lop",
          "type": "address"
        },
        {
          "internalType": "address",
          "name": "_lopAdapter",
          "type": "address"
        },
        {
          "internalType": "address",
          "name": "_orderManager",
          "type": "address"
        },
        {
          "internalType": "address",
          "name": "_oracleAdapter",
          "type": "address"
        },
        {
          "internalType": "address",
          "name": "owner_",
          "type": "address"
        }
      ],
      "name": "initialize",
      "outputs": [],
      "stateMutability": "nonpayable",
      "type": "function"
    },
    {
      "inputs": [],
      "name": "lop",
      "outputs": [
        {
          "internalType": "contract I1inchLOP",
          "name": "",
          "type": "address"
        }
      ],
      "stateMutability": "view",
      "type": "function"
    },
    {
      "inputs": [],
      "name": "lopAdapter",
      "outputs": [
        {
          "internalType": "contract LOPAdapter",
          "name": "",
          "type": "address"
        }
      ],
      "stateMutability": "view",
      "type": "function"
    },
    {
      "inputs": [],
      "name": "oracleAdapter",
      "outputs": [
        {
          "internalType": "contract IOracleAdapter",
          "name": "",
          "type": "address"
        }
      ],
      "stateMutability": "view",
      "type": "function"
    },
    {
      "inputs": [
        {
          "internalType": "bytes32",
          "name": "",
          "type": "bytes32"
        }
      ],
      "name": "orderIndexByHash",
      "outputs": [
        {
          "internalType": "uint256",
          "name": "",
          "type": "uint256"
        }
      ],
      "stateMutability": "view",
      "type": "function"
    },
    {
      "inputs": [],
      "name": "orderManager",
      "outputs": [
        {
          "internalType": "contract IOrderManager",
          "name": "",
          "type": "address"
        }
      ],
      "stateMutability": "view",
      "type": "function"
    },
    {
      "inputs": [
        {
          "internalType": "uint256",
          "name": "",
          "type": "uint256"
        }
      ],
      "name": "orders",
      "outputs": [
        {
          "internalType": "bytes32",
          "name": "orderHash",
          "type": "bytes32"
        },
        {
          "internalType": "uint256",
          "name": "price",
          "type": "uint256"
        },
        {
          "internalType": "uint256",
          "name": "orderIndex",
          "type": "uint256"
        },
        {
          "internalType": "bool",
          "name": "isActive",
          "type": "bool"
        },
        {
          "internalType": "uint256",
          "name": "createdAt",
          "type": "uint256"
        }
      ],
      "stateMutability": "view",
      "type": "function"
    },
    {
      "inputs": [],
      "name": "owner",
      "outputs": [
        {
          "internalType": "address",
          "name": "",
          "type": "address"
        }
      ],
      "stateMutability": "view",
      "type": "function"
    },
    {
      "inputs": [],
      "name": "pause",
      "outputs": [],
      "stateMutability": "nonpayable",
      "type": "function"
    },
    {
      "inputs": [],
      "name": "paused",
      "outputs": [
        {
          "internalType": "bool",
          "name": "",
          "type": "bool"
        }
      ],
      "stateMutability": "view",
      "type": "function"
    },
    {
      "inputs": [],
      "name": "placeLadderOrders",
      "outputs": [],
      "stateMutability": "nonpayable",
      "type": "function"
    },
    {
      "inputs": [],
      "name": "renounceOwnership",
      "outputs": [],
      "stateMutability": "nonpayable",
      "type": "function"
    },
    {
      "inputs": [],
      "name": "strategy",
      "outputs": [
        {
          "internalType": "address",
          "name": "makerAsset",
          "type": "address"
        },
        {
          "internalType": "address",
          "name": "takerAsset",
          "type": "address"
        },
        {
          "internalType": "uint256",
          "name": "startPrice",
          "type": "uint256"
        },
        {
          "internalType": "uint256",
          "name": "spacing",
          "type": "uint256"
        },
        {
          "internalType": "uint256",
          "name": "orderSize",
          "type": "uint256"
        },
        {
          "internalType": "uint256",
          "name": "numOrders",
          "type": "uint256"
        },
        {
          "internalType": "uint256",
          "name": "strategyType",
          "type": "uint256"
        },
        {
          "internalType": "uint256",
          "name": "repostMode",
          "type": "uint256"
        },
        {
          "internalType": "uint256",
          "name": "budget",
          "type": "uint256"
        },
        {
          "internalType": "uint256",
          "name": "stopLoss",
          "type": "uint256"
        },
        {
          "internalType": "uint256",
          "name": "takeProfit",
          "type": "uint256"
        },
        {
          "internalType": "uint256",
          "name": "expiryTime",
          "type": "uint256"
        },
        {
          "internalType": "bool",
          "name": "isActive",
          "type": "bool"
        },
        {
          "internalType": "uint256",
          "name": "currentOrderIndex",
          "type": "uint256"
        },
        {
          "internalType": "uint256",
          "name": "totalFilled",
          "type": "uint256"
        },
        {
          "internalType": "uint256",
          "name": "totalSpent",
          "type": "uint256"
        },
        {
          "internalType": "bool",
          "name": "flipToSell",
          "type": "bool"
        },
        {
          "internalType": "uint256",
          "name": "flipPercentage",
          "type": "uint256"
        },
        {
          "internalType": "bool",
          "name": "flipSellActive",
          "type": "bool"
        }
      ],
      "stateMutability": "view",
      "type": "function"
    },
    {
      "inputs": [
        {
          "internalType": "address",
          "name": "newOwner",
          "type": "address"
        }
      ],
      "name": "transferOwnership",
      "outputs": [],
      "stateMutability": "nonpayable",
      "type": "function"
    },
    {
      "inputs": [],
      "name": "unpause",
      "outputs": [],
      "stateMutability": "nonpayable",
      "type": "function"
    },
    {
      "inputs": [
        {
          "internalType": "address",
          "name": "token",
          "type": "address"
        },
        {
          "internalType": "uint256",
          "name": "amount",
          "type": "uint256"
        }
      ],
      "name": "withdrawTokens",
      "outputs": [],
      "stateMutability": "nonpayable",
      "type": "function"
    }
  ],
  "bytecode": "0x6080806040523461007e5733156100685760008054336001600160a01b03198216811783556040519290916001600160a01b0316907f8be0079c531659141344cd1fd0a4f28419497f9722a3daafe3b4186f6b6457e09080a36001805561241090816100848239f35b631e4fbdf760e01b815260006004820152602490fd5b600080fdfe610140604052600436101561001357600080fd5b6000803560e01c806286e68b146114de578063028afabf1461144057806306b091f914611396578063099bd14714610e065780631459457a14610cf75780631835404414610ae457806320b3d3581461083c5780632bf8ff4c146104cb5780633bfe2483146107aa5780633d9f3163146107815780633f4ba83a146107165780634ec3635e146106ed578063514fcac71461066857806351570fdd146102145780635c975abb1461064557806361555e2e14610621578063627cb7f814610318578063715018a6146105c7578063716df225146105aa5780638456cb591461053c5780638da5cb5b1461051557806393254b0e146104f95780639ccf88c7146104d05780639f215fa5146104cb578063a832a065146104a1578063a85c38ef14610445578063a8c62e761461031d578063ac0e764e14610318578063d09ef2411461023b578063d3f82d8e14610219578063e3d2609014610214578063f160991b14610214578063f2fde38b146101be5763f9b6117f1461019357600080fd5b346101bb57806003193601126101bb57601a546040516001600160a01b039091168152602090f35b80fd5b50346101bb5760203660031901126101bb576101d8611628565b6101e06116a8565b6001600160a01b038116156101fb576101f8906116d4565b80f35b604051631e4fbdf760e01b815260048101839052602490fd5b611670565b50346101bb57806003193601126101bb57602060405166038d7ea4c680008152f35b50346101bb5760203660031901126101bb5760043581608060405161025f81611745565b82815282602082015282604082015282606082015201528015801561030d575b6102fb578160409160a0935260166020522060405161029d81611745565b815491828252600181015460208301908152600282015490604084019182526080600460ff60038601541694606087019515158652015494019384526040519485525160208501525160408401525115156060830152516080820152f35b60405163d36d896560e01b8152600490fd5b50601054811161027f565b61168c565b50346101bb57806003193601126101bb5760018060a01b038060035416906004541660c05260055461012090815260065490600754906008549060095490600a5490600b5490600c5491600d5493600e549560ff600f541697601054996011549b6012549d60ff6013541660a0526014546101005260ff6015541660e052604051806080525260c051602060805101528651604060805101526060608051015260808051015260a0608051015260c0608051015260e060805101526101006080510152608051015261014060805101526101606080510152151561018060805101526101a060805101526101c060805101526101e0608051015260a0511515610200608051015261010051610220608051015260e05115156102406080510152610260608051f35b50346101bb5760203660031901126101bb57604060a09160043581526016602052208054906001810154906002810154600460ff6003840154169201549260405194855260208501526040840152151560608301526080820152f35b50346101bb5760203660031901126101bb5760406020916004358152601783522054604051908152f35b611654565b50346101bb57806003193601126101bb576018546040516001600160a01b039091168152602090f35b50346101bb57806003193601126101bb57602060405160328152f35b50346101bb57806003193601126101bb57546040516001600160a01b039091168152602090f35b50346101bb57806003193601126101bb576105556116a8565b60025460ff81166105985760019060ff1916176002557f62e78cea01bee320cd4e420270b5ea74000d11b0c9f74754ebdbfc544b05a2586020604051338152a180f35b60405163d93c066560e01b8152600490fd5b50346101bb57806003193601126101bb5760206040516103e88152f35b50346101bb57806003193601126101bb576105e06116a8565b600080546001600160a01b0319811682556001600160a01b03167f8be0079c531659141344cd1fd0a4f28419497f9722a3daafe3b4186f6b6457e08280a380f35b50346101bb57806003193601126101bb576020604051683635c9adc5dea000008152f35b50346101bb57806003193601126101bb57602060ff600254166040519015158152f35b50346101bb5760203660031901126101bb576004356106856116a8565b60ff600f5416156106db57801580156106d0575b6102fb57808252601660205260ff600360408420015416156106be576101f89061201a565b604051630a911f0960e01b8152600490fd5b506010548111610699565b604051631b92e95360e31b8152600490fd5b50346101bb57806003193601126101bb576019546040516001600160a01b039091168152602090f35b50346101bb57806003193601126101bb5761072f6116a8565b60025460ff81161561076f5760ff19166002557f5db9ee0a495bf2e6ff9c91a7834c1ba4fdd244a5e8aa4e537bd38aeae4b073aa6020604051338152a180f35b604051638dfc202b60e01b8152600490fd5b50346101bb57806003193601126101bb57601b546040516001600160a01b039091168152602090f35b50346101bb57806003193601126101bb57601154601254600954606093919080610809575090506107f581670de0b6b3a76400006107ef6107e9612276565b86611783565b046117ed565b905b60405192835260208301526040820152f35b6001036107f7579050610836670de0b6b3a764000061082f610829612276565b85611783565b04826117ed565b906107f7565b50346101bb5760603660031901126101bb5780546001600160a01b0390600435906044359060243590841633141580610a68575b610a5657828552601760205260408520549283156102fb5783865260166020526040862091600383019360ff855416156106be57600188946108c0831597881560ff801983541691151516179055565b6108cc846011546117b9565b60115501966108f1670de0b6b3a76400006108e88a5486611783565b046012546117b9565b601255601a541690813b15610a525784916064839260405197889384926389389f3160e01b845289600485015288602485015260448401525af1938415610a45578694610a28575b505060407fe678418be901ac9a27919225bd4d60e450082ef609d1c5e6790e2a201b0e043091875482519182526020820152a3610974578280f35b60ff6013541680610a1b575b80610a11575b15610a0257506060816109ca7fc0decb1295bb3a3f2a58b1592e02fea14db26418837a401d818cf5dbc011306e935460646109c360145483611783565b04906117b9565b906109d760075483611a97565b600160ff19601554161760155554906014549060405192835260208301526040820152a15b38808280f35b610a0c9150611c9d565b6109fc565b5060095415610986565b5060ff6015541615610980565b610a349192945061171b565b610a415783918638610939565b8580fd5b50604051903d90823e3d90fd5b8480fd5b604051635c427cd960e01b8152600490fd5b506024602085601a541660405192838092633220c85960e11b82523060048301525afa908115610ad9578691610aa0575b5015610870565b90506020813d8211610ad1575b81610aba60209383611761565b81010312610a4157610acb906117ac565b38610a99565b3d9150610aad565b6040513d88823e3d90fd5b50346101bb57806003193601126101bb57610afd6116a8565b60ff600f5416156106db57610b10612276565b600c548015159081610cec575b50610cda57600d548015159182610ccf575b5050610cbd57600e544211610cab5760095480610ba45750610b4f612276565b610b57612352565b825b600854811015610b9e57610b76610b708383611783565b84611806565b908115610b9757610b8d610b929260075490611853565b6117c6565b610b59565b5050505080f35b50505080f35b600190808203610c065750610bb7612276565b90610bc0612352565b83825b610bce575050505080f35b600854811015610c015780610b8d610bf2610bec85610bfb95611783565b876117b9565b60075490611a97565b82610bc3565b610b97565b600214610c11575080f35b610c19612276565b90610c22612352565b8180805b610c65575b50805b610c39575050505080f35b600854831c8111610c0157610c5f81610b8d610bf2610c59868896611783565b886117b9565b90610c2e565b600854821c8111610ca657610c83610c7d8483611783565b86611806565b908115610ca057610b8d610c9a9260075490611853565b81610c26565b50610c2b565b610c2b565b60405163010bfb6d60e61b8152600490fd5b604051630e25c9bf60e21b8152600490fd5b101590503880610b2f565b604051637f39d2b760e01b8152600490fd5b905081111538610b1d565b50346101bb5760a03660031901126101bb57610d11611628565b610d1961163e565b906044356001600160a01b0381811691829003610e015760643591818316809303610e01576084359382851690818603610e01578316958615610def578316908115610def578215610def578415610def5715610def57601854928316610db4576101f8956bffffffffffffffffffffffff60a01b8094161760185582601954161760195581601a541617601a55601b541617601b556116d4565b60405162461bcd60e51b8152602060048201526013602482015272105b1c9958591e481a5b9a5d1a585b1a5e9959606a1b6044820152606490fd5b60405163d92e233d60e01b8152600490fd5b600080fd5b50346101bb576101c03660031901126101bb57610e21611628565b610e2961163e565b61018435801515810361139257610e3e6116a8565b6001600160a01b03831615610def576001600160a01b03821615610def5760443515611381576001606435108015611374575b6113625766038d7ea4c6800060843510801561134e575b61133c57600f549060ff821661132a5760a43515801561131e575b61130c57600260c4351161130c57600260e4351161130c5761010435156112fa57426101643511156112e957610124351515806112da575b6112c857610144351515806112b9575b6112a7576040516370a0823160e01b81523060048201526020816024816001600160a01b0389165afa908115610ad9578691611275575b506040516370a0823160e01b8152306004820152906020826024816001600160a01b0389165afa91821561126a578792611232575b5060c4356111de575061010435116111cc575b6040518061026081011067ffffffffffffffff610260830111176111b8576102408161026088930160405260018060a01b038716815260018060a01b038616602082015260443560408201526064356060820152608435608082015260a43560a082015260c43560c082015260e43560e0820152610104356101008201526101243561012082015261014435610140820152610164356101608201526001610180820152826101a0820152826101c0820152826101e08201528315156102008201526101a43561022082015201526bffffffffffffffffffffffff60a01b60018060a01b03851681600354161760035560018060a01b03841690600454161760045560443560055560643560065560843560075560a43560085560c43560095560e435600a5561010435600b5561012435600c5561014435600d5561016435600e55600160ff1980931617600f5584601055846011558460125560ff826013541691151516176013556101a435601455601554166015558260018060a01b03601a541660018060a01b0382541690803b156111b457606483926040519485938492634be8f2dd60e01b8452306004850152602484015260c43560448401525af180156111a957611196575b507ff7199c0ca31732b7bbcccf1c8a1db62ea93b2621a474cbce899b5a3a69d828f460a06040519260443584526064356020850152608435604085015260a435606085015260c4356080850152600180831b031693600180831b031692a380f35b6111a29093919361171b565b9138611135565b6040513d86823e3d90fd5b8280fd5b634e487b7160e01b86526041600452602486fd5b604051631e9acf1760e31b8152600490fd5b9060c43560010361121057506111f860a435608435611783565b1115610f6a57604051631e9acf1760e31b8152600490fd5b9050600260c43514611223575b50610f6a565b61010435116111cc573861121d565b9091506020813d602011611262575b8161124e60209383611761565b8101031261125e57519038610f57565b8680fd5b3d9150611241565b6040513d89823e3d90fd5b90506020813d60201161129f575b8161129060209383611761565b81010312610a41575138610f22565b3d9150611283565b60405163113f495360e21b8152600490fd5b50604435610144351115610eeb565b604051637cb1aa0160e01b8152600490fd5b50604435610124351015610edb565b60405162d36c8560e81b8152600490fd5b604051630757bfc960e21b8152600490fd5b604051632711b74d60e11b8152600490fd5b50603260a43511610ea3565b60405163c976754d60e01b8152600490fd5b604051630bc2906760e01b8152600490fd5b50683635c9adc5dea0000060843511610e88565b604051636682a97b60e11b8152600490fd5b506103e860643511610e71565b60405162bfc92160e01b8152600490fd5b8380fd5b50346101bb5760403660031901126101bb576113b0611628565b6113b86116a8565b815460405163a9059cbb60e01b60208083019182526001600160a01b039384166024808501919091523560448085019190915283529390921692918491611400606482611761565b519082855af115610a455781513d6114375750803b155b61141f575080f35b60249060405190635274afe760e01b82526004820152fd5b60011415611417565b50346101bb57806003193601126101bb576114596116a8565b60ff80600f5416156106db5760019081805b6114a2575b8360ff19600f5416600f557f52aa97daed5e7adcd2e1538f5a054de116b9ed2f299ee99fc0715359a3f6aee58180a180f35b60105481116114d957806114ca9185526016602052826003604087200154166114d0576117c6565b8261146b565b610b8d8161201a565b611470565b50346101bb57806003193601126101bb57601054600182815b838111156115e4575061152261150c856117d5565b9461151a6040519687611761565b8086526117d5565b9360209384820195601f19013687378290845b81811115611576575050506040519380850191818652518092526040850195925b8281106115635785870386f35b8351875295810195928101928401611556565b8085979495989698526016845260ff6003604089200154166115a8575b61159c906117c6565b96949695939295611535565b9184518110156115d0576115c881848661159c9460051b890101526117c6565b929050611593565b634e487b7160e01b87526032600452602487fd5b80829493959252601660205260ff600360408620015416611613575b611609906117c6565b93919290936114f7565b90611620611609916117c6565b919050611600565b600435906001600160a01b0382168203610e0157565b602435906001600160a01b0382168203610e0157565b34610e01576000366003190112610e0157602060405160008152f35b34610e01576000366003190112610e0157602060405160018152f35b34610e01576000366003190112610e0157602060405160028152f35b6000546001600160a01b031633036116bc57565b60405163118cdaa760e01b8152336004820152602490fd5b600080546001600160a01b039283166001600160a01b03198216811783559216907f8be0079c531659141344cd1fd0a4f28419497f9722a3daafe3b4186f6b6457e09080a3565b67ffffffffffffffff811161172f57604052565b634e487b7160e01b600052604160045260246000fd5b60a0810190811067ffffffffffffffff82111761172f57604052565b90601f8019910116810190811067ffffffffffffffff82111761172f57604052565b8181029291811591840414171561179657565b634e487b7160e01b600052601160045260246000fd5b51908115158203610e0157565b9190820180921161179657565b60001981146117965760010190565b67ffffffffffffffff811161172f5760051b60200190565b8181039291600013801582851316918412161761179657565b9190820391821161179657565b919082519283825260005b84811061183f575050826000602080949584010152601f8019910116010190565b60208183018101518483018201520161181e565b90611911906118636010546117c6565b601055670de0b6b3a76400006118798483611783565b049260409182516020956304167a6b60e31b87830152600091826024820152826044820152826064820152606481526118b181611745565b8760018060a01b039182601954168360045416868560035416918b519c8d9586948593638896bb0f60e01b8552600485015260248401528b60448401528960648401523060848401528360a484015260e060c484015260e4830190611813565b03925af1968715611a8d579088918498611a5c575b50601054600488519161193883611745565b8a835261198c8584018a81528b850183815260608601916001835260808701944286528b52601689528d8b2096518755516001870155516002860155511515600385019060ff801983541691151516179055565b51910155601054888552601783528785205560c4888583601a541684600454169460035416968b519788968795636c50dcc160e11b875260048701523060248701526044860152606485015289608485015260a48401525af18015611a5257908791611a29575b505050907f6239ab9e61392c8ae40f6f0fb586f4ac54c41e09738751365887176c30bb08099291601054958351928352820152a3565b813d8311611a4b575b611a3c8183611761565b810103126101bb5785816119f3565b503d611a32565b85513d84823e3d90fd5b8281939299503d8311611a86575b611a748183611761565b810103126111b4578790519638611926565b503d611a6a565b86513d85823e3d90fd5b90611b5590611aa76010546117c6565b601055670de0b6b3a7640000611abd8483611783565b049260409182516020956304167a6b60e31b8783015260009182602482015282604482015282606482015260648152611af581611745565b8760018060a01b039182601954168360035416868560045416918b519c8d9586948593638896bb0f60e01b8552600485015260248401528b60448401528960648401523060848401528360a484015260e060c484015260e4830190611813565b03925af1968715611a8d579088918498611c6c575b506010546004885191611b7c83611745565b8a8352611bd08584018a81528b850183815260608601916001835260808701944286528b52601689528d8b2096518755516001870155516002860155511515600385019060ff801983541691151516179055565b51910155601054888552601783528785205560c4888583601a541684600354169460045416968b519788968795636c50dcc160e11b875260048701523060248701526044860152606485015289608485015260a48401525af18015611a5257908791611a2957505050907f6239ab9e61392c8ae40f6f0fb586f4ac54c41e09738751365887176c30bb08099291601054958351928352820152a3565b8281939299503d8311611c96575b611c848183611761565b810103126111b4578790519638611b6a565b503d611c7a565b600a549060028214612016576000908152602091601683526040908183206001810154916001839114611fcf575b5081611cd9575b5050505050565b6007548360095415611cec6010546117c6565b601055670de0b6b3a7640000611d028685611783565b04908251906304167a6b60e31b8a83015288602483015288604483015288606483015260648252611d3282611745565b6019546001600160a01b039485938c9285169085908d908615611fc157611dad8360045416915b8815611fb6578460035416965b519b8c9788968795638896bb0f60e01b87521660048601521660248401528c60448401528a60648401523060848401528360a484015260e060c484015260e4830190611813565b03925af1938415611fac579087898b8d95948198611f6e575b5060c4939291611e3260049260105492805195611de287611745565b8c87528a8701908152818701918583526060880193600185526080890196428852815260168d522096518755516001870155516002860155511515600385019060ff801983541691151516179055565b51910155601054868c52601785528a8c20558a83601a541682600014611f63578460045416925b15611f58578460035416965b858d519889978896636c50dcc160e11b88528c600489015230602489015216604487015216606485015289608485015260a48401525af18015611f4e57908891611f25575b50509380939281927f1112ee369666deb054b7a2b6d507c60e60ff930b7a3e64945ed408cf735448c0967f6239ab9e61392c8ae40f6f0fb586f4ac54c41e09738751365887176c30bb08096010549586938151908982528d820152a35495828152601688522054958351928352820152a33880808080611cd2565b813d8311611f47575b611f388183611761565b81010312610a41578638611eaa565b503d611f2e565b86513d89823e3d90fd5b846004541696611e65565b846003541692611e59565b949697505050509181813d8311611fa5575b611f8a8183611761565b81010312611fa157519291899187898b60c4611dc6565b8880fd5b503d611f80565b88513d8b823e3d90fd5b846004541696611d66565b611dad836003541691611d59565b60095480611ff45750611fec919250611fe6612352565b90611806565b905b38611ccb565b6001915003611fee57906120109061200a612352565b906117b9565b90611fee565b5050565b600090808252601660205260409081832090825190602082019042825284830152838252606082019167ffffffffffffffff92818110848211176122625785525190209060018060a01b036003541660018060a01b036004541660075490670de0b6b3a764000061208f600188015484611783565b049287519561014087018781108782111761224e57895286526020860152868501523060608501523060808501528660a085015260c084015260e0830152846101008301528351906020820190828210908211176111b85784528481526101208201526019546001600160a01b031690813b15610a525783516316cd2b7b60e11b8152602060048201819052825160248301528201516001600160a01b03908116604483015282860151811660648301526060830151811660848301526080830151811660a483015260a08301511660c482015260c082015160e482015260e082015161010482015261010082015161012482015261012090910151610140610144830152909185918391908290849082906121b090610164830190611813565b03925af180156122415761222e575b5060038101805460ff19169055601a5490546001600160a01b0390911690813b1561139257829160248594928593519586938492637489ec2360e01b845260048401525af19081156122255750612214575050565b61221e829161171b565b6101bb5750565b513d84823e3d90fd5b61223a9093919361171b565b91386121bf565b50505051903d90823e3d90fd5b634e487b7160e01b8b52604160045260248bfd5b634e487b7160e01b87526041600452602487fd5b601b546003546040516302c68be360e31b81526001600160a01b0391821660048201529160809183916024918391165afa80916000916122c2575b50906122be575060055490565b5190565b6080813d821161234a575b816122da60809383611761565b810103126123465760405191608083019083821067ffffffffffffffff831117612332575061232791606091604052805184526020810151602085015260408101516040850152016117ac565b6060820152386122b1565b634e487b7160e01b81526041600452602490fd5b5080fd5b3d91506122cd565b601b54600354600654604051632ca81a5160e01b81526001600160a01b039283166004820152602481018290529092909160209183916044918391165afa600091816123a7575b506123a2575090565b905090565b90916020823d82116123d2575b816123c160209383611761565b810103126101bb5750519038612399565b3d91506123b456fea2646970667358221220b5dbc41dc8b68ec1f83a4813ecf0e8137371fca9a4f21a002acdc6d60b3bba3a64736f6c63430008140033",
  "linkReferences": {},
  "deployedLinkReferences": {}
}