{
  "_format": "hh-sol-artifact-1",
  "contractName": "inchbyinchFactory",
  "sourceName": "contracts/inchbyinchFactory.sol",
  "abi": [
    {
      "inputs": [
        {
          "internalType": "address",
          "name": "_botImplementation",
          "type": "address"
        },
        {
          "internalType": "address",
          "name": "_orderManager",
          "type": "address"
        },
        {
          "internalType": "address",
          "name": "_oracleAdapter",
          "type": "address"
        },
        {
          "internalType": "address",
          "name": "_lop",
          "type": "address"
        },
        {
          "internalType": "address",
          "name": "_lopAdapter",
          "type": "address"
        }
      ],
      "stateMutability": "nonpayable",
      "type": "constructor"
    },
    {
      "inputs": [],
      "name": "BotAlreadyExists",
      "type": "error"
    },
    {
      "inputs": [],
      "name": "BotDeploymentFailed",
      "type": "error"
    },
    {
      "inputs": [],
      "name": "BotNotFound",
      "type": "error"
    },
    {
      "inputs": [],
      "name": "BotUpgradeFailed",
      "type": "error"
    },
    {
      "inputs": [],
      "name": "EnforcedPause",
      "type": "error"
    },
    {
      "inputs": [],
      "name": "ExcessiveDeposit",
      "type": "error"
    },
    {
      "inputs": [],
      "name": "ExpectedPause",
      "type": "error"
    },
    {
      "inputs": [],
      "name": "FailedDeployment",
      "type": "error"
    },
    {
      "inputs": [
        {
          "internalType": "uint256",
          "name": "balance",
          "type": "uint256"
        },
        {
          "internalType": "uint256",
          "name": "needed",
          "type": "uint256"
        }
      ],
      "name": "InsufficientBalance",
      "type": "error"
    },
    {
      "inputs": [],
      "name": "InsufficientDeposit",
      "type": "error"
    },
    {
      "inputs": [],
      "name": "InvalidBotAddress",
      "type": "error"
    },
    {
      "inputs": [],
      "name": "InvalidDeposit",
      "type": "error"
    },
    {
      "inputs": [
        {
          "internalType": "address",
          "name": "owner",
          "type": "address"
        }
      ],
      "name": "OwnableInvalidOwner",
      "type": "error"
    },
    {
      "inputs": [
        {
          "internalType": "address",
          "name": "account",
          "type": "address"
        }
      ],
      "name": "OwnableUnauthorizedAccount",
      "type": "error"
    },
    {
      "inputs": [],
      "name": "ReentrancyGuardReentrantCall",
      "type": "error"
    },
    {
      "inputs": [],
      "name": "UnauthorizedToken",
      "type": "error"
    },
    {
      "inputs": [],
      "name": "UserLimitExceeded",
      "type": "error"
    },
    {
      "inputs": [],
      "name": "ZeroAddress",
      "type": "error"
    },
    {
      "inputs": [],
      "name": "ZeroAmount",
      "type": "error"
    },
    {
      "anonymous": false,
      "inputs": [
        {
          "indexed": true,
          "internalType": "address",
          "name": "user",
          "type": "address"
        },
        {
          "indexed": true,
          "internalType": "address",
          "name": "bot",
          "type": "address"
        },
        {
          "indexed": true,
          "internalType": "uint256",
          "name": "botIndex",
          "type": "uint256"
        },
        {
          "indexed": false,
          "internalType": "uint256",
          "name": "deploymentCost",
          "type": "uint256"
        }
      ],
      "name": "BotDeployed",
      "type": "event"
    },
    {
      "anonymous": false,
      "inputs": [
        {
          "indexed": true,
          "internalType": "address",
          "name": "user",
          "type": "address"
        },
        {
          "indexed": true,
          "internalType": "address",
          "name": "oldBot",
          "type": "address"
        },
        {
          "indexed": true,
          "internalType": "address",
          "name": "newBot",
          "type": "address"
        }
      ],
      "name": "BotUpgraded",
      "type": "event"
    },
    {
      "anonymous": false,
      "inputs": [
        {
          "indexed": false,
          "internalType": "uint256",
          "name": "minDeposit",
          "type": "uint256"
        },
        {
          "indexed": false,
          "internalType": "uint256",
          "name": "maxDeposit",
          "type": "uint256"
        }
      ],
      "name": "DepositLimitsUpdated",
      "type": "event"
    },
    {
      "anonymous": false,
      "inputs": [
        {
          "indexed": true,
          "internalType": "address",
          "name": "previousOwner",
          "type": "address"
        },
        {
          "indexed": true,
          "internalType": "address",
          "name": "newOwner",
          "type": "address"
        }
      ],
      "name": "OwnershipTransferred",
      "type": "event"
    },
    {
      "anonymous": false,
      "inputs": [
        {
          "indexed": false,
          "internalType": "address",
          "name": "account",
          "type": "address"
        }
      ],
      "name": "Paused",
      "type": "event"
    },
    {
      "anonymous": false,
      "inputs": [
        {
          "indexed": true,
          "internalType": "address",
          "name": "token",
          "type": "address"
        }
      ],
      "name": "TokenAuthorized",
      "type": "event"
    },
    {
      "anonymous": false,
      "inputs": [
        {
          "indexed": true,
          "internalType": "address",
          "name": "token",
          "type": "address"
        }
      ],
      "name": "TokenDeauthorized",
      "type": "event"
    },
    {
      "anonymous": false,
      "inputs": [
        {
          "indexed": false,
          "internalType": "address",
          "name": "account",
          "type": "address"
        }
      ],
      "name": "Unpaused",
      "type": "event"
    },
    {
      "anonymous": false,
      "inputs": [
        {
          "indexed": false,
          "internalType": "uint256",
          "name": "newLimit",
          "type": "uint256"
        }
      ],
      "name": "UserLimitUpdated",
      "type": "event"
    },
    {
      "stateMutability": "payable",
      "type": "fallback"
    },
    {
      "inputs": [],
      "name": "MAX_BOTS_PER_USER",
      "outputs": [
        {
          "internalType": "uint256",
          "name": "",
          "type": "uint256"
        }
      ],
      "stateMutability": "view",
      "type": "function"
    },
    {
      "inputs": [],
      "name": "MAX_DEPOSIT",
      "outputs": [
        {
          "internalType": "uint256",
          "name": "",
          "type": "uint256"
        }
      ],
      "stateMutability": "view",
      "type": "function"
    },
    {
      "inputs": [],
      "name": "MIN_DEPOSIT",
      "outputs": [
        {
          "internalType": "uint256",
          "name": "",
          "type": "uint256"
        }
      ],
      "stateMutability": "view",
      "type": "function"
    },
    {
      "inputs": [
        {
          "internalType": "address",
          "name": "token",
          "type": "address"
        }
      ],
      "name": "authorizeToken",
      "outputs": [],
      "stateMutability": "nonpayable",
      "type": "function"
    },
    {
      "inputs": [
        {
          "internalType": "address",
          "name": "",
          "type": "address"
        }
      ],
      "name": "authorizedTokens",
      "outputs": [
        {
          "internalType": "bool",
          "name": "",
          "type": "bool"
        }
      ],
      "stateMutability": "view",
      "type": "function"
    },
    {
      "inputs": [
        {
          "internalType": "address",
          "name": "",
          "type": "address"
        }
      ],
      "name": "botDeploymentCount",
      "outputs": [
        {
          "internalType": "uint256",
          "name": "",
          "type": "uint256"
        }
      ],
      "stateMutability": "view",
      "type": "function"
    },
    {
      "inputs": [],
      "name": "botImplementation",
      "outputs": [
        {
          "internalType": "address",
          "name": "",
          "type": "address"
        }
      ],
      "stateMutability": "view",
      "type": "function"
    },
    {
      "inputs": [
        {
          "internalType": "address",
          "name": "token",
          "type": "address"
        }
      ],
      "name": "deauthorizeToken",
      "outputs": [],
      "stateMutability": "nonpayable",
      "type": "function"
    },
    {
      "inputs": [
        {
          "internalType": "address",
          "name": "user",
          "type": "address"
        }
      ],
      "name": "deployBot",
      "outputs": [
        {
          "internalType": "address",
          "name": "bot",
          "type": "address"
        }
      ],
      "stateMutability": "payable",
      "type": "function"
    },
    {
      "inputs": [
        {
          "internalType": "address",
          "name": "user",
          "type": "address"
        },
        {
          "internalType": "uint256",
          "name": "count",
          "type": "uint256"
        }
      ],
      "name": "deployMultipleBots",
      "outputs": [
        {
          "internalType": "address[]",
          "name": "bots",
          "type": "address[]"
        }
      ],
      "stateMutability": "payable",
      "type": "function"
    },
    {
      "inputs": [
        {
          "internalType": "address",
          "name": "token",
          "type": "address"
        },
        {
          "internalType": "address",
          "name": "to",
          "type": "address"
        },
        {
          "internalType": "uint256",
          "name": "amount",
          "type": "uint256"
        }
      ],
      "name": "emergencyRecover",
      "outputs": [],
      "stateMutability": "nonpayable",
      "type": "function"
    },
    {
      "inputs": [],
      "name": "getBotImplementation",
      "outputs": [
        {
          "internalType": "address",
          "name": "implementation",
          "type": "address"
        }
      ],
      "stateMutability": "view",
      "type": "function"
    },
    {
      "inputs": [],
      "name": "getFactoryConfig",
      "outputs": [
        {
          "internalType": "address",
          "name": "_orderManager",
          "type": "address"
        },
        {
          "internalType": "address",
          "name": "_oracleAdapter",
          "type": "address"
        },
        {
          "internalType": "address",
          "name": "_lop",
          "type": "address"
        },
        {
          "internalType": "uint256",
          "name": "_maxBotsPerUser",
          "type": "uint256"
        },
        {
          "internalType": "uint256",
          "name": "_minDeposit",
          "type": "uint256"
        },
        {
          "internalType": "uint256",
          "name": "_maxDeposit",
          "type": "uint256"
        }
      ],
      "stateMutability": "view",
      "type": "function"
    },
    {
      "inputs": [
        {
          "internalType": "address",
          "name": "user",
          "type": "address"
        },
        {
          "internalType": "uint256",
          "name": "botIndex",
          "type": "uint256"
        }
      ],
      "name": "getUserBot",
      "outputs": [
        {
          "internalType": "address",
          "name": "bot",
          "type": "address"
        }
      ],
      "stateMutability": "view",
      "type": "function"
    },
    {
      "inputs": [
        {
          "internalType": "address",
          "name": "user",
          "type": "address"
        }
      ],
      "name": "getUserBotCount",
      "outputs": [
        {
          "internalType": "uint256",
          "name": "count",
          "type": "uint256"
        }
      ],
      "stateMutability": "view",
      "type": "function"
    },
    {
      "inputs": [
        {
          "internalType": "address",
          "name": "user",
          "type": "address"
        }
      ],
      "name": "getUserBots",
      "outputs": [
        {
          "internalType": "address[]",
          "name": "bots",
          "type": "address[]"
        }
      ],
      "stateMutability": "view",
      "type": "function"
    },
    {
      "inputs": [
        {
          "internalType": "address",
          "name": "user",
          "type": "address"
        }
      ],
      "name": "getUserDeploymentCount",
      "outputs": [
        {
          "internalType": "uint256",
          "name": "count",
          "type": "uint256"
        }
      ],
      "stateMutability": "view",
      "type": "function"
    },
    {
      "inputs": [
        {
          "internalType": "address",
          "name": "token",
          "type": "address"
        }
      ],
      "name": "isTokenAuthorized",
      "outputs": [
        {
          "internalType": "bool",
          "name": "isAuthorized",
          "type": "bool"
        }
      ],
      "stateMutability": "view",
      "type": "function"
    },
    {
      "inputs": [],
      "name": "lop",
      "outputs": [
        {
          "internalType": "address",
          "name": "",
          "type": "address"
        }
      ],
      "stateMutability": "view",
      "type": "function"
    },
    {
      "inputs": [],
      "name": "lopAdapter",
      "outputs": [
        {
          "internalType": "address",
          "name": "",
          "type": "address"
        }
      ],
      "stateMutability": "view",
      "type": "function"
    },
    {
      "inputs": [],
      "name": "oracleAdapter",
      "outputs": [
        {
          "internalType": "address",
          "name": "",
          "type": "address"
        }
      ],
      "stateMutability": "view",
      "type": "function"
    },
    {
      "inputs": [],
      "name": "orderManager",
      "outputs": [
        {
          "internalType": "address",
          "name": "",
          "type": "address"
        }
      ],
      "stateMutability": "view",
      "type": "function"
    },
    {
      "inputs": [],
      "name": "owner",
      "outputs": [
        {
          "internalType": "address",
          "name": "",
          "type": "address"
        }
      ],
      "stateMutability": "view",
      "type": "function"
    },
    {
      "inputs": [],
      "name": "pause",
      "outputs": [],
      "stateMutability": "nonpayable",
      "type": "function"
    },
    {
      "inputs": [],
      "name": "paused",
      "outputs": [
        {
          "internalType": "bool",
          "name": "",
          "type": "bool"
        }
      ],
      "stateMutability": "view",
      "type": "function"
    },
    {
      "inputs": [],
      "name": "renounceOwnership",
      "outputs": [],
      "stateMutability": "nonpayable",
      "type": "function"
    },
    {
      "inputs": [
        {
          "internalType": "address",
          "name": "newOwner",
          "type": "address"
        }
      ],
      "name": "transferOwnership",
      "outputs": [],
      "stateMutability": "nonpayable",
      "type": "function"
    },
    {
      "inputs": [],
      "name": "unpause",
      "outputs": [],
      "stateMutability": "nonpayable",
      "type": "function"
    },
    {
      "inputs": [
        {
          "internalType": "address",
          "name": "user",
          "type": "address"
        },
        {
          "internalType": "uint256",
          "name": "botIndex",
          "type": "uint256"
        }
      ],
      "name": "upgradeBot",
      "outputs": [
        {
          "internalType": "address",
          "name": "newBot",
          "type": "address"
        }
      ],
      "stateMutability": "payable",
      "type": "function"
    },
    {
      "inputs": [
        {
          "internalType": "address",
          "name": "",
          "type": "address"
        },
        {
          "internalType": "uint256",
          "name": "",
          "type": "uint256"
        }
      ],
      "name": "userBots",
      "outputs": [
        {
          "internalType": "address",
          "name": "",
          "type": "address"
        }
      ],
      "stateMutability": "view",
      "type": "function"
    },
    {
      "inputs": [
        {
          "internalType": "uint256",
          "name": "amount",
          "type": "uint256"
        }
      ],
      "name": "withdrawETH",
      "outputs": [],
      "stateMutability": "nonpayable",
      "type": "function"
    },
    {
      "inputs": [
        {
          "internalType": "address",
          "name": "token",
          "type": "address"
        },
        {
          "internalType": "uint256",
          "name": "amount",
          "type": "uint256"
        }
      ],
      "name": "withdrawTokens",
      "outputs": [],
      "stateMutability": "nonpayable",
      "type": "function"
    },
    {
      "stateMutability": "payable",
      "type": "receive"
    }
  ],
  "bytecode": "0x610120346200022b57601f620018ec38819003918201601f1916830191906001600160401b0383118484101762000230578160a092859260409586528339810103126200022b57620000518262000246565b91620000606020820162000246565b6200006d83830162000246565b906200008a6080620000826060860162000246565b940162000246565b943315620002135760008054336001600160a01b031982168117835587516001600160a01b039390928416907f8be0079c531659141344cd1fd0a4f28419497f9722a3daafe3b4186f6b6457e09080a3600180558183161562000204575080831615620001f35780841615620001f35780851615620001f357861615620001e25760805260a05260c05260e0526101009182525161169091826200025c83396080518281816102c001528181610a1a01528181610e1901526113c1015260a0518281816101990152818161032d015281816103b50152818161041001528181610a4501528181610e44015261123f015260c05182818161030c01528181610a8401528181610e83015281816110d10152611264015260e05182818161036f0152818161089701528181610ac701528181610ec6015261128b01525181818161034e01528181610aa601528181610ea5015261101c0152f35b845163d92e233d60e01b8152600490fd5b855163d92e233d60e01b8152600490fd5b63d92e233d60e01b8152600490fd5b8451631e4fbdf760e01b815260006004820152602490fd5b600080fd5b634e487b7160e01b600052604160045260246000fd5b51906001600160a01b03821682036200022b5756fe60806040526004361015610018575b361561001657005b005b6000803560e01c806306b091f9146113145780630c4ce2ed146112d5578063159037631461121f57806325c596cc146111e0578063265567531461104b578063301a2fa61461119057806334c1d429146111005780633d9f3163146110bb5780633f4ba83a1461105057806348131a061461104b5780634ec3635e146110065780635912642e14610db85780635c975abb14610d95578063715018a614610d3b57806379ea766914610d025780637f6734d614610ca75780637ffe2b4014610c625780638456cb5914610bf457806387c667391461099b5780638da5cb5b1461097457806398e9cb12146109055780639bc7c586146108c65780639ccf88c714610881578063ad1329d1146107d8578063adf2067a1461076c578063d509730814610750578063dd5967c31461072c578063e1e158a51461070a578063f14210a61461067f578063f2fde38b146105ef578063f7e34412146101cb5763f9b6117f14610184575061000e565b346101c857806003193601126101c8576040517f00000000000000000000000000000000000000000000000000000000000000006001600160a01b03168152602090f35b80fd5b5060403660031901126101c8576101e0611395565b6001600160a01b038116156105dd576024351580156105d1575b6105bf576001600160a01b038116825260036020526040822054602435810190811061058757600a106105ad5760243566038d7ea4c680000266038d7ea4c6800081046024350361058757341061059b57683635c9adc5dea00000602435810290810460243503610587573411610575576102766024356115c4565b9061028460405192836114b8565b6024358252601f196102976024356115c4565b01366020840137825b60243581106102bb57604051806102b785826113f0565b0390f35b6102e47f000000000000000000000000000000000000000000000000000000000000000061155c565b6001600160a01b0381163b1561055257604051630a2ca2bd60e11b81528590818180610397887f00000000000000000000000000000000000000000000000000000000000000007f00000000000000000000000000000000000000000000000000000000000000007f00000000000000000000000000000000000000000000000000000000000000007f0000000000000000000000000000000000000000000000000000000000000000600487016114da565b0381836001600160a01b0388165af1801561055657610561575b50507f00000000000000000000000000000000000000000000000000000000000000006001600160a01b03163b156105525760405163297a4aad60e11b81526001600160a01b03828116600483015286919082908290602490829084907f0000000000000000000000000000000000000000000000000000000000000000165af180156105565761053e575b50506001600160a01b038316855260036020526040852061045f90829061150d565b6001600160a01b0383168552600560205260408520805461047f90611537565b9055835182101561052a576001600160a01b038181166020600585901b87018101919091529084168652600390526040852054600019810181106105165760405166038d7ea4c6800081526105119392600019909201916001600160a01b0390811691908616907fcbd143ab29dda74d196e269af025f1c0372f07ae1c5684395b6ec105a55cd23690602090a4611537565b6102a0565b634e487b7160e01b86526011600452602486fd5b634e487b7160e01b85526032600452602485fd5b6105479061148e565b61055257843861043d565b8480fd5b6040513d84823e3d90fd5b61056a9061148e565b6105525784386103b1565b60405163496d3e1160e11b8152600490fd5b634e487b7160e01b83526011600452602483fd5b60405163070f6eed60e11b8152600490fd5b6040516361eea57560e11b8152600490fd5b604051631f2a200560e01b8152600490fd5b506005602435116101fa565b60405163d92e233d60e01b8152600490fd5b50346101c85760203660031901126101c857610609611395565b610611611462565b6001600160a01b0390811690811561066657600054826bffffffffffffffffffffffff60a01b821617600055167f8be0079c531659141344cd1fd0a4f28419497f9722a3daafe3b4186f6b6457e0600080a380f35b604051631e4fbdf760e01b815260048101849052602490fd5b50346101c85760203660031901126101c85760043561069c611462565b80156105bf574781116106ce57818080806106cb9460018060a01b038254165af16106c56115dc565b5061161c565b80f35b60405162461bcd60e51b8152602060048201526014602482015273496e73756666696369656e742062616c616e636560601b6044820152606490fd5b50346101c857806003193601126101c857602060405166038d7ea4c680008152f35b50346101c857806003193601126101c8576020604051683635c9adc5dea000008152f35b50346101c857806003193601126101c8576020604051600a8152f35b50346101c85760203660031901126101c857610786611395565b61078e611462565b6001600160a01b031680156105dd57808252600460205260408220805460ff191690557fc2e555ff9a88291de51a4e867095d0f6c64f59714f0a0be28fc1b0d345674f578280a280f35b50346101c85760603660031901126101c8576107f2611395565b6024356001600160a01b0380821680830361087c5760443591610813611462565b8416156105dd57156105dd5780156105bf5760405163a9059cbb60e01b602082019081526001600160a01b03909316602482015260448101919091526106cb9284928392839061087081606481015b03601f1981018352826114b8565b51925af16106c56115dc565b600080fd5b50346101c857806003193601126101c8576040517f00000000000000000000000000000000000000000000000000000000000000006001600160a01b03168152602090f35b50346101c85760203660031901126101c85760209060ff906040906001600160a01b036108f1611395565b168152600484522054166040519015158152f35b50346101c85760203660031901126101c85761091f611395565b610927611462565b6001600160a01b031680156105dd57808252600460205260408220805460ff191660011790557f4f212173e1223404ad18982e997212dfadb852b7cd98cdd495b14b58c684cdc28280a280f35b50346101c857806003193601126101c857546040516001600160a01b039091168152602090f35b5060403660031901126101c8576109b0611395565b60243591906001600160a01b038082169081156105dd5766038d7ea4c68000341061059b57683635c9adc5dea00000341161057557818452600360205260408420948554811015610be25781610a068288611434565b90549060031b1c16958615610be257610a3e7f000000000000000000000000000000000000000000000000000000000000000061155c565b92808416957f000000000000000000000000000000000000000000000000000000000000000090873b15610bde5788610aef9160405180938192630a2ca2bd60e11b83527f0000000000000000000000000000000000000000000000000000000000000000877f00000000000000000000000000000000000000000000000000000000000000007f0000000000000000000000000000000000000000000000000000000000000000600487016114da565b0381838c5af18015610bd357908991610bbb575b505016803b15610bb75786809160246040518094819363297a4aad60e11b83528b60048401525af18015610bac57610b94575b5060209692610b4a869593610b6993611434565b90919082549060031b9160018060a01b03809116831b921b1916179055565b7f68728588b9bd047e94c7d39855d8480b0bd9c2d8acb759f6e9b9b838cf497a636040519580a48152f35b610b9e879161148e565b610ba85738610b36565b8580fd5b6040513d89823e3d90fd5b8680fd5b610bc49061148e565b610bcf578738610b03565b8780fd5b6040513d8b823e3d90fd5b8880fd5b60405163515b928360e01b8152600490fd5b50346101c857806003193601126101c857610c0d611462565b60025460ff8116610c505760019060ff1916176002557f62e78cea01bee320cd4e420270b5ea74000d11b0c9f74754ebdbfc544b05a2586020604051338152a180f35b60405163d93c066560e01b8152600490fd5b50346101c85760203660031901126101c8576001600160a01b03610c84611395565b169081156105dd5760408160209360ff9352600484522054166040519015158152f35b50346101c85760403660031901126101c857610cc1611395565b6001600160a01b039081168252600360205260408220805460243593908410156101c85750602092610cf291611434565b90549060031b1c16604051908152f35b50346101c85760203660031901126101c8576020906040906001600160a01b03610d2a611395565b168152600583522054604051908152f35b50346101c857806003193601126101c857610d54611462565b600080546001600160a01b0319811682556001600160a01b03167f8be0079c531659141344cd1fd0a4f28419497f9722a3daafe3b4186f6b6457e08280a380f35b50346101c857806003193601126101c857602060ff600254166040519015158152f35b50602090816003193601126101c857610dcf611395565b906001600160a01b038083169081156105dd5766038d7ea4c68000341061059b57683635c9adc5dea0000034116105755781835260038552600a604084205410156105ad57610e3d7f000000000000000000000000000000000000000000000000000000000000000061155c565b90808216947f000000000000000000000000000000000000000000000000000000000000000090863b15610ba85785610eee9160405180938192630a2ca2bd60e11b83527f0000000000000000000000000000000000000000000000000000000000000000877f00000000000000000000000000000000000000000000000000000000000000007f0000000000000000000000000000000000000000000000000000000000000000600487016114da565b0381838b5af18015610ffb57610fe8575b5016803b15610fe45783809160246040518094819363297a4aad60e11b83528a60048401525af18015610fd957908491610fc1575b509082610f499252600386526040842061150d565b8082526005845260408220610f5e8154611537565b9055808252600384526040822054600019810192908311610fad575082907fcbd143ab29dda74d196e269af025f1c0372f07ae1c5684395b6ec105a55cd23685604051348152a4604051908152f35b634e487b7160e01b81526011600452602490fd5b610fca9061148e565b610fd5578238610f34565b8280fd5b6040513d86823e3d90fd5b8380fd5b610ff49095919561148e565b9338610eff565b6040513d88823e3d90fd5b50346101c857806003193601126101c8576040517f00000000000000000000000000000000000000000000000000000000000000006001600160a01b03168152602090f35b6113ab565b50346101c857806003193601126101c857611069611462565b60025460ff8116156110a95760ff19166002557f5db9ee0a495bf2e6ff9c91a7834c1ba4fdd244a5e8aa4e537bd38aeae4b073aa6020604051338152a180f35b604051638dfc202b60e01b8152600490fd5b50346101c857806003193601126101c8576040517f00000000000000000000000000000000000000000000000000000000000000006001600160a01b03168152602090f35b50346101c85760208060031936011261118c576001600160a01b039081611125611395565b1680156105dd5783908152600382526040812092604051908193808654938481520195845280842093915b838310611173576102b786611167818a03826114b8565b604051918291826113f0565b8454811687529581019560019485019490920191611150565b5080fd5b50346101c85760403660031901126101c8576111aa611395565b602435916001600160a01b039182169081156105dd5760409181526003602052208054831015610be257602092610cf291611434565b50346101c85760203660031901126101c8576001600160a01b03611202611395565b1680156105dd578160409160209352600583522054604051908152f35b50346101c857806003193601126101c85760c060405160018060a01b03807f0000000000000000000000000000000000000000000000000000000000000000168252807f00000000000000000000000000000000000000000000000000000000000000001660208301527f0000000000000000000000000000000000000000000000000000000000000000166040820152600a606082015266038d7ea4c680006080820152683635c9adc5dea0000060a0820152f35b50346101c85760203660031901126101c8576001600160a01b036112f7611395565b1680156105dd578160409160209352600383522054604051908152f35b50346101c85760403660031901126101c85761132e611395565b602435611339611462565b6001600160a01b03828116156105dd5781156105bf57835460405163a9059cbb60e01b60208201908152929091166001600160a01b0316602482015260448101929092526106cb92849283929083906108708160648101610862565b600435906001600160a01b038216820361087c57565b3461087c57600036600319011261087c576040517f00000000000000000000000000000000000000000000000000000000000000006001600160a01b03168152602090f35b6020908160408183019282815285518094520193019160005b828110611417575050505090565b83516001600160a01b031685529381019392810192600101611409565b805482101561144c5760005260206000200190600090565b634e487b7160e01b600052603260045260246000fd5b6000546001600160a01b0316330361147657565b60405163118cdaa760e01b8152336004820152602490fd5b67ffffffffffffffff81116114a257604052565b634e487b7160e01b600052604160045260246000fd5b90601f8019910116810190811067ffffffffffffffff8211176114a257604052565b6001600160a01b039182168152918116602083015291821660408201529181166060830152909116608082015260a00190565b90815491680100000000000000008310156114a25782610b4a91600161153595018155611434565b565b60001981146115465760010190565b634e487b7160e01b600052601160045260246000fd5b6e5af43d82803e903d91602b57fd5bf390763d602d80600a3d3981f3363d3d373d3d3d363d7300000062ffffff8260881c161760005260781b17602052603760096000f0906001600160a01b038216156115b257565b60405163b06ebf3d60e01b8152600490fd5b67ffffffffffffffff81116114a25760051b60200190565b3d15611617573d9067ffffffffffffffff82116114a2576040519161160b601f8201601f1916602001846114b8565b82523d6000602084013e565b606090565b1561162357565b60405162461bcd60e51b815260206004820152600f60248201526e151c985b9cd9995c8819985a5b1959608a1b6044820152606490fdfea2646970667358221220cbdc25d45e3f750ad45af1adcb153d1d3e039888972a713499ad616859563d8964736f6c63430008140033",
  "linkReferences": {},
  "deployedLinkReferences": {}
}