{
  "_format": "hh-sol-artifact-1",
  "contractName": "inchbyinchBot",
  "sourceName": "contracts/inchbyinchBot.sol",
  "abi": [
    {
      "inputs": [],
      "stateMutability": "nonpayable",
      "type": "constructor"
    },
    {
      "inputs": [],
      "name": "EnforcedPause",
      "type": "error"
    },
    {
      "inputs": [],
      "name": "ExceedsBudget",
      "type": "error"
    },
    {
      "inputs": [],
      "name": "ExpectedPause",
      "type": "error"
    },
    {
      "inputs": [],
      "name": "InsufficientBalance",
      "type": "error"
    },
    {
      "inputs": [],
      "name": "InvalidBudget",
      "type": "error"
    },
    {
      "inputs": [],
      "name": "InvalidExpiry",
      "type": "error"
    },
    {
      "inputs": [],
      "name": "InvalidOrderSize",
      "type": "error"
    },
    {
      "inputs": [],
      "name": "InvalidPrice",
      "type": "error"
    },
    {
      "inputs": [],
      "name": "InvalidSpacing",
      "type": "error"
    },
    {
      "inputs": [],
      "name": "InvalidStopLoss",
      "type": "error"
    },
    {
      "inputs": [],
      "name": "InvalidStrategy",
      "type": "error"
    },
    {
      "inputs": [],
      "name": "InvalidTakeProfit",
      "type": "error"
    },
    {
      "inputs": [],
      "name": "OrderAlreadyCanceled",
      "type": "error"
    },
    {
      "inputs": [],
      "name": "OrderAlreadyExists",
      "type": "error"
    },
    {
      "inputs": [],
      "name": "OrderAlreadyFilled",
      "type": "error"
    },
    {
      "inputs": [],
      "name": "OrderNotFound",
      "type": "error"
    },
    {
      "inputs": [
        {
          "internalType": "address",
          "name": "owner",
          "type": "address"
        }
      ],
      "name": "OwnableInvalidOwner",
      "type": "error"
    },
    {
      "inputs": [
        {
          "internalType": "address",
          "name": "account",
          "type": "address"
        }
      ],
      "name": "OwnableUnauthorizedAccount",
      "type": "error"
    },
    {
      "inputs": [],
      "name": "ReentrancyGuardReentrantCall",
      "type": "error"
    },
    {
      "inputs": [
        {
          "internalType": "address",
          "name": "token",
          "type": "address"
        }
      ],
      "name": "SafeERC20FailedOperation",
      "type": "error"
    },
    {
      "inputs": [],
      "name": "StopLossTriggered",
      "type": "error"
    },
    {
      "inputs": [],
      "name": "StrategyAlreadyActive",
      "type": "error"
    },
    {
      "inputs": [],
      "name": "StrategyExpired",
      "type": "error"
    },
    {
      "inputs": [],
      "name": "StrategyNotActive",
      "type": "error"
    },
    {
      "inputs": [],
      "name": "TakeProfitTriggered",
      "type": "error"
    },
    {
      "inputs": [],
      "name": "UnauthorizedCaller",
      "type": "error"
    },
    {
      "inputs": [],
      "name": "ZeroAddress",
      "type": "error"
    },
    {
      "inputs": [],
      "name": "ZeroAmount",
      "type": "error"
    },
    {
      "anonymous": false,
      "inputs": [
        {
          "indexed": true,
          "internalType": "bytes32",
          "name": "orderHash",
          "type": "bytes32"
        },
        {
          "indexed": true,
          "internalType": "uint256",
          "name": "orderIndex",
          "type": "uint256"
        },
        {
          "indexed": false,
          "internalType": "uint256",
          "name": "filledAmount",
          "type": "uint256"
        },
        {
          "indexed": false,
          "internalType": "uint256",
          "name": "price",
          "type": "uint256"
        }
      ],
      "name": "OrderFilled",
      "type": "event"
    },
    {
      "anonymous": false,
      "inputs": [
        {
          "indexed": true,
          "internalType": "bytes32",
          "name": "orderHash",
          "type": "bytes32"
        },
        {
          "indexed": true,
          "internalType": "uint256",
          "name": "orderIndex",
          "type": "uint256"
        },
        {
          "indexed": false,
          "internalType": "uint256",
          "name": "price",
          "type": "uint256"
        },
        {
          "indexed": false,
          "internalType": "uint256",
          "name": "orderSize",
          "type": "uint256"
        }
      ],
      "name": "OrderPlaced",
      "type": "event"
    },
    {
      "anonymous": false,
      "inputs": [
        {
          "indexed": true,
          "internalType": "bytes32",
          "name": "oldOrderHash",
          "type": "bytes32"
        },
        {
          "indexed": true,
          "internalType": "bytes32",
          "name": "newOrderHash",
          "type": "bytes32"
        },
        {
          "indexed": false,
          "internalType": "uint256",
          "name": "newPrice",
          "type": "uint256"
        },
        {
          "indexed": false,
          "internalType": "uint256",
          "name": "orderIndex",
          "type": "uint256"
        }
      ],
      "name": "OrderReposted",
      "type": "event"
    },
    {
      "anonymous": false,
      "inputs": [
        {
          "indexed": true,
          "internalType": "address",
          "name": "previousOwner",
          "type": "address"
        },
        {
          "indexed": true,
          "internalType": "address",
          "name": "newOwner",
          "type": "address"
        }
      ],
      "name": "OwnershipTransferred",
      "type": "event"
    },
    {
      "anonymous": false,
      "inputs": [
        {
          "indexed": false,
          "internalType": "address",
          "name": "account",
          "type": "address"
        }
      ],
      "name": "Paused",
      "type": "event"
    },
    {
      "anonymous": false,
      "inputs": [
        {
          "indexed": false,
          "internalType": "uint256",
          "name": "orderPrice",
          "type": "uint256"
        },
        {
          "indexed": false,
          "internalType": "uint256",
          "name": "sellPrice",
          "type": "uint256"
        },
        {
          "indexed": false,
          "internalType": "uint256",
          "name": "flipPercentage",
          "type": "uint256"
        }
      ],
      "name": "SellFlipTriggered",
      "type": "event"
    },
    {
      "anonymous": false,
      "inputs": [],
      "name": "StrategyCancelled",
      "type": "event"
    },
    {
      "anonymous": false,
      "inputs": [
        {
          "indexed": false,
          "internalType": "uint256",
          "name": "totalFilled",
          "type": "uint256"
        },
        {
          "indexed": false,
          "internalType": "uint256",
          "name": "totalSpent",
          "type": "uint256"
        },
        {
          "indexed": false,
          "internalType": "uint256",
          "name": "profit",
          "type": "uint256"
        }
      ],
      "name": "StrategyCompleted",
      "type": "event"
    },
    {
      "anonymous": false,
      "inputs": [
        {
          "indexed": true,
          "internalType": "address",
          "name": "makerAsset",
          "type": "address"
        },
        {
          "indexed": true,
          "internalType": "address",
          "name": "takerAsset",
          "type": "address"
        },
        {
          "indexed": false,
          "internalType": "uint256",
          "name": "startPrice",
          "type": "uint256"
        },
        {
          "indexed": false,
          "internalType": "uint256",
          "name": "spacing",
          "type": "uint256"
        },
        {
          "indexed": false,
          "internalType": "uint256",
          "name": "orderSize",
          "type": "uint256"
        },
        {
          "indexed": false,
          "internalType": "uint256",
          "name": "numOrders",
          "type": "uint256"
        },
        {
          "indexed": false,
          "internalType": "uint256",
          "name": "strategyType",
          "type": "uint256"
        }
      ],
      "name": "StrategyCreated",
      "type": "event"
    },
    {
      "anonymous": false,
      "inputs": [
        {
          "indexed": false,
          "internalType": "address",
          "name": "account",
          "type": "address"
        }
      ],
      "name": "Unpaused",
      "type": "event"
    },
    {
      "inputs": [],
      "name": "MAX_ORDERS",
      "outputs": [
        {
          "internalType": "uint256",
          "name": "",
          "type": "uint256"
        }
      ],
      "stateMutability": "view",
      "type": "function"
    },
    {
      "inputs": [],
      "name": "MAX_ORDER_SIZE",
      "outputs": [
        {
          "internalType": "uint256",
          "name": "",
          "type": "uint256"
        }
      ],
      "stateMutability": "view",
      "type": "function"
    },
    {
      "inputs": [],
      "name": "MAX_SPACING",
      "outputs": [
        {
          "internalType": "uint256",
          "name": "",
          "type": "uint256"
        }
      ],
      "stateMutability": "view",
      "type": "function"
    },
    {
      "inputs": [],
      "name": "MIN_ORDER_SIZE",
      "outputs": [
        {
          "internalType": "uint256",
          "name": "",
          "type": "uint256"
        }
      ],
      "stateMutability": "view",
      "type": "function"
    },
    {
      "inputs": [],
      "name": "MIN_SPACING",
      "outputs": [
        {
          "internalType": "uint256",
          "name": "",
          "type": "uint256"
        }
      ],
      "stateMutability": "view",
      "type": "function"
    },
    {
      "inputs": [],
      "name": "REPOST_NEXT_PRICE",
      "outputs": [
        {
          "internalType": "uint256",
          "name": "",
          "type": "uint256"
        }
      ],
      "stateMutability": "view",
      "type": "function"
    },
    {
      "inputs": [],
      "name": "REPOST_SAME_PRICE",
      "outputs": [
        {
          "internalType": "uint256",
          "name": "",
          "type": "uint256"
        }
      ],
      "stateMutability": "view",
      "type": "function"
    },
    {
      "inputs": [],
      "name": "REPOST_SKIP",
      "outputs": [
        {
          "internalType": "uint256",
          "name": "",
          "type": "uint256"
        }
      ],
      "stateMutability": "view",
      "type": "function"
    },
    {
      "inputs": [],
      "name": "STRATEGY_BUY_LADDER",
      "outputs": [
        {
          "internalType": "uint256",
          "name": "",
          "type": "uint256"
        }
      ],
      "stateMutability": "view",
      "type": "function"
    },
    {
      "inputs": [],
      "name": "STRATEGY_BUY_SELL",
      "outputs": [
        {
          "internalType": "uint256",
          "name": "",
          "type": "uint256"
        }
      ],
      "stateMutability": "view",
      "type": "function"
    },
    {
      "inputs": [],
      "name": "STRATEGY_SELL_LADDER",
      "outputs": [
        {
          "internalType": "uint256",
          "name": "",
          "type": "uint256"
        }
      ],
      "stateMutability": "view",
      "type": "function"
    },
    {
      "inputs": [],
      "name": "cancelAllOrders",
      "outputs": [],
      "stateMutability": "nonpayable",
      "type": "function"
    },
    {
      "inputs": [
        {
          "internalType": "uint256",
          "name": "orderIndex",
          "type": "uint256"
        }
      ],
      "name": "cancelOrder",
      "outputs": [],
      "stateMutability": "nonpayable",
      "type": "function"
    },
    {
      "inputs": [
        {
          "internalType": "address",
          "name": "makerAsset",
          "type": "address"
        },
        {
          "internalType": "address",
          "name": "takerAsset",
          "type": "address"
        },
        {
          "internalType": "uint256",
          "name": "startPrice",
          "type": "uint256"
        },
        {
          "internalType": "uint256",
          "name": "spacing",
          "type": "uint256"
        },
        {
          "internalType": "uint256",
          "name": "orderSize",
          "type": "uint256"
        },
        {
          "internalType": "uint256",
          "name": "numOrders",
          "type": "uint256"
        },
        {
          "internalType": "uint256",
          "name": "strategyType",
          "type": "uint256"
        },
        {
          "internalType": "uint256",
          "name": "repostMode",
          "type": "uint256"
        },
        {
          "internalType": "uint256",
          "name": "budget",
          "type": "uint256"
        },
        {
          "internalType": "uint256",
          "name": "stopLoss",
          "type": "uint256"
        },
        {
          "internalType": "uint256",
          "name": "takeProfit",
          "type": "uint256"
        },
        {
          "internalType": "uint256",
          "name": "expiryTime",
          "type": "uint256"
        },
        {
          "internalType": "bool",
          "name": "flipToSell_",
          "type": "bool"
        },
        {
          "internalType": "uint256",
          "name": "flipPercentage_",
          "type": "uint256"
        }
      ],
      "name": "createStrategy",
      "outputs": [],
      "stateMutability": "nonpayable",
      "type": "function"
    },
    {
      "inputs": [],
      "name": "getActiveOrders",
      "outputs": [
        {
          "internalType": "uint256[]",
          "name": "activeOrders",
          "type": "uint256[]"
        }
      ],
      "stateMutability": "view",
      "type": "function"
    },
    {
      "inputs": [
        {
          "internalType": "uint256",
          "name": "orderIndex",
          "type": "uint256"
        }
      ],
      "name": "getOrder",
      "outputs": [
        {
          "components": [
            {
              "internalType": "bytes32",
              "name": "orderHash",
              "type": "bytes32"
            },
            {
              "internalType": "uint256",
              "name": "price",
              "type": "uint256"
            },
            {
              "internalType": "uint256",
              "name": "orderIndex",
              "type": "uint256"
            },
            {
              "internalType": "bool",
              "name": "isActive",
              "type": "bool"
            },
            {
              "internalType": "uint256",
              "name": "createdAt",
              "type": "uint256"
            }
          ],
          "internalType": "struct inchbyinchBot.Order",
          "name": "order",
          "type": "tuple"
        }
      ],
      "stateMutability": "view",
      "type": "function"
    },
    {
      "inputs": [],
      "name": "getStrategyPerformance",
      "outputs": [
        {
          "internalType": "uint256",
          "name": "totalFilled",
          "type": "uint256"
        },
        {
          "internalType": "uint256",
          "name": "totalSpent",
          "type": "uint256"
        },
        {
          "internalType": "int256",
          "name": "profit",
          "type": "int256"
        }
      ],
      "stateMutability": "view",
      "type": "function"
    },
    {
      "inputs": [
        {
          "internalType": "bytes32",
          "name": "orderHash",
          "type": "bytes32"
        },
        {
          "internalType": "uint256",
          "name": "filledAmount",
          "type": "uint256"
        },
        {
          "internalType": "uint256",
          "name": "remainingAmount",
          "type": "uint256"
        }
      ],
      "name": "handleOrderFill",
      "outputs": [],
      "stateMutability": "nonpayable",
      "type": "function"
    },
    {
      "inputs": [
        {
          "internalType": "address",
          "name": "_lop",
          "type": "address"
        },
        {
          "internalType": "address",
          "name": "_orderManager",
          "type": "address"
        },
        {
          "internalType": "address",
          "name": "_oracleAdapter",
          "type": "address"
        },
        {
          "internalType": "address",
          "name": "owner_",
          "type": "address"
        }
      ],
      "name": "initialize",
      "outputs": [],
      "stateMutability": "nonpayable",
      "type": "function"
    },
    {
      "inputs": [],
      "name": "lop",
      "outputs": [
        {
          "internalType": "contract I1inchLOP",
          "name": "",
          "type": "address"
        }
      ],
      "stateMutability": "view",
      "type": "function"
    },
    {
      "inputs": [],
      "name": "oracleAdapter",
      "outputs": [
        {
          "internalType": "contract IOracleAdapter",
          "name": "",
          "type": "address"
        }
      ],
      "stateMutability": "view",
      "type": "function"
    },
    {
      "inputs": [
        {
          "internalType": "bytes32",
          "name": "",
          "type": "bytes32"
        }
      ],
      "name": "orderIndexByHash",
      "outputs": [
        {
          "internalType": "uint256",
          "name": "",
          "type": "uint256"
        }
      ],
      "stateMutability": "view",
      "type": "function"
    },
    {
      "inputs": [],
      "name": "orderManager",
      "outputs": [
        {
          "internalType": "contract IOrderManager",
          "name": "",
          "type": "address"
        }
      ],
      "stateMutability": "view",
      "type": "function"
    },
    {
      "inputs": [
        {
          "internalType": "uint256",
          "name": "",
          "type": "uint256"
        }
      ],
      "name": "orders",
      "outputs": [
        {
          "internalType": "bytes32",
          "name": "orderHash",
          "type": "bytes32"
        },
        {
          "internalType": "uint256",
          "name": "price",
          "type": "uint256"
        },
        {
          "internalType": "uint256",
          "name": "orderIndex",
          "type": "uint256"
        },
        {
          "internalType": "bool",
          "name": "isActive",
          "type": "bool"
        },
        {
          "internalType": "uint256",
          "name": "createdAt",
          "type": "uint256"
        }
      ],
      "stateMutability": "view",
      "type": "function"
    },
    {
      "inputs": [],
      "name": "owner",
      "outputs": [
        {
          "internalType": "address",
          "name": "",
          "type": "address"
        }
      ],
      "stateMutability": "view",
      "type": "function"
    },
    {
      "inputs": [],
      "name": "pause",
      "outputs": [],
      "stateMutability": "nonpayable",
      "type": "function"
    },
    {
      "inputs": [],
      "name": "paused",
      "outputs": [
        {
          "internalType": "bool",
          "name": "",
          "type": "bool"
        }
      ],
      "stateMutability": "view",
      "type": "function"
    },
    {
      "inputs": [],
      "name": "placeLadderOrders",
      "outputs": [],
      "stateMutability": "nonpayable",
      "type": "function"
    },
    {
      "inputs": [],
      "name": "renounceOwnership",
      "outputs": [],
      "stateMutability": "nonpayable",
      "type": "function"
    },
    {
      "inputs": [],
      "name": "strategy",
      "outputs": [
        {
          "internalType": "address",
          "name": "makerAsset",
          "type": "address"
        },
        {
          "internalType": "address",
          "name": "takerAsset",
          "type": "address"
        },
        {
          "internalType": "uint256",
          "name": "startPrice",
          "type": "uint256"
        },
        {
          "internalType": "uint256",
          "name": "spacing",
          "type": "uint256"
        },
        {
          "internalType": "uint256",
          "name": "orderSize",
          "type": "uint256"
        },
        {
          "internalType": "uint256",
          "name": "numOrders",
          "type": "uint256"
        },
        {
          "internalType": "uint256",
          "name": "strategyType",
          "type": "uint256"
        },
        {
          "internalType": "uint256",
          "name": "repostMode",
          "type": "uint256"
        },
        {
          "internalType": "uint256",
          "name": "budget",
          "type": "uint256"
        },
        {
          "internalType": "uint256",
          "name": "stopLoss",
          "type": "uint256"
        },
        {
          "internalType": "uint256",
          "name": "takeProfit",
          "type": "uint256"
        },
        {
          "internalType": "uint256",
          "name": "expiryTime",
          "type": "uint256"
        },
        {
          "internalType": "bool",
          "name": "isActive",
          "type": "bool"
        },
        {
          "internalType": "uint256",
          "name": "currentOrderIndex",
          "type": "uint256"
        },
        {
          "internalType": "uint256",
          "name": "totalFilled",
          "type": "uint256"
        },
        {
          "internalType": "uint256",
          "name": "totalSpent",
          "type": "uint256"
        },
        {
          "internalType": "bool",
          "name": "flipToSell",
          "type": "bool"
        },
        {
          "internalType": "uint256",
          "name": "flipPercentage",
          "type": "uint256"
        },
        {
          "internalType": "bool",
          "name": "flipSellActive",
          "type": "bool"
        }
      ],
      "stateMutability": "view",
      "type": "function"
    },
    {
      "inputs": [
        {
          "internalType": "address",
          "name": "newOwner",
          "type": "address"
        }
      ],
      "name": "transferOwnership",
      "outputs": [],
      "stateMutability": "nonpayable",
      "type": "function"
    },
    {
      "inputs": [],
      "name": "unpause",
      "outputs": [],
      "stateMutability": "nonpayable",
      "type": "function"
    },
    {
      "inputs": [
        {
          "internalType": "address",
          "name": "token",
          "type": "address"
        },
        {
          "internalType": "uint256",
          "name": "amount",
          "type": "uint256"
        }
      ],
      "name": "withdrawTokens",
      "outputs": [],
      "stateMutability": "nonpayable",
      "type": "function"
    }
  ],
  "bytecode": "0x6080806040523461007e5733156100685760008054336001600160a01b03198216811783556040519290916001600160a01b0316907f8be0079c531659141344cd1fd0a4f28419497f9722a3daafe3b4186f6b6457e09080a36001805561227990816100848239f35b631e4fbdf760e01b815260006004820152602490fd5b600080fdfe610140604052600436101561001357600080fd5b6000803560e01c806286e68b14611487578063028afabf146113e957806306b091f91461133f578063099bd14714610daf5780631835404414610b9c57806320b3d358146108f45780632bf8ff4c146105ac5780633bfe2483146108625780633d9f3163146108395780633f4ba83a146107ce578063514fcac71461074957806351570fdd146102fb5780635c975abb1461072657806361555e2e14610702578063627cb7f8146103ff578063715018a6146106a8578063716df2251461068b5780638456cb591461061d5780638da5cb5b146105f657806393254b0e146105da5780639ccf88c7146105b15780639f215fa5146105ac578063a832a06514610582578063a85c38ef14610526578063a8c62e7614610404578063ac0e764e146103ff578063d09ef24114610322578063d3f82d8e14610300578063e3d26090146102fb578063f160991b146102fb578063f2fde38b146102a8578063f8c8765e146101b35763f9b6117f1461018857600080fd5b346101b057806003193601126101b0576019546040516001600160a01b039091168152602090f35b80fd5b50346101b05760803660031901126101b0576101cd6115d1565b6101d56115e7565b906044356001600160a01b03818116918290036102a35760643592818416908185036102a357821694851561029157821690811561029157831561029157156102915760185491821661025657610253946bffffffffffffffffffffffff60a01b80931617601855816019541617601955601a541617601a5561167d565b80f35b60405162461bcd60e51b8152602060048201526013602482015272105b1c9958591e481a5b9a5d1a585b1a5e9959606a1b6044820152606490fd5b60405163d92e233d60e01b8152600490fd5b600080fd5b50346101b05760203660031901126101b0576102c26115d1565b6102ca611651565b6001600160a01b038116156102e2576102539061167d565b604051631e4fbdf760e01b815260048101839052602490fd5b611619565b50346101b057806003193601126101b057602060405166038d7ea4c680008152f35b50346101b05760203660031901126101b057600435816080604051610346816116ee565b8281528260208201528260408201528260608201520152801580156103f4575b6103e2578160409160a09352601660205220604051610384816116ee565b815491828252600181015460208301908152600282015490604084019182526080600460ff60038601541694606087019515158652015494019384526040519485525160208501525160408401525115156060830152516080820152f35b60405163d36d896560e01b8152600490fd5b506010548111610366565b611635565b50346101b057806003193601126101b05760018060a01b038060035416906004541660805260055460a052600654600754600854600954600a54600b54600c54600d5491600e549360ff600f54169560105497601154996012549b60ff601354169d6101209e8f5260145460e05260ff60155416610100526040518060c05252608051602060c051015260a051604060c0510152606060c0510152608060c051015260a060c051015260c08051015260e060c051015261010060c05101528760c051015261014060c051015261016060c0510152151561018060c05101526101a060c05101526101c060c05101526101e060c051015251151561020060c051015260e05161022060c051015261010051151561024060c051015261026060c051f35b50346101b05760203660031901126101b057604060a09160043581526016602052208054906001810154906002810154600460ff6003840154169201549260405194855260208501526040840152151560608301526080820152f35b50346101b05760203660031901126101b05760406020916004358152601783522054604051908152f35b6115fd565b50346101b057806003193601126101b0576018546040516001600160a01b039091168152602090f35b50346101b057806003193601126101b057602060405160328152f35b50346101b057806003193601126101b057546040516001600160a01b039091168152602090f35b50346101b057806003193601126101b057610636611651565b60025460ff81166106795760019060ff1916176002557f62e78cea01bee320cd4e420270b5ea74000d11b0c9f74754ebdbfc544b05a2586020604051338152a180f35b60405163d93c066560e01b8152600490fd5b50346101b057806003193601126101b05760206040516103e88152f35b50346101b057806003193601126101b0576106c1611651565b600080546001600160a01b0319811682556001600160a01b03167f8be0079c531659141344cd1fd0a4f28419497f9722a3daafe3b4186f6b6457e08280a380f35b50346101b057806003193601126101b0576020604051683635c9adc5dea000008152f35b50346101b057806003193601126101b057602060ff600254166040519015158152f35b50346101b05760203660031901126101b057600435610766611651565b60ff600f5416156107bc57801580156107b1575b6103e257808252601660205260ff6003604084200154161561079f5761025390611f50565b604051630a911f0960e01b8152600490fd5b50601054811161077a565b604051631b92e95360e31b8152600490fd5b50346101b057806003193601126101b0576107e7611651565b60025460ff8116156108275760ff19166002557f5db9ee0a495bf2e6ff9c91a7834c1ba4fdd244a5e8aa4e537bd38aeae4b073aa6020604051338152a180f35b604051638dfc202b60e01b8152600490fd5b50346101b057806003193601126101b057601a546040516001600160a01b039091168152602090f35b50346101b057806003193601126101b0576011546012546009546060939190806108c1575090506108ad81670de0b6b3a76400006108a76108a16120df565b86611765565b046117cf565b905b60405192835260208301526040820152f35b6001036108af5790506108ee670de0b6b3a76400006108e76108e16120df565b85611765565b04826117cf565b906108af565b50346101b05760603660031901126101b05780546001600160a01b0390600435906044359060243590841633141580610b20575b610b0e57828552601760205260408520549283156103e25783865260166020526040862091600383019360ff8554161561079f5760018894610978831597881560ff801983541691151516179055565b6109848460115461179b565b60115501966109a9670de0b6b3a76400006109a08a5486611765565b0460125461179b565b6012556019541690813b15610b0a5784916064839260405197889384926389389f3160e01b845289600485015288602485015260448401525af1938415610afd578694610ae0575b505060407fe678418be901ac9a27919225bd4d60e450082ef609d1c5e6790e2a201b0e043091875482519182526020820152a3610a2c578280f35b60ff6013541680610ad3575b80610ac9575b15610aba5750606081610a827fc0decb1295bb3a3f2a58b1592e02fea14db26418837a401d818cf5dbc011306e93546064610a7b60145483611765565b049061179b565b90610a8f60075483611b4a565b600160ff19601554161760155554906014549060405192835260208301526040820152a15b38808280f35b610ac49150611ba4565b610ab4565b5060095415610a3e565b5060ff6015541615610a38565b610aec919294506116c4565b610af957839186386109f1565b8580fd5b50604051903d90823e3d90fd5b8480fd5b604051635c427cd960e01b8152600490fd5b5060246020856019541660405192838092633220c85960e11b82523060048301525afa908115610b91578691610b58575b5015610928565b90506020813d8211610b89575b81610b7260209383611743565b81010312610af957610b839061178e565b38610b51565b3d9150610b65565b6040513d88823e3d90fd5b50346101b057806003193601126101b057610bb5611651565b60ff600f5416156107bc57610bc86120df565b600c548015159081610da4575b50610d9257600d548015159182610d87575b5050610d7557600e544211610d635760095480610c5c5750610c076120df565b610c0f6121bb565b825b600854811015610c5657610c2e610c288383611765565b846117e8565b908115610c4f57610c45610c4a92600754906118b3565b6117a8565b610c11565b5050505080f35b50505080f35b600190808203610cbe5750610c6f6120df565b90610c786121bb565b83825b610c86575050505080f35b600854811015610cb95780610c45610caa610ca485610cb395611765565b8761179b565b60075490611b4a565b82610c7b565b610c4f565b600214610cc9575080f35b610cd16120df565b90610cda6121bb565b8180805b610d1d575b50805b610cf1575050505080f35b600854831c8111610cb957610d1781610c45610caa610d11868896611765565b8861179b565b90610ce6565b600854821c8111610d5e57610d3b610d358483611765565b866117e8565b908115610d5857610c45610d5292600754906118b3565b81610cde565b50610ce3565b610ce3565b60405163010bfb6d60e61b8152600490fd5b604051630e25c9bf60e21b8152600490fd5b101590503880610be7565b604051637f39d2b760e01b8152600490fd5b905081111538610bd5565b50346101b0576101c03660031901126101b057610dca6115d1565b610dd26115e7565b61018435801515810361133b57610de7611651565b6001600160a01b03831615610291576001600160a01b03821615610291576044351561132a57600160643510801561131d575b61130b5766038d7ea4c680006084351080156112f7575b6112e557600f549060ff82166112d35760a4351580156112c7575b6112b557600260c435116112b557600260e435116112b55761010435156112a357426101643511156112925761012435151580611283575b6112715761014435151580611262575b611250576040516370a0823160e01b81523060048201526020816024816001600160a01b0389165afa908115610b9157869161121e575b506040516370a0823160e01b8152306004820152906020826024816001600160a01b0389165afa9182156112135787926111db575b5060c43561118757506101043511611175575b6040518061026081011067ffffffffffffffff61026083011117611161576102408161026088930160405260018060a01b038716815260018060a01b038616602082015260443560408201526064356060820152608435608082015260a43560a082015260c43560c082015260e43560e0820152610104356101008201526101243561012082015261014435610140820152610164356101608201526001610180820152826101a0820152826101c0820152826101e08201528315156102008201526101a43561022082015201526bffffffffffffffffffffffff60a01b60018060a01b03851681600354161760035560018060a01b03841690600454161760045560443560055560643560065560843560075560a43560085560c43560095560e435600a5561010435600b5561012435600c5561014435600d5561016435600e55600160ff1980931617600f5584601055846011558460125560ff826013541691151516176013556101a435601455601554166015558260018060a01b036019541660018060a01b0382541690803b1561115d57606483926040519485938492634be8f2dd60e01b8452306004850152602484015260c43560448401525af180156111525761113f575b507ff7199c0ca31732b7bbcccf1c8a1db62ea93b2621a474cbce899b5a3a69d828f460a06040519260443584526064356020850152608435604085015260a435606085015260c4356080850152600180831b031693600180831b031692a380f35b61114b909391936116c4565b91386110de565b6040513d86823e3d90fd5b8280fd5b634e487b7160e01b86526041600452602486fd5b604051631e9acf1760e31b8152600490fd5b9060c4356001036111b957506111a160a435608435611765565b1115610f1357604051631e9acf1760e31b8152600490fd5b9050600260c435146111cc575b50610f13565b610104351161117557386111c6565b9091506020813d60201161120b575b816111f760209383611743565b8101031261120757519038610f00565b8680fd5b3d91506111ea565b6040513d89823e3d90fd5b90506020813d602011611248575b8161123960209383611743565b81010312610af9575138610ecb565b3d915061122c565b60405163113f495360e21b8152600490fd5b50604435610144351115610e94565b604051637cb1aa0160e01b8152600490fd5b50604435610124351015610e84565b60405162d36c8560e81b8152600490fd5b604051630757bfc960e21b8152600490fd5b604051632711b74d60e11b8152600490fd5b50603260a43511610e4c565b60405163c976754d60e01b8152600490fd5b604051630bc2906760e01b8152600490fd5b50683635c9adc5dea0000060843511610e31565b604051636682a97b60e11b8152600490fd5b506103e860643511610e1a565b60405162bfc92160e01b8152600490fd5b8380fd5b50346101b05760403660031901126101b0576113596115d1565b611361611651565b815460405163a9059cbb60e01b60208083019182526001600160a01b0393841660248085019190915235604480850191909152835293909216929184916113a9606482611743565b519082855af115610afd5781513d6113e05750803b155b6113c8575080f35b60249060405190635274afe760e01b82526004820152fd5b600114156113c0565b50346101b057806003193601126101b057611402611651565b60ff80600f5416156107bc5760019081805b61144b575b8360ff19600f5416600f557f52aa97daed5e7adcd2e1538f5a054de116b9ed2f299ee99fc0715359a3f6aee58180a180f35b60105481116114825780611473918552601660205282600360408720015416611479576117a8565b82611414565b610c4581611f50565b611419565b50346101b057806003193601126101b057601054600182815b8381111561158d57506114cb6114b5856117b7565b946114c36040519687611743565b8086526117b7565b9360209384820195601f19013687378290845b8181111561151f575050506040519380850191818652518092526040850195925b82811061150c5785870386f35b83518752958101959281019284016114ff565b8085979495989698526016845260ff600360408920015416611551575b611545906117a8565b969496959392956114de565b918451811015611579576115718184866115459460051b890101526117a8565b92905061153c565b634e487b7160e01b87526032600452602487fd5b80829493959252601660205260ff6003604086200154166115bc575b6115b2906117a8565b93919290936114a0565b906115c96115b2916117a8565b9190506115a9565b600435906001600160a01b03821682036102a357565b602435906001600160a01b03821682036102a357565b346102a35760003660031901126102a357602060405160008152f35b346102a35760003660031901126102a357602060405160018152f35b346102a35760003660031901126102a357602060405160028152f35b6000546001600160a01b0316330361166557565b60405163118cdaa760e01b8152336004820152602490fd5b600080546001600160a01b039283166001600160a01b03198216811783559216907f8be0079c531659141344cd1fd0a4f28419497f9722a3daafe3b4186f6b6457e09080a3565b67ffffffffffffffff81116116d857604052565b634e487b7160e01b600052604160045260246000fd5b60a0810190811067ffffffffffffffff8211176116d857604052565b610140810190811067ffffffffffffffff8211176116d857604052565b6060810190811067ffffffffffffffff8211176116d857604052565b90601f8019910116810190811067ffffffffffffffff8211176116d857604052565b8181029291811591840414171561177857565b634e487b7160e01b600052601160045260246000fd5b519081151582036102a357565b9190820180921161177857565b60001981146117785760010190565b67ffffffffffffffff81116116d85760051b60200190565b8181039291600013801582851316918412161761177857565b9190820391821161177857565b60209182825280518383015260018060a01b0380848301511660408401528060408301511660608401528060608301511660808401528060808301511660a084015260a08201511660c083015260c081015160e083015260e08101516101009081840152810151906101209182840152015191610140808301528251928361016084015260005b84811061189e57505050610180916000838284010152601f8019910116010190565b8181018301518482016101800152820161187c565b6118be6010546117a8565b90816010556040908151936020948581019042825285858201528481526118e481611727565b5190209360018060a01b038060045416816003541690670de0b6b3a764000061190d8787611765565b048751936304167a6b60e31b8b8601526000958660248701528660448701528660648701526064865261193f866116ee565b89519a61194b8c61170a565b8b528b8b01938452898b019485523060608c01523060808c01528660a08c015260c08b019588875260e08c01938452876101008d01526101208c01528b6119ab83601854168c51809e8193829163110ddbff60e21b8352600483016117f5565b03915afa9a8b15611b4057908c9594939291889c611afe575b50928b9288928c600485611a328f998c60c49b8651966119e3886116ee565b8c885282880191825260168189019385855260608a01956001875260808b0198428a5252528b2096518755516001870155516002860155511515600385019060ff801983541691151516179055565b51910155601054858552601789528d85205580806019541693511696511697519051908c519889978896636c50dcc160e11b8852600488015230602488015260448701526064860152608485015260a48401525af18015611af457908791611acb575b505050907f6239ab9e61392c8ae40f6f0fb586f4ac54c41e09738751365887176c30bb08099291601054958351928352820152a3565b813d8311611aed575b611ade8183611743565b810103126101b0578581611a95565b503d611ad4565b85513d84823e3d90fd5b809293949597989c508691963d8311611b39575b611b1c8183611743565b81010312611b3557519995948b949093929190896119c4565b8a80fd5b503d611b12565b8a513d89823e3d90fd5b611b556010546117a8565b9081601055604090815193602094858101904282528585820152848152611b7b81611727565b5190209360018060a01b038060035416816004541690670de0b6b3a764000061190d8787611765565b600a549060028214611f4c576000908152602091601683526040908183206001810154916001839114611f05575b5081611be0575b5050505050565b600754611cf66009541586611bf66010546117a8565b8060105587518a810190428252828a820152898152611c1481611727565b519020928015611ef3576004546001600160a01b0316905b15611edf576003546001600160a01b03169189905b8c670de0b6b3a7640000611c558c8b611765565b049683516304167a6b60e31b8382015287602482015287604482015287606482015260648152611c84816116ee565b845191611c908361170a565b82528282019560018060a01b03958680921688528301971687523060608301523060808301528760a083015260c08201978b895260e08301998a5261010083015261012082015283601854168d5180809b819463110ddbff60e21b8352600483016117f5565b03915afa968715611ed557918d959493918c8c8f95869b611e8f575b5060c49695949392611d7e8a846004948f965196611d2f886116ee565b875282870190815281870191858352601660608901946001865260808a01974289528d52528a2096518755516001870155516002860155511515600385019060ff801983541691151516179055565b51910155601054898452601788528d842055808060195416925116935116945196518c519788968795636c50dcc160e11b87528b600488015230602488015260448701526064860152608485015260a48401525af18015611e8557908891611e5c575b50509380939281927f1112ee369666deb054b7a2b6d507c60e60ff930b7a3e64945ed408cf735448c0967f6239ab9e61392c8ae40f6f0fb586f4ac54c41e09738751365887176c30bb08096010549586938151908982528d820152a35495828152601688522054958351928352820152a33880808080611bd9565b813d8311611e7e575b611e6f8183611743565b81010312610af9578638611de1565b503d611e65565b86513d89823e3d90fd5b9497999a5050509250929481813d8311611ece575b611eae8183611743565b81010312611eca575195948c94909390928c928c8c60c4611d12565b8b80fd5b503d611ea4565b8b513d8e823e3d90fd5b6004546001600160a01b0316918990611c41565b6003546001600160a01b031690611c2c565b60095480611f2a5750611f22919250611f1c6121bb565b906117e8565b905b38611bd2565b6001915003611f245790611f4690611f406121bb565b9061179b565b90611f24565b5050565b6000908082526016602052604090818320908251602081019142835284820152838152611f7c81611727565b51902060018060a01b03908160035416826004541660075490670de0b6b3a7640000611fac600188015484611765565b0492875194611fba8661170a565b85526020850152868401523060608401523060808401528660a084015260c083015260e08201528461010082015283516020810181811067ffffffffffffffff8211176120cb578552858152610120820152816018541690813b15610af95761203b8692839287519485809481936316cd2b7b60e11b8352600483016117f5565b03925af180156120c1576120ae575b506003820160ff198154169055601954169054813b1561133b57829160248594928593519586938492637489ec2360e01b845260048401525af19081156120a55750612094575050565b61209e82916116c4565b6101b05750565b513d84823e3d90fd5b6120ba909491946116c4565b923861204a565b84513d87823e3d90fd5b634e487b7160e01b87526041600452602487fd5b601a546003546040516302c68be360e31b81526001600160a01b0391821660048201529160809183916024918391165afa809160009161212b575b5090612127575060055490565b5190565b6080813d82116121b3575b8161214360809383611743565b810103126121af5760405191608083019083821067ffffffffffffffff83111761219b5750612190916060916040528051845260208101516020850152604081015160408501520161178e565b60608201523861211a565b634e487b7160e01b81526041600452602490fd5b5080fd5b3d9150612136565b601a54600354600654604051632ca81a5160e01b81526001600160a01b039283166004820152602481018290529092909160209183916044918391165afa60009181612210575b5061220b575090565b905090565b90916020823d821161223b575b8161222a60209383611743565b810103126101b05750519038612202565b3d915061221d56fea264697066735822122055868fedb450a8345d479e48aa3484a7f588fda8312f70b7cfa358435cee9ff164736f6c63430008140033",
  "linkReferences": {},
  "deployedLinkReferences": {}
}