{
  "_format": "hh-sol-artifact-1",
  "contractName": "OracleAdapter",
  "sourceName": "contracts/OracleAdapter.sol",
  "abi": [
    {
      "inputs": [],
      "stateMutability": "nonpayable",
      "type": "constructor"
    },
    {
      "inputs": [],
      "name": "EnforcedPause",
      "type": "error"
    },
    {
      "inputs": [],
      "name": "ExpectedPause",
      "type": "error"
    },
    {
      "inputs": [],
      "name": "InsufficientPriceHistory",
      "type": "error"
    },
    {
      "inputs": [],
      "name": "InvalidPrice",
      "type": "error"
    },
    {
      "inputs": [],
      "name": "InvalidTimestamp",
      "type": "error"
    },
    {
      "inputs": [],
      "name": "InvalidVolatility",
      "type": "error"
    },
    {
      "inputs": [],
      "name": "InvalidVolatilityConfig",
      "type": "error"
    },
    {
      "inputs": [
        {
          "internalType": "address",
          "name": "owner",
          "type": "address"
        }
      ],
      "name": "OwnableInvalidOwner",
      "type": "error"
    },
    {
      "inputs": [
        {
          "internalType": "address",
          "name": "account",
          "type": "address"
        }
      ],
      "name": "OwnableUnauthorizedAccount",
      "type": "error"
    },
    {
      "inputs": [],
      "name": "PriceDataNotFound",
      "type": "error"
    },
    {
      "inputs": [],
      "name": "ReentrancyGuardReentrantCall",
      "type": "error"
    },
    {
      "inputs": [],
      "name": "StalePriceData",
      "type": "error"
    },
    {
      "inputs": [],
      "name": "UnauthorizedUpdater",
      "type": "error"
    },
    {
      "inputs": [],
      "name": "VolatilityConfigNotFound",
      "type": "error"
    },
    {
      "inputs": [],
      "name": "ZeroAddress",
      "type": "error"
    },
    {
      "inputs": [],
      "name": "ZeroAmount",
      "type": "error"
    },
    {
      "anonymous": false,
      "inputs": [
        {
          "indexed": true,
          "internalType": "address",
          "name": "previousOwner",
          "type": "address"
        },
        {
          "indexed": true,
          "internalType": "address",
          "name": "newOwner",
          "type": "address"
        }
      ],
      "name": "OwnershipTransferred",
      "type": "event"
    },
    {
      "anonymous": false,
      "inputs": [
        {
          "indexed": false,
          "internalType": "address",
          "name": "account",
          "type": "address"
        }
      ],
      "name": "Paused",
      "type": "event"
    },
    {
      "anonymous": false,
      "inputs": [
        {
          "indexed": true,
          "internalType": "address",
          "name": "asset",
          "type": "address"
        }
      ],
      "name": "PriceHistoryCleared",
      "type": "event"
    },
    {
      "anonymous": false,
      "inputs": [
        {
          "indexed": true,
          "internalType": "address",
          "name": "asset",
          "type": "address"
        },
        {
          "indexed": true,
          "internalType": "uint256",
          "name": "price",
          "type": "uint256"
        },
        {
          "indexed": true,
          "internalType": "uint256",
          "name": "timestamp",
          "type": "uint256"
        },
        {
          "indexed": false,
          "internalType": "uint256",
          "name": "volatility",
          "type": "uint256"
        }
      ],
      "name": "PriceUpdated",
      "type": "event"
    },
    {
      "anonymous": false,
      "inputs": [
        {
          "indexed": false,
          "internalType": "address",
          "name": "account",
          "type": "address"
        }
      ],
      "name": "Unpaused",
      "type": "event"
    },
    {
      "anonymous": false,
      "inputs": [
        {
          "indexed": true,
          "internalType": "address",
          "name": "updater",
          "type": "address"
        }
      ],
      "name": "UpdaterAuthorized",
      "type": "event"
    },
    {
      "anonymous": false,
      "inputs": [
        {
          "indexed": true,
          "internalType": "address",
          "name": "updater",
          "type": "address"
        }
      ],
      "name": "UpdaterDeauthorized",
      "type": "event"
    },
    {
      "anonymous": false,
      "inputs": [
        {
          "indexed": true,
          "internalType": "address",
          "name": "asset",
          "type": "address"
        },
        {
          "indexed": false,
          "internalType": "uint256",
          "name": "baseSpacing",
          "type": "uint256"
        },
        {
          "indexed": false,
          "internalType": "uint256",
          "name": "volatilityMultiplier",
          "type": "uint256"
        }
      ],
      "name": "VolatilityConfigUpdated",
      "type": "event"
    },
    {
      "inputs": [
        {
          "internalType": "address",
          "name": "updater",
          "type": "address"
        }
      ],
      "name": "authorizeUpdater",
      "outputs": [],
      "stateMutability": "nonpayable",
      "type": "function"
    },
    {
      "inputs": [
        {
          "internalType": "address",
          "name": "asset",
          "type": "address"
        },
        {
          "internalType": "uint256",
          "name": "baseSpacing",
          "type": "uint256"
        }
      ],
      "name": "calculateDynamicSpacing",
      "outputs": [
        {
          "internalType": "uint256",
          "name": "dynamicSpacing",
          "type": "uint256"
        }
      ],
      "stateMutability": "view",
      "type": "function"
    },
    {
      "inputs": [
        {
          "internalType": "address",
          "name": "asset",
          "type": "address"
        }
      ],
      "name": "clearPriceHistory",
      "outputs": [],
      "stateMutability": "nonpayable",
      "type": "function"
    },
    {
      "inputs": [
        {
          "internalType": "address",
          "name": "updater",
          "type": "address"
        }
      ],
      "name": "deauthorizeUpdater",
      "outputs": [],
      "stateMutability": "nonpayable",
      "type": "function"
    },
    {
      "inputs": [
        {
          "internalType": "address",
          "name": "asset",
          "type": "address"
        }
      ],
      "name": "getLatestPrice",
      "outputs": [
        {
          "components": [
            {
              "internalType": "uint256",
              "name": "price",
              "type": "uint256"
            },
            {
              "internalType": "uint256",
              "name": "timestamp",
              "type": "uint256"
            },
            {
              "internalType": "uint256",
              "name": "volatility",
              "type": "uint256"
            },
            {
              "internalType": "bool",
              "name": "isValid",
              "type": "bool"
            }
          ],
          "internalType": "struct IOracleAdapter.PriceData",
          "name": "priceData",
          "type": "tuple"
        }
      ],
      "stateMutability": "view",
      "type": "function"
    },
    {
      "inputs": [
        {
          "internalType": "address",
          "name": "asset",
          "type": "address"
        },
        {
          "internalType": "uint256",
          "name": "timestamp",
          "type": "uint256"
        }
      ],
      "name": "getPriceAt",
      "outputs": [
        {
          "internalType": "uint256",
          "name": "price",
          "type": "uint256"
        }
      ],
      "stateMutability": "view",
      "type": "function"
    },
    {
      "inputs": [
        {
          "internalType": "address",
          "name": "asset",
          "type": "address"
        },
        {
          "internalType": "uint256",
          "name": "timeframe",
          "type": "uint256"
        }
      ],
      "name": "getPriceChangePercent",
      "outputs": [
        {
          "internalType": "int256",
          "name": "changePercent",
          "type": "int256"
        }
      ],
      "stateMutability": "view",
      "type": "function"
    },
    {
      "inputs": [
        {
          "internalType": "address",
          "name": "asset",
          "type": "address"
        }
      ],
      "name": "getPriceHistory",
      "outputs": [
        {
          "internalType": "uint256[]",
          "name": "prices",
          "type": "uint256[]"
        },
        {
          "internalType": "uint256[]",
          "name": "timestamps",
          "type": "uint256[]"
        }
      ],
      "stateMutability": "view",
      "type": "function"
    },
    {
      "inputs": [
        {
          "internalType": "address",
          "name": "asset",
          "type": "address"
        },
        {
          "internalType": "uint256",
          "name": "timeframe",
          "type": "uint256"
        }
      ],
      "name": "getVolatility",
      "outputs": [
        {
          "internalType": "uint256",
          "name": "volatility",
          "type": "uint256"
        }
      ],
      "stateMutability": "view",
      "type": "function"
    },
    {
      "inputs": [
        {
          "internalType": "address",
          "name": "asset",
          "type": "address"
        }
      ],
      "name": "getVolatilityConfig",
      "outputs": [
        {
          "components": [
            {
              "internalType": "uint256",
              "name": "baseSpacing",
              "type": "uint256"
            },
            {
              "internalType": "uint256",
              "name": "volatilityMultiplier",
              "type": "uint256"
            },
            {
              "internalType": "uint256",
              "name": "minSpacing",
              "type": "uint256"
            },
            {
              "internalType": "uint256",
              "name": "maxSpacing",
              "type": "uint256"
            }
          ],
          "internalType": "struct IOracleAdapter.VolatilityConfig",
          "name": "config",
          "type": "tuple"
        }
      ],
      "stateMutability": "view",
      "type": "function"
    },
    {
      "inputs": [
        {
          "internalType": "address",
          "name": "asset",
          "type": "address"
        },
        {
          "internalType": "uint256",
          "name": "maxAge",
          "type": "uint256"
        }
      ],
      "name": "isPriceStale",
      "outputs": [
        {
          "internalType": "bool",
          "name": "isStale",
          "type": "bool"
        }
      ],
      "stateMutability": "view",
      "type": "function"
    },
    {
      "inputs": [
        {
          "internalType": "address",
          "name": "updater",
          "type": "address"
        }
      ],
      "name": "isUpdaterAuthorized",
      "outputs": [
        {
          "internalType": "bool",
          "name": "isAuthorized",
          "type": "bool"
        }
      ],
      "stateMutability": "view",
      "type": "function"
    },
    {
      "inputs": [],
      "name": "owner",
      "outputs": [
        {
          "internalType": "address",
          "name": "",
          "type": "address"
        }
      ],
      "stateMutability": "view",
      "type": "function"
    },
    {
      "inputs": [],
      "name": "pause",
      "outputs": [],
      "stateMutability": "nonpayable",
      "type": "function"
    },
    {
      "inputs": [],
      "name": "paused",
      "outputs": [
        {
          "internalType": "bool",
          "name": "",
          "type": "bool"
        }
      ],
      "stateMutability": "view",
      "type": "function"
    },
    {
      "inputs": [],
      "name": "renounceOwnership",
      "outputs": [],
      "stateMutability": "nonpayable",
      "type": "function"
    },
    {
      "inputs": [
        {
          "internalType": "address",
          "name": "asset",
          "type": "address"
        },
        {
          "components": [
            {
              "internalType": "uint256",
              "name": "baseSpacing",
              "type": "uint256"
            },
            {
              "internalType": "uint256",
              "name": "volatilityMultiplier",
              "type": "uint256"
            },
            {
              "internalType": "uint256",
              "name": "minSpacing",
              "type": "uint256"
            },
            {
              "internalType": "uint256",
              "name": "maxSpacing",
              "type": "uint256"
            }
          ],
          "internalType": "struct IOracleAdapter.VolatilityConfig",
          "name": "config",
          "type": "tuple"
        }
      ],
      "name": "setVolatilityConfig",
      "outputs": [],
      "stateMutability": "nonpayable",
      "type": "function"
    },
    {
      "inputs": [
        {
          "internalType": "address",
          "name": "newOwner",
          "type": "address"
        }
      ],
      "name": "transferOwnership",
      "outputs": [],
      "stateMutability": "nonpayable",
      "type": "function"
    },
    {
      "inputs": [],
      "name": "unpause",
      "outputs": [],
      "stateMutability": "nonpayable",
      "type": "function"
    },
    {
      "inputs": [
        {
          "internalType": "address",
          "name": "asset",
          "type": "address"
        },
        {
          "internalType": "uint256",
          "name": "price",
          "type": "uint256"
        },
        {
          "internalType": "uint256",
          "name": "timestamp",
          "type": "uint256"
        }
      ],
      "name": "updatePrice",
      "outputs": [],
      "stateMutability": "nonpayable",
      "type": "function"
    }
  ],
  "bytecode": "0x6080806040523461007e5733156100685760008054336001600160a01b03198216811783556040519290916001600160a01b0316907f8be0079c531659141344cd1fd0a4f28419497f9722a3daafe3b4186f6b6457e09080a3600180556114fe90816100848239f35b631e4fbdf760e01b815260006004820152602490fd5b600080fdfe6040608081526004908136101561001557600080fd5b600091823560e01c8063029bb143146110e85780630604c1611461107b5780630cc0c20e1461102357806316345f1814610f675780632ca81a5114610e335780633f4ba83a14610dca578063585fd46d14610bad5780635c975abb14610b89578063715018a614610b2f5780637cce5dde14610a035780638438f091146108435780638456cb59146107d85780638da5cb5b146107b0578063907abef414610769578063937f06a61461065b578063988d594c146105d65780639cbe609714610566578063dee7fa5e146104b9578063e57d6fb7146101865763f2fde38b146100fd57600080fd5b346101825760203660031901126101825761011661118c565b9061011f6111db565b6001600160a01b0391821692831561016c57505082546001600160a01b0319811683178455167f8be0079c531659141344cd1fd0a4f28419497f9722a3daafe3b4186f6b6457e08380a380f35b51631e4fbdf760e01b8152908101849052602490fd5b8280fd5b5034610182576060366003190112610182576101a061118c565b90602490813592604435943387526020916007835260ff828920541615806104a5575b610495576001600160a01b0316938415610485578515610476578615801561046d575b61045d578151906101f682611207565b86825288848301928984528481019382855260608201906001928383528a85526003968792838b52898720925183555185830155516002820155019051151560ff801983541691161790556005908187526102538a878520611320565b8883526102678b87600695868b5220611320565b888c528187526064868d205411610349575b5050835163585fd46d60e01b815295860187905250610e10908501528284604481305afa8089916102f6575b7f40a2e1011bc4b63fe019abc98ce43b9ae4a22f2072b84f3d14941dc1675979c295506102e3575b508488528252600281882001549051908152a480f35b8589528184526002838a200155386102cd565b90508385813d8311610342575b61030d8183611239565b8101031261033e577f40a2e1011bc4b63fe019abc98ce43b9ae4a22f2072b84f3d14941dc1675979c29451906102a5565b8880fd5b503d610303565b8b815b610381575b505090610e109291888c528652610369858c2061134a565b878b528552610379848b2061134a565b903880610279565b898d52828852868d2054600019810190811161044b5781101561044657898d52828852868d208282019081831161043457916104298f6103f3838f928d908f8c908f61041a8b8f8f9e906103db61042e9f61040c936112a5565b905490861b1c908c895286526103f38a8a8a206112a5565b90919082549060031b91821b91600019901b1916179055565b8986528484528686206112a5565b9054911b1c96835252206112a5565b611280565b9061034c565b634e487b7160e01b8f5260118b52868ffd5b610351565b634e487b7160e01b8e5260118a52858efd5b815163b7d0949760e01b81528490fd5b504287116101e6565b815162bfc92160e01b81528490fd5b815163d92e233d60e01b81528490fd5b8151633161235360e21b81528490fd5b5087546001600160a01b03163314156101c3565b509034610182576020366003190112610182576104d461118c565b6104dc6111db565b6001600160a01b031691821561055857506003839183835260056020526105048184206113ef565b83835260066020526105178184206113ef565b83835281602052822082815582600182015582600282015501557fcdbcb9fc33d4ebcb82e52be8d4aa4b7392261b8746724086027c2b102d84e37e8280a280f35b905163d92e233d60e01b8152fd5b5090346101825760203660031901126101825761058161118c565b6105896111db565b6001600160a01b0316918215610558575081835260076020528220805460ff191660011790557ffbc99308a04b9b530a8dbc7eb620a7597c4b92ff15390ab23ffdd979b9c592e48280a280f35b5034610182576020366003190112610182576001600160a01b036105f861118c565b1690811561064d575082526005602052610649610628610622838086209560066020522094611424565b93611424565b61063b83519484869586528501906111a7565b9083820360208501526111a7565b0390f35b825163d92e233d60e01b8152fd5b509190346107655760a03660031901126107655761067761118c565b60803660231901126101825761068b6111db565b6001600160a01b031690811561075657602435801561074657606435801561073657608435801561071d578082101561071d57818310801561072d575b61071d578596857fe2f79756b343c74e689e134ccd9aac9c809330dbd99e7342e366ff4867e20f7f9697526020526003848820848155604435938460018301556002820155015582519182526020820152a280f35b8351632ff67a0160e21b81528790fd5b508083116106c8565b8251632ff67a0160e21b81528690fd5b8151632ff67a0160e21b81528590fd5b5163d92e233d60e01b81528390fd5b5080fd5b5091346107ad57816003193601126107ad575061078461118c565b916001600160a01b0383161561055857506107a46020926024359061138a565b90519015158152f35b80fd5b505034610765578160031936011261076557905490516001600160a01b039091168152602090f35b50346101825782600319360112610182576107f16111db565b6002549060ff8216610835575060ff1916600117600255513381527f62e78cea01bee320cd4e420270b5ea74000d11b0c9f74754ebdbfc544b05a25890602090a180f35b825163d93c066560e01b8152fd5b5090346101825780600319360112610182576001600160a01b0361086561118c565b1680156109f55783526005602052808320926006602052818120928454600281106109e6576024936108988535426112d3565b96600019978884019384116109d457906108b284826112a5565b929054600393841b1c945b816108c8828c6112a5565b905490861b1c10156108f35780156108e1578a016108bd565b634e487b7160e01b8852601187528888fd5b8791509261090387948a946112a5565b9054911b1c9485156109c4578581111561095d5785610921916112d3565b926127109384810294818604149015171561094d57505050602092610945916112f3565b905b51908152f35b634e487b7160e01b825260119052fd5b61096a90869293966112d3565b612710908181029181830414901517156109b25790610988916112f3565b91600160ff1b83146109a05750602093500390610947565b634e487b7160e01b8252601190528390fd5b634e487b7160e01b8352601184528583fd5b8451632c06449160e01b81528490fd5b634e487b7160e01b8652601185528686fd5b508251632c06449160e01b8152fd5b505163d92e233d60e01b8152fd5b5034610182578160031936011261018257610a1c61118c565b60243591906001600160a01b03168015610b205782158015610b17575b610b0857845260066020528284206005602052838520928154928315610afa57508560001992815b858110610a8357602088610a758b8a6112a5565b91905490519160031b1c8152f35b83610a8e82846112a5565b905460039291831b1c811115610add5750610ab890610aad83856112a5565b9054911b1c856112d3565b858110610acf575b50610aca90611280565b610a61565b909850935087610aca610ac0565b610af591610aeb84866112a5565b9054911b1c6112d3565b610ab8565b855163af899d2f60e01b8152fd5b50825163b7d0949760e01b8152fd5b50428311610a39565b50825163d92e233d60e01b8152fd5b83346107ad57806003193601126107ad57610b486111db565b80546001600160a01b03198116825581906001600160a01b03167f8be0079c531659141344cd1fd0a4f28419497f9722a3daafe3b4186f6b6457e08280a380f35b50503461076557816003193601126107655760209060ff6002541690519015158152f35b50346101825781600319360112610182576001600160a01b03610bce61118c565b168015610dbb57835260056020528183209060066020528284209382549060028210610dab57602493610c028535426112d3565b908295839860015b868110610c6b578a8a8a8a8315610c5d5750610c2b602093610c30926112f3565b611473565b9060018210610c54575b6103e8808311610c4c575b5051908152f35b915083610c45565b60019150610c3a565b8251632c06449160e01b8152fd5b84610c7682846112a5565b919054600392831b1c1015610c95575b50610c9090611280565b610c0a565b610ca382869d9b939d6112a5565b905490821b1c906000198d018d81119283610d72578e90610cc4838a6112a5565b905490851b1c1015610d8457610cdb8491896112a5565b905490841b1c90610d7257610d0090610cf4838a6112a5565b905490851b1c906112d3565b925b670de0b6b3a764000093848102948186041490151715610d7257610d605792610d4d610d47610d5994610d5394610d3c610c90988c6112a5565b9054911b1c906112f3565b806112e0565b90611313565b99611280565b9a90610c86565b634e487b7160e01b895260118b528589fd5b634e487b7160e01b8a5260118c52868afd5b9250610da58993610cf4610d98848b6112a5565b905490861b1c918a6112a5565b92610d02565b8451632c06449160e01b81528390fd5b50905163d92e233d60e01b8152fd5b5034610182578260031936011261018257610de36111db565b6002549060ff821615610e25575060ff1916600255513381527f5db9ee0a495bf2e6ff9c91a7834c1ba4fdd244a5e8aa4e537bd38aeae4b073aa90602090a180f35b8251638dfc202b60e01b8152fd5b509190346107655780600319360112610765576001600160a01b03610e5661118c565b169283156105585783835260209381855282842093835192610e7784611207565b8554928385526001870154938886019485526060600360028a0154998989019a8b520154960195865215610f5857855163585fd46d60e01b815291820152610e1060248201528681604481305afa918215610f4d578092610f19575b5050610ee6606491610eef9351906112e0565b04602435611313565b9251808410610f11575b5051808311610f09575051908152f35b915038610c45565b925038610ef9565b9091508682813d8311610f46575b610f318183611239565b810103126107ad575051610ee6610eef610ed3565b503d610f27565b8551903d90823e3d90fd5b508451635952c93560e01b8152fd5b5091346107ad5760203660031901126107ad578190610f8461118c565b610f8c61125b565b506001600160a01b03168015611013578152600360205220815191610fb083611207565b81549182845260018101546020850190815260ff60036002840154938588019485520154169360608601941515855215611003576080955082519451855251602085015251908301525115156060820152f35b825163af899d2f60e01b81528690fd5b5050505163d92e233d60e01b8152fd5b50503461076557602036600319011261076557602091906001600160a01b038061104b61118c565b16908184526007855260ff838520541693841561106e575b505050519015158152f35b5416149150388080611063565b5090346101825760203660031901126101825761109661118c565b61109e6111db565b6001600160a01b0316918215610558575081835260076020528220805460ff191690557f1e7404ad525ddabdae986aed5f41bca4fe6e65be9f9136fea1d83f4457924b9d8280a280f35b5091346107ad5760203660031901126107ad57819061110561118c565b61110d61125b565b506001600160a01b03168015611013578152836020522081519161113083611207565b8154918284526001810154602085019081526003600283015492848701938452015493606086019485521561117c57608095508251945185525160208501525190830152516060820152f35b8251635952c93560e01b81528690fd5b600435906001600160a01b03821682036111a257565b600080fd5b90815180825260208080930193019160005b8281106111c7575050505090565b8351855293810193928101926001016111b9565b6000546001600160a01b031633036111ef57565b60405163118cdaa760e01b8152336004820152602490fd5b6080810190811067ffffffffffffffff82111761122357604052565b634e487b7160e01b600052604160045260246000fd5b90601f8019910116810190811067ffffffffffffffff82111761122357604052565b6040519061126882611207565b60006060838281528260208201528260408201520152565b600019811461128f5760010190565b634e487b7160e01b600052601160045260246000fd5b80548210156112bd5760005260206000200190600090565b634e487b7160e01b600052603260045260246000fd5b9190820391821161128f57565b8181029291811591840414171561128f57565b81156112fd570490565b634e487b7160e01b600052601260045260246000fd5b9190820180921161128f57565b908154916801000000000000000083101561122357826103f3916001611348950181556112a5565b565b8054908115611374576000199182019161136483836112a5565b909182549160031b1b1916905555565b634e487b7160e01b600052603160045260246000fd5b60018060a01b0316600052600360205260406000206040516113ab81611207565b815490818152606060ff6003600186015495866020860152600281015460408601520154161515910152156113e8576113e490426112d3565b1190565b5050600190565b8054906000908181558261140257505050565b815260208120918201915b82811061141957505050565b81815560010161140d565b9060405191828154918282526020928383019160005283600020936000905b8282106114595750505061134892500383611239565b855484526001958601958895509381019390910190611443565b9081156114c25760018083146114be5780830180841161128f57811c90835b84831061149e57505050565b909193506114b5846114b081846112f3565b611313565b821c9190611492565b9150565b6000915056fea2646970667358221220b0d62d74350067c87dd368b833aef968c717e83695caab88cb89682df40fdea064736f6c63430008140033",
  "linkReferences": {},
  "deployedLinkReferences": {}
}