{
  "_format": "hh-sol-artifact-1",
  "contractName": "inchbyinchBot",
  "sourceName": "contracts/inchbyinchBot.sol",
  "abi": [
    {
      "inputs": [],
      "stateMutability": "nonpayable",
      "type": "constructor"
    },
    {
      "inputs": [],
      "name": "EnforcedPause",
      "type": "error"
    },
    {
      "inputs": [],
      "name": "ExceedsBudget",
      "type": "error"
    },
    {
      "inputs": [],
      "name": "ExpectedPause",
      "type": "error"
    },
    {
      "inputs": [],
      "name": "InsufficientBalance",
      "type": "error"
    },
    {
      "inputs": [],
      "name": "InvalidBudget",
      "type": "error"
    },
    {
      "inputs": [],
      "name": "InvalidExpiry",
      "type": "error"
    },
    {
      "inputs": [],
      "name": "InvalidOrderSize",
      "type": "error"
    },
    {
      "inputs": [],
      "name": "InvalidPrice",
      "type": "error"
    },
    {
      "inputs": [],
      "name": "InvalidSpacing",
      "type": "error"
    },
    {
      "inputs": [],
      "name": "InvalidStopLoss",
      "type": "error"
    },
    {
      "inputs": [],
      "name": "InvalidStrategy",
      "type": "error"
    },
    {
      "inputs": [],
      "name": "InvalidTakeProfit",
      "type": "error"
    },
    {
      "inputs": [],
      "name": "OrderAlreadyCanceled",
      "type": "error"
    },
    {
      "inputs": [],
      "name": "OrderAlreadyExists",
      "type": "error"
    },
    {
      "inputs": [],
      "name": "OrderAlreadyFilled",
      "type": "error"
    },
    {
      "inputs": [],
      "name": "OrderNotFound",
      "type": "error"
    },
    {
      "inputs": [
        {
          "internalType": "address",
          "name": "owner",
          "type": "address"
        }
      ],
      "name": "OwnableInvalidOwner",
      "type": "error"
    },
    {
      "inputs": [
        {
          "internalType": "address",
          "name": "account",
          "type": "address"
        }
      ],
      "name": "OwnableUnauthorizedAccount",
      "type": "error"
    },
    {
      "inputs": [],
      "name": "ReentrancyGuardReentrantCall",
      "type": "error"
    },
    {
      "inputs": [
        {
          "internalType": "address",
          "name": "token",
          "type": "address"
        }
      ],
      "name": "SafeERC20FailedOperation",
      "type": "error"
    },
    {
      "inputs": [],
      "name": "StopLossTriggered",
      "type": "error"
    },
    {
      "inputs": [],
      "name": "StrategyAlreadyActive",
      "type": "error"
    },
    {
      "inputs": [],
      "name": "StrategyExpired",
      "type": "error"
    },
    {
      "inputs": [],
      "name": "StrategyNotActive",
      "type": "error"
    },
    {
      "inputs": [],
      "name": "TakeProfitTriggered",
      "type": "error"
    },
    {
      "inputs": [],
      "name": "UnauthorizedCaller",
      "type": "error"
    },
    {
      "inputs": [],
      "name": "ZeroAddress",
      "type": "error"
    },
    {
      "inputs": [],
      "name": "ZeroAmount",
      "type": "error"
    },
    {
      "anonymous": false,
      "inputs": [
        {
          "indexed": true,
          "internalType": "bytes32",
          "name": "orderHash",
          "type": "bytes32"
        },
        {
          "indexed": true,
          "internalType": "uint256",
          "name": "orderIndex",
          "type": "uint256"
        },
        {
          "indexed": false,
          "internalType": "uint256",
          "name": "filledAmount",
          "type": "uint256"
        },
        {
          "indexed": false,
          "internalType": "uint256",
          "name": "price",
          "type": "uint256"
        }
      ],
      "name": "OrderFilled",
      "type": "event"
    },
    {
      "anonymous": false,
      "inputs": [
        {
          "indexed": true,
          "internalType": "bytes32",
          "name": "orderHash",
          "type": "bytes32"
        },
        {
          "indexed": true,
          "internalType": "uint256",
          "name": "orderIndex",
          "type": "uint256"
        },
        {
          "indexed": false,
          "internalType": "uint256",
          "name": "price",
          "type": "uint256"
        },
        {
          "indexed": false,
          "internalType": "uint256",
          "name": "orderSize",
          "type": "uint256"
        }
      ],
      "name": "OrderPlaced",
      "type": "event"
    },
    {
      "anonymous": false,
      "inputs": [
        {
          "indexed": true,
          "internalType": "bytes32",
          "name": "oldOrderHash",
          "type": "bytes32"
        },
        {
          "indexed": true,
          "internalType": "bytes32",
          "name": "newOrderHash",
          "type": "bytes32"
        },
        {
          "indexed": false,
          "internalType": "uint256",
          "name": "newPrice",
          "type": "uint256"
        },
        {
          "indexed": false,
          "internalType": "uint256",
          "name": "orderIndex",
          "type": "uint256"
        }
      ],
      "name": "OrderReposted",
      "type": "event"
    },
    {
      "anonymous": false,
      "inputs": [
        {
          "indexed": true,
          "internalType": "address",
          "name": "previousOwner",
          "type": "address"
        },
        {
          "indexed": true,
          "internalType": "address",
          "name": "newOwner",
          "type": "address"
        }
      ],
      "name": "OwnershipTransferred",
      "type": "event"
    },
    {
      "anonymous": false,
      "inputs": [
        {
          "indexed": false,
          "internalType": "address",
          "name": "account",
          "type": "address"
        }
      ],
      "name": "Paused",
      "type": "event"
    },
    {
      "anonymous": false,
      "inputs": [],
      "name": "StrategyCancelled",
      "type": "event"
    },
    {
      "anonymous": false,
      "inputs": [
        {
          "indexed": false,
          "internalType": "uint256",
          "name": "totalFilled",
          "type": "uint256"
        },
        {
          "indexed": false,
          "internalType": "uint256",
          "name": "totalSpent",
          "type": "uint256"
        },
        {
          "indexed": false,
          "internalType": "uint256",
          "name": "profit",
          "type": "uint256"
        }
      ],
      "name": "StrategyCompleted",
      "type": "event"
    },
    {
      "anonymous": false,
      "inputs": [
        {
          "indexed": true,
          "internalType": "address",
          "name": "makerAsset",
          "type": "address"
        },
        {
          "indexed": true,
          "internalType": "address",
          "name": "takerAsset",
          "type": "address"
        },
        {
          "indexed": false,
          "internalType": "uint256",
          "name": "startPrice",
          "type": "uint256"
        },
        {
          "indexed": false,
          "internalType": "uint256",
          "name": "spacing",
          "type": "uint256"
        },
        {
          "indexed": false,
          "internalType": "uint256",
          "name": "orderSize",
          "type": "uint256"
        },
        {
          "indexed": false,
          "internalType": "uint256",
          "name": "numOrders",
          "type": "uint256"
        },
        {
          "indexed": false,
          "internalType": "uint256",
          "name": "strategyType",
          "type": "uint256"
        }
      ],
      "name": "StrategyCreated",
      "type": "event"
    },
    {
      "anonymous": false,
      "inputs": [
        {
          "indexed": false,
          "internalType": "address",
          "name": "account",
          "type": "address"
        }
      ],
      "name": "Unpaused",
      "type": "event"
    },
    {
      "inputs": [],
      "name": "MAX_ORDERS",
      "outputs": [
        {
          "internalType": "uint256",
          "name": "",
          "type": "uint256"
        }
      ],
      "stateMutability": "view",
      "type": "function"
    },
    {
      "inputs": [],
      "name": "MAX_ORDER_SIZE",
      "outputs": [
        {
          "internalType": "uint256",
          "name": "",
          "type": "uint256"
        }
      ],
      "stateMutability": "view",
      "type": "function"
    },
    {
      "inputs": [],
      "name": "MAX_SPACING",
      "outputs": [
        {
          "internalType": "uint256",
          "name": "",
          "type": "uint256"
        }
      ],
      "stateMutability": "view",
      "type": "function"
    },
    {
      "inputs": [],
      "name": "MIN_ORDER_SIZE",
      "outputs": [
        {
          "internalType": "uint256",
          "name": "",
          "type": "uint256"
        }
      ],
      "stateMutability": "view",
      "type": "function"
    },
    {
      "inputs": [],
      "name": "MIN_SPACING",
      "outputs": [
        {
          "internalType": "uint256",
          "name": "",
          "type": "uint256"
        }
      ],
      "stateMutability": "view",
      "type": "function"
    },
    {
      "inputs": [],
      "name": "REPOST_NEXT_PRICE",
      "outputs": [
        {
          "internalType": "uint256",
          "name": "",
          "type": "uint256"
        }
      ],
      "stateMutability": "view",
      "type": "function"
    },
    {
      "inputs": [],
      "name": "REPOST_SAME_PRICE",
      "outputs": [
        {
          "internalType": "uint256",
          "name": "",
          "type": "uint256"
        }
      ],
      "stateMutability": "view",
      "type": "function"
    },
    {
      "inputs": [],
      "name": "REPOST_SKIP",
      "outputs": [
        {
          "internalType": "uint256",
          "name": "",
          "type": "uint256"
        }
      ],
      "stateMutability": "view",
      "type": "function"
    },
    {
      "inputs": [],
      "name": "STRATEGY_BUY_LADDER",
      "outputs": [
        {
          "internalType": "uint256",
          "name": "",
          "type": "uint256"
        }
      ],
      "stateMutability": "view",
      "type": "function"
    },
    {
      "inputs": [],
      "name": "STRATEGY_BUY_SELL",
      "outputs": [
        {
          "internalType": "uint256",
          "name": "",
          "type": "uint256"
        }
      ],
      "stateMutability": "view",
      "type": "function"
    },
    {
      "inputs": [],
      "name": "STRATEGY_SELL_LADDER",
      "outputs": [
        {
          "internalType": "uint256",
          "name": "",
          "type": "uint256"
        }
      ],
      "stateMutability": "view",
      "type": "function"
    },
    {
      "inputs": [],
      "name": "cancelAllOrders",
      "outputs": [],
      "stateMutability": "nonpayable",
      "type": "function"
    },
    {
      "inputs": [
        {
          "internalType": "uint256",
          "name": "orderIndex",
          "type": "uint256"
        }
      ],
      "name": "cancelOrder",
      "outputs": [],
      "stateMutability": "nonpayable",
      "type": "function"
    },
    {
      "inputs": [
        {
          "internalType": "address",
          "name": "makerAsset",
          "type": "address"
        },
        {
          "internalType": "address",
          "name": "takerAsset",
          "type": "address"
        },
        {
          "internalType": "uint256",
          "name": "startPrice",
          "type": "uint256"
        },
        {
          "internalType": "uint256",
          "name": "spacing",
          "type": "uint256"
        },
        {
          "internalType": "uint256",
          "name": "orderSize",
          "type": "uint256"
        },
        {
          "internalType": "uint256",
          "name": "numOrders",
          "type": "uint256"
        },
        {
          "internalType": "uint256",
          "name": "strategyType",
          "type": "uint256"
        },
        {
          "internalType": "uint256",
          "name": "repostMode",
          "type": "uint256"
        },
        {
          "internalType": "uint256",
          "name": "budget",
          "type": "uint256"
        },
        {
          "internalType": "uint256",
          "name": "stopLoss",
          "type": "uint256"
        },
        {
          "internalType": "uint256",
          "name": "takeProfit",
          "type": "uint256"
        },
        {
          "internalType": "uint256",
          "name": "expiryTime",
          "type": "uint256"
        }
      ],
      "name": "createStrategy",
      "outputs": [],
      "stateMutability": "nonpayable",
      "type": "function"
    },
    {
      "inputs": [],
      "name": "getActiveOrders",
      "outputs": [
        {
          "internalType": "uint256[]",
          "name": "activeOrders",
          "type": "uint256[]"
        }
      ],
      "stateMutability": "view",
      "type": "function"
    },
    {
      "inputs": [
        {
          "internalType": "uint256",
          "name": "orderIndex",
          "type": "uint256"
        }
      ],
      "name": "getOrder",
      "outputs": [
        {
          "components": [
            {
              "internalType": "bytes32",
              "name": "orderHash",
              "type": "bytes32"
            },
            {
              "internalType": "uint256",
              "name": "price",
              "type": "uint256"
            },
            {
              "internalType": "uint256",
              "name": "orderIndex",
              "type": "uint256"
            },
            {
              "internalType": "bool",
              "name": "isActive",
              "type": "bool"
            },
            {
              "internalType": "uint256",
              "name": "createdAt",
              "type": "uint256"
            }
          ],
          "internalType": "struct inchbyinchBot.Order",
          "name": "order",
          "type": "tuple"
        }
      ],
      "stateMutability": "view",
      "type": "function"
    },
    {
      "inputs": [],
      "name": "getStrategyPerformance",
      "outputs": [
        {
          "internalType": "uint256",
          "name": "totalFilled",
          "type": "uint256"
        },
        {
          "internalType": "uint256",
          "name": "totalSpent",
          "type": "uint256"
        },
        {
          "internalType": "int256",
          "name": "profit",
          "type": "int256"
        }
      ],
      "stateMutability": "view",
      "type": "function"
    },
    {
      "inputs": [
        {
          "internalType": "bytes32",
          "name": "orderHash",
          "type": "bytes32"
        },
        {
          "internalType": "uint256",
          "name": "filledAmount",
          "type": "uint256"
        },
        {
          "internalType": "uint256",
          "name": "remainingAmount",
          "type": "uint256"
        }
      ],
      "name": "handleOrderFill",
      "outputs": [],
      "stateMutability": "nonpayable",
      "type": "function"
    },
    {
      "inputs": [
        {
          "internalType": "address",
          "name": "_lop",
          "type": "address"
        },
        {
          "internalType": "address",
          "name": "_orderManager",
          "type": "address"
        },
        {
          "internalType": "address",
          "name": "_oracleAdapter",
          "type": "address"
        }
      ],
      "name": "initialize",
      "outputs": [],
      "stateMutability": "nonpayable",
      "type": "function"
    },
    {
      "inputs": [],
      "name": "lop",
      "outputs": [
        {
          "internalType": "contract I1inchLOP",
          "name": "",
          "type": "address"
        }
      ],
      "stateMutability": "view",
      "type": "function"
    },
    {
      "inputs": [],
      "name": "oracleAdapter",
      "outputs": [
        {
          "internalType": "contract IOracleAdapter",
          "name": "",
          "type": "address"
        }
      ],
      "stateMutability": "view",
      "type": "function"
    },
    {
      "inputs": [
        {
          "internalType": "bytes32",
          "name": "",
          "type": "bytes32"
        }
      ],
      "name": "orderIndexByHash",
      "outputs": [
        {
          "internalType": "uint256",
          "name": "",
          "type": "uint256"
        }
      ],
      "stateMutability": "view",
      "type": "function"
    },
    {
      "inputs": [],
      "name": "orderManager",
      "outputs": [
        {
          "internalType": "contract IOrderManager",
          "name": "",
          "type": "address"
        }
      ],
      "stateMutability": "view",
      "type": "function"
    },
    {
      "inputs": [
        {
          "internalType": "uint256",
          "name": "",
          "type": "uint256"
        }
      ],
      "name": "orders",
      "outputs": [
        {
          "internalType": "bytes32",
          "name": "orderHash",
          "type": "bytes32"
        },
        {
          "internalType": "uint256",
          "name": "price",
          "type": "uint256"
        },
        {
          "internalType": "uint256",
          "name": "orderIndex",
          "type": "uint256"
        },
        {
          "internalType": "bool",
          "name": "isActive",
          "type": "bool"
        },
        {
          "internalType": "uint256",
          "name": "createdAt",
          "type": "uint256"
        }
      ],
      "stateMutability": "view",
      "type": "function"
    },
    {
      "inputs": [],
      "name": "owner",
      "outputs": [
        {
          "internalType": "address",
          "name": "",
          "type": "address"
        }
      ],
      "stateMutability": "view",
      "type": "function"
    },
    {
      "inputs": [],
      "name": "pause",
      "outputs": [],
      "stateMutability": "nonpayable",
      "type": "function"
    },
    {
      "inputs": [],
      "name": "paused",
      "outputs": [
        {
          "internalType": "bool",
          "name": "",
          "type": "bool"
        }
      ],
      "stateMutability": "view",
      "type": "function"
    },
    {
      "inputs": [],
      "name": "placeLadderOrders",
      "outputs": [],
      "stateMutability": "nonpayable",
      "type": "function"
    },
    {
      "inputs": [],
      "name": "renounceOwnership",
      "outputs": [],
      "stateMutability": "nonpayable",
      "type": "function"
    },
    {
      "inputs": [],
      "name": "strategy",
      "outputs": [
        {
          "internalType": "address",
          "name": "makerAsset",
          "type": "address"
        },
        {
          "internalType": "address",
          "name": "takerAsset",
          "type": "address"
        },
        {
          "internalType": "uint256",
          "name": "startPrice",
          "type": "uint256"
        },
        {
          "internalType": "uint256",
          "name": "spacing",
          "type": "uint256"
        },
        {
          "internalType": "uint256",
          "name": "orderSize",
          "type": "uint256"
        },
        {
          "internalType": "uint256",
          "name": "numOrders",
          "type": "uint256"
        },
        {
          "internalType": "uint256",
          "name": "strategyType",
          "type": "uint256"
        },
        {
          "internalType": "uint256",
          "name": "repostMode",
          "type": "uint256"
        },
        {
          "internalType": "uint256",
          "name": "budget",
          "type": "uint256"
        },
        {
          "internalType": "uint256",
          "name": "stopLoss",
          "type": "uint256"
        },
        {
          "internalType": "uint256",
          "name": "takeProfit",
          "type": "uint256"
        },
        {
          "internalType": "uint256",
          "name": "expiryTime",
          "type": "uint256"
        },
        {
          "internalType": "bool",
          "name": "isActive",
          "type": "bool"
        },
        {
          "internalType": "uint256",
          "name": "currentOrderIndex",
          "type": "uint256"
        },
        {
          "internalType": "uint256",
          "name": "totalFilled",
          "type": "uint256"
        },
        {
          "internalType": "uint256",
          "name": "totalSpent",
          "type": "uint256"
        }
      ],
      "stateMutability": "view",
      "type": "function"
    },
    {
      "inputs": [
        {
          "internalType": "address",
          "name": "newOwner",
          "type": "address"
        }
      ],
      "name": "transferOwnership",
      "outputs": [],
      "stateMutability": "nonpayable",
      "type": "function"
    },
    {
      "inputs": [],
      "name": "unpause",
      "outputs": [],
      "stateMutability": "nonpayable",
      "type": "function"
    },
    {
      "inputs": [
        {
          "internalType": "address",
          "name": "token",
          "type": "address"
        },
        {
          "internalType": "uint256",
          "name": "amount",
          "type": "uint256"
        }
      ],
      "name": "withdrawTokens",
      "outputs": [],
      "stateMutability": "nonpayable",
      "type": "function"
    }
  ],
  "bytecode": "0x6080806040523461007e5733156100685760008054336001600160a01b03198216811783556040519290916001600160a01b0316907f8be0079c531659141344cd1fd0a4f28419497f9722a3daafe3b4186f6b6457e09080a36001805561211790816100848239f35b631e4fbdf760e01b815260006004820152602490fd5b600080fdfe60a0604052600436101561001257600080fd5b6000803560e01c806286e68b1461137e578063028afabf146112e057806306b091f914611229578063183540441461101657806320b3d35814610e0d5780632bf8ff4c1461057a5780633bfe248314610d7b5780633d9f316314610d525780633f4ba83a14610ce7578063514fcac714610c5f57806351570fdd1461023d57806355bb366e146107175780635c975abb146106f457806361555e2e146106d0578063627cb7f814610416578063715018a614610676578063716df225146106595780638456cb59146105eb5780638da5cb5b146105c457806393254b0e146105a85780639ccf88c71461057f5780639f215fa51461057a578063a832a06514610550578063a85c38ef146104f4578063a8c62e761461041b578063ac0e764e14610416578063c0c53b8b14610341578063d09ef24114610264578063d3f82d8e14610242578063e3d260901461023d578063f160991b1461023d578063f2fde38b146101b25763f9b6117f1461018757600080fd5b346101af57806003193601126101af576016546040516001600160a01b039091168152602090f35b80fd5b50346101af5760203660031901126101af576101cc6114c8565b6101d4611548565b6001600160a01b0390811690811561022457600054826001600160601b0360a01b821617600055167f8be0079c531659141344cd1fd0a4f28419497f9722a3daafe3b4186f6b6457e0600080a380f35b604051631e4fbdf760e01b815260048101849052602490fd5b611510565b50346101af57806003193601126101af57602060405166038d7ea4c680008152f35b50346101af5760203660031901126101af5760043581608060405161028881611588565b828152826020820152826040820152826060820152015280158015610336575b610324578160409160a093526013602052206040516102c681611588565b815491828252600181015460208301908152600282015490604084019182526080600460ff60038601541694606087019515158652015494019384526040519485525160208501525160408401525115156060830152516080820152f35b60405163d36d896560e01b8152600490fd5b5060105481116102a8565b50346101af5760603660031901126101af5761035b6114c8565b6103636114de565b6044356001600160a01b03818116939092918490036104115782169081156103ff5782169081156103ff5783156103ff576015549283166103c4576001600160601b0360a01b80931617601555816016541617601655601754161760175580f35b60405162461bcd60e51b8152602060048201526013602482015272105b1c9958591e481a5b9a5d1a585b1a5e9959606a1b6044820152606490fd5b60405163d92e233d60e01b8152600490fd5b600080fd5b61152c565b50346101af57806003193601126101af5760018060a01b0380600354169060045416600554600654600754600854600954600a54600b5490600c5492600d5494600e549660ff600f5416986010549a6011549c6012549e604051806080525260206080510152604060805101526060608051015260808051015260a0608051015260c0608051015260e060805101526101006080510152610120608051015261014060805101526101606080510152151561018060805101526101a060805101526101c060805101526101e06080510152610200608051f35b50346101af5760203660031901126101af57604060a09160043581526013602052208054906001810154906002810154600460ff6003840154169201549260405194855260208501526040840152151560608301526080820152f35b50346101af5760203660031901126101af5760406020916004358152601483522054604051908152f35b6114f4565b50346101af57806003193601126101af576015546040516001600160a01b039091168152602090f35b50346101af57806003193601126101af57602060405160328152f35b50346101af57806003193601126101af57546040516001600160a01b039091168152602090f35b50346101af57806003193601126101af57610604611548565b60025460ff81166106475760019060ff1916176002557f62e78cea01bee320cd4e420270b5ea74000d11b0c9f74754ebdbfc544b05a2586020604051338152a180f35b60405163d93c066560e01b8152600490fd5b50346101af57806003193601126101af5760206040516103e88152f35b50346101af57806003193601126101af5761068f611548565b600080546001600160a01b0319811682556001600160a01b03167f8be0079c531659141344cd1fd0a4f28419497f9722a3daafe3b4186f6b6457e08280a380f35b50346101af57806003193601126101af576020604051683635c9adc5dea000008152f35b50346101af57806003193601126101af57602060ff600254166040519015158152f35b50346101af576101803660031901126101af576107326114c8565b61073a6114de565b610742611548565b6001600160a01b038216156103ff576001600160a01b038116156103ff5760443515610c4e576001606435108015610c41575b610c2f5766038d7ea4c68000608435108015610c1b575b610c0957600f5460ff8116610bf75760a435158015610beb575b610bd957600260c43511610bd957600260e43511610bd9576101043515610bc75742610164351115610bb65761012435151580610ba7575b610b955761014435151580610b86575b610b74576040516370a0823160e01b81523060048201526020816024816001600160a01b0388165afa908115610b69578591610b37575b506040516370a0823160e01b8152306004820152906020826024816001600160a01b0388165afa918215610b2c578692610af8575b5060c435610aa457506101043511610a92575b604051908161020081011067ffffffffffffffff61020084011117610a7c57846101e08361020060019501604052848060a01b0387168152848060a01b038616602082015260443560408201526064356060820152608435608082015260a43560a082015260c43560c082015260e43560e08201526101043561010082015261012435610120820152610144356101408201526101643561016082015284610180820152826101a0820152826101c082015201526001600160601b0360a01b828060a01b038516816003541617600355828060a01b03841690600454161760045560443560055560643560065560843560075560a43560085560c43560095560e435600a5561010435600b5561012435600c5561014435600d5561016435600e5560ff191617600f558260105582601155826012558260018060a01b036016541660018060a01b03825416813b15610a6d578291606483926040519485938492634be8f2dd60e01b8452306004850152602484015260c43560448401525af18015610a7157610a59575b50507ff7199c0ca31732b7bbcccf1c8a1db62ea93b2621a474cbce899b5a3a69d828f460a06040519260443584526064356020850152608435604085015260a435606085015260c4356080850152600180831b031693600180831b031692a380f35b610a6290611574565b610a6d5782386109f7565b8280fd5b6040513d84823e3d90fd5b634e487b7160e01b600052604160045260246000fd5b604051631e9acf1760e31b8152600490fd5b9060c435600103610ad65750610abe60a4356084356115ff565b111561086d57604051631e9acf1760e31b8152600490fd5b9050600260c43514610ae9575b5061086d565b6101043511610a925738610ae3565b9091506020813d602011610b24575b81610b14602093836115dd565b810103126104115751903861085a565b3d9150610b07565b6040513d88823e3d90fd5b90506020813d602011610b61575b81610b52602093836115dd565b81010312610411575138610825565b3d9150610b45565b6040513d87823e3d90fd5b60405163113f495360e21b8152600490fd5b506044356101443511156107ee565b604051637cb1aa0160e01b8152600490fd5b506044356101243510156107de565b60405162d36c8560e81b8152600490fd5b604051630757bfc960e21b8152600490fd5b604051632711b74d60e11b8152600490fd5b50603260a435116107a6565b60405163c976754d60e01b8152600490fd5b604051630bc2906760e01b8152600490fd5b50683635c9adc5dea000006084351161078c565b604051636682a97b60e11b8152600490fd5b506103e860643511610775565b60405162bfc92160e01b8152600490fd5b50346101af5760203660031901126101af57600435610c7c611548565b60ff600f541615610cd55780158015610cca575b61032457808252601360205260ff60036040842001541615610cb857610cb590611dea565b80f35b604051630a911f0960e01b8152600490fd5b506010548111610c90565b604051631b92e95360e31b8152600490fd5b50346101af57806003193601126101af57610d00611548565b60025460ff811615610d405760ff19166002557f5db9ee0a495bf2e6ff9c91a7834c1ba4fdd244a5e8aa4e537bd38aeae4b073aa6020604051338152a180f35b604051638dfc202b60e01b8152600490fd5b50346101af57806003193601126101af576017546040516001600160a01b039091168152602090f35b50346101af57806003193601126101af57601154601254600954606093919080610dda57509050610dc681670de0b6b3a7640000610dc0610dba611f7d565b866115ff565b04611669565b905b60405192835260208301526040820152f35b600103610dc8579050610e07670de0b6b3a7640000610e00610dfa611f7d565b856115ff565b0482611669565b90610dc8565b50346101af5760603660031901126101af5780546001600160a01b0390604435906004359060243590841633141580610fa1575b610f8f578185526014602052604085205493841561032457848652601360205260408620600381019460ff86541615610cb85760018892610e90831598891560ff801983541691151516179055565b610e9c86601154611635565b6011550192610ec1670de0b6b3a7640000610eb88654886115ff565b04601254611635565b60125560165416803b15610a6d576064839260405194859384926389389f3160e01b84528a600485015289602485015260448401525af18015610f8457610f48575b5060408593927fe678418be901ac9a27919225bd4d60e450082ef609d1c5e6790e2a201b0e0430925482519182526020820152a3610f3f575080f35b610cb590611a3e565b8593927fe678418be901ac9a27919225bd4d60e450082ef609d1c5e6790e2a201b0e04309297610f79604093611574565b979250929350610f03565b6040513d89823e3d90fd5b604051635c427cd960e01b8152600490fd5b5060246020856016541660405192838092633220c85960e11b82523060048301525afa908115610b2c578691610fd9575b5015610e41565b90506020813d821161100e575b81610ff3602093836115dd565b8101031261100a5761100490611628565b38610fd2565b8580fd5b3d9150610fe6565b50346101af57806003193601126101af5761102f611548565b60ff600f541615610cd557611042611f7d565b600c54801515908161121e575b5061120c57600d548015159182611201575b50506111ef57600e5442116111dd57600954806110d65750611081611f7d565b611089612059565b825b6008548110156110d0576110a86110a283836115ff565b84611682565b9081156110c9576110bf6110c4926007549061174d565b611642565b61108b565b5050505080f35b50505080f35b60019080820361113857506110e9611f7d565b906110f2612059565b83825b611100575050505080f35b60085481101561113357806110bf61112461111e8561112d956115ff565b87611635565b600754906119e4565b826110f5565b6110c9565b600214611143575080f35b61114b611f7d565b90611154612059565b8180805b611197575b50805b61116b575050505080f35b600854831c811161113357611191816110bf61112461118b8688966115ff565b88611635565b90611160565b600854821c81116111d8576111b56111af84836115ff565b86611682565b9081156111d2576110bf6111cc926007549061174d565b81611158565b5061115d565b61115d565b60405163010bfb6d60e61b8152600490fd5b604051630e25c9bf60e21b8152600490fd5b101590503880611061565b604051637f39d2b760e01b8152600490fd5b90508111153861104f565b50346101af5760403660031901126101af576112436114c8565b61124b611548565b815460405163a9059cbb60e01b60208083019182526001600160a01b0393841660248085019190915235604480850191909152835293909216929184916112936064826115dd565b519082855af1156112d35781513d6112ca5750803b155b6112b2575080f35b60249060405190635274afe760e01b82526004820152fd5b600114156112aa565b50604051903d90823e3d90fd5b50346101af57806003193601126101af576112f9611548565b60ff80600f541615610cd55760019081805b611342575b8360ff19600f5416600f557f52aa97daed5e7adcd2e1538f5a054de116b9ed2f299ee99fc0715359a3f6aee58180a180f35b6010548111611379578061136a91855260136020528260036040872001541661137057611642565b8261130b565b6110bf81611dea565b611310565b50346101af57806003193601126101af57601054600182815b8381111561148457506113c26113ac85611651565b946113ba60405196876115dd565b808652611651565b9360209384820195601f19013687378290845b81811115611416575050506040519380850191818652518092526040850195925b8281106114035785870386f35b83518752958101959281019284016113f6565b8085979495989698526013845260ff600360408920015416611448575b61143c90611642565b969496959392956113d5565b9184518110156114705761146881848661143c9460051b89010152611642565b929050611433565b634e487b7160e01b87526032600452602487fd5b80829493959252601360205260ff6003604086200154166114b3575b6114a990611642565b9391929093611397565b906114c06114a991611642565b9190506114a0565b600435906001600160a01b038216820361041157565b602435906001600160a01b038216820361041157565b3461041157600036600319011261041157602060405160008152f35b3461041157600036600319011261041157602060405160018152f35b3461041157600036600319011261041157602060405160028152f35b6000546001600160a01b0316330361155c57565b60405163118cdaa760e01b8152336004820152602490fd5b67ffffffffffffffff8111610a7c57604052565b60a0810190811067ffffffffffffffff821117610a7c57604052565b610140810190811067ffffffffffffffff821117610a7c57604052565b6060810190811067ffffffffffffffff821117610a7c57604052565b90601f8019910116810190811067ffffffffffffffff821117610a7c57604052565b8181029291811591840414171561161257565b634e487b7160e01b600052601160045260246000fd5b5190811515820361041157565b9190820180921161161257565b60001981146116125760010190565b67ffffffffffffffff8111610a7c5760051b60200190565b8181039291600013801582851316918412161761161257565b9190820391821161161257565b60209182825280518383015260018060a01b0380848301511660408401528060408301511660608401528060608301511660808401528060808301511660a084015260a08201511660c083015260c081015160e083015260e08101516101009081840152810151906101209182840152015191610140808301528251928361016084015260005b84811061173857505050610180916000838284010152601f8019910116010190565b81810183015184820161018001528201611716565b611758601054611642565b908160105560409081519360209485810190428252858582015284815261177e816115c1565b5190209360018060a01b038060045416816003541690670de0b6b3a76400006117a787876115ff565b048751936304167a6b60e31b8b860152600095866024870152866044870152866064870152606486526117d986611588565b89519a6117e58c6115a4565b8b528b8b01938452898b019485523060608c01523060808c01528660a08c015260c08b019588875260e08c01938452876101008d01526101208c01528b61184583601554168c51809e8193829163110ddbff60e21b83526004830161168f565b03915afa9a8b156119da57908c9594939291889c611998575b50928b9288928c6004856118cc8f998c60c49b86519661187d88611588565b8c885282880191825260138189019385855260608a01956001875260808b0198428a5252528b2096518755516001870155516002860155511515600385019060ff801983541691151516179055565b51910155601054858552601489528d85205580806016541693511696511697519051908c519889978896636c50dcc160e11b8852600488015230602488015260448701526064860152608485015260a48401525af1801561198e57908791611965575b505050907f6239ab9e61392c8ae40f6f0fb586f4ac54c41e09738751365887176c30bb08099291601054958351928352820152a3565b813d8311611987575b61197881836115dd565b810103126101af57858161192f565b503d61196e565b85513d84823e3d90fd5b809293949597989c508691963d83116119d3575b6119b681836115dd565b810103126119cf57519995948b9490939291908961185e565b8a80fd5b503d6119ac565b8a513d89823e3d90fd5b6119ef601054611642565b9081601055604090815193602094858101904282528585820152848152611a15816115c1565b5190209360018060a01b038060035416816004541690670de0b6b3a76400006117a787876115ff565b600a549060028214611de6576000908152602091601383526040908183206001810154916001839114611d9f575b5081611a7a575b5050505050565b600754611b906009541586611a90601054611642565b8060105587518a810190428252828a820152898152611aae816115c1565b519020928015611d8d576004546001600160a01b0316905b15611d79576003546001600160a01b03169189905b8c670de0b6b3a7640000611aef8c8b6115ff565b049683516304167a6b60e31b8382015287602482015287604482015287606482015260648152611b1e81611588565b845191611b2a836115a4565b82528282019560018060a01b03958680921688528301971687523060608301523060808301528760a083015260c08201978b895260e08301998a5261010083015261012082015283601554168d5180809b819463110ddbff60e21b83526004830161168f565b03915afa968715611d6f57918d959493918c8c8f95869b611d29575b5060c49695949392611c188a846004948f965196611bc988611588565b875282870190815281870191858352601360608901946001865260808a01974289528d52528a2096518755516001870155516002860155511515600385019060ff801983541691151516179055565b51910155601054898452601488528d842055808060165416925116935116945196518c519788968795636c50dcc160e11b87528b600488015230602488015260448701526064860152608485015260a48401525af18015611d1f57908891611cf6575b50509380939281927f1112ee369666deb054b7a2b6d507c60e60ff930b7a3e64945ed408cf735448c0967f6239ab9e61392c8ae40f6f0fb586f4ac54c41e09738751365887176c30bb08096010549586938151908982528d820152a35495828152601388522054958351928352820152a33880808080611a73565b813d8311611d18575b611d0981836115dd565b8101031261100a578638611c7b565b503d611cff565b86513d89823e3d90fd5b9497999a5050509250929481813d8311611d68575b611d4881836115dd565b81010312611d64575195948c94909390928c928c8c60c4611bac565b8b80fd5b503d611d3e565b8b513d8e823e3d90fd5b6004546001600160a01b0316918990611adb565b6003546001600160a01b031690611ac6565b60095480611dc45750611dbc919250611db6612059565b90611682565b905b38611a6c565b6001915003611dbe5790611de090611dda612059565b90611635565b90611dbe565b5050565b6000908082526013602052604090818320908251602081019142835284820152838152611e16816115c1565b51902060018060a01b03908160035416826004541660075490670de0b6b3a7640000611e466001880154846115ff565b0492875194611e54866115a4565b85526020850152868401523060608401523060808401528660a084015260c083015260e08201528461010082015283516020810181811067ffffffffffffffff821117611f69578552858152610120820152816015541690813b1561100a57611ed58692839287519485809481936316cd2b7b60e11b83526004830161168f565b03925af18015611f5f57611f4c575b506003820160ff198154169055601654169054813b15611f4857829160248594928593519586938492637489ec2360e01b845260048401525af1908115611f3f5750611f2e575050565b611f388291611574565b6101af5750565b513d84823e3d90fd5b8380fd5b611f5890949194611574565b9238611ee4565b84513d87823e3d90fd5b634e487b7160e01b87526041600452602487fd5b6017546003546040516302c68be360e31b81526001600160a01b0391821660048201529160809183916024918391165afa8091600091611fc9575b5090611fc5575060055490565b5190565b6080813d8211612051575b81611fe1608093836115dd565b8101031261204d5760405191608083019083821067ffffffffffffffff831117612039575061202e9160609160405280518452602081015160208501526040810151604085015201611628565b606082015238611fb8565b634e487b7160e01b81526041600452602490fd5b5080fd5b3d9150611fd4565b601754600354600654604051632ca81a5160e01b81526001600160a01b039283166004820152602481018290529092909160209183916044918391165afa600091816120ae575b506120a9575090565b905090565b90916020823d82116120d9575b816120c8602093836115dd565b810103126101af57505190386120a0565b3d91506120bb56fea2646970667358221220fd1735cb41e1d38621abccce9126b00fba5ab472ecce0c7a477ca22d98d906f164736f6c63430008140033",
  "linkReferences": {},
  "deployedLinkReferences": {}
}